{
  "_format": "hh-sol-artifact-1",
  "contractName": "NEBAcore",
  "sourceName": "contracts/modules/NEBAcore.sol",
  "abi": [
    {
      "inputs": [],
      "stateMutability": "nonpayable",
      "type": "constructor"
    },
    {
      "inputs": [
        {
          "internalType": "address",
          "name": "target",
          "type": "address"
        }
      ],
      "name": "AddressEmptyCode",
      "type": "error"
    },
    {
      "inputs": [],
      "name": "ECDSAInvalidSignature",
      "type": "error"
    },
    {
      "inputs": [
        {
          "internalType": "uint256",
          "name": "length",
          "type": "uint256"
        }
      ],
      "name": "ECDSAInvalidSignatureLength",
      "type": "error"
    },
    {
      "inputs": [
        {
          "internalType": "bytes32",
          "name": "s",
          "type": "bytes32"
        }
      ],
      "name": "ECDSAInvalidSignatureS",
      "type": "error"
    },
    {
      "inputs": [
        {
          "internalType": "address",
          "name": "implementation",
          "type": "address"
        }
      ],
      "name": "ERC1967InvalidImplementation",
      "type": "error"
    },
    {
      "inputs": [],
      "name": "ERC1967NonPayable",
      "type": "error"
    },
    {
      "inputs": [
        {
          "internalType": "uint256",
          "name": "increasedSupply",
          "type": "uint256"
        },
        {
          "internalType": "uint256",
          "name": "cap",
          "type": "uint256"
        }
      ],
      "name": "ERC20ExceededCap",
      "type": "error"
    },
    {
      "inputs": [
        {
          "internalType": "address",
          "name": "spender",
          "type": "address"
        },
        {
          "internalType": "uint256",
          "name": "allowance",
          "type": "uint256"
        },
        {
          "internalType": "uint256",
          "name": "needed",
          "type": "uint256"
        }
      ],
      "name": "ERC20InsufficientAllowance",
      "type": "error"
    },
    {
      "inputs": [
        {
          "internalType": "address",
          "name": "sender",
          "type": "address"
        },
        {
          "internalType": "uint256",
          "name": "balance",
          "type": "uint256"
        },
        {
          "internalType": "uint256",
          "name": "needed",
          "type": "uint256"
        }
      ],
      "name": "ERC20InsufficientBalance",
      "type": "error"
    },
    {
      "inputs": [
        {
          "internalType": "address",
          "name": "approver",
          "type": "address"
        }
      ],
      "name": "ERC20InvalidApprover",
      "type": "error"
    },
    {
      "inputs": [
        {
          "internalType": "uint256",
          "name": "cap",
          "type": "uint256"
        }
      ],
      "name": "ERC20InvalidCap",
      "type": "error"
    },
    {
      "inputs": [
        {
          "internalType": "address",
          "name": "receiver",
          "type": "address"
        }
      ],
      "name": "ERC20InvalidReceiver",
      "type": "error"
    },
    {
      "inputs": [
        {
          "internalType": "address",
          "name": "sender",
          "type": "address"
        }
      ],
      "name": "ERC20InvalidSender",
      "type": "error"
    },
    {
      "inputs": [
        {
          "internalType": "address",
          "name": "spender",
          "type": "address"
        }
      ],
      "name": "ERC20InvalidSpender",
      "type": "error"
    },
    {
      "inputs": [
        {
          "internalType": "uint256",
          "name": "deadline",
          "type": "uint256"
        }
      ],
      "name": "ERC2612ExpiredSignature",
      "type": "error"
    },
    {
      "inputs": [
        {
          "internalType": "address",
          "name": "signer",
          "type": "address"
        },
        {
          "internalType": "address",
          "name": "owner",
          "type": "address"
        }
      ],
      "name": "ERC2612InvalidSigner",
      "type": "error"
    },
    {
      "inputs": [],
      "name": "FailedCall",
      "type": "error"
    },
    {
      "inputs": [
        {
          "internalType": "address",
          "name": "account",
          "type": "address"
        },
        {
          "internalType": "uint256",
          "name": "currentNonce",
          "type": "uint256"
        }
      ],
      "name": "InvalidAccountNonce",
      "type": "error"
    },
    {
      "inputs": [],
      "name": "InvalidAddress",
      "type": "error"
    },
    {
      "inputs": [],
      "name": "InvalidAmount",
      "type": "error"
    },
    {
      "inputs": [],
      "name": "InvalidInitialization",
      "type": "error"
    },
    {
      "inputs": [],
      "name": "ModuleNotRegistered",
      "type": "error"
    },
    {
      "inputs": [],
      "name": "NotInitializing",
      "type": "error"
    },
    {
      "inputs": [],
      "name": "ReentrancyGuardReentrantCall",
      "type": "error"
    },
    {
      "inputs": [],
      "name": "UUPSUnauthorizedCallContext",
      "type": "error"
    },
    {
      "inputs": [
        {
          "internalType": "bytes32",
          "name": "slot",
          "type": "bytes32"
        }
      ],
      "name": "UUPSUnsupportedProxiableUUID",
      "type": "error"
    },
    {
      "inputs": [],
      "name": "UnauthorizedModule",
      "type": "error"
    },
    {
      "anonymous": false,
      "inputs": [
        {
          "indexed": true,
          "internalType": "address",
          "name": "owner",
          "type": "address"
        },
        {
          "indexed": true,
          "internalType": "address",
          "name": "spender",
          "type": "address"
        },
        {
          "indexed": false,
          "internalType": "uint256",
          "name": "value",
          "type": "uint256"
        }
      ],
      "name": "Approval",
      "type": "event"
    },
    {
      "anonymous": false,
      "inputs": [],
      "name": "EIP712DomainChanged",
      "type": "event"
    },
    {
      "anonymous": false,
      "inputs": [
        {
          "indexed": false,
          "internalType": "uint64",
          "name": "version",
          "type": "uint64"
        }
      ],
      "name": "Initialized",
      "type": "event"
    },
    {
      "anonymous": false,
      "inputs": [
        {
          "indexed": true,
          "internalType": "string",
          "name": "moduleName",
          "type": "string"
        },
        {
          "indexed": true,
          "internalType": "address",
          "name": "oldModule",
          "type": "address"
        },
        {
          "indexed": true,
          "internalType": "address",
          "name": "newModule",
          "type": "address"
        }
      ],
      "name": "ModuleUpdated",
      "type": "event"
    },
    {
      "anonymous": false,
      "inputs": [
        {
          "indexed": true,
          "internalType": "address",
          "name": "from",
          "type": "address"
        },
        {
          "indexed": true,
          "internalType": "address",
          "name": "to",
          "type": "address"
        },
        {
          "indexed": false,
          "internalType": "uint256",
          "name": "value",
          "type": "uint256"
        }
      ],
      "name": "Transfer",
      "type": "event"
    },
    {
      "anonymous": false,
      "inputs": [
        {
          "indexed": true,
          "internalType": "address",
          "name": "oldTreasury",
          "type": "address"
        },
        {
          "indexed": true,
          "internalType": "address",
          "name": "newTreasury",
          "type": "address"
        }
      ],
      "name": "TreasuryUpdated",
      "type": "event"
    },
    {
      "anonymous": false,
      "inputs": [
        {
          "indexed": true,
          "internalType": "address",
          "name": "implementation",
          "type": "address"
        }
      ],
      "name": "Upgraded",
      "type": "event"
    },
    {
      "inputs": [],
      "name": "DOMAIN_SEPARATOR",
      "outputs": [
        {
          "internalType": "bytes32",
          "name": "",
          "type": "bytes32"
        }
      ],
      "stateMutability": "view",
      "type": "function"
    },
    {
      "inputs": [],
      "name": "MAX_SUPPLY",
      "outputs": [
        {
          "internalType": "uint256",
          "name": "",
          "type": "uint256"
        }
      ],
      "stateMutability": "view",
      "type": "function"
    },
    {
      "inputs": [],
      "name": "TOKEN_DECIMALS",
      "outputs": [
        {
          "internalType": "uint8",
          "name": "",
          "type": "uint8"
        }
      ],
      "stateMutability": "view",
      "type": "function"
    },
    {
      "inputs": [],
      "name": "TOKEN_NAME",
      "outputs": [
        {
          "internalType": "string",
          "name": "",
          "type": "string"
        }
      ],
      "stateMutability": "view",
      "type": "function"
    },
    {
      "inputs": [],
      "name": "TOKEN_SYMBOL",
      "outputs": [
        {
          "internalType": "string",
          "name": "",
          "type": "string"
        }
      ],
      "stateMutability": "view",
      "type": "function"
    },
    {
      "inputs": [],
      "name": "UPGRADE_INTERFACE_VERSION",
      "outputs": [
        {
          "internalType": "string",
          "name": "",
          "type": "string"
        }
      ],
      "stateMutability": "view",
      "type": "function"
    },
    {
      "inputs": [
        {
          "internalType": "address",
          "name": "from",
          "type": "address"
        },
        {
          "internalType": "address",
          "name": "to",
          "type": "address"
        },
        {
          "internalType": "uint256",
          "name": "amount",
          "type": "uint256"
        }
      ],
      "name": "afterTransfer",
      "outputs": [],
      "stateMutability": "nonpayable",
      "type": "function"
    },
    {
      "inputs": [
        {
          "internalType": "address",
          "name": "owner",
          "type": "address"
        },
        {
          "internalType": "address",
          "name": "spender",
          "type": "address"
        }
      ],
      "name": "allowance",
      "outputs": [
        {
          "internalType": "uint256",
          "name": "",
          "type": "uint256"
        }
      ],
      "stateMutability": "view",
      "type": "function"
    },
    {
      "inputs": [
        {
          "internalType": "address",
          "name": "spender",
          "type": "address"
        },
        {
          "internalType": "uint256",
          "name": "value",
          "type": "uint256"
        }
      ],
      "name": "approve",
      "outputs": [
        {
          "internalType": "bool",
          "name": "",
          "type": "bool"
        }
      ],
      "stateMutability": "nonpayable",
      "type": "function"
    },
    {
      "inputs": [
        {
          "internalType": "address",
          "name": "account",
          "type": "address"
        }
      ],
      "name": "balanceOf",
      "outputs": [
        {
          "internalType": "uint256",
          "name": "",
          "type": "uint256"
        }
      ],
      "stateMutability": "view",
      "type": "function"
    },
    {
      "inputs": [
        {
          "internalType": "address",
          "name": "from",
          "type": "address"
        },
        {
          "internalType": "address",
          "name": "to",
          "type": "address"
        },
        {
          "internalType": "uint256",
          "name": "amount",
          "type": "uint256"
        }
      ],
      "name": "beforeTransfer",
      "outputs": [],
      "stateMutability": "nonpayable",
      "type": "function"
    },
    {
      "inputs": [],
      "name": "cap",
      "outputs": [
        {
          "internalType": "uint256",
          "name": "",
          "type": "uint256"
        }
      ],
      "stateMutability": "pure",
      "type": "function"
    },
    {
      "inputs": [],
      "name": "decimals",
      "outputs": [
        {
          "internalType": "uint8",
          "name": "",
          "type": "uint8"
        }
      ],
      "stateMutability": "view",
      "type": "function"
    },
    {
      "inputs": [],
      "name": "eip712Domain",
      "outputs": [
        {
          "internalType": "bytes1",
          "name": "fields",
          "type": "bytes1"
        },
        {
          "internalType": "string",
          "name": "name",
          "type": "string"
        },
        {
          "internalType": "string",
          "name": "version",
          "type": "string"
        },
        {
          "internalType": "uint256",
          "name": "chainId",
          "type": "uint256"
        },
        {
          "internalType": "address",
          "name": "verifyingContract",
          "type": "address"
        },
        {
          "internalType": "bytes32",
          "name": "salt",
          "type": "bytes32"
        },
        {
          "internalType": "uint256[]",
          "name": "extensions",
          "type": "uint256[]"
        }
      ],
      "stateMutability": "view",
      "type": "function"
    },
    {
      "inputs": [
        {
          "internalType": "address",
          "name": "_treasury",
          "type": "address"
        },
        {
          "internalType": "address",
          "name": "_moduleManager",
          "type": "address"
        }
      ],
      "name": "initialize",
      "outputs": [],
      "stateMutability": "nonpayable",
      "type": "function"
    },
    {
      "inputs": [],
      "name": "isCapImmutable",
      "outputs": [
        {
          "internalType": "bool",
          "name": "",
          "type": "bool"
        }
      ],
      "stateMutability": "pure",
      "type": "function"
    },
    {
      "inputs": [
        {
          "internalType": "address",
          "name": "to",
          "type": "address"
        },
        {
          "internalType": "uint256",
          "name": "amount",
          "type": "uint256"
        }
      ],
      "name": "mint",
      "outputs": [],
      "stateMutability": "nonpayable",
      "type": "function"
    },
    {
      "inputs": [],
      "name": "moduleManager",
      "outputs": [
        {
          "internalType": "address",
          "name": "",
          "type": "address"
        }
      ],
      "stateMutability": "view",
      "type": "function"
    },
    {
      "inputs": [
        {
          "internalType": "string",
          "name": "",
          "type": "string"
        }
      ],
      "name": "modules",
      "outputs": [
        {
          "internalType": "address",
          "name": "",
          "type": "address"
        }
      ],
      "stateMutability": "view",
      "type": "function"
    },
    {
      "inputs": [],
      "name": "name",
      "outputs": [
        {
          "internalType": "string",
          "name": "",
          "type": "string"
        }
      ],
      "stateMutability": "view",
      "type": "function"
    },
    {
      "inputs": [
        {
          "internalType": "address",
          "name": "owner",
          "type": "address"
        }
      ],
      "name": "nonces",
      "outputs": [
        {
          "internalType": "uint256",
          "name": "",
          "type": "uint256"
        }
      ],
      "stateMutability": "view",
      "type": "function"
    },
    {
      "inputs": [
        {
          "internalType": "address",
          "name": "owner",
          "type": "address"
        },
        {
          "internalType": "address",
          "name": "spender",
          "type": "address"
        },
        {
          "internalType": "uint256",
          "name": "value",
          "type": "uint256"
        },
        {
          "internalType": "uint256",
          "name": "deadline",
          "type": "uint256"
        },
        {
          "internalType": "uint8",
          "name": "v",
          "type": "uint8"
        },
        {
          "internalType": "bytes32",
          "name": "r",
          "type": "bytes32"
        },
        {
          "internalType": "bytes32",
          "name": "s",
          "type": "bytes32"
        }
      ],
      "name": "permit",
      "outputs": [],
      "stateMutability": "nonpayable",
      "type": "function"
    },
    {
      "inputs": [],
      "name": "proxiableUUID",
      "outputs": [
        {
          "internalType": "bytes32",
          "name": "",
          "type": "bytes32"
        }
      ],
      "stateMutability": "view",
      "type": "function"
    },
    {
      "inputs": [
        {
          "internalType": "string",
          "name": "moduleName",
          "type": "string"
        },
        {
          "internalType": "address",
          "name": "moduleAddress",
          "type": "address"
        }
      ],
      "name": "registerModule",
      "outputs": [],
      "stateMutability": "nonpayable",
      "type": "function"
    },
    {
      "inputs": [],
      "name": "symbol",
      "outputs": [
        {
          "internalType": "string",
          "name": "",
          "type": "string"
        }
      ],
      "stateMutability": "view",
      "type": "function"
    },
    {
      "inputs": [],
      "name": "totalSupply",
      "outputs": [
        {
          "internalType": "uint256",
          "name": "",
          "type": "uint256"
        }
      ],
      "stateMutability": "view",
      "type": "function"
    },
    {
      "inputs": [
        {
          "internalType": "address",
          "name": "to",
          "type": "address"
        },
        {
          "internalType": "uint256",
          "name": "amount",
          "type": "uint256"
        }
      ],
      "name": "transfer",
      "outputs": [
        {
          "internalType": "bool",
          "name": "",
          "type": "bool"
        }
      ],
      "stateMutability": "nonpayable",
      "type": "function"
    },
    {
      "inputs": [
        {
          "internalType": "address",
          "name": "from",
          "type": "address"
        },
        {
          "internalType": "address",
          "name": "to",
          "type": "address"
        },
        {
          "internalType": "uint256",
          "name": "amount",
          "type": "uint256"
        }
      ],
      "name": "transferFrom",
      "outputs": [
        {
          "internalType": "bool",
          "name": "",
          "type": "bool"
        }
      ],
      "stateMutability": "nonpayable",
      "type": "function"
    },
    {
      "inputs": [],
      "name": "treasury",
      "outputs": [
        {
          "internalType": "address",
          "name": "",
          "type": "address"
        }
      ],
      "stateMutability": "view",
      "type": "function"
    },
    {
      "inputs": [
        {
          "internalType": "address",
          "name": "_treasury",
          "type": "address"
        }
      ],
      "name": "updateTreasury",
      "outputs": [],
      "stateMutability": "nonpayable",
      "type": "function"
    },
    {
      "inputs": [
        {
          "internalType": "address",
          "name": "newImplementation",
          "type": "address"
        },
        {
          "internalType": "bytes",
          "name": "data",
          "type": "bytes"
        }
      ],
      "name": "upgradeToAndCall",
      "outputs": [],
      "stateMutability": "payable",
      "type": "function"
    }
  ],
  "bytecode": "0x60a080604052346100cc57306080527ff0c57e16840df040f15088dc2f81fe391c3923bec73e23a9662efc9c229c6a009081549060ff8260401c166100bd57506001600160401b036002600160401b031982821601610078575b60405161283290816100d28239608051818181610aa10152610b590152f35b6001600160401b031990911681179091556040519081527fc7f505b2f371ae2175ee4913f4499e1f2633a7b5936321eed1cdaeb6115181d290602090a1388080610059565b63f92ee8a960e01b8152600490fd5b600080fdfe608080604052600436101561001357600080fd5b6000803560e01c91826306fdde0314611d9f57508163095ea7b314611d6e57816318160ddd14611d325781631882140014611d175781631ffb811f14611d0357816323b872dd14611acd5781632a90531814611a9e578163313ce56714610a7457816332cb6b0c14611a79578163355274ea14611a795781633644e51514611a5757816340c10f1914611787578163485cc95514610d465781634f1ef28614610b0b57816352d1902d14610a8f5781635b7f415c14610a7457816361d027b314610a4e578163639cc67d1461095657816370a082311461091157816372b39532146108e95781637ecebe00146108925781637f51bb1f14610818578163809c585c146107fd57816384b0196e146106a057816395d89b41146105c057816399b0d6d014610558578163a9059cbb146103b2578163ad3cb1cc14610369578163d505accf146101d7578163dd62ed3e1461018b575063f49062ca1461017657600080fd5b346101865761018436611f6d565b005b600080fd5b346101d45760403660031901126101d4576101a4611eb1565b6101b56101af611ec7565b91612235565b9060018060a01b03166000526020526020604060002054604051908152f35b80fd5b346101d45760e03660031901126101d4576101f0611eb1565b906101f9611ec7565b60443590606435936084359460ff861686036103655780421161034d5760018060a01b0390818316968787527f5ab42ced628888259c08ac98db1eb0cf702fc1501344311d8b100cd1bfe4bb0060205260408720908154916001830190556040519260208401927f6e71edae12b1b97f4d1f60370fef10105fa2faae0126114a169c64845d6126c984528a6040860152858816606086015288608086015260a085015260c084015260c0835260e08301918383106001600160401b0384111761033757610302936102f9936040525190206102d26123d1565b906040519161190160f01b83526002830152602282015260c43591604260a4359220612475565b90929192612505565b16858103610319575061031693945061229e565b80f35b60449086604051916325c0072360e11b835260048301526024820152fd5b634e487b7160e01b600052604160045260246000fd5b6024906040519063313c898160e11b82526004820152fd5b8480fd5b346101d457806003193601126101d4576103ae60405161038881611ef0565b60058152640352e302e360dc1b6020820152604051918291602083526020830190611e8c565b0390f35b346101d45760403660031901126101d4576103cb611eb1565b602435906103d761226e565b60405191602867736563757269747960c01b80855260019485600882015260018060a01b039283912054166104d2575b6104128385336122fc565b816028604051838152876008820152205416610445575b6020858060008051602061279d83398151915255604051908152f35b906028869392604051908152866008820152205416803b156104ce57604051637a48316560e11b81523360048201526001600160a01b0394909416602485015260448401919091528290606490829084905af180156104c3576104ab575b808080610429565b6104b58391611edd565b6104bf57816104a3565b5080fd5b6040513d85823e3d90fd5b8280fd5b85826028604051848152886008820152205416803b156104bf57604051631ffb811f60e01b81523360048201526001600160a01b0387166024820152604481018690529082908290606490829084905af1801561054d57610535575b5050610407565b61053e90611edd565b61054957858761052e565b8580fd5b6040513d84823e3d90fd5b346101d45760203660031901126101d457600435906001600160401b0382116101d457602061058a3660048501611ffa565b8161059e6040519283815193849201611e69565b600190820190815281900382019020546040516001600160a01b039091168152f35b346101d457806003193601126101d45760405160008051602061271d83398151915280548260006105f083612018565b928383526020946001918660018216918260001461067e575050600114610634575b505061062092500383611f0b565b6103ae604051928284938452830190611e8c565b85925060005260008051602061277d833981519152906000915b85831061066657505061062093508201018580610612565b8054838901850152879450869390920191810161064e565b925093505061062094915060ff191682840152151560051b8201018580610612565b346101d457806003193601126101d4577fa16a46d94261c7517cc8ff89f61c0ce93598e3c849801011dee649a6a557d1005415806107d4575b15610797576106e6612052565b906106ef612118565b906040519060209060208301938385106001600160401b0386111761033757928492602061074d889661073f98604052858552604051988998600f60f81b8a5260e0858b015260e08a0190611e8c565b9088820360408a0152611e8c565b924660608801523060808801528460a088015286840360c088015251928381520193925b82811061078057505050500390f35b835185528695509381019392810192600101610771565b60405162461bcd60e51b81526020600482015260156024820152741152540dcc4c8e88155b9a5b9a5d1a585b1a5e9959605a1b6044820152606490fd5b507fa16a46d94261c7517cc8ff89f61c0ce93598e3c849801011dee649a6a557d10154156106d9565b346101d457806003193601126101d457602060405160018152f35b346101d45760203660031901126101d457610831611eb1565b6002546001600160a01b0391829161084c90831633146121f3565b16906108598215156121b5565b82546001600160a01b0319811683178455167f4ab5be82436d353e61ca18726e984e561f5c1cc7c6d38b29d2553c790434705a8380a380f35b346101d45760203660031901126101d4576020906040906001600160a01b036108b9611eb1565b1681527f5ab42ced628888259c08ac98db1eb0cf702fc1501344311d8b100cd1bfe4bb0083522054604051908152f35b346101d457806003193601126101d4576002546040516001600160a01b039091168152602090f35b346101d45760203660031901126101d4576020906040906001600160a01b03610938611eb1565b1681526000805160206126dd83398151915283522054604051908152f35b346101d45760403660031901126101d4576004356001600160401b0381116104bf57610986903690600401611ffa565b61098e611ec7565b90610a2260018060a01b0380936109aa826002541633146121f3565b16926109b78415156121b5565b60405190835191602081818701946109d0818388611e69565b8101600181520301902054169260405160208183516109f0818388611e69565b81016001815203019020856bffffffffffffffffffffffff60a01b825416179055604051928392839251928391611e69565b81010390207fe5340bb646fa554a3082f7baa2b415eb1874ff7d4c3f118686180386e71f738e8480a480f35b346101d457806003193601126101d457546040516001600160a01b039091168152602090f35b346101d457806003193601126101d457602060405160128152f35b346101d457806003193601126101d4577f00000000000000000000000000000000000000000000000000000000000000006001600160a01b03163003610af95760206040517f360894a13ba1a3210667c828492db98dca3e2076cc3735a920a3ca505d382bbc8152f35b60405163703e46dd60e11b8152600490fd5b60403660031901126101d457610b1f611eb1565b6024356001600160401b0381116104ce57366023820112156104ce57610b4f903690602481600401359101611fc3565b6001600160a01b037f00000000000000000000000000000000000000000000000000000000000000008116308114908115610d18575b50610af957610b99816002541633146121f3565b6040516352d1902d60e01b8152908316926020918281600481885afa869181610ce5575b50610bdb57604051634c9c8ce360e01b815260048101869052602490fd5b9385947f360894a13ba1a3210667c828492db98dca3e2076cc3735a920a3ca505d382bbc90818103610ccd5750823b15610cb45780546001600160a01b0319168217905560405185917fbc7cd75a20ee27fd9adebab32041f755214dbc6bffa90cc0225b39da2e5c2d3b8380a2845115610c975750808484610c8a96519101845af4903d15610c8e573d610c6e81611f2c565b90610c7c6040519283611f0b565b81528581943d92013e612639565b5080f35b60609250612639565b935050505034610ca5575080f35b63b398979f60e01b8152600490fd5b604051634c9c8ce360e01b815260048101839052602490fd5b60249060405190632a87526960e21b82526004820152fd5b9091508381813d8311610d11575b610cfd8183611f0b565b81010312610d0d57519087610bbd565b8680fd5b503d610cf3565b9050817f360894a13ba1a3210667c828492db98dca3e2076cc3735a920a3ca505d382bbc5416141585610b85565b346101d45760403660031901126101d457610d5f611eb1565b610d67611ec7565b6000805160206127bd83398151915254906001600160401b03821680159081611777575b600114908161176d575b159081611764575b506117525760016001600160401b03198316176000805160206127bd8339815191525560ff8260401c1615611725575b6001600160a01b038316151580611713575b610de8906121b5565b610df0611f47565b610df8611fa2565b90610e01612446565b610e09612446565b8051906001600160401b0382116114c8578190610e346000805160206126bd83398151915254612018565b601f8111611694575b50602090601f83116001146116045788926115f9575b50508160011b916000199060031b1c1916176000805160206126bd833981519152555b8051906001600160401b03821161139a578190610ea160008051602061271d83398151915254612018565b601f8111611577575b50602090601f83116001146114e75787926114dc575b50508160011b916000199060031b1c19161760008051602061271d833981519152555b610eeb612446565b610ef3612446565b676765c793fa10079d601b1b7f0f070392f17d5f958cc1ac31867dabecfc5c9758b4a419a200803226d7155d0055610f29611f47565b610f31612446565b60405190610f3e82611ef0565b60018252603160f81b6020830152610f54612446565b8051906001600160401b0382116114c8578190610f7f6000805160206126fd83398151915254612018565b601f8111611449575b50602090601f83116001146113b95788926113ae575b50508160011b916000199060031b1c1916176000805160206126fd833981519152555b8051906001600160401b03821161139a578190610fec60008051602061273d83398151915254612018565b601f8111611318575b50602090601f831160011461128857879261127d575b50508160011b916000199060031b1c19161760008051602061273d833981519152555b837fa16a46d94261c7517cc8ff89f61c0ce93598e3c849801011dee649a6a557d10055837fa16a46d94261c7517cc8ff89f61c0ce93598e3c849801011dee649a6a557d1015561107c612446565b611084612446565b61108c612446565b600160008051602061279d8339815191525583546001600160a01b038481166001600160a01b03198084168217885560028054958416959091169490941790935590851616178015611264577f52c63247e1f47db19d5ce0460030c497f067ca4cebf71ba98eeadabe20bace02908154676765c793fa10079d601b1b810180911161124e578255806000526000805160206126dd8339815191526020526040600020676765c793fa10079d601b1b815401905560007fddf252ad1be2c89b69c2b068fc378daa952ba7f163c4a11628f55a4df523b3ef6020604051676765c793fa10079d601b1b8152a354676765c793fa10079d601b1b811161122557506040519160ff91906001600160a01b0316847f4ab5be82436d353e61ca18726e984e561f5c1cc7c6d38b29d2553c790434705a8180a360401c16156111cd575080f35b60207fc7f505b2f371ae2175ee4913f4499e1f2633a7b5936321eed1cdaeb6115181d29168ff0000000000000000196000805160206127bd83398151915254166000805160206127bd8339815191525560018152a180f35b6044906040519063279e7e1560e21b82526004820152676765c793fa10079d601b1b6024820152fd5b634e487b7160e01b600052601160045260246000fd5b60405163ec442f0560e01b815260006004820152602490fd5b01519050868061100b565b925060008051602061273d83398151915287526000805160206127dd8339815191529087935b601f19841685106112fd576001945083601f198116106112e4575b505050811b0160008051602061273d8339815191525561102e565b015160001960f88460031b161c191690558680806112c9565b818101518355602094850194600190930192909101906112ae565b90915060008051602061273d8339815191528752601f830160051c6000805160206127dd833981519152019060208410611384575b90601f8493920160051c6000805160206127dd83398151915201905b8181106113765750610ff5565b888155849350600101611369565b6000805160206127dd833981519152915061134d565b634e487b7160e01b86526041600452602486fd5b015190508780610f9e565b92506000805160206126fd833981519152885260008051602061275d8339815191529088935b601f198416851061142e576001945083601f19811610611415575b505050811b016000805160206126fd83398151915255610fc1565b015160001960f88460031b161c191690558780806113fa565b818101518355602094850194600190930192909101906113df565b9091506000805160206126fd8339815191528852601f830160051c60008051602061275d83398151915201602084106114b3575b908392915b601f820160051c60008051602061275d8339815191520181106114a55750610f88565b898155849350600101611482565b5060008051602061275d83398151915261147d565b634e487b7160e01b87526041600452602487fd5b015190508680610ec0565b925060008051602061271d833981519152875260008051602061277d8339815191529087935b601f198416851061155c576001945083601f19811610611543575b505050811b0160008051602061271d83398151915255610ee3565b015160001960f88460031b161c19169055868080611528565b8181015183556020948501946001909301929091019061150d565b90915060008051602061271d8339815191528752601f830160051c60008051602061277d8339815191520190602084106115e3575b90601f8493920160051c60008051602061277d83398151915201905b8181106115d55750610eaa565b8881558493506001016115c8565b60008051602061277d83398151915291506115ac565b015190508780610e53565b92506000805160206126bd833981519152885260008051602061269d8339815191529088935b601f1984168510611679576001945083601f19811610611660575b505050811b016000805160206126bd83398151915255610e76565b015160001960f88460031b161c19169055878080611645565b8181015183556020948501946001909301929091019061162a565b9091506000805160206126bd8339815191528852601f830160051c60008051602061269d83398151915201602084106116fe575b908392915b601f820160051c60008051602061269d8339815191520181106116f05750610e3d565b8981558493506001016116cd565b5060008051602061269d8339815191526116c8565b506001600160a01b0381161515610ddf565b68ffffffffffffffffff19821668010000000000000001176000805160206127bd83398151915255610dcd565b60405163f92ee8a960e01b8152600490fd5b90501585610d9d565b303b159150610d95565b604084901c60ff16159150610d8b565b346101d45760403660031901126101d4576117a0611eb1565b602490813590604051906117b382611ef0565b600c90600c83526b726174654c696d6974696e6760a01b926020928484830152604051918460005b838110611a455750506001600c8401525050602c9020546001600160a01b03919082163303611a0b57819061180e61226e565b169283156119d0578415611997578183918893602c6040518381526001600c820152205416611912575b505050507f52c63247e1f47db19d5ce0460030c497f067ca4cebf71ba98eeadabe20bace029283548181018091116118fd57845560008381526000805160206126dd8339815191528352604080822080548401905551918252917fddf252ad1be2c89b69c2b068fc378daa952ba7f163c4a11628f55a4df523b3ef91a35490676765c793fa10079d601b1b908183116118e15783600160008051602061279d8339815191525580f35b604493506040519263279e7e1560e21b84526004840152820152fd5b85634e487b7160e01b60005260116004526000fd5b602c906040519081526001600c820152205416604460405180948193630218c44160e11b8352886004840152898b8401525af1801561198c57611959575b81818792611838565b8181813d8311611985575b61196e8183611f0b565b810103126105495751801515036103655785611950565b503d611964565b6040513d88823e3d90fd5b60405162461bcd60e51b815260048101849052601281880152710416d6f756e74206d757374206265203e20360741b6044820152606490fd5b60405162461bcd60e51b815260048101849052601481880152734d696e7420746f207a65726f206164647265737360601b6044820152606490fd5b60405162461bcd60e51b81526004810184905260138188015272556e617574686f72697a6564206d6f64756c6560681b6044820152606490fd5b818184010151818601520185906117db565b346101d457806003193601126101d4576020611a716123d1565b604051908152f35b346101d457806003193601126101d4576020604051676765c793fa10079d601b1b8152f35b346101d457806003193601126101d4576103ae611ab9611fa2565b604051918291602083526020830190611e8c565b346101d457611adb36611f6d565b611ae692919261226e565b60405192602867736563757269747960c01b80865260019586600882015260018060a01b03928391205416611c83575b611b1f85612235565b336000526020526040600020546000198110611bf6575b50611b428484876122fc565b816028604051838152886008820152205416611b75575b6020868060008051602061279d83398151915255604051908152f35b9060288794939260405190815287600882015220541690813b15611bf257604051637a48316560e11b81526001600160a01b0395861660048201529416602485015260448401919091528290606490829084905af180156104c357611bde575b80808080611b59565b611be88391611edd565b6104bf5781611bd5565b8380fd5b848110611c5c5782861615611c43573315611c2a578490611c1687612235565b336000526020520360406000205587611b36565b604051634a1406b160e11b815260006004820152602490fd5b60405163e602df0560e01b815260006004820152602490fd5b604051637dc7a0d960e11b8152336004820152602481019190915260448101859052606490fd5b81602860405183815288600882015220541687813b156101d457604051631ffb811f60e01b81526001600160a01b0388811660048301528616602482015260448101879052918290606490829084905af18015611cf857611ce5575b50611b16565b611cf190979197611edd565b9587611cdf565b6040513d8a823e3d90fd5b346101d457611d1136611f6d565b50505080f35b346101d457806003193601126101d4576103ae611ab9611f47565b346101d457806003193601126101d45760207f52c63247e1f47db19d5ce0460030c497f067ca4cebf71ba98eeadabe20bace0254604051908152f35b346101d45760403660031901126101d457611d94611d8a611eb1565b602435903361229e565b602060405160018152f35b90346101d457806003193601126101d45780826000805160206126bd833981519152928354611dcd81612018565b9384845260209560019287600182169182600014611e45575050600114611dfe575b50505061062092500383611f0b565b81528592509060008051602061269d8339815191525b858310611e2d5750506106209350820101858080611def565b80548389018501528794508693909201918101611e14565b93509450505061062094915060ff191682840152151560051b820101858080611def565b60005b838110611e7c5750506000910152565b8181015183820152602001611e6c565b90602091611ea581518092818552858086019101611e69565b601f01601f1916010190565b600435906001600160a01b038216820361018657565b602435906001600160a01b038216820361018657565b6001600160401b03811161033757604052565b604081019081106001600160401b0382111761033757604052565b90601f801991011681019081106001600160401b0382111761033757604052565b6001600160401b03811161033757601f01601f191660200190565b60405190611f5482611ef0565b600a8252692722a120902a37b5b2b760b11b6020830152565b6060906003190112610186576001600160a01b0390600435828116810361018657916024359081168103610186579060443590565b60405190611faf82611ef0565b6005825264244e45424160d81b6020830152565b929192611fcf82611f2c565b91611fdd6040519384611f0b565b829481845281830111610186578281602093846000960137010152565b9080601f830112156101865781602061201593359101611fc3565b90565b90600182811c92168015612048575b602083101461203257565b634e487b7160e01b600052602260045260246000fd5b91607f1691612027565b604051906000826000805160206126fd8339815191529182549261207584612018565b808452936020916001918281169081156120f257506001146120a3575b5050506120a192500383611f0b565b565b600090815260008051602061275d8339815191529590935091905b8284106120da57506120a1945050508101602001388080612092565b855488850183015294850194879450928101926120be565b92505050602092506120a194915060ff191682840152151560051b820101388080612092565b6040519060008260008051602061273d8339815191529182549261213b84612018565b808452936020916001918281169081156120f25750600114612166575050506120a192500383611f0b565b60009081526000805160206127dd8339815191529590935091905b82841061219d57506120a1945050508101602001388080612092565b85548885018301529485019487945092810192612181565b156121bc57565b60405162461bcd60e51b815260206004820152600f60248201526e496e76616c6964206164647265737360881b6044820152606490fd5b156121fa57565b60405162461bcd60e51b815260206004820152601360248201527227b7363c9036b7b23ab6329036b0b730b3b2b960691b6044820152606490fd5b6001600160a01b031660009081527f52c63247e1f47db19d5ce0460030c497f067ca4cebf71ba98eeadabe20bace016020526040902090565b60008051602061279d833981519152600281541461228c5760029055565b604051633ee5aeb560e01b8152600490fd5b916001600160a01b03808416928315611c435716928315611c2a577f8c5be1e5ebec7d5bd14f71427d1e84f3dd0314c0f7b2291e5b200ac8c7c3b925916122e6602092612235565b85600052825280604060002055604051908152a3565b916001600160a01b038084169283156123b85716928315611264576000908382526000805160206126dd83398151915280602052604083205491848310612385575082847fddf252ad1be2c89b69c2b068fc378daa952ba7f163c4a11628f55a4df523b3ef959360409388602097528652038282205586815220818154019055604051908152a3565b60405163391434e360e21b81526001600160a01b0391909116600482015260248101929092525060448101839052606490fd5b604051634b637e8f60e11b815260006004820152602490fd5b6123d961258a565b6123e16125f4565b6040519060208201927f8b73c3c69bb8fe3d512ecc4cf759cc79239f7b179b0ffacaa9a75d522b39400f8452604083015260608201524660808201523060a082015260a0815260c081018181106001600160401b038211176103375760405251902090565b60ff6000805160206127bd8339815191525460401c161561246357565b604051631afcd79f60e31b8152600490fd5b91907f7fffffffffffffffffffffffffffffff5d576e7357a4501ddfe92f46681b20a084116124f957926020929160ff608095604051948552168484015260408301526060820152600092839182805260015afa156124ed5780516001600160a01b038116156124e457918190565b50809160019190565b604051903d90823e3d90fd5b50505060009160039190565b60048110156125745780612517575050565b600181036125315760405163f645eedf60e01b8152600490fd5b600281036125525760405163fce698f760e01b815260048101839052602490fd5b60031461255c5750565b602490604051906335e2f38360e21b82526004820152fd5b634e487b7160e01b600052602160045260246000fd5b612592612052565b80519081156125a2576020012090565b50507fa16a46d94261c7517cc8ff89f61c0ce93598e3c849801011dee649a6a557d1005480156125cf5790565b507fc5d2460186f7233c927e7db2dcc703c0e500b653ca82273b7bfad8045d85a47090565b6125fc612118565b805190811561260c576020012090565b50507fa16a46d94261c7517cc8ff89f61c0ce93598e3c849801011dee649a6a557d1015480156125cf5790565b90612660575080511561264e57602081519101fd5b60405163d6bda27560e01b8152600490fd5b81511580612693575b612671575090565b604051639996b31560e01b81526001600160a01b039091166004820152602490fd5b50803b1561266956fe2ae08a8e29253f69ac5d979a101956ab8f8d9d7ded63fa7a83b16fc47648eab052c63247e1f47db19d5ce0460030c497f067ca4cebf71ba98eeadabe20bace0352c63247e1f47db19d5ce0460030c497f067ca4cebf71ba98eeadabe20bace00a16a46d94261c7517cc8ff89f61c0ce93598e3c849801011dee649a6a557d10252c63247e1f47db19d5ce0460030c497f067ca4cebf71ba98eeadabe20bace04a16a46d94261c7517cc8ff89f61c0ce93598e3c849801011dee649a6a557d10342ad5d3e1f2e6e70edcf6d991b8a3023d3fca8047a131592f9edb9fd9b89d57d46a2803e59a4de4e7a4c574b1243f25977ac4c77d5a1a4a609b5394cebb4a2aa9b779b17422d0df92223018b32b4d1fa46e071723d6817e2486d003becc55f00f0c57e16840df040f15088dc2f81fe391c3923bec73e23a9662efc9c229c6a005f9ce34815f8e11431c7bb75a8e6886a91478f7ffc1dbb0a98dc240fddd76b75a26469706673582212205a620d6b730ee38fa22543056d2bccf734208b9fa51fc6a3687b10feb332722064736f6c63430008160033",
  "linkReferences": {},
  "deployedLinkReferences": {}
}