{"contracts/CircuitBreaker.sol":{"CircuitBreaker":{"abi":[{"inputs":[],"name":"AccessControlBadConfirmation","type":"error"},{"inputs":[{"internalType":"address","name":"account","type":"address"},{"internalType":"bytes32","name":"neededRole","type":"bytes32"}],"name":"AccessControlUnauthorizedAccount","type":"error"},{"inputs":[],"name":"CircuitBreakerActive","type":"error"},{"inputs":[],"name":"EnforcedPause","type":"error"},{"inputs":[],"name":"ExpectedPause","type":"error"},{"inputs":[],"name":"FailedAttemptsExceeded","type":"error"},{"inputs":[],"name":"InvalidInitialization","type":"error"},{"inputs":[],"name":"InvalidParameters","type":"error"},{"inputs":[],"name":"NotInitializing","type":"error"},{"inputs":[],"name":"UnauthorizedCaller","type":"error"},{"inputs":[],"name":"VelocityLimitExceeded","type":"error"},{"inputs":[],"name":"VolumeLimitExceeded","type":"error"},{"anonymous":false,"inputs":[{"indexed":false,"internalType":"uint256","name":"timestamp","type":"uint256"}],"name":"AutoResetTriggered","type":"event"},{"anonymous":false,"inputs":[{"indexed":false,"internalType":"string","name":"reason","type":"string"},{"indexed":false,"internalType":"uint256","name":"timestamp","type":"uint256"}],"name":"CircuitBreakerActivated","type":"event"},{"anonymous":false,"inputs":[{"indexed":false,"internalType":"uint256","name":"maxTransferPercentage","type":"uint256"},{"indexed":false,"internalType":"uint256","name":"maxTransfersPerBlock","type":"uint256"},{"indexed":false,"internalType":"uint256","name":"suspiciousVelocityThreshold","type":"uint256"},{"indexed":false,"internalType":"uint256","name":"maxDailyVolume","type":"uint256"},{"indexed":false,"internalType":"uint256","name":"maxHourlyVolume","type":"uint256"},{"indexed":false,"internalType":"uint256","name":"maxSingleTransfer","type":"uint256"}],"name":"CircuitBreakerConfigUpdated","type":"event"},{"anonymous":false,"inputs":[{"indexed":false,"internalType":"uint256","name":"timestamp","type":"uint256"}],"name":"CircuitBreakerDeactivated","type":"event"},{"anonymous":false,"inputs":[{"indexed":false,"internalType":"string","name":"reason","type":"string"},{"indexed":false,"internalType":"uint256","name":"blockNumber","type":"uint256"},{"indexed":false,"internalType":"address","name":"triggeredBy","type":"address"}],"name":"CircuitBreakerTriggered","type":"event"},{"anonymous":false,"inputs":[{"indexed":false,"internalType":"address","name":"account","type":"address"},{"indexed":false,"internalType":"uint256","name":"attempts","type":"uint256"}],"name":"FailedAttemptsExceededEvent","type":"event"},{"anonymous":false,"inputs":[{"indexed":false,"internalType":"uint64","name":"version","type":"uint64"}],"name":"Initialized","type":"event"},{"anonymous":false,"inputs":[{"indexed":false,"internalType":"address","name":"account","type":"address"}],"name":"Paused","type":"event"},{"anonymous":false,"inputs":[{"indexed":true,"internalType":"bytes32","name":"role","type":"bytes32"},{"indexed":true,"internalType":"bytes32","name":"previousAdminRole","type":"bytes32"},{"indexed":true,"internalType":"bytes32","name":"newAdminRole","type":"bytes32"}],"name":"RoleAdminChanged","type":"event"},{"anonymous":false,"inputs":[{"indexed":true,"internalType":"bytes32","name":"role","type":"bytes32"},{"indexed":true,"internalType":"address","name":"account","type":"address"},{"indexed":true,"internalType":"address","name":"sender","type":"address"}],"name":"RoleGranted","type":"event"},{"anonymous":false,"inputs":[{"indexed":true,"internalType":"bytes32","name":"role","type":"bytes32"},{"indexed":true,"internalType":"address","name":"account","type":"address"},{"indexed":true,"internalType":"address","name":"sender","type":"address"}],"name":"RoleRevoked","type":"event"},{"anonymous":false,"inputs":[{"indexed":false,"internalType":"address","name":"account","type":"address"}],"name":"Unpaused","type":"event"},{"anonymous":false,"inputs":[{"indexed":false,"internalType":"uint256","name":"limit","type":"uint256"},{"indexed":false,"internalType":"uint256","name":"actual","type":"uint256"},{"indexed":false,"internalType":"string","name":"period","type":"string"}],"name":"VelocityLimitExceededEvent","type":"event"},{"anonymous":false,"inputs":[{"indexed":false,"internalType":"uint256","name":"limit","type":"uint256"},{"indexed":false,"internalType":"uint256","name":"actual","type":"uint256"},{"indexed":false,"internalType":"string","name":"period","type":"string"}],"name":"VolumeLimitExceededEvent","type":"event"},{"inputs":[],"name":"CIRCUIT_BREAKER_CONFIG_ROLE","outputs":[{"internalType":"bytes32","name":"","type":"bytes32"}],"stateMutability":"view","type":"function"},{"inputs":[],"name":"CIRCUIT_BREAKER_ROLE","outputs":[{"internalType":"bytes32","name":"","type":"bytes32"}],"stateMutability":"view","type":"function"},{"inputs":[],"name":"DEFAULT_ADMIN_ROLE","outputs":[{"internalType":"bytes32","name":"","type":"bytes32"}],"stateMutability":"view","type":"function"},{"inputs":[{"internalType":"string","name":"reason","type":"string"}],"name":"activateCircuitBreaker","outputs":[],"stateMutability":"nonpayable","type":"function"},{"inputs":[],"name":"activationReason","outputs":[{"internalType":"string","name":"","type":"string"}],"stateMutability":"view","type":"function"},{"inputs":[],"name":"activationTime","outputs":[{"internalType":"uint256","name":"","type":"uint256"}],"stateMutability":"view","type":"function"},{"inputs":[],"name":"autoReset","outputs":[],"stateMutability":"nonpayable","type":"function"},{"inputs":[],"name":"autoResetInterval","outputs":[{"internalType":"uint256","name":"","type":"uint256"}],"stateMutability":"view","type":"function"},{"inputs":[{"internalType":"address","name":"from","type":"address"},{"internalType":"address","name":"to","type":"address"},{"internalType":"uint256","name":"amount","type":"uint256"},{"internalType":"uint256","name":"totalSupply","type":"uint256"}],"name":"checkCircuitBreaker","outputs":[],"stateMutability":"nonpayable","type":"function"},{"inputs":[{"internalType":"address","name":"","type":"address"},{"internalType":"address","name":"","type":"address"},{"internalType":"uint256","name":"amount","type":"uint256"}],"name":"checkTransfer","outputs":[],"stateMutability":"view","type":"function"},{"inputs":[{"internalType":"uint256","name":"_maxTransferPercentage","type":"uint256"},{"internalType":"uint256","name":"_maxTransfersPerBlock","type":"uint256"},{"internalType":"uint256","name":"_suspiciousVelocityThreshold","type":"uint256"},{"internalType":"uint256","name":"_maxDailyVolume","type":"uint256"},{"internalType":"uint256","name":"_maxHourlyVolume","type":"uint256"},{"internalType":"uint256","name":"_maxSingleTransfer","type":"uint256"}],"name":"configureCircuitBreaker","outputs":[],"stateMutability":"nonpayable","type":"function"},{"inputs":[{"internalType":"uint256","name":"","type":"uint256"}],"name":"dailyTransferCount","outputs":[{"internalType":"uint256","name":"","type":"uint256"}],"stateMutability":"view","type":"function"},{"inputs":[{"internalType":"uint256","name":"","type":"uint256"}],"name":"dailyVolume","outputs":[{"internalType":"uint256","name":"","type":"uint256"}],"stateMutability":"view","type":"function"},{"inputs":[],"name":"deactivateCircuitBreaker","outputs":[],"stateMutability":"nonpayable","type":"function"},{"inputs":[],"name":"failedAttemptWindow","outputs":[{"internalType":"uint256","name":"","type":"uint256"}],"stateMutability":"view","type":"function"},{"inputs":[{"internalType":"address","name":"","type":"address"}],"name":"failedAttempts","outputs":[{"internalType":"uint256","name":"","type":"uint256"}],"stateMutability":"view","type":"function"},{"inputs":[],"name":"getActivationReason","outputs":[{"internalType":"string","name":"","type":"string"}],"stateMutability":"view","type":"function"},{"inputs":[],"name":"getCurrentDailyTransferCount","outputs":[{"internalType":"uint256","name":"","type":"uint256"}],"stateMutability":"view","type":"function"},{"inputs":[],"name":"getCurrentDailyVolume","outputs":[{"internalType":"uint256","name":"","type":"uint256"}],"stateMutability":"view","type":"function"},{"inputs":[],"name":"getCurrentHourlyTransferCount","outputs":[{"internalType":"uint256","name":"","type":"uint256"}],"stateMutability":"view","type":"function"},{"inputs":[],"name":"getCurrentHourlyVolume","outputs":[{"internalType":"uint256","name":"","type":"uint256"}],"stateMutability":"view","type":"function"},{"inputs":[{"internalType":"bytes32","name":"role","type":"bytes32"}],"name":"getRoleAdmin","outputs":[{"internalType":"bytes32","name":"","type":"bytes32"}],"stateMutability":"view","type":"function"},{"inputs":[{"internalType":"bytes32","name":"role","type":"bytes32"},{"internalType":"address","name":"account","type":"address"}],"name":"grantRole","outputs":[],"stateMutability":"nonpayable","type":"function"},{"inputs":[{"internalType":"bytes32","name":"role","type":"bytes32"},{"internalType":"address","name":"account","type":"address"}],"name":"hasRole","outputs":[{"internalType":"bool","name":"","type":"bool"}],"stateMutability":"view","type":"function"},{"inputs":[{"internalType":"uint256","name":"","type":"uint256"}],"name":"hourlyTransferCount","outputs":[{"internalType":"uint256","name":"","type":"uint256"}],"stateMutability":"view","type":"function"},{"inputs":[{"internalType":"uint256","name":"","type":"uint256"}],"name":"hourlyVolume","outputs":[{"internalType":"uint256","name":"","type":"uint256"}],"stateMutability":"view","type":"function"},{"inputs":[{"internalType":"address","name":"admin","type":"address"},{"internalType":"uint256","name":"_maxDailyVolume","type":"uint256"},{"internalType":"uint256","name":"_maxHourlyVolume","type":"uint256"},{"internalType":"uint256","name":"_maxSingleTransfer","type":"uint256"},{"internalType":"uint256","name":"_maxTransfersPerHour","type":"uint256"},{"internalType":"uint256","name":"_maxTransfersPerDay","type":"uint256"},{"internalType":"uint256","name":"_maxFailedAttempts","type":"uint256"},{"internalType":"uint256","name":"_failedAttemptWindow","type":"uint256"},{"internalType":"uint256","name":"_autoResetInterval","type":"uint256"}],"name":"initialize","outputs":[],"stateMutability":"nonpayable","type":"function"},{"inputs":[],"name":"isActive","outputs":[{"internalType":"bool","name":"","type":"bool"}],"stateMutability":"view","type":"function"},{"inputs":[],"name":"isCircuitBreakerActive","outputs":[{"internalType":"bool","name":"","type":"bool"}],"stateMutability":"view","type":"function"},{"inputs":[],"name":"lastCheckBlock","outputs":[{"internalType":"uint256","name":"","type":"uint256"}],"stateMutability":"view","type":"function"},{"inputs":[{"internalType":"address","name":"","type":"address"}],"name":"lastFailedAttempt","outputs":[{"internalType":"uint256","name":"","type":"uint256"}],"stateMutability":"view","type":"function"},{"inputs":[],"name":"lastResetTime","outputs":[{"internalType":"uint256","name":"","type":"uint256"}],"stateMutability":"view","type":"function"},{"inputs":[],"name":"maxDailyVolume","outputs":[{"internalType":"uint256","name":"","type":"uint256"}],"stateMutability":"view","type":"function"},{"inputs":[],"name":"maxFailedAttempts","outputs":[{"internalType":"uint256","name":"","type":"uint256"}],"stateMutability":"view","type":"function"},{"inputs":[],"name":"maxHourlyVolume","outputs":[{"internalType":"uint256","name":"","type":"uint256"}],"stateMutability":"view","type":"function"},{"inputs":[],"name":"maxSingleTransfer","outputs":[{"internalType":"uint256","name":"","type":"uint256"}],"stateMutability":"view","type":"function"},{"inputs":[],"name":"maxTransferPercentage","outputs":[{"internalType":"uint256","name":"","type":"uint256"}],"stateMutability":"view","type":"function"},{"inputs":[],"name":"maxTransfersPerBlock","outputs":[{"internalType":"uint256","name":"","type":"uint256"}],"stateMutability":"view","type":"function"},{"inputs":[],"name":"maxTransfersPerDay","outputs":[{"internalType":"uint256","name":"","type":"uint256"}],"stateMutability":"view","type":"function"},{"inputs":[],"name":"maxTransfersPerHour","outputs":[{"internalType":"uint256","name":"","type":"uint256"}],"stateMutability":"view","type":"function"},{"inputs":[],"name":"paused","outputs":[{"internalType":"bool","name":"","type":"bool"}],"stateMutability":"view","type":"function"},{"inputs":[{"internalType":"address","name":"account","type":"address"}],"name":"recordFailedAttempt","outputs":[],"stateMutability":"nonpayable","type":"function"},{"inputs":[{"internalType":"address","name":"from","type":"address"},{"internalType":"address","name":"","type":"address"},{"internalType":"uint256","name":"amount","type":"uint256"}],"name":"recordTransfer","outputs":[],"stateMutability":"nonpayable","type":"function"},{"inputs":[{"internalType":"bytes32","name":"role","type":"bytes32"},{"internalType":"address","name":"callerConfirmation","type":"address"}],"name":"renounceRole","outputs":[],"stateMutability":"nonpayable","type":"function"},{"inputs":[{"internalType":"bytes32","name":"role","type":"bytes32"},{"internalType":"address","name":"account","type":"address"}],"name":"revokeRole","outputs":[],"stateMutability":"nonpayable","type":"function"},{"inputs":[{"internalType":"bytes4","name":"interfaceId","type":"bytes4"}],"name":"supportsInterface","outputs":[{"internalType":"bool","name":"","type":"bool"}],"stateMutability":"view","type":"function"},{"inputs":[],"name":"suspiciousVelocityThreshold","outputs":[{"internalType":"uint256","name":"","type":"uint256"}],"stateMutability":"view","type":"function"},{"inputs":[{"internalType":"uint256","name":"","type":"uint256"}],"name":"transfersPerBlock","outputs":[{"internalType":"uint256","name":"","type":"uint256"}],"stateMutability":"view","type":"function"},{"inputs":[{"internalType":"uint256","name":"_maxDailyVolume","type":"uint256"},{"internalType":"uint256","name":"_maxHourlyVolume","type":"uint256"},{"internalType":"uint256","name":"_maxSingleTransfer","type":"uint256"},{"internalType":"uint256","name":"_maxTransfersPerHour","type":"uint256"},{"internalType":"uint256","name":"_maxTransfersPerDay","type":"uint256"},{"internalType":"uint256","name":"_maxFailedAttempts","type":"uint256"},{"internalType":"uint256","name":"_failedAttemptWindow","type":"uint256"},{"internalType":"uint256","name":"_autoResetInterval","type":"uint256"}],"name":"updateLimits","outputs":[],"stateMutability":"nonpayable","type":"function"}],"evm":{"bytecode":{"linkReferences":{},"object":"6080806040523461001657612064908161001c8239f35b600080fdfe6040608081526004908136101561001557600080fd5b600091823560e01c90816206d1c51461171d5783826301e3a903146116895750816301ffc9a71461163357816307df2f181461161457816312da5d1e146115f557816312ed45dc146115d657816313935857146115ab578163156b4a7f146110fe5781632190fb3214610e7157816322f3e2d414610d96578163248a9ca314610e39578163258061aa14610e1a5781632f2ff15d14610df057816332627ec714610db857816332941ecb14610d9657816336568abe14610d5057816336b089d814610d3157816339dd5d1b14610d0957816342200b9e14610c9f578163428089c414610c8057816344baa6c2146109c15781635c975abb14610c3d5781635feb1f7114610c1e57816363236f4914610bf6578163668fb1be14610ad55781636b5a0d8c14610a505781636c58ab8314610a3157816376ab94a1146109f6578163789b6315146109c15781637b969e1d146109895781637c5cf1691461095f5781638fbf59291461093757816391d14854146108e3578163943ca3b9146108bb578163a21771241461089c578163a217fddf14610881578163a7e02d7514610857578163ae6e01451461082c578163cc1dd94f146105b7578163d114e6fc1461041c578163d547741f146103cf578163da4493f6146103b0578163da4a64bc14610391578163df18315b14610373578163e48c822114610354578163e54e55ae14610319578163e6b64fdb146102f1578163fd270b8d14610260575063ff3cf3f01461023f57600080fd5b3461025c578160031936011261025c576020906006549051908152f35b5080fd5b919050346102ed576101003660031901126102ed57828052600080516020611fef83398151915260205280832033845260205260ff8184205416156102d157508035600355602435905560443560055560643560075560843560085560a435600a5560c435600b5560e435600d5580f35b91604492519163e2517d3f60e01b835233908301526024820152fd5b8280fd5b9050346102ed5760203660031901126102ed5760209282913581526012845220549051908152f35b50503461025c578160031936011261025c57602090517f7e6b58bc1470e1fc07bc9b21e0435be41fdc30ede9591781476a8d169a2654928152f35b50503461025c578160031936011261025c576020906016549051908152f35b9050346102ed57826003193601126102ed5760209250549051908152f35b50503461025c578160031936011261025c576020906008549051908152f35b50503461025c578160031936011261025c576020906002549051908152f35b919050346102ed57806003193601126102ed57610418913561041360016103f46117e9565b93838752600080516020611fef83398151915260205286200154611c5a565b611eea565b5080f35b9050346102ed576101203660031901126102ed576104386117ce565b7ff0c57e16840df040f15088dc2f81fe391c3923bec73e23a9662efc9c229c6a009182549160ff83861c16159267ffffffffffffffff8116801590816105af575b60011490816105a5575b15908161059c575b5061058c5767ffffffffffffffff19811660011785556104d691908461056d575b506104b5611f6d565b6104bd611f6d565b6104c681611c8d565b506104d081611d1b565b50611dcb565b50602435600355604435905560643560055560843560075560a43560085560c435600a5560e435600b5561010435600d55600560065560646009556a295be96e64066972000000600c5542600e5561052c578280f35b805468ff00000000000000001916905551600181527fc7f505b2f371ae2175ee4913f4499e1f2633a7b5936321eed1cdaeb6115181d290602090a138808280f35b68ffffffffffffffffff191668010000000000000001178555386104ac565b855163f92ee8a960e01b81528390fd5b9050153861048b565b303b159150610483565b859150610479565b919050346102ed576105c8366117ff565b9291505060ff8454166107ea57600554821161079257620151804204610e10420490808652602093600f855261060181858920546119b6565b6003541061073e5761061d9083885260108652848820546119b6565b8554106106e95785526012835281852054600854111561069b5784526011825280842054600754111561064e578380f35b5162461bcd60e51b8152918201526024808201527f486f75726c79207472616e7366657220636f756e74206c696d697420657863656044820152631959195960e21b606482015260849150fd5b505162461bcd60e51b815291820152602360248201527f4461696c79207472616e7366657220636f756e74206c696d697420657863656560448201526219195960ea1b606482015260849150fd5b50505162461bcd60e51b815291820152602960248201527f5472616e7366657220776f756c642065786365656420686f75726c7920766f6c6044820152681d5b59481b1a5b5a5d60ba1b606482015260849150fd5b835162461bcd60e51b8152808701869052602860248201527f5472616e7366657220776f756c6420657863656564206461696c7920766f6c756044820152671b59481b1a5b5a5d60c21b6064820152608490fd5b5162461bcd60e51b8152602081840152602d60248201527f5472616e7366657220616d6f756e7420657863656564732073696e676c65207460448201526c1c985b9cd9995c881b1a5b5a5d609a1b6064820152608490fd5b5162461bcd60e51b8152602081840152601960248201527f4369726375697420627265616b657220697320616374697665000000000000006044820152606490fd5b50503461025c578160031936011261025c57806020926201518042048152600f845220549051908152f35b50503461025c578160031936011261025c5780602092610e10420481526010845220549051908152f35b50503461025c578160031936011261025c5751908152602090f35b50503461025c578160031936011261025c57602090600e549051908152f35b9050346102ed5760203660031901126102ed576020928291358152600f845220549051908152f35b9050346102ed57816003193601126102ed578160209360ff926109046117e9565b90358252600080516020611fef83398151915286528282206001600160a01b039091168252855220549151911615158152f35b9050346102ed5760203660031901126102ed5760209282913581526010845220549051908152f35b50503461025c578160031936011261025c5780602092610e10420481526011845220549051908152f35b50503461025c57602036600319011261025c5760209181906001600160a01b036109b16117ce565b1681526015845220549051908152f35b50503461025c578160031936011261025c576109f2906109df6118c2565b9051918291602083526020830190611976565b0390f35b50503461025c578160031936011261025c57602090517fec47d6804c7d27e1865480cf87e0ddae30c43826b6c4305deb8b98a3038b53738152f35b50503461025c578160031936011261025c576020906007549051908152f35b919050346102ed5760203660031901126102ed578282359167ffffffffffffffff938484116102ed57366023850112156102ed5783013593841161025c57366024858501011161025c5783610ad2946024602093610aac611be0565b5195610ac1601f8401601f19168601886118a0565b828752018386013783010152611a2e565b80f35b919050346102ed5760209182600319360112610bf2576001600160a01b03610afb6117ce565b16908185526015845282852054420390428211610bdf5750600b5411610bc457808452601483526001828520555b8084526015835242828520556014835281842054600a541115610b4a578380f35b7fcef34426b92fd7c1a4dacfb9e7b9625a61226ac4a0e6750a048ad536f84fa87f92610ba88351610b7a8161186e565b601881527f4661696c656420617474656d707473206578636565646564000000000000000083820152611a2e565b8185526014815282852054908351928352820152a13880808380f35b80845260148352818420610bd88154611a1f565b9055610b29565b634e487b7160e01b865260119052602485fd5b8380fd5b9050346102ed5760203660031901126102ed5760209282913581526011845220549051908152f35b50503461025c578160031936011261025c57602090600d549051908152f35b50503461025c578160031936011261025c5760209060ff7fcd5ed15c6e187e77e9aee88184c21f4f2182ab5827cb3b7e07fbedcd63f03300541690519015158152f35b50503461025c578160031936011261025c57602090600c549051908152f35b50503461025c578160031936011261025c5760207f4658f69373abd2ae36994b6398ba682f149ae01805feb8227244965d9f32090991610cdd611be0565b60ff198454168455610cf8610cf3600154611834565b6119d9565b60006001558360025551428152a180f35b9050346102ed5760203660031901126102ed5760209282913581526013845220549051908152f35b50503461025c578160031936011261025c576020906005549051908152f35b83833461025c578060031936011261025c57610d6a6117e9565b90336001600160a01b03831603610d875750610418919235611eea565b5163334bd91960e11b81528390fd5b50503461025c578160031936011261025c5760ff602092541690519015158152f35b50503461025c57602036600319011261025c5760209181906001600160a01b03610de06117ce565b1681526014845220549051908152f35b919050346102ed57806003193601126102ed576104189135610e1560016103f46117e9565b611e75565b50503461025c578160031936011261025c57602090600b549051908152f35b9050346102ed5760203660031901126102ed5781602093600192358152600080516020611fef83398151915285522001549051908152f35b9050346102ed5760c03660031901126102ed578035916024918235604492833591876064948535956084359760a435997fec47d6804c7d27e1865480cf87e0ddae30c43826b6c4305deb8b98a3038b537380865260ff88602097600080516020611fef83398151915289528181203382528952205416156110e757508b1515806110dd575b156110ab57851561106e578715611031578815610ff4578915610fb7578a15610f7a578c7fd06ce7c15574eb8063368953e5e0ddacef652ac418eec4c299f5f118e25cd2eb60c08e8e8e8e8e8e8e8e858f896006558360095585600c5586600355558660055582519788528701528501526060840152608083015260a0820152a180f35b601b907f496e76616c6964206d61782073696e676c65207472616e736665720000000000939588519562461bcd60e51b8752860152840152820152fd5b6019907f496e76616c6964206d617820686f75726c7920766f6c756d6500000000000000939588519562461bcd60e51b8752860152840152820152fd5b6018907f496e76616c6964206d6178206461696c7920766f6c756d650000000000000000939588519562461bcd60e51b8752860152840152820152fd5b601a907f496e76616c69642076656c6f63697479207468726573686f6c64000000000000939588519562461bcd60e51b8752860152840152820152fd5b601f907f496e76616c6964206d6178207472616e73666572732070657220626c6f636b00939588519562461bcd60e51b8752860152840152820152fd5b60129071496e76616c69642070657263656e7461676560701b939588519562461bcd60e51b8752860152840152820152fd5b50828c1115610ef6565b875163e2517d3f60e01b8152338187015291820152fd5b919050346102ed5760809081600319360112610bf25761111c6117ce565b916111256117e9565b506044918235916064948535600654908181029181830414901517156115985786900484116114f45760165443036114de575b4388526020936013855283892061116f8154611a1f565b905543895260138552838920546009541061142b576005548111611364576201518042048952600f85526111a681858b20546119b6565b6003541061129b576111c690610e1042048a5260108652848a20546119b6565b8754106111d1578780f35b928261127e6c1a5b5a5d08195e18d959591959609a1b9693600080516020611fcf83398151915260a060849b9a987f4369726375697420627265616b65723a20486f75726c7920766f6c756d65206c98519060608252601c60608301527f486f75726c7920766f6c756d65206c696d69742065786365656465640000000080958301524388830152600180841b031686820152a18251906112718261186e565b601c825284820152611a2e565b5162461bcd60e51b815295860152602d6024860152840152820152fd5b6084886b1b5a5d08195e18d95959195960a21b897f4369726375697420627265616b65723a204461696c7920766f6c756d65206c698a8a8a6113478b600080516020611fcf83398151915260a08d85519060608252601b60608301527f4461696c7920766f6c756d65206c696d6974206578636565646564000000000080958301524388830152600180841b031686820152a182519061133a8261186e565b601b825284820152611a2e565b5162461bcd60e51b815295860152602c6024860152840152820152fd5b6084886920746f6f206c6172676560b01b897f4369726375697420627265616b65723a2053696e676c65207472616e736665728a8a8a61140e8b600080516020611fcf83398151915260a08d85519060608252601960608301527f53696e676c65207472616e7366657220746f6f206c617267650000000000000080958301524388830152600180841b031686820152a18251906114018261186e565b6019825284820152611a2e565b5162461bcd60e51b815295860152602a6024860152840152820152fd5b6084886265727360e81b897f4369726375697420627265616b65723a20546f6f206d616e79207472616e73668a8a8a6114c18b600080516020611fcf83398151915260a08d85519060608252601c60608301527f546f6f206d616e79207472616e73666572732070657220626c6f636b0000000080958301524388830152600180841b031686820152a18251906112718261186e565b5162461bcd60e51b81529586015260236024860152840152820152fd5b4360165543885260136020528783812055611158565b857f4369726375697420627265616b65723a205472616e7366657220746f6f206c61866020866114c18c97600080516020611fcf83398151915260a06272676560e81b9960849c519060608252601f60608301527f5472616e736665722065786365656473206d61782070657263656e746167650080958301524388830152600180841b031686820152a182519061158b8261186e565b601f825284820152611a2e565b634e487b7160e01b895260118852602489fd5b50503461025c578160031936011261025c578060209262015180420481526012845220549051908152f35b50503461025c578160031936011261025c576020906009549051908152f35b50503461025c578160031936011261025c57602090600a549051908152f35b50503461025c578160031936011261025c576020906003549051908152f35b9050346102ed5760203660031901126102ed57359063ffffffff60e01b82168092036102ed5760209250637965db0b60e01b8214918215611678575b50519015158152f35b6301ffc9a760e01b1491503861166f565b80843461171a57611699366117ff565b905062015180420490610e10420490828652600f6020528486206116be8282546119b6565b905581865260106020526116d68587209182546119b6565b9055845260116020528284206116ec8154611a1f565b9055835260126020528183206117028154611a1f565b90556001600160a01b03168252601460205281205580f35b50fd5b50503461025c578160031936011261025c5761173e600e54600d54906119b6565b421015611749575080f35b60207ff1b43c2e52a9e846469baaebdb63ecfd00023cf4e2b651237f6068f2467d20939160ff198454168455611783610cf3600154611834565b60006001558360025542600e55620151804204808552600f83528482812055610e1042048552601083528482812055601183528482812055845260128252838181205551428152a180f35b600435906001600160a01b03821682036117e457565b600080fd5b602435906001600160a01b03821682036117e457565b60609060031901126117e4576001600160a01b039060043582811681036117e4579160243590811681036117e4579060443590565b90600182811c92168015611864575b602083101461184e57565b634e487b7160e01b600052602260045260246000fd5b91607f1691611843565b6040810190811067ffffffffffffffff82111761188a57604052565b634e487b7160e01b600052604160045260246000fd5b90601f8019910116810190811067ffffffffffffffff82111761188a57604052565b604051906000826001916001546118d881611834565b80845293602091600181169081156119525750600114611903575b5050611901925003836118a0565b565b915092600160005260008051602061200f833981519152936000925b82841061193a575061190194505050810160200138806118f3565b8554888501830152948501948794509281019261191f565b9150506020925061190194915060ff191682840152151560051b82010138806118f3565b919082519283825260005b8481106119a2575050826000602080949584010152601f8019910116010190565b602081830181015184830182015201611981565b919082018092116119c357565b634e487b7160e01b600052601160045260246000fd5b601f81116119e45750565b60019060006001600052601f60008051602061200f833981519152920160051c8201915b828110611a155750505050565b8181558301611a08565b60001981146119c35760010190565b6000805460ff191660019081178255825193929167ffffffffffffffff8511611bcc57611a5b8254611834565b601f8111611b79575b50602090816001601f881114611ae6575093947f11803daffb8bd292f79dc0d607f5a1c30184b28e74ca55f6352d0d874d21072794611ad094939282611adb575b50600019600383901b1c191690821b1790555b42600255604051918291604083526040830190611976565b4260208301520390a1565b905083015138611aa5565b83825260008051602061200f8339815191529291601f198816915b828210611b62575050958392611ad0959492827f11803daffb8bd292f79dc0d607f5a1c30184b28e74ca55f6352d0d874d210727989910611b49575b5050811b019055611ab8565b85015160001960f88460031b161c191690553880611b3d565b808685968294968a01518155019501930190611b01565b82825260008051602061200f833981519152601f870160051c81019160208810611bc2575b601f0160051c019083905b828110611bb7575050611a64565b838155018390611ba9565b9091508190611b9e565b634e487b7160e01b81526041600452602490fd5b3360009081527f4d7367b4c45c93361c07a01249cc1ef90933a8773f26df2dabd0fb4074504d1160205260409020547f7e6b58bc1470e1fc07bc9b21e0435be41fdc30ede9591781476a8d169a2654929060ff1615611c3c5750565b6044906040519063e2517d3f60e01b82523360048301526024820152fd5b80600052600080516020611fef83398151915260205260406000203360005260205260ff6040600020541615611c3c5750565b6001600160a01b031660008181527fb7db2dd08fcb62d0c9e08c51941cae53c267786a0b75803fb7960902fc8ef97d6020526040812054909190600080516020611fef8339815191529060ff16611d16578280526020526040822081835260205260408220600160ff198254161790553391600080516020611faf8339815191528180a4600190565b505090565b6001600160a01b031660008181527f4d7367b4c45c93361c07a01249cc1ef90933a8773f26df2dabd0fb4074504d1160205260408120549091907f7e6b58bc1470e1fc07bc9b21e0435be41fdc30ede9591781476a8d169a26549290600080516020611fef8339815191529060ff16611dc5578184526020526040832082845260205260408320600160ff19825416179055600080516020611faf833981519152339380a4600190565b50505090565b6001600160a01b031660008181527fa560a721e76a28cfb6b7c30b14a4efd9108fcfe83fb956002e1e27af90451ca760205260408120549091907fec47d6804c7d27e1865480cf87e0ddae30c43826b6c4305deb8b98a3038b537390600080516020611fef8339815191529060ff16611dc5578184526020526040832082845260205260408320600160ff19825416179055600080516020611faf833981519152339380a4600190565b90600091808352600080516020611fef83398151915280602052604084209260018060a01b03169283855260205260ff60408520541615600014611dc5578184526020526040832082845260205260408320600160ff19825416179055600080516020611faf833981519152339380a4600190565b90600091808352600080516020611fef83398151915280602052604084209260018060a01b03169283855260205260ff604085205416600014611dc557818452602052604083208284526020526040832060ff1981541690557ff6391f5c32d9c69d2a47ea670b442974b53935d1edc7fd64eb21e047a839171b339380a4600190565b60ff7ff0c57e16840df040f15088dc2f81fe391c3923bec73e23a9662efc9c229c6a005460401c1615611f9c57565b604051631afcd79f60e31b8152600490fdfe2f8788117e7eff1d82e926ec794901d17c78024a50270940304540a733656f0d19345784a352e08cfc0f107ecbf0e78ad69c350b182a491c8ae1ef62192b490b02dd7bc7dec4dceedda775e58dd541e08a116c6c53815c0bd028192f7b626800b10e2d527612073b26eecdfd717e6a320cf44b4afac2b0732d9fcbe2b7fa0cf6a2646970667358221220bd5d820b93169b428fc0927c5c1d8df1bb90ad377e9a320f02c4b46b7bc903ad64736f6c63430008160033","opcodes":"PUSH1 0x80 DUP1 PUSH1 0x40 MSTORE CALLVALUE PUSH2 0x16 JUMPI PUSH2 0x2064 SWAP1 DUP2 PUSH2 0x1C DUP3 CODECOPY RETURN JUMPDEST PUSH1 0x0 DUP1 REVERT INVALID PUSH1 0x40 PUSH1 0x80 DUP2 MSTORE PUSH1 0x4 SWAP1 DUP2 CALLDATASIZE LT ISZERO PUSH2 0x15 JUMPI PUSH1 0x0 DUP1 REVERT JUMPDEST PUSH1 0x0 SWAP2 DUP3 CALLDATALOAD PUSH1 0xE0 SHR SWAP1 DUP2 PUSH3 0x6D1C5 EQ PUSH2 0x171D JUMPI DUP4 DUP3 PUSH4 0x1E3A903 EQ PUSH2 0x1689 JUMPI POP DUP2 PUSH4 0x1FFC9A7 EQ PUSH2 0x1633 JUMPI DUP2 PUSH4 0x7DF2F18 EQ PUSH2 0x1614 JUMPI DUP2 PUSH4 0x12DA5D1E EQ PUSH2 0x15F5 JUMPI DUP2 PUSH4 0x12ED45DC EQ PUSH2 0x15D6 JUMPI DUP2 PUSH4 0x13935857 EQ PUSH2 0x15AB JUMPI DUP2 PUSH4 0x156B4A7F EQ PUSH2 0x10FE JUMPI DUP2 PUSH4 0x2190FB32 EQ PUSH2 0xE71 JUMPI DUP2 PUSH4 0x22F3E2D4 EQ PUSH2 0xD96 JUMPI DUP2 PUSH4 0x248A9CA3 EQ PUSH2 0xE39 JUMPI DUP2 PUSH4 0x258061AA EQ PUSH2 0xE1A JUMPI DUP2 PUSH4 0x2F2FF15D EQ PUSH2 0xDF0 JUMPI DUP2 PUSH4 0x32627EC7 EQ PUSH2 0xDB8 JUMPI DUP2 PUSH4 0x32941ECB EQ PUSH2 0xD96 JUMPI DUP2 PUSH4 0x36568ABE EQ PUSH2 0xD50 JUMPI DUP2 PUSH4 0x36B089D8 EQ PUSH2 0xD31 JUMPI DUP2 PUSH4 0x39DD5D1B EQ PUSH2 0xD09 JUMPI DUP2 PUSH4 0x42200B9E EQ PUSH2 0xC9F JUMPI DUP2 PUSH4 0x428089C4 EQ PUSH2 0xC80 JUMPI DUP2 PUSH4 0x44BAA6C2 EQ PUSH2 0x9C1 JUMPI DUP2 PUSH4 0x5C975ABB EQ PUSH2 0xC3D JUMPI DUP2 PUSH4 0x5FEB1F71 EQ PUSH2 0xC1E JUMPI DUP2 PUSH4 0x63236F49 EQ PUSH2 0xBF6 JUMPI DUP2 PUSH4 0x668FB1BE EQ PUSH2 0xAD5 JUMPI DUP2 PUSH4 0x6B5A0D8C EQ PUSH2 0xA50 JUMPI DUP2 PUSH4 0x6C58AB83 EQ PUSH2 0xA31 JUMPI DUP2 PUSH4 0x76AB94A1 EQ PUSH2 0x9F6 JUMPI DUP2 PUSH4 0x789B6315 EQ PUSH2 0x9C1 JUMPI DUP2 PUSH4 0x7B969E1D EQ PUSH2 0x989 JUMPI DUP2 PUSH4 0x7C5CF169 EQ PUSH2 0x95F JUMPI DUP2 PUSH4 0x8FBF5929 EQ PUSH2 0x937 JUMPI DUP2 PUSH4 0x91D14854 EQ PUSH2 0x8E3 JUMPI DUP2 PUSH4 0x943CA3B9 EQ PUSH2 0x8BB JUMPI DUP2 PUSH4 0xA2177124 EQ PUSH2 0x89C JUMPI DUP2 PUSH4 0xA217FDDF EQ PUSH2 0x881 JUMPI DUP2 PUSH4 0xA7E02D75 EQ PUSH2 0x857 JUMPI DUP2 PUSH4 0xAE6E0145 EQ PUSH2 0x82C JUMPI DUP2 PUSH4 0xCC1DD94F EQ PUSH2 0x5B7 JUMPI DUP2 PUSH4 0xD114E6FC EQ PUSH2 0x41C JUMPI DUP2 PUSH4 0xD547741F EQ PUSH2 0x3CF JUMPI DUP2 PUSH4 0xDA4493F6 EQ PUSH2 0x3B0 JUMPI DUP2 PUSH4 0xDA4A64BC EQ PUSH2 0x391 JUMPI DUP2 PUSH4 0xDF18315B EQ PUSH2 0x373 JUMPI DUP2 PUSH4 0xE48C8221 EQ PUSH2 0x354 JUMPI DUP2 PUSH4 0xE54E55AE EQ PUSH2 0x319 JUMPI DUP2 PUSH4 0xE6B64FDB EQ PUSH2 0x2F1 JUMPI DUP2 PUSH4 0xFD270B8D EQ PUSH2 0x260 JUMPI POP PUSH4 0xFF3CF3F0 EQ PUSH2 0x23F JUMPI PUSH1 0x0 DUP1 REVERT JUMPDEST CALLVALUE PUSH2 0x25C JUMPI DUP2 PUSH1 0x3 NOT CALLDATASIZE ADD SLT PUSH2 0x25C JUMPI PUSH1 0x20 SWAP1 PUSH1 0x6 SLOAD SWAP1 MLOAD SWAP1 DUP2 MSTORE RETURN JUMPDEST POP DUP1 REVERT JUMPDEST SWAP2 SWAP1 POP CALLVALUE PUSH2 0x2ED JUMPI PUSH2 0x100 CALLDATASIZE PUSH1 0x3 NOT ADD SLT PUSH2 0x2ED JUMPI DUP3 DUP1 MSTORE PUSH1 0x0 DUP1 MLOAD PUSH1 0x20 PUSH2 0x1FEF DUP4 CODECOPY DUP2 MLOAD SWAP2 MSTORE PUSH1 0x20 MSTORE DUP1 DUP4 KECCAK256 CALLER DUP5 MSTORE PUSH1 0x20 MSTORE PUSH1 0xFF DUP2 DUP5 KECCAK256 SLOAD AND ISZERO PUSH2 0x2D1 JUMPI POP DUP1 CALLDATALOAD PUSH1 0x3 SSTORE PUSH1 0x24 CALLDATALOAD SWAP1 SSTORE PUSH1 0x44 CALLDATALOAD PUSH1 0x5 SSTORE PUSH1 0x64 CALLDATALOAD PUSH1 0x7 SSTORE PUSH1 0x84 CALLDATALOAD PUSH1 0x8 SSTORE PUSH1 0xA4 CALLDATALOAD PUSH1 0xA SSTORE PUSH1 0xC4 CALLDATALOAD PUSH1 0xB SSTORE PUSH1 0xE4 CALLDATALOAD PUSH1 0xD SSTORE DUP1 RETURN JUMPDEST SWAP2 PUSH1 0x44 SWAP3 MLOAD SWAP2 PUSH4 0xE2517D3F PUSH1 0xE0 SHL DUP4 MSTORE CALLER SWAP1 DUP4 ADD MSTORE PUSH1 0x24 DUP3 ADD MSTORE REVERT JUMPDEST DUP3 DUP1 REVERT JUMPDEST SWAP1 POP CALLVALUE PUSH2 0x2ED JUMPI PUSH1 0x20 CALLDATASIZE PUSH1 0x3 NOT ADD SLT PUSH2 0x2ED JUMPI PUSH1 0x20 SWAP3 DUP3 SWAP2 CALLDATALOAD DUP2 MSTORE PUSH1 0x12 DUP5 MSTORE KECCAK256 SLOAD SWAP1 MLOAD SWAP1 DUP2 MSTORE RETURN JUMPDEST POP POP CALLVALUE PUSH2 0x25C JUMPI DUP2 PUSH1 0x3 NOT CALLDATASIZE ADD SLT PUSH2 0x25C JUMPI PUSH1 0x20 SWAP1 MLOAD PUSH32 0x7E6B58BC1470E1FC07BC9B21E0435BE41FDC30EDE9591781476A8D169A265492 DUP2 MSTORE RETURN JUMPDEST POP POP CALLVALUE PUSH2 0x25C JUMPI DUP2 PUSH1 0x3 NOT CALLDATASIZE ADD SLT PUSH2 0x25C JUMPI PUSH1 0x20 SWAP1 PUSH1 0x16 SLOAD SWAP1 MLOAD SWAP1 DUP2 MSTORE RETURN JUMPDEST SWAP1 POP CALLVALUE PUSH2 0x2ED JUMPI DUP3 PUSH1 0x3 NOT CALLDATASIZE ADD SLT PUSH2 0x2ED JUMPI PUSH1 0x20 SWAP3 POP SLOAD SWAP1 MLOAD SWAP1 DUP2 MSTORE RETURN JUMPDEST POP POP CALLVALUE PUSH2 0x25C JUMPI DUP2 PUSH1 0x3 NOT CALLDATASIZE ADD SLT PUSH2 0x25C JUMPI PUSH1 0x20 SWAP1 PUSH1 0x8 SLOAD SWAP1 MLOAD SWAP1 DUP2 MSTORE RETURN JUMPDEST POP POP CALLVALUE PUSH2 0x25C JUMPI DUP2 PUSH1 0x3 NOT CALLDATASIZE ADD SLT PUSH2 0x25C JUMPI PUSH1 0x20 SWAP1 PUSH1 0x2 SLOAD SWAP1 MLOAD SWAP1 DUP2 MSTORE RETURN JUMPDEST SWAP2 SWAP1 POP CALLVALUE PUSH2 0x2ED JUMPI DUP1 PUSH1 0x3 NOT CALLDATASIZE ADD SLT PUSH2 0x2ED JUMPI PUSH2 0x418 SWAP2 CALLDATALOAD PUSH2 0x413 PUSH1 0x1 PUSH2 0x3F4 PUSH2 0x17E9 JUMP JUMPDEST SWAP4 DUP4 DUP8 MSTORE PUSH1 0x0 DUP1 MLOAD PUSH1 0x20 PUSH2 0x1FEF DUP4 CODECOPY DUP2 MLOAD SWAP2 MSTORE PUSH1 0x20 MSTORE DUP7 KECCAK256 ADD SLOAD PUSH2 0x1C5A JUMP JUMPDEST PUSH2 0x1EEA JUMP JUMPDEST POP DUP1 RETURN JUMPDEST SWAP1 POP CALLVALUE PUSH2 0x2ED JUMPI PUSH2 0x120 CALLDATASIZE PUSH1 0x3 NOT ADD SLT PUSH2 0x2ED JUMPI PUSH2 0x438 PUSH2 0x17CE JUMP JUMPDEST PUSH32 0xF0C57E16840DF040F15088DC2F81FE391C3923BEC73E23A9662EFC9C229C6A00 SWAP2 DUP3 SLOAD SWAP2 PUSH1 0xFF DUP4 DUP7 SHR AND ISZERO SWAP3 PUSH8 0xFFFFFFFFFFFFFFFF DUP2 AND DUP1 ISZERO SWAP1 DUP2 PUSH2 0x5AF JUMPI JUMPDEST PUSH1 0x1 EQ SWAP1 DUP2 PUSH2 0x5A5 JUMPI JUMPDEST ISZERO SWAP1 DUP2 PUSH2 0x59C JUMPI JUMPDEST POP PUSH2 0x58C JUMPI PUSH8 0xFFFFFFFFFFFFFFFF NOT DUP2 AND PUSH1 0x1 OR DUP6 SSTORE PUSH2 0x4D6 SWAP2 SWAP1 DUP5 PUSH2 0x56D JUMPI JUMPDEST POP PUSH2 0x4B5 PUSH2 0x1F6D JUMP JUMPDEST PUSH2 0x4BD PUSH2 0x1F6D JUMP JUMPDEST PUSH2 0x4C6 DUP2 PUSH2 0x1C8D JUMP JUMPDEST POP PUSH2 0x4D0 DUP2 PUSH2 0x1D1B JUMP JUMPDEST POP PUSH2 0x1DCB JUMP JUMPDEST POP PUSH1 0x24 CALLDATALOAD PUSH1 0x3 SSTORE PUSH1 0x44 CALLDATALOAD SWAP1 SSTORE PUSH1 0x64 CALLDATALOAD PUSH1 0x5 SSTORE PUSH1 0x84 CALLDATALOAD PUSH1 0x7 SSTORE PUSH1 0xA4 CALLDATALOAD PUSH1 0x8 SSTORE PUSH1 0xC4 CALLDATALOAD PUSH1 0xA SSTORE PUSH1 0xE4 CALLDATALOAD PUSH1 0xB SSTORE PUSH2 0x104 CALLDATALOAD PUSH1 0xD SSTORE PUSH1 0x5 PUSH1 0x6 SSTORE PUSH1 0x64 PUSH1 0x9 SSTORE PUSH11 0x295BE96E64066972000000 PUSH1 0xC SSTORE TIMESTAMP PUSH1 0xE SSTORE PUSH2 0x52C JUMPI DUP3 DUP1 RETURN JUMPDEST DUP1 SLOAD PUSH9 0xFF0000000000000000 NOT AND SWAP1 SSTORE MLOAD PUSH1 0x1 DUP2 MSTORE PUSH32 0xC7F505B2F371AE2175EE4913F4499E1F2633A7B5936321EED1CDAEB6115181D2 SWAP1 PUSH1 0x20 SWAP1 LOG1 CODESIZE DUP1 DUP3 DUP1 RETURN JUMPDEST PUSH9 0xFFFFFFFFFFFFFFFFFF NOT AND PUSH9 0x10000000000000001 OR DUP6 SSTORE CODESIZE PUSH2 0x4AC JUMP JUMPDEST DUP6 MLOAD PUSH4 0xF92EE8A9 PUSH1 0xE0 SHL DUP2 MSTORE DUP4 SWAP1 REVERT JUMPDEST SWAP1 POP ISZERO CODESIZE PUSH2 0x48B JUMP JUMPDEST ADDRESS EXTCODESIZE ISZERO SWAP2 POP PUSH2 0x483 JUMP JUMPDEST DUP6 SWAP2 POP PUSH2 0x479 JUMP JUMPDEST SWAP2 SWAP1 POP CALLVALUE PUSH2 0x2ED JUMPI PUSH2 0x5C8 CALLDATASIZE PUSH2 0x17FF JUMP JUMPDEST SWAP3 SWAP2 POP POP PUSH1 0xFF DUP5 SLOAD AND PUSH2 0x7EA JUMPI PUSH1 0x5 SLOAD DUP3 GT PUSH2 0x792 JUMPI PUSH3 0x15180 TIMESTAMP DIV PUSH2 0xE10 TIMESTAMP DIV SWAP1 DUP1 DUP7 MSTORE PUSH1 0x20 SWAP4 PUSH1 0xF DUP6 MSTORE PUSH2 0x601 DUP2 DUP6 DUP10 KECCAK256 SLOAD PUSH2 0x19B6 JUMP JUMPDEST PUSH1 0x3 SLOAD LT PUSH2 0x73E JUMPI PUSH2 0x61D SWAP1 DUP4 DUP9 MSTORE PUSH1 0x10 DUP7 MSTORE DUP5 DUP9 KECCAK256 SLOAD PUSH2 0x19B6 JUMP JUMPDEST DUP6 SLOAD LT PUSH2 0x6E9 JUMPI DUP6 MSTORE PUSH1 0x12 DUP4 MSTORE DUP2 DUP6 KECCAK256 SLOAD PUSH1 0x8 SLOAD GT ISZERO PUSH2 0x69B JUMPI DUP5 MSTORE PUSH1 0x11 DUP3 MSTORE DUP1 DUP5 KECCAK256 SLOAD PUSH1 0x7 SLOAD GT ISZERO PUSH2 0x64E JUMPI DUP4 DUP1 RETURN JUMPDEST MLOAD PUSH3 0x461BCD PUSH1 0xE5 SHL DUP2 MSTORE SWAP2 DUP3 ADD MSTORE PUSH1 0x24 DUP1 DUP3 ADD MSTORE PUSH32 0x486F75726C79207472616E7366657220636F756E74206C696D69742065786365 PUSH1 0x44 DUP3 ADD MSTORE PUSH4 0x19591959 PUSH1 0xE2 SHL PUSH1 0x64 DUP3 ADD MSTORE PUSH1 0x84 SWAP2 POP REVERT JUMPDEST POP MLOAD PUSH3 0x461BCD PUSH1 0xE5 SHL DUP2 MSTORE SWAP2 DUP3 ADD MSTORE PUSH1 0x23 PUSH1 0x24 DUP3 ADD MSTORE PUSH32 0x4461696C79207472616E7366657220636F756E74206C696D6974206578636565 PUSH1 0x44 DUP3 ADD MSTORE PUSH3 0x191959 PUSH1 0xEA SHL PUSH1 0x64 DUP3 ADD MSTORE PUSH1 0x84 SWAP2 POP REVERT JUMPDEST POP POP MLOAD PUSH3 0x461BCD PUSH1 0xE5 SHL DUP2 MSTORE SWAP2 DUP3 ADD MSTORE PUSH1 0x29 PUSH1 0x24 DUP3 ADD MSTORE PUSH32 0x5472616E7366657220776F756C642065786365656420686F75726C7920766F6C PUSH1 0x44 DUP3 ADD MSTORE PUSH9 0x1D5B59481B1A5B5A5D PUSH1 0xBA SHL PUSH1 0x64 DUP3 ADD MSTORE PUSH1 0x84 SWAP2 POP REVERT JUMPDEST DUP4 MLOAD PUSH3 0x461BCD PUSH1 0xE5 SHL DUP2 MSTORE DUP1 DUP8 ADD DUP7 SWAP1 MSTORE PUSH1 0x28 PUSH1 0x24 DUP3 ADD MSTORE PUSH32 0x5472616E7366657220776F756C6420657863656564206461696C7920766F6C75 PUSH1 0x44 DUP3 ADD MSTORE PUSH8 0x1B59481B1A5B5A5D PUSH1 0xC2 SHL PUSH1 0x64 DUP3 ADD MSTORE PUSH1 0x84 SWAP1 REVERT JUMPDEST MLOAD PUSH3 0x461BCD PUSH1 0xE5 SHL DUP2 MSTORE PUSH1 0x20 DUP2 DUP5 ADD MSTORE PUSH1 0x2D PUSH1 0x24 DUP3 ADD MSTORE PUSH32 0x5472616E7366657220616D6F756E7420657863656564732073696E676C652074 PUSH1 0x44 DUP3 ADD MSTORE PUSH13 0x1C985B9CD9995C881B1A5B5A5D PUSH1 0x9A SHL PUSH1 0x64 DUP3 ADD MSTORE PUSH1 0x84 SWAP1 REVERT JUMPDEST MLOAD PUSH3 0x461BCD PUSH1 0xE5 SHL DUP2 MSTORE PUSH1 0x20 DUP2 DUP5 ADD MSTORE PUSH1 0x19 PUSH1 0x24 DUP3 ADD MSTORE PUSH32 0x4369726375697420627265616B65722069732061637469766500000000000000 PUSH1 0x44 DUP3 ADD MSTORE PUSH1 0x64 SWAP1 REVERT JUMPDEST POP POP CALLVALUE PUSH2 0x25C JUMPI DUP2 PUSH1 0x3 NOT CALLDATASIZE ADD SLT PUSH2 0x25C JUMPI DUP1 PUSH1 0x20 SWAP3 PUSH3 0x15180 TIMESTAMP DIV DUP2 MSTORE PUSH1 0xF DUP5 MSTORE KECCAK256 SLOAD SWAP1 MLOAD SWAP1 DUP2 MSTORE RETURN JUMPDEST POP POP CALLVALUE PUSH2 0x25C JUMPI DUP2 PUSH1 0x3 NOT CALLDATASIZE ADD SLT PUSH2 0x25C JUMPI DUP1 PUSH1 0x20 SWAP3 PUSH2 0xE10 TIMESTAMP DIV DUP2 MSTORE PUSH1 0x10 DUP5 MSTORE KECCAK256 SLOAD SWAP1 MLOAD SWAP1 DUP2 MSTORE RETURN JUMPDEST POP POP CALLVALUE PUSH2 0x25C JUMPI DUP2 PUSH1 0x3 NOT CALLDATASIZE ADD SLT PUSH2 0x25C JUMPI MLOAD SWAP1 DUP2 MSTORE PUSH1 0x20 SWAP1 RETURN JUMPDEST POP POP CALLVALUE PUSH2 0x25C JUMPI DUP2 PUSH1 0x3 NOT CALLDATASIZE ADD SLT PUSH2 0x25C JUMPI PUSH1 0x20 SWAP1 PUSH1 0xE SLOAD SWAP1 MLOAD SWAP1 DUP2 MSTORE RETURN JUMPDEST SWAP1 POP CALLVALUE PUSH2 0x2ED JUMPI PUSH1 0x20 CALLDATASIZE PUSH1 0x3 NOT ADD SLT PUSH2 0x2ED JUMPI PUSH1 0x20 SWAP3 DUP3 SWAP2 CALLDATALOAD DUP2 MSTORE PUSH1 0xF DUP5 MSTORE KECCAK256 SLOAD SWAP1 MLOAD SWAP1 DUP2 MSTORE RETURN JUMPDEST SWAP1 POP CALLVALUE PUSH2 0x2ED JUMPI DUP2 PUSH1 0x3 NOT CALLDATASIZE ADD SLT PUSH2 0x2ED JUMPI DUP2 PUSH1 0x20 SWAP4 PUSH1 0xFF SWAP3 PUSH2 0x904 PUSH2 0x17E9 JUMP JUMPDEST SWAP1 CALLDATALOAD DUP3 MSTORE PUSH1 0x0 DUP1 MLOAD PUSH1 0x20 PUSH2 0x1FEF DUP4 CODECOPY DUP2 MLOAD SWAP2 MSTORE DUP7 MSTORE DUP3 DUP3 KECCAK256 PUSH1 0x1 PUSH1 0x1 PUSH1 0xA0 SHL SUB SWAP1 SWAP2 AND DUP3 MSTORE DUP6 MSTORE KECCAK256 SLOAD SWAP2 MLOAD SWAP2 AND ISZERO ISZERO DUP2 MSTORE RETURN JUMPDEST SWAP1 POP CALLVALUE PUSH2 0x2ED JUMPI PUSH1 0x20 CALLDATASIZE PUSH1 0x3 NOT ADD SLT PUSH2 0x2ED JUMPI PUSH1 0x20 SWAP3 DUP3 SWAP2 CALLDATALOAD DUP2 MSTORE PUSH1 0x10 DUP5 MSTORE KECCAK256 SLOAD SWAP1 MLOAD SWAP1 DUP2 MSTORE RETURN JUMPDEST POP POP CALLVALUE PUSH2 0x25C JUMPI DUP2 PUSH1 0x3 NOT CALLDATASIZE ADD SLT PUSH2 0x25C JUMPI DUP1 PUSH1 0x20 SWAP3 PUSH2 0xE10 TIMESTAMP DIV DUP2 MSTORE PUSH1 0x11 DUP5 MSTORE KECCAK256 SLOAD SWAP1 MLOAD SWAP1 DUP2 MSTORE RETURN JUMPDEST POP POP CALLVALUE PUSH2 0x25C JUMPI PUSH1 0x20 CALLDATASIZE PUSH1 0x3 NOT ADD SLT PUSH2 0x25C JUMPI PUSH1 0x20 SWAP2 DUP2 SWAP1 PUSH1 0x1 PUSH1 0x1 PUSH1 0xA0 SHL SUB PUSH2 0x9B1 PUSH2 0x17CE JUMP JUMPDEST AND DUP2 MSTORE PUSH1 0x15 DUP5 MSTORE KECCAK256 SLOAD SWAP1 MLOAD SWAP1 DUP2 MSTORE RETURN JUMPDEST POP POP CALLVALUE PUSH2 0x25C JUMPI DUP2 PUSH1 0x3 NOT CALLDATASIZE ADD SLT PUSH2 0x25C JUMPI PUSH2 0x9F2 SWAP1 PUSH2 0x9DF PUSH2 0x18C2 JUMP JUMPDEST SWAP1 MLOAD SWAP2 DUP3 SWAP2 PUSH1 0x20 DUP4 MSTORE PUSH1 0x20 DUP4 ADD SWAP1 PUSH2 0x1976 JUMP JUMPDEST SUB SWAP1 RETURN JUMPDEST POP POP CALLVALUE PUSH2 0x25C JUMPI DUP2 PUSH1 0x3 NOT CALLDATASIZE ADD SLT PUSH2 0x25C JUMPI PUSH1 0x20 SWAP1 MLOAD PUSH32 0xEC47D6804C7D27E1865480CF87E0DDAE30C43826B6C4305DEB8B98A3038B5373 DUP2 MSTORE RETURN JUMPDEST POP POP CALLVALUE PUSH2 0x25C JUMPI DUP2 PUSH1 0x3 NOT CALLDATASIZE ADD SLT PUSH2 0x25C JUMPI PUSH1 0x20 SWAP1 PUSH1 0x7 SLOAD SWAP1 MLOAD SWAP1 DUP2 MSTORE RETURN JUMPDEST SWAP2 SWAP1 POP CALLVALUE PUSH2 0x2ED JUMPI PUSH1 0x20 CALLDATASIZE PUSH1 0x3 NOT ADD SLT PUSH2 0x2ED JUMPI DUP3 DUP3 CALLDATALOAD SWAP2 PUSH8 0xFFFFFFFFFFFFFFFF SWAP4 DUP5 DUP5 GT PUSH2 0x2ED JUMPI CALLDATASIZE PUSH1 0x23 DUP6 ADD SLT ISZERO PUSH2 0x2ED JUMPI DUP4 ADD CALLDATALOAD SWAP4 DUP5 GT PUSH2 0x25C JUMPI CALLDATASIZE PUSH1 0x24 DUP6 DUP6 ADD ADD GT PUSH2 0x25C JUMPI DUP4 PUSH2 0xAD2 SWAP5 PUSH1 0x24 PUSH1 0x20 SWAP4 PUSH2 0xAAC PUSH2 0x1BE0 JUMP JUMPDEST MLOAD SWAP6 PUSH2 0xAC1 PUSH1 0x1F DUP5 ADD PUSH1 0x1F NOT AND DUP7 ADD DUP9 PUSH2 0x18A0 JUMP JUMPDEST DUP3 DUP8 MSTORE ADD DUP4 DUP7 ADD CALLDATACOPY DUP4 ADD ADD MSTORE PUSH2 0x1A2E JUMP JUMPDEST DUP1 RETURN JUMPDEST SWAP2 SWAP1 POP CALLVALUE PUSH2 0x2ED JUMPI PUSH1 0x20 SWAP2 DUP3 PUSH1 0x3 NOT CALLDATASIZE ADD SLT PUSH2 0xBF2 JUMPI PUSH1 0x1 PUSH1 0x1 PUSH1 0xA0 SHL SUB PUSH2 0xAFB PUSH2 0x17CE JUMP JUMPDEST AND SWAP1 DUP2 DUP6 MSTORE PUSH1 0x15 DUP5 MSTORE DUP3 DUP6 KECCAK256 SLOAD TIMESTAMP SUB SWAP1 TIMESTAMP DUP3 GT PUSH2 0xBDF JUMPI POP PUSH1 0xB SLOAD GT PUSH2 0xBC4 JUMPI DUP1 DUP5 MSTORE PUSH1 0x14 DUP4 MSTORE PUSH1 0x1 DUP3 DUP6 KECCAK256 SSTORE JUMPDEST DUP1 DUP5 MSTORE PUSH1 0x15 DUP4 MSTORE TIMESTAMP DUP3 DUP6 KECCAK256 SSTORE PUSH1 0x14 DUP4 MSTORE DUP2 DUP5 KECCAK256 SLOAD PUSH1 0xA SLOAD GT ISZERO PUSH2 0xB4A JUMPI DUP4 DUP1 RETURN JUMPDEST PUSH32 0xCEF34426B92FD7C1A4DACFB9E7B9625A61226AC4A0E6750A048AD536F84FA87F SWAP3 PUSH2 0xBA8 DUP4 MLOAD PUSH2 0xB7A DUP2 PUSH2 0x186E JUMP JUMPDEST PUSH1 0x18 DUP2 MSTORE PUSH32 0x4661696C656420617474656D7074732065786365656465640000000000000000 DUP4 DUP3 ADD MSTORE PUSH2 0x1A2E JUMP JUMPDEST DUP2 DUP6 MSTORE PUSH1 0x14 DUP2 MSTORE DUP3 DUP6 KECCAK256 SLOAD SWAP1 DUP4 MLOAD SWAP3 DUP4 MSTORE DUP3 ADD MSTORE LOG1 CODESIZE DUP1 DUP1 DUP4 DUP1 RETURN JUMPDEST DUP1 DUP5 MSTORE PUSH1 0x14 DUP4 MSTORE DUP2 DUP5 KECCAK256 PUSH2 0xBD8 DUP2 SLOAD PUSH2 0x1A1F JUMP JUMPDEST SWAP1 SSTORE PUSH2 0xB29 JUMP JUMPDEST PUSH4 0x4E487B71 PUSH1 0xE0 SHL DUP7 MSTORE PUSH1 0x11 SWAP1 MSTORE PUSH1 0x24 DUP6 REVERT JUMPDEST DUP4 DUP1 REVERT JUMPDEST SWAP1 POP CALLVALUE PUSH2 0x2ED JUMPI PUSH1 0x20 CALLDATASIZE PUSH1 0x3 NOT ADD SLT PUSH2 0x2ED JUMPI PUSH1 0x20 SWAP3 DUP3 SWAP2 CALLDATALOAD DUP2 MSTORE PUSH1 0x11 DUP5 MSTORE KECCAK256 SLOAD SWAP1 MLOAD SWAP1 DUP2 MSTORE RETURN JUMPDEST POP POP CALLVALUE PUSH2 0x25C JUMPI DUP2 PUSH1 0x3 NOT CALLDATASIZE ADD SLT PUSH2 0x25C JUMPI PUSH1 0x20 SWAP1 PUSH1 0xD SLOAD SWAP1 MLOAD SWAP1 DUP2 MSTORE RETURN JUMPDEST POP POP CALLVALUE PUSH2 0x25C JUMPI DUP2 PUSH1 0x3 NOT CALLDATASIZE ADD SLT PUSH2 0x25C JUMPI PUSH1 0x20 SWAP1 PUSH1 0xFF PUSH32 0xCD5ED15C6E187E77E9AEE88184C21F4F2182AB5827CB3B7E07FBEDCD63F03300 SLOAD AND SWAP1 MLOAD SWAP1 ISZERO ISZERO DUP2 MSTORE RETURN JUMPDEST POP POP CALLVALUE PUSH2 0x25C JUMPI DUP2 PUSH1 0x3 NOT CALLDATASIZE ADD SLT PUSH2 0x25C JUMPI PUSH1 0x20 SWAP1 PUSH1 0xC SLOAD SWAP1 MLOAD SWAP1 DUP2 MSTORE RETURN JUMPDEST POP POP CALLVALUE PUSH2 0x25C JUMPI DUP2 PUSH1 0x3 NOT CALLDATASIZE ADD SLT PUSH2 0x25C JUMPI PUSH1 0x20 PUSH32 0x4658F69373ABD2AE36994B6398BA682F149AE01805FEB8227244965D9F320909 SWAP2 PUSH2 0xCDD PUSH2 0x1BE0 JUMP JUMPDEST PUSH1 0xFF NOT DUP5 SLOAD AND DUP5 SSTORE PUSH2 0xCF8 PUSH2 0xCF3 PUSH1 0x1 SLOAD PUSH2 0x1834 JUMP JUMPDEST PUSH2 0x19D9 JUMP JUMPDEST PUSH1 0x0 PUSH1 0x1 SSTORE DUP4 PUSH1 0x2 SSTORE MLOAD TIMESTAMP DUP2 MSTORE LOG1 DUP1 RETURN JUMPDEST SWAP1 POP CALLVALUE PUSH2 0x2ED JUMPI PUSH1 0x20 CALLDATASIZE PUSH1 0x3 NOT ADD SLT PUSH2 0x2ED JUMPI PUSH1 0x20 SWAP3 DUP3 SWAP2 CALLDATALOAD DUP2 MSTORE PUSH1 0x13 DUP5 MSTORE KECCAK256 SLOAD SWAP1 MLOAD SWAP1 DUP2 MSTORE RETURN JUMPDEST POP POP CALLVALUE PUSH2 0x25C JUMPI DUP2 PUSH1 0x3 NOT CALLDATASIZE ADD SLT PUSH2 0x25C JUMPI PUSH1 0x20 SWAP1 PUSH1 0x5 SLOAD SWAP1 MLOAD SWAP1 DUP2 MSTORE RETURN JUMPDEST DUP4 DUP4 CALLVALUE PUSH2 0x25C JUMPI DUP1 PUSH1 0x3 NOT CALLDATASIZE ADD SLT PUSH2 0x25C JUMPI PUSH2 0xD6A PUSH2 0x17E9 JUMP JUMPDEST SWAP1 CALLER PUSH1 0x1 PUSH1 0x1 PUSH1 0xA0 SHL SUB DUP4 AND SUB PUSH2 0xD87 JUMPI POP PUSH2 0x418 SWAP2 SWAP3 CALLDATALOAD PUSH2 0x1EEA JUMP JUMPDEST MLOAD PUSH4 0x334BD919 PUSH1 0xE1 SHL DUP2 MSTORE DUP4 SWAP1 REVERT JUMPDEST POP POP CALLVALUE PUSH2 0x25C JUMPI DUP2 PUSH1 0x3 NOT CALLDATASIZE ADD SLT PUSH2 0x25C JUMPI PUSH1 0xFF PUSH1 0x20 SWAP3 SLOAD AND SWAP1 MLOAD SWAP1 ISZERO ISZERO DUP2 MSTORE RETURN JUMPDEST POP POP CALLVALUE PUSH2 0x25C JUMPI PUSH1 0x20 CALLDATASIZE PUSH1 0x3 NOT ADD SLT PUSH2 0x25C JUMPI PUSH1 0x20 SWAP2 DUP2 SWAP1 PUSH1 0x1 PUSH1 0x1 PUSH1 0xA0 SHL SUB PUSH2 0xDE0 PUSH2 0x17CE JUMP JUMPDEST AND DUP2 MSTORE PUSH1 0x14 DUP5 MSTORE KECCAK256 SLOAD SWAP1 MLOAD SWAP1 DUP2 MSTORE RETURN JUMPDEST SWAP2 SWAP1 POP CALLVALUE PUSH2 0x2ED JUMPI DUP1 PUSH1 0x3 NOT CALLDATASIZE ADD SLT PUSH2 0x2ED JUMPI PUSH2 0x418 SWAP2 CALLDATALOAD PUSH2 0xE15 PUSH1 0x1 PUSH2 0x3F4 PUSH2 0x17E9 JUMP JUMPDEST PUSH2 0x1E75 JUMP JUMPDEST POP POP CALLVALUE PUSH2 0x25C JUMPI DUP2 PUSH1 0x3 NOT CALLDATASIZE ADD SLT PUSH2 0x25C JUMPI PUSH1 0x20 SWAP1 PUSH1 0xB SLOAD SWAP1 MLOAD SWAP1 DUP2 MSTORE RETURN JUMPDEST SWAP1 POP CALLVALUE PUSH2 0x2ED JUMPI PUSH1 0x20 CALLDATASIZE PUSH1 0x3 NOT ADD SLT PUSH2 0x2ED JUMPI DUP2 PUSH1 0x20 SWAP4 PUSH1 0x1 SWAP3 CALLDATALOAD DUP2 MSTORE PUSH1 0x0 DUP1 MLOAD PUSH1 0x20 PUSH2 0x1FEF DUP4 CODECOPY DUP2 MLOAD SWAP2 MSTORE DUP6 MSTORE KECCAK256 ADD SLOAD SWAP1 MLOAD SWAP1 DUP2 MSTORE RETURN JUMPDEST SWAP1 POP CALLVALUE PUSH2 0x2ED JUMPI PUSH1 0xC0 CALLDATASIZE PUSH1 0x3 NOT ADD SLT PUSH2 0x2ED JUMPI DUP1 CALLDATALOAD SWAP2 PUSH1 0x24 SWAP2 DUP3 CALLDATALOAD PUSH1 0x44 SWAP3 DUP4 CALLDATALOAD SWAP2 DUP8 PUSH1 0x64 SWAP5 DUP6 CALLDATALOAD SWAP6 PUSH1 0x84 CALLDATALOAD SWAP8 PUSH1 0xA4 CALLDATALOAD SWAP10 PUSH32 0xEC47D6804C7D27E1865480CF87E0DDAE30C43826B6C4305DEB8B98A3038B5373 DUP1 DUP7 MSTORE PUSH1 0xFF DUP9 PUSH1 0x20 SWAP8 PUSH1 0x0 DUP1 MLOAD PUSH1 0x20 PUSH2 0x1FEF DUP4 CODECOPY DUP2 MLOAD SWAP2 MSTORE DUP10 MSTORE DUP2 DUP2 KECCAK256 CALLER DUP3 MSTORE DUP10 MSTORE KECCAK256 SLOAD AND ISZERO PUSH2 0x10E7 JUMPI POP DUP12 ISZERO ISZERO DUP1 PUSH2 0x10DD JUMPI JUMPDEST ISZERO PUSH2 0x10AB JUMPI DUP6 ISZERO PUSH2 0x106E JUMPI DUP8 ISZERO PUSH2 0x1031 JUMPI DUP9 ISZERO PUSH2 0xFF4 JUMPI DUP10 ISZERO PUSH2 0xFB7 JUMPI DUP11 ISZERO PUSH2 0xF7A JUMPI DUP13 PUSH32 0xD06CE7C15574EB8063368953E5E0DDACEF652AC418EEC4C299F5F118E25CD2EB PUSH1 0xC0 DUP15 DUP15 DUP15 DUP15 DUP15 DUP15 DUP15 DUP15 DUP6 DUP16 DUP10 PUSH1 0x6 SSTORE DUP4 PUSH1 0x9 SSTORE DUP6 PUSH1 0xC SSTORE DUP7 PUSH1 0x3 SSTORE SSTORE DUP7 PUSH1 0x5 SSTORE DUP3 MLOAD SWAP8 DUP9 MSTORE DUP8 ADD MSTORE DUP6 ADD MSTORE PUSH1 0x60 DUP5 ADD MSTORE PUSH1 0x80 DUP4 ADD MSTORE PUSH1 0xA0 DUP3 ADD MSTORE LOG1 DUP1 RETURN JUMPDEST PUSH1 0x1B SWAP1 PUSH32 0x496E76616C6964206D61782073696E676C65207472616E736665720000000000 SWAP4 SWAP6 DUP9 MLOAD SWAP6 PUSH3 0x461BCD PUSH1 0xE5 SHL DUP8 MSTORE DUP7 ADD MSTORE DUP5 ADD MSTORE DUP3 ADD MSTORE REVERT JUMPDEST PUSH1 0x19 SWAP1 PUSH32 0x496E76616C6964206D617820686F75726C7920766F6C756D6500000000000000 SWAP4 SWAP6 DUP9 MLOAD SWAP6 PUSH3 0x461BCD PUSH1 0xE5 SHL DUP8 MSTORE DUP7 ADD MSTORE DUP5 ADD MSTORE DUP3 ADD MSTORE REVERT JUMPDEST PUSH1 0x18 SWAP1 PUSH32 0x496E76616C6964206D6178206461696C7920766F6C756D650000000000000000 SWAP4 SWAP6 DUP9 MLOAD SWAP6 PUSH3 0x461BCD PUSH1 0xE5 SHL DUP8 MSTORE DUP7 ADD MSTORE DUP5 ADD MSTORE DUP3 ADD MSTORE REVERT JUMPDEST PUSH1 0x1A SWAP1 PUSH32 0x496E76616C69642076656C6F63697479207468726573686F6C64000000000000 SWAP4 SWAP6 DUP9 MLOAD SWAP6 PUSH3 0x461BCD PUSH1 0xE5 SHL DUP8 MSTORE DUP7 ADD MSTORE DUP5 ADD MSTORE DUP3 ADD MSTORE REVERT JUMPDEST PUSH1 0x1F SWAP1 PUSH32 0x496E76616C6964206D6178207472616E73666572732070657220626C6F636B00 SWAP4 SWAP6 DUP9 MLOAD SWAP6 PUSH3 0x461BCD PUSH1 0xE5 SHL DUP8 MSTORE DUP7 ADD MSTORE DUP5 ADD MSTORE DUP3 ADD MSTORE REVERT JUMPDEST PUSH1 0x12 SWAP1 PUSH18 0x496E76616C69642070657263656E74616765 PUSH1 0x70 SHL SWAP4 SWAP6 DUP9 MLOAD SWAP6 PUSH3 0x461BCD PUSH1 0xE5 SHL DUP8 MSTORE DUP7 ADD MSTORE DUP5 ADD MSTORE DUP3 ADD MSTORE REVERT JUMPDEST POP DUP3 DUP13 GT ISZERO PUSH2 0xEF6 JUMP JUMPDEST DUP8 MLOAD PUSH4 0xE2517D3F PUSH1 0xE0 SHL DUP2 MSTORE CALLER DUP2 DUP8 ADD MSTORE SWAP2 DUP3 ADD MSTORE REVERT JUMPDEST SWAP2 SWAP1 POP CALLVALUE PUSH2 0x2ED JUMPI PUSH1 0x80 SWAP1 DUP2 PUSH1 0x3 NOT CALLDATASIZE ADD SLT PUSH2 0xBF2 JUMPI PUSH2 0x111C PUSH2 0x17CE JUMP JUMPDEST SWAP2 PUSH2 0x1125 PUSH2 0x17E9 JUMP JUMPDEST POP PUSH1 0x44 SWAP2 DUP3 CALLDATALOAD SWAP2 PUSH1 0x64 SWAP5 DUP6 CALLDATALOAD PUSH1 0x6 SLOAD SWAP1 DUP2 DUP2 MUL SWAP2 DUP2 DUP4 DIV EQ SWAP1 ISZERO OR ISZERO PUSH2 0x1598 JUMPI DUP7 SWAP1 DIV DUP5 GT PUSH2 0x14F4 JUMPI PUSH1 0x16 SLOAD NUMBER SUB PUSH2 0x14DE JUMPI JUMPDEST NUMBER DUP9 MSTORE PUSH1 0x20 SWAP4 PUSH1 0x13 DUP6 MSTORE DUP4 DUP10 KECCAK256 PUSH2 0x116F DUP2 SLOAD PUSH2 0x1A1F JUMP JUMPDEST SWAP1 SSTORE NUMBER DUP10 MSTORE PUSH1 0x13 DUP6 MSTORE DUP4 DUP10 KECCAK256 SLOAD PUSH1 0x9 SLOAD LT PUSH2 0x142B JUMPI PUSH1 0x5 SLOAD DUP2 GT PUSH2 0x1364 JUMPI PUSH3 0x15180 TIMESTAMP DIV DUP10 MSTORE PUSH1 0xF DUP6 MSTORE PUSH2 0x11A6 DUP2 DUP6 DUP12 KECCAK256 SLOAD PUSH2 0x19B6 JUMP JUMPDEST PUSH1 0x3 SLOAD LT PUSH2 0x129B JUMPI PUSH2 0x11C6 SWAP1 PUSH2 0xE10 TIMESTAMP DIV DUP11 MSTORE PUSH1 0x10 DUP7 MSTORE DUP5 DUP11 KECCAK256 SLOAD PUSH2 0x19B6 JUMP JUMPDEST DUP8 SLOAD LT PUSH2 0x11D1 JUMPI DUP8 DUP1 RETURN JUMPDEST SWAP3 DUP3 PUSH2 0x127E PUSH13 0x1A5B5A5D08195E18D959591959 PUSH1 0x9A SHL SWAP7 SWAP4 PUSH1 0x0 DUP1 MLOAD PUSH1 0x20 PUSH2 0x1FCF DUP4 CODECOPY DUP2 MLOAD SWAP2 MSTORE PUSH1 0xA0 PUSH1 0x84 SWAP12 SWAP11 SWAP9 PUSH32 0x4369726375697420627265616B65723A20486F75726C7920766F6C756D65206C SWAP9 MLOAD SWAP1 PUSH1 0x60 DUP3 MSTORE PUSH1 0x1C PUSH1 0x60 DUP4 ADD MSTORE PUSH32 0x486F75726C7920766F6C756D65206C696D697420657863656564656400000000 DUP1 SWAP6 DUP4 ADD MSTORE NUMBER DUP9 DUP4 ADD MSTORE PUSH1 0x1 DUP1 DUP5 SHL SUB AND DUP7 DUP3 ADD MSTORE LOG1 DUP3 MLOAD SWAP1 PUSH2 0x1271 DUP3 PUSH2 0x186E JUMP JUMPDEST PUSH1 0x1C DUP3 MSTORE DUP5 DUP3 ADD MSTORE PUSH2 0x1A2E JUMP JUMPDEST MLOAD PUSH3 0x461BCD PUSH1 0xE5 SHL DUP2 MSTORE SWAP6 DUP7 ADD MSTORE PUSH1 0x2D PUSH1 0x24 DUP7 ADD MSTORE DUP5 ADD MSTORE DUP3 ADD MSTORE REVERT JUMPDEST PUSH1 0x84 DUP9 PUSH12 0x1B5A5D08195E18D959591959 PUSH1 0xA2 SHL DUP10 PUSH32 0x4369726375697420627265616B65723A204461696C7920766F6C756D65206C69 DUP11 DUP11 DUP11 PUSH2 0x1347 DUP12 PUSH1 0x0 DUP1 MLOAD PUSH1 0x20 PUSH2 0x1FCF DUP4 CODECOPY DUP2 MLOAD SWAP2 MSTORE PUSH1 0xA0 DUP14 DUP6 MLOAD SWAP1 PUSH1 0x60 DUP3 MSTORE PUSH1 0x1B PUSH1 0x60 DUP4 ADD MSTORE PUSH32 0x4461696C7920766F6C756D65206C696D69742065786365656465640000000000 DUP1 SWAP6 DUP4 ADD MSTORE NUMBER DUP9 DUP4 ADD MSTORE PUSH1 0x1 DUP1 DUP5 SHL SUB AND DUP7 DUP3 ADD MSTORE LOG1 DUP3 MLOAD SWAP1 PUSH2 0x133A DUP3 PUSH2 0x186E JUMP JUMPDEST PUSH1 0x1B DUP3 MSTORE DUP5 DUP3 ADD MSTORE PUSH2 0x1A2E JUMP JUMPDEST MLOAD PUSH3 0x461BCD PUSH1 0xE5 SHL DUP2 MSTORE SWAP6 DUP7 ADD MSTORE PUSH1 0x2C PUSH1 0x24 DUP7 ADD MSTORE DUP5 ADD MSTORE DUP3 ADD MSTORE REVERT JUMPDEST PUSH1 0x84 DUP9 PUSH10 0x20746F6F206C61726765 PUSH1 0xB0 SHL DUP10 PUSH32 0x4369726375697420627265616B65723A2053696E676C65207472616E73666572 DUP11 DUP11 DUP11 PUSH2 0x140E DUP12 PUSH1 0x0 DUP1 MLOAD PUSH1 0x20 PUSH2 0x1FCF DUP4 CODECOPY DUP2 MLOAD SWAP2 MSTORE PUSH1 0xA0 DUP14 DUP6 MLOAD SWAP1 PUSH1 0x60 DUP3 MSTORE PUSH1 0x19 PUSH1 0x60 DUP4 ADD MSTORE PUSH32 0x53696E676C65207472616E7366657220746F6F206C6172676500000000000000 DUP1 SWAP6 DUP4 ADD MSTORE NUMBER DUP9 DUP4 ADD MSTORE PUSH1 0x1 DUP1 DUP5 SHL SUB AND DUP7 DUP3 ADD MSTORE LOG1 DUP3 MLOAD SWAP1 PUSH2 0x1401 DUP3 PUSH2 0x186E JUMP JUMPDEST PUSH1 0x19 DUP3 MSTORE DUP5 DUP3 ADD MSTORE PUSH2 0x1A2E JUMP JUMPDEST MLOAD PUSH3 0x461BCD PUSH1 0xE5 SHL DUP2 MSTORE SWAP6 DUP7 ADD MSTORE PUSH1 0x2A PUSH1 0x24 DUP7 ADD MSTORE DUP5 ADD MSTORE DUP3 ADD MSTORE REVERT JUMPDEST PUSH1 0x84 DUP9 PUSH3 0x657273 PUSH1 0xE8 SHL DUP10 PUSH32 0x4369726375697420627265616B65723A20546F6F206D616E79207472616E7366 DUP11 DUP11 DUP11 PUSH2 0x14C1 DUP12 PUSH1 0x0 DUP1 MLOAD PUSH1 0x20 PUSH2 0x1FCF DUP4 CODECOPY DUP2 MLOAD SWAP2 MSTORE PUSH1 0xA0 DUP14 DUP6 MLOAD SWAP1 PUSH1 0x60 DUP3 MSTORE PUSH1 0x1C PUSH1 0x60 DUP4 ADD MSTORE PUSH32 0x546F6F206D616E79207472616E73666572732070657220626C6F636B00000000 DUP1 SWAP6 DUP4 ADD MSTORE NUMBER DUP9 DUP4 ADD MSTORE PUSH1 0x1 DUP1 DUP5 SHL SUB AND DUP7 DUP3 ADD MSTORE LOG1 DUP3 MLOAD SWAP1 PUSH2 0x1271 DUP3 PUSH2 0x186E JUMP JUMPDEST MLOAD PUSH3 0x461BCD PUSH1 0xE5 SHL DUP2 MSTORE SWAP6 DUP7 ADD MSTORE PUSH1 0x23 PUSH1 0x24 DUP7 ADD MSTORE DUP5 ADD MSTORE DUP3 ADD MSTORE REVERT JUMPDEST NUMBER PUSH1 0x16 SSTORE NUMBER DUP9 MSTORE PUSH1 0x13 PUSH1 0x20 MSTORE DUP8 DUP4 DUP2 KECCAK256 SSTORE PUSH2 0x1158 JUMP JUMPDEST DUP6 PUSH32 0x4369726375697420627265616B65723A205472616E7366657220746F6F206C61 DUP7 PUSH1 0x20 DUP7 PUSH2 0x14C1 DUP13 SWAP8 PUSH1 0x0 DUP1 MLOAD PUSH1 0x20 PUSH2 0x1FCF DUP4 CODECOPY DUP2 MLOAD SWAP2 MSTORE PUSH1 0xA0 PUSH3 0x726765 PUSH1 0xE8 SHL SWAP10 PUSH1 0x84 SWAP13 MLOAD SWAP1 PUSH1 0x60 DUP3 MSTORE PUSH1 0x1F PUSH1 0x60 DUP4 ADD MSTORE PUSH32 0x5472616E736665722065786365656473206D61782070657263656E7461676500 DUP1 SWAP6 DUP4 ADD MSTORE NUMBER DUP9 DUP4 ADD MSTORE PUSH1 0x1 DUP1 DUP5 SHL SUB AND DUP7 DUP3 ADD MSTORE LOG1 DUP3 MLOAD SWAP1 PUSH2 0x158B DUP3 PUSH2 0x186E JUMP JUMPDEST PUSH1 0x1F DUP3 MSTORE DUP5 DUP3 ADD MSTORE PUSH2 0x1A2E JUMP JUMPDEST PUSH4 0x4E487B71 PUSH1 0xE0 SHL DUP10 MSTORE PUSH1 0x11 DUP9 MSTORE PUSH1 0x24 DUP10 REVERT JUMPDEST POP POP CALLVALUE PUSH2 0x25C JUMPI DUP2 PUSH1 0x3 NOT CALLDATASIZE ADD SLT PUSH2 0x25C JUMPI DUP1 PUSH1 0x20 SWAP3 PUSH3 0x15180 TIMESTAMP DIV DUP2 MSTORE PUSH1 0x12 DUP5 MSTORE KECCAK256 SLOAD SWAP1 MLOAD SWAP1 DUP2 MSTORE RETURN JUMPDEST POP POP CALLVALUE PUSH2 0x25C JUMPI DUP2 PUSH1 0x3 NOT CALLDATASIZE ADD SLT PUSH2 0x25C JUMPI PUSH1 0x20 SWAP1 PUSH1 0x9 SLOAD SWAP1 MLOAD SWAP1 DUP2 MSTORE RETURN JUMPDEST POP POP CALLVALUE PUSH2 0x25C JUMPI DUP2 PUSH1 0x3 NOT CALLDATASIZE ADD SLT PUSH2 0x25C JUMPI PUSH1 0x20 SWAP1 PUSH1 0xA SLOAD SWAP1 MLOAD SWAP1 DUP2 MSTORE RETURN JUMPDEST POP POP CALLVALUE PUSH2 0x25C JUMPI DUP2 PUSH1 0x3 NOT CALLDATASIZE ADD SLT PUSH2 0x25C JUMPI PUSH1 0x20 SWAP1 PUSH1 0x3 SLOAD SWAP1 MLOAD SWAP1 DUP2 MSTORE RETURN JUMPDEST SWAP1 POP CALLVALUE PUSH2 0x2ED JUMPI PUSH1 0x20 CALLDATASIZE PUSH1 0x3 NOT ADD SLT PUSH2 0x2ED JUMPI CALLDATALOAD SWAP1 PUSH4 0xFFFFFFFF PUSH1 0xE0 SHL DUP3 AND DUP1 SWAP3 SUB PUSH2 0x2ED JUMPI PUSH1 0x20 SWAP3 POP PUSH4 0x7965DB0B PUSH1 0xE0 SHL DUP3 EQ SWAP2 DUP3 ISZERO PUSH2 0x1678 JUMPI JUMPDEST POP MLOAD SWAP1 ISZERO ISZERO DUP2 MSTORE RETURN JUMPDEST PUSH4 0x1FFC9A7 PUSH1 0xE0 SHL EQ SWAP2 POP CODESIZE PUSH2 0x166F JUMP JUMPDEST DUP1 DUP5 CALLVALUE PUSH2 0x171A JUMPI PUSH2 0x1699 CALLDATASIZE PUSH2 0x17FF JUMP JUMPDEST SWAP1 POP PUSH3 0x15180 TIMESTAMP DIV SWAP1 PUSH2 0xE10 TIMESTAMP DIV SWAP1 DUP3 DUP7 MSTORE PUSH1 0xF PUSH1 0x20 MSTORE DUP5 DUP7 KECCAK256 PUSH2 0x16BE DUP3 DUP3 SLOAD PUSH2 0x19B6 JUMP JUMPDEST SWAP1 SSTORE DUP2 DUP7 MSTORE PUSH1 0x10 PUSH1 0x20 MSTORE PUSH2 0x16D6 DUP6 DUP8 KECCAK256 SWAP2 DUP3 SLOAD PUSH2 0x19B6 JUMP JUMPDEST SWAP1 SSTORE DUP5 MSTORE PUSH1 0x11 PUSH1 0x20 MSTORE DUP3 DUP5 KECCAK256 PUSH2 0x16EC DUP2 SLOAD PUSH2 0x1A1F JUMP JUMPDEST SWAP1 SSTORE DUP4 MSTORE PUSH1 0x12 PUSH1 0x20 MSTORE DUP2 DUP4 KECCAK256 PUSH2 0x1702 DUP2 SLOAD PUSH2 0x1A1F JUMP JUMPDEST SWAP1 SSTORE PUSH1 0x1 PUSH1 0x1 PUSH1 0xA0 SHL SUB AND DUP3 MSTORE PUSH1 0x14 PUSH1 0x20 MSTORE DUP2 KECCAK256 SSTORE DUP1 RETURN JUMPDEST POP REVERT JUMPDEST POP POP CALLVALUE PUSH2 0x25C JUMPI DUP2 PUSH1 0x3 NOT CALLDATASIZE ADD SLT PUSH2 0x25C JUMPI PUSH2 0x173E PUSH1 0xE SLOAD PUSH1 0xD SLOAD SWAP1 PUSH2 0x19B6 JUMP JUMPDEST TIMESTAMP LT ISZERO PUSH2 0x1749 JUMPI POP DUP1 RETURN JUMPDEST PUSH1 0x20 PUSH32 0xF1B43C2E52A9E846469BAAEBDB63ECFD00023CF4E2B651237F6068F2467D2093 SWAP2 PUSH1 0xFF NOT DUP5 SLOAD AND DUP5 SSTORE PUSH2 0x1783 PUSH2 0xCF3 PUSH1 0x1 SLOAD PUSH2 0x1834 JUMP JUMPDEST PUSH1 0x0 PUSH1 0x1 SSTORE DUP4 PUSH1 0x2 SSTORE TIMESTAMP PUSH1 0xE SSTORE PUSH3 0x15180 TIMESTAMP DIV DUP1 DUP6 MSTORE PUSH1 0xF DUP4 MSTORE DUP5 DUP3 DUP2 KECCAK256 SSTORE PUSH2 0xE10 TIMESTAMP DIV DUP6 MSTORE PUSH1 0x10 DUP4 MSTORE DUP5 DUP3 DUP2 KECCAK256 SSTORE PUSH1 0x11 DUP4 MSTORE DUP5 DUP3 DUP2 KECCAK256 SSTORE DUP5 MSTORE PUSH1 0x12 DUP3 MSTORE DUP4 DUP2 DUP2 KECCAK256 SSTORE MLOAD TIMESTAMP DUP2 MSTORE LOG1 DUP1 RETURN JUMPDEST PUSH1 0x4 CALLDATALOAD SWAP1 PUSH1 0x1 PUSH1 0x1 PUSH1 0xA0 SHL SUB DUP3 AND DUP3 SUB PUSH2 0x17E4 JUMPI JUMP JUMPDEST PUSH1 0x0 DUP1 REVERT JUMPDEST PUSH1 0x24 CALLDATALOAD SWAP1 PUSH1 0x1 PUSH1 0x1 PUSH1 0xA0 SHL SUB DUP3 AND DUP3 SUB PUSH2 0x17E4 JUMPI JUMP JUMPDEST PUSH1 0x60 SWAP1 PUSH1 0x3 NOT ADD SLT PUSH2 0x17E4 JUMPI PUSH1 0x1 PUSH1 0x1 PUSH1 0xA0 SHL SUB SWAP1 PUSH1 0x4 CALLDATALOAD DUP3 DUP2 AND DUP2 SUB PUSH2 0x17E4 JUMPI SWAP2 PUSH1 0x24 CALLDATALOAD SWAP1 DUP2 AND DUP2 SUB PUSH2 0x17E4 JUMPI SWAP1 PUSH1 0x44 CALLDATALOAD SWAP1 JUMP JUMPDEST SWAP1 PUSH1 0x1 DUP3 DUP2 SHR SWAP3 AND DUP1 ISZERO PUSH2 0x1864 JUMPI JUMPDEST PUSH1 0x20 DUP4 LT EQ PUSH2 0x184E JUMPI JUMP JUMPDEST PUSH4 0x4E487B71 PUSH1 0xE0 SHL PUSH1 0x0 MSTORE PUSH1 0x22 PUSH1 0x4 MSTORE PUSH1 0x24 PUSH1 0x0 REVERT JUMPDEST SWAP2 PUSH1 0x7F AND SWAP2 PUSH2 0x1843 JUMP JUMPDEST PUSH1 0x40 DUP2 ADD SWAP1 DUP2 LT PUSH8 0xFFFFFFFFFFFFFFFF DUP3 GT OR PUSH2 0x188A JUMPI PUSH1 0x40 MSTORE JUMP JUMPDEST PUSH4 0x4E487B71 PUSH1 0xE0 SHL PUSH1 0x0 MSTORE PUSH1 0x41 PUSH1 0x4 MSTORE PUSH1 0x24 PUSH1 0x0 REVERT JUMPDEST SWAP1 PUSH1 0x1F DUP1 NOT SWAP2 ADD AND DUP2 ADD SWAP1 DUP2 LT PUSH8 0xFFFFFFFFFFFFFFFF DUP3 GT OR PUSH2 0x188A JUMPI PUSH1 0x40 MSTORE JUMP JUMPDEST PUSH1 0x40 MLOAD SWAP1 PUSH1 0x0 DUP3 PUSH1 0x1 SWAP2 PUSH1 0x1 SLOAD PUSH2 0x18D8 DUP2 PUSH2 0x1834 JUMP JUMPDEST DUP1 DUP5 MSTORE SWAP4 PUSH1 0x20 SWAP2 PUSH1 0x1 DUP2 AND SWAP1 DUP2 ISZERO PUSH2 0x1952 JUMPI POP PUSH1 0x1 EQ PUSH2 0x1903 JUMPI JUMPDEST POP POP PUSH2 0x1901 SWAP3 POP SUB DUP4 PUSH2 0x18A0 JUMP JUMPDEST JUMP JUMPDEST SWAP2 POP SWAP3 PUSH1 0x1 PUSH1 0x0 MSTORE PUSH1 0x0 DUP1 MLOAD PUSH1 0x20 PUSH2 0x200F DUP4 CODECOPY DUP2 MLOAD SWAP2 MSTORE SWAP4 PUSH1 0x0 SWAP3 JUMPDEST DUP3 DUP5 LT PUSH2 0x193A JUMPI POP PUSH2 0x1901 SWAP5 POP POP POP DUP2 ADD PUSH1 0x20 ADD CODESIZE DUP1 PUSH2 0x18F3 JUMP JUMPDEST DUP6 SLOAD DUP9 DUP6 ADD DUP4 ADD MSTORE SWAP5 DUP6 ADD SWAP5 DUP8 SWAP5 POP SWAP3 DUP2 ADD SWAP3 PUSH2 0x191F JUMP JUMPDEST SWAP2 POP POP PUSH1 0x20 SWAP3 POP PUSH2 0x1901 SWAP5 SWAP2 POP PUSH1 0xFF NOT AND DUP3 DUP5 ADD MSTORE ISZERO ISZERO PUSH1 0x5 SHL DUP3 ADD ADD CODESIZE DUP1 PUSH2 0x18F3 JUMP JUMPDEST SWAP2 SWAP1 DUP3 MLOAD SWAP3 DUP4 DUP3 MSTORE PUSH1 0x0 JUMPDEST DUP5 DUP2 LT PUSH2 0x19A2 JUMPI POP POP DUP3 PUSH1 0x0 PUSH1 0x20 DUP1 SWAP5 SWAP6 DUP5 ADD ADD MSTORE PUSH1 0x1F DUP1 NOT SWAP2 ADD AND ADD ADD SWAP1 JUMP JUMPDEST PUSH1 0x20 DUP2 DUP4 ADD DUP2 ADD MLOAD DUP5 DUP4 ADD DUP3 ADD MSTORE ADD PUSH2 0x1981 JUMP JUMPDEST SWAP2 SWAP1 DUP3 ADD DUP1 SWAP3 GT PUSH2 0x19C3 JUMPI JUMP JUMPDEST PUSH4 0x4E487B71 PUSH1 0xE0 SHL PUSH1 0x0 MSTORE PUSH1 0x11 PUSH1 0x4 MSTORE PUSH1 0x24 PUSH1 0x0 REVERT JUMPDEST PUSH1 0x1F DUP2 GT PUSH2 0x19E4 JUMPI POP JUMP JUMPDEST PUSH1 0x1 SWAP1 PUSH1 0x0 PUSH1 0x1 PUSH1 0x0 MSTORE PUSH1 0x1F PUSH1 0x0 DUP1 MLOAD PUSH1 0x20 PUSH2 0x200F DUP4 CODECOPY DUP2 MLOAD SWAP2 MSTORE SWAP3 ADD PUSH1 0x5 SHR DUP3 ADD SWAP2 JUMPDEST DUP3 DUP2 LT PUSH2 0x1A15 JUMPI POP POP POP POP JUMP JUMPDEST DUP2 DUP2 SSTORE DUP4 ADD PUSH2 0x1A08 JUMP JUMPDEST PUSH1 0x0 NOT DUP2 EQ PUSH2 0x19C3 JUMPI PUSH1 0x1 ADD SWAP1 JUMP JUMPDEST PUSH1 0x0 DUP1 SLOAD PUSH1 0xFF NOT AND PUSH1 0x1 SWAP1 DUP2 OR DUP3 SSTORE DUP3 MLOAD SWAP4 SWAP3 SWAP2 PUSH8 0xFFFFFFFFFFFFFFFF DUP6 GT PUSH2 0x1BCC JUMPI PUSH2 0x1A5B DUP3 SLOAD PUSH2 0x1834 JUMP JUMPDEST PUSH1 0x1F DUP2 GT PUSH2 0x1B79 JUMPI JUMPDEST POP PUSH1 0x20 SWAP1 DUP2 PUSH1 0x1 PUSH1 0x1F DUP9 GT EQ PUSH2 0x1AE6 JUMPI POP SWAP4 SWAP5 PUSH32 0x11803DAFFB8BD292F79DC0D607F5A1C30184B28E74CA55F6352D0D874D210727 SWAP5 PUSH2 0x1AD0 SWAP5 SWAP4 SWAP3 DUP3 PUSH2 0x1ADB JUMPI JUMPDEST POP PUSH1 0x0 NOT PUSH1 0x3 DUP4 SWAP1 SHL SHR NOT AND SWAP1 DUP3 SHL OR SWAP1 SSTORE JUMPDEST TIMESTAMP PUSH1 0x2 SSTORE PUSH1 0x40 MLOAD SWAP2 DUP3 SWAP2 PUSH1 0x40 DUP4 MSTORE PUSH1 0x40 DUP4 ADD SWAP1 PUSH2 0x1976 JUMP JUMPDEST TIMESTAMP PUSH1 0x20 DUP4 ADD MSTORE SUB SWAP1 LOG1 JUMP JUMPDEST SWAP1 POP DUP4 ADD MLOAD CODESIZE PUSH2 0x1AA5 JUMP JUMPDEST DUP4 DUP3 MSTORE PUSH1 0x0 DUP1 MLOAD PUSH1 0x20 PUSH2 0x200F DUP4 CODECOPY DUP2 MLOAD SWAP2 MSTORE SWAP3 SWAP2 PUSH1 0x1F NOT DUP9 AND SWAP2 JUMPDEST DUP3 DUP3 LT PUSH2 0x1B62 JUMPI POP POP SWAP6 DUP4 SWAP3 PUSH2 0x1AD0 SWAP6 SWAP5 SWAP3 DUP3 PUSH32 0x11803DAFFB8BD292F79DC0D607F5A1C30184B28E74CA55F6352D0D874D210727 SWAP9 SWAP10 LT PUSH2 0x1B49 JUMPI JUMPDEST POP POP DUP2 SHL ADD SWAP1 SSTORE PUSH2 0x1AB8 JUMP JUMPDEST DUP6 ADD MLOAD PUSH1 0x0 NOT PUSH1 0xF8 DUP5 PUSH1 0x3 SHL AND SHR NOT AND SWAP1 SSTORE CODESIZE DUP1 PUSH2 0x1B3D JUMP JUMPDEST DUP1 DUP7 DUP6 SWAP7 DUP3 SWAP5 SWAP7 DUP11 ADD MLOAD DUP2 SSTORE ADD SWAP6 ADD SWAP4 ADD SWAP1 PUSH2 0x1B01 JUMP JUMPDEST DUP3 DUP3 MSTORE PUSH1 0x0 DUP1 MLOAD PUSH1 0x20 PUSH2 0x200F DUP4 CODECOPY DUP2 MLOAD SWAP2 MSTORE PUSH1 0x1F DUP8 ADD PUSH1 0x5 SHR DUP2 ADD SWAP2 PUSH1 0x20 DUP9 LT PUSH2 0x1BC2 JUMPI JUMPDEST PUSH1 0x1F ADD PUSH1 0x5 SHR ADD SWAP1 DUP4 SWAP1 JUMPDEST DUP3 DUP2 LT PUSH2 0x1BB7 JUMPI POP POP PUSH2 0x1A64 JUMP JUMPDEST DUP4 DUP2 SSTORE ADD DUP4 SWAP1 PUSH2 0x1BA9 JUMP JUMPDEST SWAP1 SWAP2 POP DUP2 SWAP1 PUSH2 0x1B9E JUMP JUMPDEST PUSH4 0x4E487B71 PUSH1 0xE0 SHL DUP2 MSTORE PUSH1 0x41 PUSH1 0x4 MSTORE PUSH1 0x24 SWAP1 REVERT JUMPDEST CALLER PUSH1 0x0 SWAP1 DUP2 MSTORE PUSH32 0x4D7367B4C45C93361C07A01249CC1EF90933A8773F26DF2DABD0FB4074504D11 PUSH1 0x20 MSTORE PUSH1 0x40 SWAP1 KECCAK256 SLOAD PUSH32 0x7E6B58BC1470E1FC07BC9B21E0435BE41FDC30EDE9591781476A8D169A265492 SWAP1 PUSH1 0xFF AND ISZERO PUSH2 0x1C3C JUMPI POP JUMP JUMPDEST PUSH1 0x44 SWAP1 PUSH1 0x40 MLOAD SWAP1 PUSH4 0xE2517D3F PUSH1 0xE0 SHL DUP3 MSTORE CALLER PUSH1 0x4 DUP4 ADD MSTORE PUSH1 0x24 DUP3 ADD MSTORE REVERT JUMPDEST DUP1 PUSH1 0x0 MSTORE PUSH1 0x0 DUP1 MLOAD PUSH1 0x20 PUSH2 0x1FEF DUP4 CODECOPY DUP2 MLOAD SWAP2 MSTORE PUSH1 0x20 MSTORE PUSH1 0x40 PUSH1 0x0 KECCAK256 CALLER PUSH1 0x0 MSTORE PUSH1 0x20 MSTORE PUSH1 0xFF PUSH1 0x40 PUSH1 0x0 KECCAK256 SLOAD AND ISZERO PUSH2 0x1C3C JUMPI POP JUMP JUMPDEST PUSH1 0x1 PUSH1 0x1 PUSH1 0xA0 SHL SUB AND PUSH1 0x0 DUP2 DUP2 MSTORE PUSH32 0xB7DB2DD08FCB62D0C9E08C51941CAE53C267786A0B75803FB7960902FC8EF97D PUSH1 0x20 MSTORE PUSH1 0x40 DUP2 KECCAK256 SLOAD SWAP1 SWAP2 SWAP1 PUSH1 0x0 DUP1 MLOAD PUSH1 0x20 PUSH2 0x1FEF DUP4 CODECOPY DUP2 MLOAD SWAP2 MSTORE SWAP1 PUSH1 0xFF AND PUSH2 0x1D16 JUMPI DUP3 DUP1 MSTORE PUSH1 0x20 MSTORE PUSH1 0x40 DUP3 KECCAK256 DUP2 DUP4 MSTORE PUSH1 0x20 MSTORE PUSH1 0x40 DUP3 KECCAK256 PUSH1 0x1 PUSH1 0xFF NOT DUP3 SLOAD AND OR SWAP1 SSTORE CALLER SWAP2 PUSH1 0x0 DUP1 MLOAD PUSH1 0x20 PUSH2 0x1FAF DUP4 CODECOPY DUP2 MLOAD SWAP2 MSTORE DUP2 DUP1 LOG4 PUSH1 0x1 SWAP1 JUMP JUMPDEST POP POP SWAP1 JUMP JUMPDEST PUSH1 0x1 PUSH1 0x1 PUSH1 0xA0 SHL SUB AND PUSH1 0x0 DUP2 DUP2 MSTORE PUSH32 0x4D7367B4C45C93361C07A01249CC1EF90933A8773F26DF2DABD0FB4074504D11 PUSH1 0x20 MSTORE PUSH1 0x40 DUP2 KECCAK256 SLOAD SWAP1 SWAP2 SWAP1 PUSH32 0x7E6B58BC1470E1FC07BC9B21E0435BE41FDC30EDE9591781476A8D169A265492 SWAP1 PUSH1 0x0 DUP1 MLOAD PUSH1 0x20 PUSH2 0x1FEF DUP4 CODECOPY DUP2 MLOAD SWAP2 MSTORE SWAP1 PUSH1 0xFF AND PUSH2 0x1DC5 JUMPI DUP2 DUP5 MSTORE PUSH1 0x20 MSTORE PUSH1 0x40 DUP4 KECCAK256 DUP3 DUP5 MSTORE PUSH1 0x20 MSTORE PUSH1 0x40 DUP4 KECCAK256 PUSH1 0x1 PUSH1 0xFF NOT DUP3 SLOAD AND OR SWAP1 SSTORE PUSH1 0x0 DUP1 MLOAD PUSH1 0x20 PUSH2 0x1FAF DUP4 CODECOPY DUP2 MLOAD SWAP2 MSTORE CALLER SWAP4 DUP1 LOG4 PUSH1 0x1 SWAP1 JUMP JUMPDEST POP POP POP SWAP1 JUMP JUMPDEST PUSH1 0x1 PUSH1 0x1 PUSH1 0xA0 SHL SUB AND PUSH1 0x0 DUP2 DUP2 MSTORE PUSH32 0xA560A721E76A28CFB6B7C30B14A4EFD9108FCFE83FB956002E1E27AF90451CA7 PUSH1 0x20 MSTORE PUSH1 0x40 DUP2 KECCAK256 SLOAD SWAP1 SWAP2 SWAP1 PUSH32 0xEC47D6804C7D27E1865480CF87E0DDAE30C43826B6C4305DEB8B98A3038B5373 SWAP1 PUSH1 0x0 DUP1 MLOAD PUSH1 0x20 PUSH2 0x1FEF DUP4 CODECOPY DUP2 MLOAD SWAP2 MSTORE SWAP1 PUSH1 0xFF AND PUSH2 0x1DC5 JUMPI DUP2 DUP5 MSTORE PUSH1 0x20 MSTORE PUSH1 0x40 DUP4 KECCAK256 DUP3 DUP5 MSTORE PUSH1 0x20 MSTORE PUSH1 0x40 DUP4 KECCAK256 PUSH1 0x1 PUSH1 0xFF NOT DUP3 SLOAD AND OR SWAP1 SSTORE PUSH1 0x0 DUP1 MLOAD PUSH1 0x20 PUSH2 0x1FAF DUP4 CODECOPY DUP2 MLOAD SWAP2 MSTORE CALLER SWAP4 DUP1 LOG4 PUSH1 0x1 SWAP1 JUMP JUMPDEST SWAP1 PUSH1 0x0 SWAP2 DUP1 DUP4 MSTORE PUSH1 0x0 DUP1 MLOAD PUSH1 0x20 PUSH2 0x1FEF DUP4 CODECOPY DUP2 MLOAD SWAP2 MSTORE DUP1 PUSH1 0x20 MSTORE PUSH1 0x40 DUP5 KECCAK256 SWAP3 PUSH1 0x1 DUP1 PUSH1 0xA0 SHL SUB AND SWAP3 DUP4 DUP6 MSTORE PUSH1 0x20 MSTORE PUSH1 0xFF PUSH1 0x40 DUP6 KECCAK256 SLOAD AND ISZERO PUSH1 0x0 EQ PUSH2 0x1DC5 JUMPI DUP2 DUP5 MSTORE PUSH1 0x20 MSTORE PUSH1 0x40 DUP4 KECCAK256 DUP3 DUP5 MSTORE PUSH1 0x20 MSTORE PUSH1 0x40 DUP4 KECCAK256 PUSH1 0x1 PUSH1 0xFF NOT DUP3 SLOAD AND OR SWAP1 SSTORE PUSH1 0x0 DUP1 MLOAD PUSH1 0x20 PUSH2 0x1FAF DUP4 CODECOPY DUP2 MLOAD SWAP2 MSTORE CALLER SWAP4 DUP1 LOG4 PUSH1 0x1 SWAP1 JUMP JUMPDEST SWAP1 PUSH1 0x0 SWAP2 DUP1 DUP4 MSTORE PUSH1 0x0 DUP1 MLOAD PUSH1 0x20 PUSH2 0x1FEF DUP4 CODECOPY DUP2 MLOAD SWAP2 MSTORE DUP1 PUSH1 0x20 MSTORE PUSH1 0x40 DUP5 KECCAK256 SWAP3 PUSH1 0x1 DUP1 PUSH1 0xA0 SHL SUB AND SWAP3 DUP4 DUP6 MSTORE PUSH1 0x20 MSTORE PUSH1 0xFF PUSH1 0x40 DUP6 KECCAK256 SLOAD AND PUSH1 0x0 EQ PUSH2 0x1DC5 JUMPI DUP2 DUP5 MSTORE PUSH1 0x20 MSTORE PUSH1 0x40 DUP4 KECCAK256 DUP3 DUP5 MSTORE PUSH1 0x20 MSTORE PUSH1 0x40 DUP4 KECCAK256 PUSH1 0xFF NOT DUP2 SLOAD AND SWAP1 SSTORE PUSH32 0xF6391F5C32D9C69D2A47EA670B442974B53935D1EDC7FD64EB21E047A839171B CALLER SWAP4 DUP1 LOG4 PUSH1 0x1 SWAP1 JUMP JUMPDEST PUSH1 0xFF PUSH32 0xF0C57E16840DF040F15088DC2F81FE391C3923BEC73E23A9662EFC9C229C6A00 SLOAD PUSH1 0x40 SHR AND ISZERO PUSH2 0x1F9C JUMPI JUMP JUMPDEST PUSH1 0x40 MLOAD PUSH4 0x1AFCD79F PUSH1 0xE3 SHL DUP2 MSTORE PUSH1 0x4 SWAP1 REVERT INVALID 0x2F DUP8 DUP9 GT PUSH31 0x7EFF1D82E926EC794901D17C78024A50270940304540A733656F0D19345784 LOG3 MSTORE 0xE0 DUP13 0xFC 0xF LT PUSH31 0xCBF0E78AD69C350B182A491C8AE1EF62192B490B02DD7BC7DEC4DCEEDDA775 0xE5 DUP14 0xD5 COINBASE 0xE0 DUP11 GT PUSH13 0x6C53815C0BD028192F7B626800 0xB1 0xE 0x2D MSTORE PUSH23 0x12073B26EECDFD717E6A320CF44B4AFAC2B0732D9FCBE2 0xB7 STATICCALL 0xC 0xF6 LOG2 PUSH5 0x6970667358 0x22 SLT KECCAK256 0xBD 0x5D DUP3 SIGNEXTEND SWAP4 AND SWAP12 TIMESTAMP DUP16 0xC0 SWAP3 PUSH29 0x5C1D8DF1BB90AD377E9A320F02C4B46B7BC903AD64736F6C6343000816 STOP CALLER "},"methodIdentifiers":{"CIRCUIT_BREAKER_CONFIG_ROLE()":"76ab94a1","CIRCUIT_BREAKER_ROLE()":"e54e55ae","DEFAULT_ADMIN_ROLE()":"a217fddf","activateCircuitBreaker(string)":"6b5a0d8c","activationReason()":"44baa6c2","activationTime()":"da4493f6","autoReset()":"0006d1c5","autoResetInterval()":"5feb1f71","checkCircuitBreaker(address,address,uint256,uint256)":"156b4a7f","checkTransfer(address,address,uint256)":"cc1dd94f","configureCircuitBreaker(uint256,uint256,uint256,uint256,uint256,uint256)":"2190fb32","dailyTransferCount(uint256)":"e6b64fdb","dailyVolume(uint256)":"943ca3b9","deactivateCircuitBreaker()":"42200b9e","failedAttemptWindow()":"258061aa","failedAttempts(address)":"32627ec7","getActivationReason()":"789b6315","getCurrentDailyTransferCount()":"13935857","getCurrentDailyVolume()":"ae6e0145","getCurrentHourlyTransferCount()":"7c5cf169","getCurrentHourlyVolume()":"a7e02d75","getRoleAdmin(bytes32)":"248a9ca3","grantRole(bytes32,address)":"2f2ff15d","hasRole(bytes32,address)":"91d14854","hourlyTransferCount(uint256)":"63236f49","hourlyVolume(uint256)":"8fbf5929","initialize(address,uint256,uint256,uint256,uint256,uint256,uint256,uint256,uint256)":"d114e6fc","isActive()":"22f3e2d4","isCircuitBreakerActive()":"32941ecb","lastCheckBlock()":"e48c8221","lastFailedAttempt(address)":"7b969e1d","lastResetTime()":"a2177124","maxDailyVolume()":"07df2f18","maxFailedAttempts()":"12da5d1e","maxHourlyVolume()":"df18315b","maxSingleTransfer()":"36b089d8","maxTransferPercentage()":"ff3cf3f0","maxTransfersPerBlock()":"12ed45dc","maxTransfersPerDay()":"da4a64bc","maxTransfersPerHour()":"6c58ab83","paused()":"5c975abb","recordFailedAttempt(address)":"668fb1be","recordTransfer(address,address,uint256)":"01e3a903","renounceRole(bytes32,address)":"36568abe","revokeRole(bytes32,address)":"d547741f","supportsInterface(bytes4)":"01ffc9a7","suspiciousVelocityThreshold()":"428089c4","transfersPerBlock(uint256)":"39dd5d1b","updateLimits(uint256,uint256,uint256,uint256,uint256,uint256,uint256,uint256)":"fd270b8d"}},"storageLayout":{"storage":[{"astId":997,"contract":"contracts/CircuitBreaker.sol:CircuitBreaker","label":"isCircuitBreakerActive","offset":0,"slot":"0","type":"t_bool"},{"astId":999,"contract":"contracts/CircuitBreaker.sol:CircuitBreaker","label":"activationReason","offset":0,"slot":"1","type":"t_string_storage"},{"astId":1001,"contract":"contracts/CircuitBreaker.sol:CircuitBreaker","label":"activationTime","offset":0,"slot":"2","type":"t_uint256"},{"astId":1003,"contract":"contracts/CircuitBreaker.sol:CircuitBreaker","label":"maxDailyVolume","offset":0,"slot":"3","type":"t_uint256"},{"astId":1005,"contract":"contracts/CircuitBreaker.sol:CircuitBreaker","label":"maxHourlyVolume","offset":0,"slot":"4","type":"t_uint256"},{"astId":1007,"contract":"contracts/CircuitBreaker.sol:CircuitBreaker","label":"maxSingleTransfer","offset":0,"slot":"5","type":"t_uint256"},{"astId":1009,"contract":"contracts/CircuitBreaker.sol:CircuitBreaker","label":"maxTransferPercentage","offset":0,"slot":"6","type":"t_uint256"},{"astId":1011,"contract":"contracts/CircuitBreaker.sol:CircuitBreaker","label":"maxTransfersPerHour","offset":0,"slot":"7","type":"t_uint256"},{"astId":1013,"contract":"contracts/CircuitBreaker.sol:CircuitBreaker","label":"maxTransfersPerDay","offset":0,"slot":"8","type":"t_uint256"},{"astId":1015,"contract":"contracts/CircuitBreaker.sol:CircuitBreaker","label":"maxTransfersPerBlock","offset":0,"slot":"9","type":"t_uint256"},{"astId":1017,"contract":"contracts/CircuitBreaker.sol:CircuitBreaker","label":"maxFailedAttempts","offset":0,"slot":"10","type":"t_uint256"},{"astId":1019,"contract":"contracts/CircuitBreaker.sol:CircuitBreaker","label":"failedAttemptWindow","offset":0,"slot":"11","type":"t_uint256"},{"astId":1021,"contract":"contracts/CircuitBreaker.sol:CircuitBreaker","label":"suspiciousVelocityThreshold","offset":0,"slot":"12","type":"t_uint256"},{"astId":1023,"contract":"contracts/CircuitBreaker.sol:CircuitBreaker","label":"autoResetInterval","offset":0,"slot":"13","type":"t_uint256"},{"astId":1025,"contract":"contracts/CircuitBreaker.sol:CircuitBreaker","label":"lastResetTime","offset":0,"slot":"14","type":"t_uint256"},{"astId":1029,"contract":"contracts/CircuitBreaker.sol:CircuitBreaker","label":"dailyVolume","offset":0,"slot":"15","type":"t_mapping(t_uint256,t_uint256)"},{"astId":1033,"contract":"contracts/CircuitBreaker.sol:CircuitBreaker","label":"hourlyVolume","offset":0,"slot":"16","type":"t_mapping(t_uint256,t_uint256)"},{"astId":1037,"contract":"contracts/CircuitBreaker.sol:CircuitBreaker","label":"hourlyTransferCount","offset":0,"slot":"17","type":"t_mapping(t_uint256,t_uint256)"},{"astId":1041,"contract":"contracts/CircuitBreaker.sol:CircuitBreaker","label":"dailyTransferCount","offset":0,"slot":"18","type":"t_mapping(t_uint256,t_uint256)"},{"astId":1045,"contract":"contracts/CircuitBreaker.sol:CircuitBreaker","label":"transfersPerBlock","offset":0,"slot":"19","type":"t_mapping(t_uint256,t_uint256)"},{"astId":1049,"contract":"contracts/CircuitBreaker.sol:CircuitBreaker","label":"failedAttempts","offset":0,"slot":"20","type":"t_mapping(t_address,t_uint256)"},{"astId":1053,"contract":"contracts/CircuitBreaker.sol:CircuitBreaker","label":"lastFailedAttempt","offset":0,"slot":"21","type":"t_mapping(t_address,t_uint256)"},{"astId":1055,"contract":"contracts/CircuitBreaker.sol:CircuitBreaker","label":"lastCheckBlock","offset":0,"slot":"22","type":"t_uint256"}],"types":{"t_address":{"encoding":"inplace","label":"address","numberOfBytes":"20"},"t_bool":{"encoding":"inplace","label":"bool","numberOfBytes":"1"},"t_mapping(t_address,t_uint256)":{"encoding":"mapping","key":"t_address","label":"mapping(address => uint256)","numberOfBytes":"32","value":"t_uint256"},"t_mapping(t_uint256,t_uint256)":{"encoding":"mapping","key":"t_uint256","label":"mapping(uint256 => uint256)","numberOfBytes":"32","value":"t_uint256"},"t_string_storage":{"encoding":"bytes","label":"string","numberOfBytes":"32"},"t_uint256":{"encoding":"inplace","label":"uint256","numberOfBytes":"32"}}}}}}