{"contracts/NEBA.sol":{"NEBA":{"abi":[{"inputs":[],"stateMutability":"nonpayable","type":"constructor"},{"inputs":[],"name":"AccessControlBadConfirmation","type":"error"},{"inputs":[{"internalType":"address","name":"account","type":"address"},{"internalType":"bytes32","name":"neededRole","type":"bytes32"}],"name":"AccessControlUnauthorizedAccount","type":"error"},{"inputs":[{"internalType":"address","name":"target","type":"address"}],"name":"AddressEmptyCode","type":"error"},{"inputs":[],"name":"AlreadyMigrated","type":"error"},{"inputs":[],"name":"CannotRecoverNEBA","type":"error"},{"inputs":[],"name":"ECDSAInvalidSignature","type":"error"},{"inputs":[{"internalType":"uint256","name":"length","type":"uint256"}],"name":"ECDSAInvalidSignatureLength","type":"error"},{"inputs":[{"internalType":"bytes32","name":"s","type":"bytes32"}],"name":"ECDSAInvalidSignatureS","type":"error"},{"inputs":[{"internalType":"address","name":"implementation","type":"address"}],"name":"ERC1967InvalidImplementation","type":"error"},{"inputs":[],"name":"ERC1967NonPayable","type":"error"},{"inputs":[{"internalType":"uint256","name":"increasedSupply","type":"uint256"},{"internalType":"uint256","name":"cap","type":"uint256"}],"name":"ERC20ExceededCap","type":"error"},{"inputs":[{"internalType":"address","name":"spender","type":"address"},{"internalType":"uint256","name":"allowance","type":"uint256"},{"internalType":"uint256","name":"needed","type":"uint256"}],"name":"ERC20InsufficientAllowance","type":"error"},{"inputs":[{"internalType":"address","name":"sender","type":"address"},{"internalType":"uint256","name":"balance","type":"uint256"},{"internalType":"uint256","name":"needed","type":"uint256"}],"name":"ERC20InsufficientBalance","type":"error"},{"inputs":[{"internalType":"address","name":"approver","type":"address"}],"name":"ERC20InvalidApprover","type":"error"},{"inputs":[{"internalType":"uint256","name":"cap","type":"uint256"}],"name":"ERC20InvalidCap","type":"error"},{"inputs":[{"internalType":"address","name":"receiver","type":"address"}],"name":"ERC20InvalidReceiver","type":"error"},{"inputs":[{"internalType":"address","name":"sender","type":"address"}],"name":"ERC20InvalidSender","type":"error"},{"inputs":[{"internalType":"address","name":"spender","type":"address"}],"name":"ERC20InvalidSpender","type":"error"},{"inputs":[{"internalType":"uint256","name":"deadline","type":"uint256"}],"name":"ERC2612ExpiredSignature","type":"error"},{"inputs":[{"internalType":"address","name":"signer","type":"address"},{"internalType":"address","name":"owner","type":"address"}],"name":"ERC2612InvalidSigner","type":"error"},{"inputs":[],"name":"EnforcedPause","type":"error"},{"inputs":[],"name":"ExpectedPause","type":"error"},{"inputs":[],"name":"FailedCall","type":"error"},{"inputs":[{"internalType":"address","name":"account","type":"address"},{"internalType":"uint256","name":"currentNonce","type":"uint256"}],"name":"InvalidAccountNonce","type":"error"},{"inputs":[],"name":"InvalidAddress","type":"error"},{"inputs":[],"name":"InvalidAmount","type":"error"},{"inputs":[],"name":"InvalidInitialization","type":"error"},{"inputs":[],"name":"NotInitializing","type":"error"},{"inputs":[],"name":"ReentrancyGuardReentrantCall","type":"error"},{"inputs":[],"name":"UUPSUnauthorizedCallContext","type":"error"},{"inputs":[{"internalType":"bytes32","name":"slot","type":"bytes32"}],"name":"UUPSUnsupportedProxiableUUID","type":"error"},{"inputs":[],"name":"UnauthorizedUpgrade","type":"error"},{"anonymous":false,"inputs":[{"indexed":true,"internalType":"address","name":"owner","type":"address"},{"indexed":true,"internalType":"address","name":"spender","type":"address"},{"indexed":false,"internalType":"uint256","name":"value","type":"uint256"}],"name":"Approval","type":"event"},{"anonymous":false,"inputs":[],"name":"EIP712DomainChanged","type":"event"},{"anonymous":false,"inputs":[{"indexed":true,"internalType":"address","name":"to","type":"address"},{"indexed":false,"internalType":"uint256","name":"amount","type":"uint256"}],"name":"ETHRecovered","type":"event"},{"anonymous":false,"inputs":[{"indexed":false,"internalType":"uint64","name":"version","type":"uint64"}],"name":"Initialized","type":"event"},{"anonymous":false,"inputs":[{"indexed":false,"internalType":"address","name":"account","type":"address"}],"name":"Paused","type":"event"},{"anonymous":false,"inputs":[{"indexed":true,"internalType":"bytes32","name":"role","type":"bytes32"},{"indexed":true,"internalType":"bytes32","name":"previousAdminRole","type":"bytes32"},{"indexed":true,"internalType":"bytes32","name":"newAdminRole","type":"bytes32"}],"name":"RoleAdminChanged","type":"event"},{"anonymous":false,"inputs":[{"indexed":true,"internalType":"bytes32","name":"role","type":"bytes32"},{"indexed":true,"internalType":"address","name":"account","type":"address"},{"indexed":true,"internalType":"address","name":"sender","type":"address"}],"name":"RoleGranted","type":"event"},{"anonymous":false,"inputs":[{"indexed":true,"internalType":"bytes32","name":"role","type":"bytes32"},{"indexed":true,"internalType":"address","name":"account","type":"address"},{"indexed":true,"internalType":"address","name":"sender","type":"address"}],"name":"RoleRevoked","type":"event"},{"anonymous":false,"inputs":[{"indexed":true,"internalType":"address","name":"tlMain","type":"address"},{"indexed":true,"internalType":"address","name":"tlUpg","type":"address"}],"name":"RolesMigrated","type":"event"},{"anonymous":false,"inputs":[{"indexed":true,"internalType":"address","name":"token","type":"address"},{"indexed":true,"internalType":"address","name":"to","type":"address"},{"indexed":false,"internalType":"uint256","name":"amount","type":"uint256"}],"name":"TokenRecovered","type":"event"},{"anonymous":false,"inputs":[{"indexed":true,"internalType":"address","name":"from","type":"address"},{"indexed":true,"internalType":"address","name":"to","type":"address"},{"indexed":false,"internalType":"uint256","name":"value","type":"uint256"}],"name":"Transfer","type":"event"},{"anonymous":false,"inputs":[{"indexed":true,"internalType":"address","name":"oldTreasury","type":"address"},{"indexed":true,"internalType":"address","name":"newTreasury","type":"address"}],"name":"TreasuryUpdated","type":"event"},{"anonymous":false,"inputs":[{"indexed":false,"internalType":"address","name":"account","type":"address"}],"name":"Unpaused","type":"event"},{"anonymous":false,"inputs":[{"indexed":true,"internalType":"address","name":"implementation","type":"address"}],"name":"Upgraded","type":"event"},{"inputs":[],"name":"ADMIN_PAUSER_ROLE","outputs":[{"internalType":"bytes32","name":"","type":"bytes32"}],"stateMutability":"view","type":"function"},{"inputs":[],"name":"BOT_PAUSER_ROLE","outputs":[{"internalType":"bytes32","name":"","type":"bytes32"}],"stateMutability":"view","type":"function"},{"inputs":[],"name":"DEFAULT_ADMIN_ROLE","outputs":[{"internalType":"bytes32","name":"","type":"bytes32"}],"stateMutability":"view","type":"function"},{"inputs":[],"name":"DOMAIN_SEPARATOR","outputs":[{"internalType":"bytes32","name":"","type":"bytes32"}],"stateMutability":"view","type":"function"},{"inputs":[],"name":"MAX_SUPPLY","outputs":[{"internalType":"uint256","name":"","type":"uint256"}],"stateMutability":"view","type":"function"},{"inputs":[],"name":"MINTER_ROLE","outputs":[{"internalType":"bytes32","name":"","type":"bytes32"}],"stateMutability":"view","type":"function"},{"inputs":[],"name":"RECOVERY_ROLE","outputs":[{"internalType":"bytes32","name":"","type":"bytes32"}],"stateMutability":"view","type":"function"},{"inputs":[],"name":"UPGRADER_ADMIN_ROLE","outputs":[{"internalType":"bytes32","name":"","type":"bytes32"}],"stateMutability":"view","type":"function"},{"inputs":[],"name":"UPGRADER_ROLE","outputs":[{"internalType":"bytes32","name":"","type":"bytes32"}],"stateMutability":"view","type":"function"},{"inputs":[],"name":"UPGRADE_INTERFACE_VERSION","outputs":[{"internalType":"string","name":"","type":"string"}],"stateMutability":"view","type":"function"},{"inputs":[{"internalType":"address","name":"owner","type":"address"},{"internalType":"address","name":"spender","type":"address"}],"name":"allowance","outputs":[{"internalType":"uint256","name":"","type":"uint256"}],"stateMutability":"view","type":"function"},{"inputs":[{"internalType":"address","name":"spender","type":"address"},{"internalType":"uint256","name":"value","type":"uint256"}],"name":"approve","outputs":[{"internalType":"bool","name":"","type":"bool"}],"stateMutability":"nonpayable","type":"function"},{"inputs":[{"internalType":"address","name":"account","type":"address"}],"name":"balanceOf","outputs":[{"internalType":"uint256","name":"","type":"uint256"}],"stateMutability":"view","type":"function"},{"inputs":[],"name":"cap","outputs":[{"internalType":"uint256","name":"","type":"uint256"}],"stateMutability":"pure","type":"function"},{"inputs":[],"name":"decimals","outputs":[{"internalType":"uint8","name":"","type":"uint8"}],"stateMutability":"view","type":"function"},{"inputs":[],"name":"eip712Domain","outputs":[{"internalType":"bytes1","name":"fields","type":"bytes1"},{"internalType":"string","name":"name","type":"string"},{"internalType":"string","name":"version","type":"string"},{"internalType":"uint256","name":"chainId","type":"uint256"},{"internalType":"address","name":"verifyingContract","type":"address"},{"internalType":"bytes32","name":"salt","type":"bytes32"},{"internalType":"uint256[]","name":"extensions","type":"uint256[]"}],"stateMutability":"view","type":"function"},{"inputs":[{"internalType":"bytes32","name":"role","type":"bytes32"}],"name":"getRoleAdmin","outputs":[{"internalType":"bytes32","name":"","type":"bytes32"}],"stateMutability":"view","type":"function"},{"inputs":[{"internalType":"bytes32","name":"role","type":"bytes32"},{"internalType":"address","name":"account","type":"address"}],"name":"grantRole","outputs":[],"stateMutability":"nonpayable","type":"function"},{"inputs":[{"internalType":"bytes32","name":"role","type":"bytes32"},{"internalType":"address","name":"account","type":"address"}],"name":"hasRole","outputs":[{"internalType":"bool","name":"","type":"bool"}],"stateMutability":"view","type":"function"},{"inputs":[{"internalType":"address","name":"_treasury","type":"address"},{"internalType":"address","name":"_mainSafe","type":"address"},{"internalType":"address","name":"_opsSafe","type":"address"},{"internalType":"address","name":"_botExecutor","type":"address"},{"internalType":"address","name":"_saleContract","type":"address"}],"name":"initialize","outputs":[],"stateMutability":"nonpayable","type":"function"},{"inputs":[],"name":"isCapImmutable","outputs":[{"internalType":"bool","name":"","type":"bool"}],"stateMutability":"pure","type":"function"},{"inputs":[{"internalType":"address","name":"tlMain","type":"address"},{"internalType":"address","name":"tlUpg","type":"address"},{"internalType":"address","name":"mainSafe","type":"address"}],"name":"migrateRoles","outputs":[],"stateMutability":"nonpayable","type":"function"},{"inputs":[],"name":"migrated","outputs":[{"internalType":"bool","name":"","type":"bool"}],"stateMutability":"view","type":"function"},{"inputs":[{"internalType":"address","name":"to","type":"address"},{"internalType":"uint256","name":"amount","type":"uint256"}],"name":"mint","outputs":[],"stateMutability":"nonpayable","type":"function"},{"inputs":[],"name":"name","outputs":[{"internalType":"string","name":"","type":"string"}],"stateMutability":"view","type":"function"},{"inputs":[{"internalType":"address","name":"owner","type":"address"}],"name":"nonces","outputs":[{"internalType":"uint256","name":"","type":"uint256"}],"stateMutability":"view","type":"function"},{"inputs":[],"name":"pause","outputs":[],"stateMutability":"nonpayable","type":"function"},{"inputs":[],"name":"paused","outputs":[{"internalType":"bool","name":"","type":"bool"}],"stateMutability":"view","type":"function"},{"inputs":[{"internalType":"address","name":"owner","type":"address"},{"internalType":"address","name":"spender","type":"address"},{"internalType":"uint256","name":"value","type":"uint256"},{"internalType":"uint256","name":"deadline","type":"uint256"},{"internalType":"uint8","name":"v","type":"uint8"},{"internalType":"bytes32","name":"r","type":"bytes32"},{"internalType":"bytes32","name":"s","type":"bytes32"}],"name":"permit","outputs":[],"stateMutability":"nonpayable","type":"function"},{"inputs":[],"name":"proxiableUUID","outputs":[{"internalType":"bytes32","name":"","type":"bytes32"}],"stateMutability":"view","type":"function"},{"inputs":[{"internalType":"contract IERC20","name":"token","type":"address"},{"internalType":"address","name":"to","type":"address"},{"internalType":"uint256","name":"amount","type":"uint256"}],"name":"recoverERC20","outputs":[],"stateMutability":"nonpayable","type":"function"},{"inputs":[{"internalType":"address payable","name":"to","type":"address"},{"internalType":"uint256","name":"amount","type":"uint256"}],"name":"recoverETH","outputs":[],"stateMutability":"nonpayable","type":"function"},{"inputs":[{"internalType":"bytes32","name":"role","type":"bytes32"},{"internalType":"address","name":"callerConfirmation","type":"address"}],"name":"renounceRole","outputs":[],"stateMutability":"nonpayable","type":"function"},{"inputs":[{"internalType":"bytes32","name":"role","type":"bytes32"},{"internalType":"address","name":"account","type":"address"}],"name":"revokeRole","outputs":[],"stateMutability":"nonpayable","type":"function"},{"inputs":[{"internalType":"bytes4","name":"interfaceId","type":"bytes4"}],"name":"supportsInterface","outputs":[{"internalType":"bool","name":"","type":"bool"}],"stateMutability":"view","type":"function"},{"inputs":[],"name":"symbol","outputs":[{"internalType":"string","name":"","type":"string"}],"stateMutability":"view","type":"function"},{"inputs":[],"name":"totalSupply","outputs":[{"internalType":"uint256","name":"","type":"uint256"}],"stateMutability":"view","type":"function"},{"inputs":[{"internalType":"address","name":"to","type":"address"},{"internalType":"uint256","name":"value","type":"uint256"}],"name":"transfer","outputs":[{"internalType":"bool","name":"","type":"bool"}],"stateMutability":"nonpayable","type":"function"},{"inputs":[{"internalType":"address","name":"from","type":"address"},{"internalType":"address","name":"to","type":"address"},{"internalType":"uint256","name":"value","type":"uint256"}],"name":"transferFrom","outputs":[{"internalType":"bool","name":"","type":"bool"}],"stateMutability":"nonpayable","type":"function"},{"inputs":[],"name":"treasury","outputs":[{"internalType":"address","name":"","type":"address"}],"stateMutability":"view","type":"function"},{"inputs":[],"name":"unpause","outputs":[],"stateMutability":"nonpayable","type":"function"},{"inputs":[{"internalType":"address","name":"_treasury","type":"address"}],"name":"updateTreasury","outputs":[],"stateMutability":"nonpayable","type":"function"},{"inputs":[{"internalType":"address","name":"newImplementation","type":"address"},{"internalType":"bytes","name":"data","type":"bytes"}],"name":"upgradeToAndCall","outputs":[],"stateMutability":"payable","type":"function"},{"stateMutability":"payable","type":"receive"}],"evm":{"bytecode":{"linkReferences":{},"object":"60a08060405234620000d157306080527ff0c57e16840df040f15088dc2f81fe391c3923bec73e23a9662efc9c229c6a009081549060ff8260401c16620000c257506001600160401b036002600160401b0319828216016200007c575b604051613aad9081620000d78239608051818181610cc60152610dab0152f35b6001600160401b031990911681179091556040519081527fc7f505b2f371ae2175ee4913f4499e1f2633a7b5936321eed1cdaeb6115181d290602090a13880806200005c565b63f92ee8a960e01b8152600490fd5b600080fdfe608080604052600436101561001d575b50361561001b57600080fd5b005b60003560e01c90816301ffc9a7146126715750806306fdde03146125c7578063095ea7b3146125a15780630b06806a146125665780631171bda9146124155780631459457a1461169c57806318160ddd1461165f57806323b872dd1461157a578063248a9ca31461153e5780632c678c64146115185780632f2ff15d146114cc578063313ce567146114b057806331993a1c1461148757806332cb6b0c14611461578063355274ea146114615780633644e5151461143e57806336568abe146113f75780633e0c0629146112d45780633f4ba83a146111ee57806340c10f1914610fe857806342275c5914610fad5780634f1ef28614610d3057806352d1902d14610cb35780635c975abb14610c8357806361d027b314610c5a57806370a0823114610c135780637455202e14610bea5780637ecebe0014610b915780637f51bb1f14610aaf578063809c585c14610a935780638456cb591461096f57806384b0196e1461081357806391d14854146107b957806395d89b41146106d8578063a217fddf146106bc578063a9059cbb1461068b578063ad3cb1cc14610641578063d505accf146104b6578063d53913931461047b578063d547741f1461042f578063dd62ed3e146103e6578063ed686a0c146102315763f72c0d8b14610203573861000f565b3461022c57600036600319011261022c5760206040516000805160206139188339815191528152f35b600080fd5b3461022c57606036600319011261022c5761024a61271e565b610252612734565b61025a61274a565b90610263612b93565b60ff60005460a01c166103ae576001600160a01b038381169290831561037157821693841561032c576102f2926102be6102ce926102a330881415612af3565b6102af30891415612af3565b6102b881612c30565b50612cbe565b506102c881612d5c565b50612df4565b506102d881613229565b506102e2816132b0565b506102ec81613346565b506133dc565b506000805460ff60a01b1916600160a01b1781557f5db8a0f9f45a2b5a19ae3df073ffaa88502e813e3157ce52dfd37d1d612314cb9080a3005b60405162461bcd60e51b815260206004820152601860248201527f496e76616c696420757067726164652074696d656c6f636b00000000000000006044820152606490fd5b60405162461bcd60e51b8152602060048201526015602482015274496e76616c6964206d61696e2074696d656c6f636b60581b6044820152606490fd5b60405162461bcd60e51b815260206004820152601060248201526f105b1c9958591e481b5a59dc985d195960821b6044820152606490fd5b3461022c57604036600319011261022c576103ff61271e565b61041061040a612734565b91612aba565b9060018060a01b03166000526020526020604060002054604051908152f35b3461022c57604036600319011261022c5761001b60043561044e612734565b9080600052600080516020613958833981519152602052610476600160406000200154612bcd565b613472565b3461022c57600036600319011261022c5760206040517f9f2df0fed2c77648de5860a4cc508cd0818c85b8b8a1ab4ceeef8d981c8956a68152f35b3461022c5760e036600319011261022c576104cf61271e565b6104d7612734565b60443590606435926084359360ff8516850361022c578042116106295760018060a01b039081831695866000527f5ab42ced628888259c08ac98db1eb0cf702fc1501344311d8b100cd1bfe4bb006020526040600020908154916001830190556040519260208401927f6e71edae12b1b97f4d1f60370fef10105fa2faae0126114a169c64845d6126c98452896040860152858816606086015288608086015260a085015260c084015260c0835260e08301918383106001600160401b03841117610613576105e2936105d9936040525190206105b261359b565b906040519161190160f01b83526002830152602282015260c43591604260a4359220613610565b909291926136a0565b168481036105f5575061001b935061350e565b60449085604051916325c0072360e11b835260048301526024820152fd5b634e487b7160e01b600052604160045260246000fd5b6024906040519063313c898160e11b82526004820152fd5b3461022c57600036600319011261022c5761068760405161066181612760565b60058152640352e302e360dc1b60208201526040519182916020835260208301906126de565b0390f35b3461022c57604036600319011261022c576106b16106a761271e565b60243590336130ff565b602060405160018152f35b3461022c57600036600319011261022c57602060405160008152f35b3461022c57600036600319011261022c576040516000805160206138d88339815191528054826000610709836127b7565b928383526020946001918660018216918260001461079757505060011461074d575b50506107399250038361277b565b6106876040519282849384528301906126de565b8592506000526000805160206139b8833981519152906000915b85831061077f5750506107399350820101858061072b565b80548389018501528794508693909201918101610767565b925093505061073994915060ff191682840152151560051b820101858061072b565b3461022c57604036600319011261022c576107d2612734565b60043560005260008051602061395883398151915260205260406000209060018060a01b0316600052602052602060ff604060002054166040519015158152f35b3461022c57600036600319011261022c577fa16a46d94261c7517cc8ff89f61c0ce93598e3c849801011dee649a6a557d100541580610946575b156109095761085a6127f1565b6108626128b7565b6040516020808201928284106001600160401b03851117610613579160206108bc85946108ae979660405260008452604051978897600f60f81b895260e0858a015260e08901906126de565b9087820360408901526126de565b91466060870152306080870152600060a087015285830360c0870152519182815201929160005b8281106108f257505050500390f35b8351855286955093810193928101926001016108e3565b60405162461bcd60e51b81526020600482015260156024820152741152540dcc4c8e88155b9a5b9a5d1a585b1a5e9959605a1b6044820152606490fd5b507fa16a46d94261c7517cc8ff89f61c0ce93598e3c849801011dee649a6a557d101541561084d565b3461022c57600036600319011261022c573360009081527fd17a96b5ab97baeb5abd2aff3d879f3ae21bdf0a88374ff422ddd156525d2a07602090815260409091205460ff166000805160206139588339815191528115610a51575b5015610a1e577f62e78cea01bee320cd4e420270b5ea74000d11b0c9f74754ebdbfc544b05a258906109fb6134e3565b600080516020613998833981519152805460ff19166001179055604051338152a1005b6064906040519062461bcd60e51b82526004820152600c60248201526b155b985d5d1a1bdc9a5e995960a21b6044820152fd5b90507fbf8b034af7a434c44d9299a66a1071085478bb9a7fdc1f0ebcb5d36dc76f02b26000528152604060002033600052815260ff60406000205416826109cb565b3461022c57600036600319011261022c57602060405160018152f35b3461022c57602036600319011261022c57610ac861271e565b610ad0612b93565b6001600160a01b0390811690610ae78215156129cf565b610af330831415612a0e565b60005490811690818314610b38576001600160a01b031916821760009081557f4ab5be82436d353e61ca18726e984e561f5c1cc7c6d38b29d2553c790434705a9080a3005b60405162461bcd60e51b815260206004820152602b60248201527f4e6577207472656173757279206d75737420626520646966666572656e74206660448201526a1c9bdb4818dd5c9c995b9d60aa1b6064820152608490fd5b3461022c57602036600319011261022c576001600160a01b03610bb261271e565b166000527f5ab42ced628888259c08ac98db1eb0cf702fc1501344311d8b100cd1bfe4bb006020526020604060002054604051908152f35b3461022c57600036600319011261022c576020604051600080516020613a588339815191528152f35b3461022c57602036600319011261022c576001600160a01b03610c3461271e565b166000526000805160206138988339815191526020526020604060002054604051908152f35b3461022c57600036600319011261022c576000546040516001600160a01b039091168152602090f35b3461022c57600036600319011261022c57602060ff60008051602061399883398151915254166040519015158152f35b3461022c57600036600319011261022c577f00000000000000000000000000000000000000000000000000000000000000006001600160a01b03163003610d1e5760206040517f360894a13ba1a3210667c828492db98dca3e2076cc3735a920a3ca505d382bbc8152f35b60405163703e46dd60e11b8152600490fd5b604036600319011261022c57610d4461271e565b60249081356001600160401b03811161022c573660238201121561022c57806004013591610d718361279c565b610d7e604051918261277b565b838152602093848201933687838301011161022c5781600092888893018737830101526001600160a01b037f00000000000000000000000000000000000000000000000000000000000000008116308114908115610f7f575b50610d1e57600080516020613918833981519152806000526000805160206139588339815191528652604060002033600052865260ff6040600020541615610f6257506040516352d1902d60e01b8152908316948082600481895afa918291600093610f32575b5050610e5c57604051634c9c8ce360e01b8152600481018690528690fd5b8490867f360894a13ba1a3210667c828492db98dca3e2076cc3735a920a3ca505d382bbc91828103610f1d5750843b15610f07575080546001600160a01b03191682179055604051907fbc7cd75a20ee27fd9adebab32041f755214dbc6bffa90cc0225b39da2e5c2d3b600080a2815115610eed5750600061001b9381925190845af4610ee7612a8a565b916137d4565b9250505034610ef857005b63b398979f60e01b8152600490fd5b604051634c9c8ce360e01b815260048101849052fd5b60405190632a87526960e21b82526004820152fd5b9080929350813d8311610f5b575b610f4a818361277b565b8101031261022c5751908780610e3e565b503d610f40565b866044916040519163e2517d3f60e01b8352336004840152820152fd5b9050817f360894a13ba1a3210667c828492db98dca3e2076cc3735a920a3ca505d382bbc5416141587610dd7565b3461022c57600036600319011261022c5760206040517f365fccb66c62533ad1447fec73f7b764cf03ac69d512070f7c0aa889025cec198152f35b3461022c57604036600319011261022c5761100161271e565b3360009081527f549fe2656c81d2947b3b913f0a53b9ea86c71e049f3a1b8aa23c09a8a05cb8d460209081526040909120546024928335917f9f2df0fed2c77648de5860a4cc508cd0818c85b8b8a1ab4ceeef8d981c8956a69060ff16156111d1575061106c6134e3565b611074612c00565b6001600160a01b031690811561119657801561115d577f52c63247e1f47db19d5ce0460030c497f067ca4cebf71ba98eeadabe20bace0292835490828201809211611148576000927fddf252ad1be2c89b69c2b068fc378daa952ba7f163c4a11628f55a4df523b3ef928655848452600080516020613898833981519152825260408420818154019055604051908152a354676765c793fa10079d601b1b80821161112d5760016000805160206139d883398151915255005b6044926040519263279e7e1560e21b84526004840152820152fd5b85634e487b7160e01b60005260116004526000fd5b60405162461bcd60e51b815260048101849052601281860152710416d6f756e74206d757374206265203e20360741b6044820152606490fd5b60405162461bcd60e51b815260048101849052601481860152734d696e7420746f207a65726f206164647265737360601b6044820152606490fd5b846044916040519163e2517d3f60e01b8352336004840152820152fd5b3461022c57600036600319011261022c573360009081527fd17a96b5ab97baeb5abd2aff3d879f3ae21bdf0a88374ff422ddd156525d2a0760205260409020547f365fccb66c62533ad1447fec73f7b764cf03ac69d512070f7c0aa889025cec199060ff16156112b657600080516020613998833981519152805460ff8116156112a45760ff191690557f5db9ee0a495bf2e6ff9c91a7834c1ba4fdd244a5e8aa4e537bd38aeae4b073aa6020604051338152a1005b604051638dfc202b60e01b8152600490fd5b6044906040519063e2517d3f60e01b82523360048301526024820152fd5b3461022c57604036600319011261022c576004356001600160a01b0381169081900361022c57602435611305612b49565b61130d612c00565b611318821515612954565b611323811515612992565b8047106113bb57600080808084865af161133b612a8a565b50156113805760207f05af21d7340bf49fde03a32c3bcc785015c94acd83531fc6dfbfb93a24c364ca91604051908152a260016000805160206139d883398151915255005b60405162461bcd60e51b8152602060048201526013602482015272115512081d1c985b9cd9995c8819985a5b1959606a1b6044820152606490fd5b60405162461bcd60e51b8152602060048201526014602482015273496e73756666696369656e742062616c616e636560601b6044820152606490fd5b3461022c57604036600319011261022c57611410612734565b336001600160a01b0382160361142c5761001b90600435613472565b60405163334bd91960e11b8152600490fd5b3461022c57600036600319011261022c57602061145961359b565b604051908152f35b3461022c57600036600319011261022c576020604051676765c793fa10079d601b1b8152f35b3461022c57600036600319011261022c5760206040516000805160206139f88339815191528152f35b3461022c57600036600319011261022c57602060405160128152f35b3461022c57604036600319011261022c5761001b6004356114eb612734565b9080600052600080516020613958833981519152602052611513600160406000200154612bcd565b61308a565b3461022c57600036600319011261022c57602060ff60005460a01c166040519015158152f35b3461022c57602036600319011261022c576004356000526000805160206139588339815191526020526020600160406000200154604051908152f35b3461022c57606036600319011261022c5761159361271e565b61159b612734565b604435906115a883612aba565b336000526020526040600020549260001984106115ca575b6106b193506130ff565b828410611639576001600160a01b0381161561162057331561160757826106b1946115f483612aba565b33600052602052036040600020556115c0565b604051634a1406b160e11b815260006004820152602490fd5b60405163e602df0560e01b815260006004820152602490fd5b604051637dc7a0d960e11b81523360048201526024810185905260448101849052606490fd5b3461022c57600036600319011261022c5760207f52c63247e1f47db19d5ce0460030c497f067ca4cebf71ba98eeadabe20bace0254604051908152f35b3461022c5760a036600319011261022c576116b561271e565b6116bd612734565b6116c561274a565b606480356001600160a01b038116939192919084900361022c576084356001600160a01b0381169081900361022c57600080516020613a1883398151915254946001600160401b03861680159081612405575b60011490816123fb575b1590816123f2575b506123e05760016001600160401b0319871617600080516020613a188339815191525560ff8660401c16156123b3575b61176e6001600160a01b03881615156129cf565b6001600160a01b038316801561237b576001600160a01b0385169081156123445782156123095783156122cd576117b06001600160a01b038a16301415612a0e565b301461227e5730146122305730146121de57301461218b576117d0612a64565b604051906117dd82612760565b6005825264244e45424160d81b60208301526117f761356c565b6117ff61356c565b8051906001600160401b03821161061357819061182a600080516020613878833981519152546127b7565b601f811161210a575b50602090601f83116001146120785760009261206d575b50508160011b916000199060031b1c191617600080516020613878833981519152555b8051906001600160401b0382116106135781906118986000805160206138d8833981519152546127b7565b601f8111611fec575b50602090601f8311600114611f5a57600092611f4f575b50508160011b916000199060031b1c1916176000805160206138d8833981519152555b6118e361356c565b6118eb61356c565b676765c793fa10079d601b1b7f0f070392f17d5f958cc1ac31867dabecfc5c9758b4a419a200803226d7155d0055611921612a64565b9461192a61356c565b6040519561193787612760565b60018752603160f81b602088015261194d61356c565b8051906001600160401b0382116106135781906119786000805160206138b8833981519152546127b7565b601f8111611ece575b50602090601f8311600114611e3c57600092611e31575b50508160011b916000199060031b1c1916176000805160206138b8833981519152555b85516001600160401b038111610613576119e36000805160206138f8833981519152546127b7565b601f8111611dbb575b506020601f8211600114611d1f579181611b8a959492611b7894611b91999a600092611d14575b50508160011b916000199060031b1c1916176000805160206138f8833981519152555b60007fa16a46d94261c7517cc8ff89f61c0ce93598e3c849801011dee649a6a557d1005560007fa16a46d94261c7517cc8ff89f61c0ce93598e3c849801011dee649a6a557d10155611a8661356c565b611a8e61356c565b611a9661356c565b611a9e61356c565b611aa661356c565b60016000805160206139d88339815191525560018060a01b03166bffffffffffffffffffffffff60a01b6000541617600055611ae181612c30565b50611aeb81612cbe565b5060008051602061391883398151915280600052600080516020613958833981519152602052600160406000200190815491600080516020613a5883398151915292838092557fbd79b86ffe0ab8e8776151514217cd7cacd52c909f66475c3af44e129f0b00ff9283600080a481600052816001604060002001918183549355600080a46102c881612d5c565b50611b84608435612e8c565b50612f36565b5035612fe0565b506000546001600160a01b03168015611cfb577f52c63247e1f47db19d5ce0460030c497f067ca4cebf71ba98eeadabe20bace02908154676765c793fa10079d601b1b8101809111611ce5578255806000526000805160206138988339815191526020526040600020676765c793fa10079d601b1b815401905560007fddf252ad1be2c89b69c2b068fc378daa952ba7f163c4a11628f55a4df523b3ef6020604051676765c793fa10079d601b1b8152a354676765c793fa10079d601b1b8111611cbc5760ff8260401c1615611c6357005b68ff000000000000000019600080516020613a188339815191525416600080516020613a18833981519152557fc7f505b2f371ae2175ee4913f4499e1f2633a7b5936321eed1cdaeb6115181d2602060405160018152a1005b6044906040519063279e7e1560e21b82526004820152676765c793fa10079d601b1b6024820152fd5b634e487b7160e01b600052601160045260246000fd5b60405163ec442f0560e01b815260006004820152602490fd5b015190508a80611a13565b6000805160206138f8833981519152600052600080516020613a388339815191529760005b601f1984168110611da3575082611b919899611b789593600193611b8a999896601f19811610611d8a575b505050811b016000805160206138f883398151915255611a36565b015160001960f88460031b161c191690558a8080611d6f565b828201518a5560019099019860209283019201611d44565b6000805160206138f8833981519152600052601f820160051c600080516020613a388339815191520160208310611e1c575b601f820160051c600080516020613a38833981519152018110611e1057506119ec565b60008155600101611ded565b50600080516020613a38833981519152611ded565b015190508880611998565b92506000805160206138b8833981519152600052600080516020613938833981519152906000935b601f1984168510611eb3576001945083601f19811610611e9a575b505050811b016000805160206138b8833981519152556119bb565b015160001960f88460031b161c19169055888080611e7f565b81810151835560209485019460019093019290910190611e64565b9091506000805160206138b8833981519152600052601f830160051c6000805160206139388339815191520160208410611f3a575b908392915b601f820160051c600080516020613938833981519152018110611f2b5750611981565b60008155849350600101611f08565b50600080516020613938833981519152611f03565b0151905087806118b8565b92506000805160206138d88339815191526000526000805160206139b8833981519152906000935b601f1984168510611fd1576001945083601f19811610611fb8575b505050811b016000805160206138d8833981519152556118db565b015160001960f88460031b161c19169055878080611f9d565b81810151835560209485019460019093019290910190611f82565b9091506000805160206138d8833981519152600052601f830160051c6000805160206139b88339815191520160208410612058575b908392915b601f820160051c6000805160206139b883398151915201811061204957506118a1565b60008155849350600101612026565b506000805160206139b8833981519152612021565b01519050888061184a565b9250600080516020613878833981519152600052600080516020613858833981519152906000935b601f19841685106120ef576001945083601f198116106120d6575b505050811b016000805160206138788339815191525561186d565b015160001960f88460031b161c191690558880806120bb565b818101518355602094850194600190930192909101906120a0565b909150600080516020613878833981519152600052601f830160051c6000805160206138588339815191520160208410612176575b908392915b601f820160051c6000805160206138588339815191520181106121675750611833565b60008155849350600101612144565b5060008051602061385883398151915261213f565b60405162461bcd60e51b815260206004820152602660248201527f53616c6520636f6e74726163742063616e6e6f7420626520746f6b656e20636f6044820152651b9d1c9858dd60d21b81850152608490fd5b60405162461bcd60e51b815260206004820152602560248201527f426f74206578656375746f722063616e6e6f7420626520746f6b656e20636f6e6044820152641d1c9858dd60da1b81860152608490fd5b60405162461bcd60e51b815260206004820152602160248201527f4f707320736166652063616e6e6f7420626520746f6b656e20636f6e747261636044820152601d60fa1b81870152608490fd5b60405162461bcd60e51b815260206004820152602260248201527f4d61696e20736166652063616e6e6f7420626520746f6b656e20636f6e74726160448201526118dd60f21b81880152608490fd5b60405162461bcd60e51b8152602060048201526015602482015274125b9d985b1a59081cd85b194818dbdb9d1c9858dd605a1b60448201528790fd5b60405162461bcd60e51b815260206004820152601460248201527324b73b30b634b2103137ba1032bc32b1baba37b960611b60448201528790fd5b60405162461bcd60e51b815260206004820152601060248201526f496e76616c6964206f7073207361666560801b60448201528790fd5b60405162461bcd60e51b8152602060048201526011602482015270496e76616c6964206d61696e207361666560781b60448201528690fd5b68ffffffffffffffffff1986166801000000000000000117600080516020613a188339815191525561175a565b60405163f92ee8a960e01b8152600490fd5b9050158861172a565b303b159150611722565b604088901c60ff16159150611718565b3461022c57606036600319011261022c576001600160a01b036004358181169081900361022c57612444612734565b9160443592612451612b49565b612459612c00565b30831461252b57169161246d831515612954565b612478811515612992565b60405163a9059cbb60e01b81528360048201528160248201526020816044816000875af1801561251f576124e7575b5060207f879f92dded0f26b83c3e00b12e0395dc72cfc3077343d1854ed6988edd1f909691604051908152a360016000805160206139d883398151915255005b6020813d602011612517575b816125006020938361277b565b8101031261022c57518015150361022c57836124a7565b3d91506124f3565b6040513d6000823e3d90fd5b60405162461bcd60e51b815260206004820152601360248201527243616e6e6f74207265636f766572204e45424160681b6044820152606490fd5b3461022c57600036600319011261022c5760206040517fbf8b034af7a434c44d9299a66a1071085478bb9a7fdc1f0ebcb5d36dc76f02b28152f35b3461022c57604036600319011261022c576106b16125bd61271e565b602435903361350e565b3461022c57600036600319011261022c5760405160008051602061387883398151915280548260006125f8836127b7565b92838352602094600191866001821691826000146107975750506001146126275750506107399250038361277b565b859250600052600080516020613858833981519152906000915b8583106126595750506107399350820101858061072b565b80548389018501528794508693909201918101612641565b3461022c57602036600319011261022c576004359063ffffffff60e01b821680920361022c576020916340c10f1960e01b81149081156126b3575b5015158152f35b637965db0b60e01b8114915081156126cd575b50836126ac565b6301ffc9a760e01b149050836126c6565b919082519283825260005b84811061270a575050826000602080949584010152601f8019910116010190565b6020818301810151848301820152016126e9565b600435906001600160a01b038216820361022c57565b602435906001600160a01b038216820361022c57565b604435906001600160a01b038216820361022c57565b604081019081106001600160401b0382111761061357604052565b90601f801991011681019081106001600160401b0382111761061357604052565b6001600160401b03811161061357601f01601f191660200190565b90600182811c921680156127e7575b60208310146127d157565b634e487b7160e01b600052602260045260246000fd5b91607f16916127c6565b604051906000826000805160206138b883398151915291825492612814846127b7565b808452936020916001918281169081156128915750600114612842575b5050506128409250038361277b565b565b60009081526000805160206139388339815191529590935091905b8284106128795750612840945050508101602001388080612831565b8554888501830152948501948794509281019261285d565b925050506020925061284094915060ff191682840152151560051b820101388080612831565b604051906000826000805160206138f8833981519152918254926128da846127b7565b808452936020916001918281169081156128915750600114612905575050506128409250038361277b565b6000908152600080516020613a388339815191529590935091905b82841061293c5750612840945050508101602001388080612831565b85548885018301529485019487945092810192612920565b1561295b57565b60405162461bcd60e51b815260206004820152600f60248201526e496e76616c6964206164647265737360881b6044820152606490fd5b1561299957565b60405162461bcd60e51b815260206004820152600e60248201526d125b9d985b1a5908185b5bdd5b9d60921b6044820152606490fd5b156129d657565b60405162461bcd60e51b815260206004820152601060248201526f496e76616c696420747265617375727960801b6044820152606490fd5b15612a1557565b60405162461bcd60e51b815260206004820152602160248201527f54726561737572792063616e6e6f7420626520746f6b656e20636f6e747261636044820152601d60fa1b6064820152608490fd5b60405190612a7182612760565b600a8252692722a120902a37b5b2b760b11b6020830152565b3d15612ab5573d90612a9b8261279c565b91612aa9604051938461277b565b82523d6000602084013e565b606090565b6001600160a01b031660009081527f52c63247e1f47db19d5ce0460030c497f067ca4cebf71ba98eeadabe20bace016020526040902090565b15612afa57565b60405162461bcd60e51b815260206004820152602160248201527f54696d656c6f636b2063616e6e6f7420626520746f6b656e20636f6e747261636044820152601d60fa1b6064820152608490fd5b3360009081527f0be278f4ad0972113a7bd5492b4cd8a33cafc699350ac844c18227cd07e8a09d60205260409020546000805160206139f88339815191529060ff16156112b65750565b3360009081527fb7db2dd08fcb62d0c9e08c51941cae53c267786a0b75803fb7960902fc8ef97d602052604081205460ff16156112b65750565b8060005260008051602061395883398151915260205260406000203360005260205260ff60406000205416156112b65750565b6000805160206139d88339815191526002815414612c1e5760029055565b604051633ee5aeb560e01b8152600490fd5b6001600160a01b031660008181527fb7db2dd08fcb62d0c9e08c51941cae53c267786a0b75803fb7960902fc8ef97d60205260408120549091906000805160206139588339815191529060ff16612cb9578280526020526040822081835260205260408220600160ff1982541617905533916000805160206138388339815191528180a4600190565b505090565b6001600160a01b031660008181527f0be278f4ad0972113a7bd5492b4cd8a33cafc699350ac844c18227cd07e8a09d60205260408120549091906000805160206139f8833981519152906000805160206139588339815191529060ff16612d56578184526020526040832082845260205260408320600160ff19825416179055600080516020613838833981519152339380a4600190565b50505090565b6001600160a01b031660008181527f1dd8da7456500296e75257d3f7b15f593a25957ea0a2cfbc125d925064c644146020526040812054909190600080516020613a58833981519152906000805160206139588339815191529060ff16612d56578184526020526040832082845260205260408320600160ff19825416179055600080516020613838833981519152339380a4600190565b6001600160a01b031660008181527fab71e3f32666744d246edff3f96e4bdafee2e9867098cdd118a979a7464786a86020526040812054909190600080516020613918833981519152906000805160206139588339815191529060ff16612d56578184526020526040832082845260205260408320600160ff19825416179055600080516020613838833981519152339380a4600190565b6001600160a01b031660008181527f549fe2656c81d2947b3b913f0a53b9ea86c71e049f3a1b8aa23c09a8a05cb8d460205260408120549091907f9f2df0fed2c77648de5860a4cc508cd0818c85b8b8a1ab4ceeef8d981c8956a6906000805160206139588339815191529060ff16612d56578184526020526040832082845260205260408320600160ff19825416179055600080516020613838833981519152339380a4600190565b6001600160a01b031660008181527fd17a96b5ab97baeb5abd2aff3d879f3ae21bdf0a88374ff422ddd156525d2a0760205260408120549091907f365fccb66c62533ad1447fec73f7b764cf03ac69d512070f7c0aa889025cec19906000805160206139588339815191529060ff16612d56578184526020526040832082845260205260408320600160ff19825416179055600080516020613838833981519152339380a4600190565b6001600160a01b031660008181527f95dda6c6f31ea0c92078aaca3a510dc395bc467e87b1d2be7f9e24c15aaff99a60205260408120549091907fbf8b034af7a434c44d9299a66a1071085478bb9a7fdc1f0ebcb5d36dc76f02b2906000805160206139588339815191529060ff16612d56578184526020526040832082845260205260408320600160ff19825416179055600080516020613838833981519152339380a4600190565b9060009180835260008051602061395883398151915280602052604084209260018060a01b03169283855260205260ff60408520541615600014612d56578184526020526040832082845260205260408320600160ff19825416179055600080516020613838833981519152339380a4600190565b916001600160a01b038084169283156132105716928315611cfb5760ff60008051602061399883398151915254166131d2576000908382526000805160206138988339815191528060205260408320549184831061319f575082847fddf252ad1be2c89b69c2b068fc378daa952ba7f163c4a11628f55a4df523b3ef959360409388602097528652038282205586815220818154019055604051908152a3565b60405163391434e360e21b81526001600160a01b0391909116600482015260248101929092525060448101839052606490fd5b60405162461bcd60e51b8152602060048201526016602482015275151bdad95b881d1c985b9cd9995c9cc81c185d5cd95960521b6044820152606490fd5b604051634b637e8f60e11b815260006004820152602490fd5b6001600160a01b031660008181527fb7db2dd08fcb62d0c9e08c51941cae53c267786a0b75803fb7960902fc8ef97d60205260408120549091906000805160206139588339815191529060ff1615612cb957828052602052604082208183526020526040822060ff19815416905533916000805160206139788339815191528180a4600190565b6001600160a01b031660008181527f0be278f4ad0972113a7bd5492b4cd8a33cafc699350ac844c18227cd07e8a09d60205260408120549091906000805160206139f8833981519152906000805160206139588339815191529060ff1615612d5657818452602052604083208284526020526040832060ff198154169055600080516020613978833981519152339380a4600190565b6001600160a01b031660008181527f1dd8da7456500296e75257d3f7b15f593a25957ea0a2cfbc125d925064c644146020526040812054909190600080516020613a58833981519152906000805160206139588339815191529060ff1615612d5657818452602052604083208284526020526040832060ff198154169055600080516020613978833981519152339380a4600190565b6001600160a01b031660008181527fab71e3f32666744d246edff3f96e4bdafee2e9867098cdd118a979a7464786a86020526040812054909190600080516020613918833981519152906000805160206139588339815191529060ff1615612d5657818452602052604083208284526020526040832060ff198154169055600080516020613978833981519152339380a4600190565b9060009180835260008051602061395883398151915280602052604084209260018060a01b03169283855260205260ff604085205416600014612d5657818452602052604083208284526020526040832060ff198154169055600080516020613978833981519152339380a4600190565b60ff60008051602061399883398151915254166134fc57565b60405163d93c066560e01b8152600490fd5b916001600160a01b038084169283156116205716928315611607577f8c5be1e5ebec7d5bd14f71427d1e84f3dd0314c0f7b2291e5b200ac8c7c3b92591613556602092612aba565b85600052825280604060002055604051908152a3565b60ff600080516020613a188339815191525460401c161561358957565b604051631afcd79f60e31b8152600490fd5b6135a3613725565b6135ab61378f565b6040519060208201927f8b73c3c69bb8fe3d512ecc4cf759cc79239f7b179b0ffacaa9a75d522b39400f8452604083015260608201524660808201523060a082015260a0815260c081018181106001600160401b038211176106135760405251902090565b91907f7fffffffffffffffffffffffffffffff5d576e7357a4501ddfe92f46681b20a0841161369457926020929160ff608095604051948552168484015260408301526060820152600092839182805260015afa156136885780516001600160a01b0381161561367f57918190565b50809160019190565b604051903d90823e3d90fd5b50505060009160039190565b600481101561370f57806136b2575050565b600181036136cc5760405163f645eedf60e01b8152600490fd5b600281036136ed5760405163fce698f760e01b815260048101839052602490fd5b6003146136f75750565b602490604051906335e2f38360e21b82526004820152fd5b634e487b7160e01b600052602160045260246000fd5b61372d6127f1565b805190811561373d576020012090565b50507fa16a46d94261c7517cc8ff89f61c0ce93598e3c849801011dee649a6a557d10054801561376a5790565b507fc5d2460186f7233c927e7db2dcc703c0e500b653ca82273b7bfad8045d85a47090565b6137976128b7565b80519081156137a7576020012090565b50507fa16a46d94261c7517cc8ff89f61c0ce93598e3c849801011dee649a6a557d10154801561376a5790565b906137fb57508051156137e957602081519101fd5b60405163d6bda27560e01b8152600490fd5b8151158061382e575b61380c575090565b604051639996b31560e01b81526001600160a01b039091166004820152602490fd5b50803b1561380456fe2f8788117e7eff1d82e926ec794901d17c78024a50270940304540a733656f0d2ae08a8e29253f69ac5d979a101956ab8f8d9d7ded63fa7a83b16fc47648eab052c63247e1f47db19d5ce0460030c497f067ca4cebf71ba98eeadabe20bace0352c63247e1f47db19d5ce0460030c497f067ca4cebf71ba98eeadabe20bace00a16a46d94261c7517cc8ff89f61c0ce93598e3c849801011dee649a6a557d10252c63247e1f47db19d5ce0460030c497f067ca4cebf71ba98eeadabe20bace04a16a46d94261c7517cc8ff89f61c0ce93598e3c849801011dee649a6a557d103189ab7a9244df0848122154315af71fe140f3db0fe014031783b0946b8c9d2e342ad5d3e1f2e6e70edcf6d991b8a3023d3fca8047a131592f9edb9fd9b89d57d02dd7bc7dec4dceedda775e58dd541e08a116c6c53815c0bd028192f7b626800f6391f5c32d9c69d2a47ea670b442974b53935d1edc7fd64eb21e047a839171bcd5ed15c6e187e77e9aee88184c21f4f2182ab5827cb3b7e07fbedcd63f0330046a2803e59a4de4e7a4c574b1243f25977ac4c77d5a1a4a609b5394cebb4a2aa9b779b17422d0df92223018b32b4d1fa46e071723d6817e2486d003becc55f000acf805600123ef007091da3b3ffb39474074c656c127aa68cb0ffec232a8ff8f0c57e16840df040f15088dc2f81fe391c3923bec73e23a9662efc9c229c6a005f9ce34815f8e11431c7bb75a8e6886a91478f7ffc1dbb0a98dc240fddd76b753781c337e05128e8c89528ef09085e3903dce179df4f50758529e64cb759d09aa264697066735822122070035e0668cd07ec460f11462b9d702188ad4b862cfb612a2c9ecc70c715344f64736f6c63430008160033","opcodes":"PUSH1 0xA0 DUP1 PUSH1 0x40 MSTORE CALLVALUE PUSH3 0xD1 JUMPI ADDRESS PUSH1 0x80 MSTORE PUSH32 0xF0C57E16840DF040F15088DC2F81FE391C3923BEC73E23A9662EFC9C229C6A00 SWAP1 DUP2 SLOAD SWAP1 PUSH1 0xFF DUP3 PUSH1 0x40 SHR AND PUSH3 0xC2 JUMPI POP PUSH1 0x1 PUSH1 0x1 PUSH1 0x40 SHL SUB PUSH1 0x2 PUSH1 0x1 PUSH1 0x40 SHL SUB NOT DUP3 DUP3 AND ADD PUSH3 0x7C JUMPI JUMPDEST PUSH1 0x40 MLOAD PUSH2 0x3AAD SWAP1 DUP2 PUSH3 0xD7 DUP3 CODECOPY PUSH1 0x80 MLOAD DUP2 DUP2 DUP2 PUSH2 0xCC6 ADD MSTORE PUSH2 0xDAB ADD MSTORE RETURN JUMPDEST PUSH1 0x1 PUSH1 0x1 PUSH1 0x40 SHL SUB NOT SWAP1 SWAP2 AND DUP2 OR SWAP1 SWAP2 SSTORE PUSH1 0x40 MLOAD SWAP1 DUP2 MSTORE PUSH32 0xC7F505B2F371AE2175EE4913F4499E1F2633A7B5936321EED1CDAEB6115181D2 SWAP1 PUSH1 0x20 SWAP1 LOG1 CODESIZE DUP1 DUP1 PUSH3 0x5C JUMP JUMPDEST PUSH4 0xF92EE8A9 PUSH1 0xE0 SHL DUP2 MSTORE PUSH1 0x4 SWAP1 REVERT JUMPDEST PUSH1 0x0 DUP1 REVERT INVALID PUSH1 0x80 DUP1 PUSH1 0x40 MSTORE PUSH1 0x4 CALLDATASIZE LT ISZERO PUSH2 0x1D JUMPI JUMPDEST POP CALLDATASIZE ISZERO PUSH2 0x1B JUMPI PUSH1 0x0 DUP1 REVERT JUMPDEST STOP JUMPDEST PUSH1 0x0 CALLDATALOAD PUSH1 0xE0 SHR SWAP1 DUP2 PUSH4 0x1FFC9A7 EQ PUSH2 0x2671 JUMPI POP DUP1 PUSH4 0x6FDDE03 EQ PUSH2 0x25C7 JUMPI DUP1 PUSH4 0x95EA7B3 EQ PUSH2 0x25A1 JUMPI DUP1 PUSH4 0xB06806A EQ PUSH2 0x2566 JUMPI DUP1 PUSH4 0x1171BDA9 EQ PUSH2 0x2415 JUMPI DUP1 PUSH4 0x1459457A EQ PUSH2 0x169C JUMPI DUP1 PUSH4 0x18160DDD EQ PUSH2 0x165F JUMPI DUP1 PUSH4 0x23B872DD EQ PUSH2 0x157A JUMPI DUP1 PUSH4 0x248A9CA3 EQ PUSH2 0x153E JUMPI DUP1 PUSH4 0x2C678C64 EQ PUSH2 0x1518 JUMPI DUP1 PUSH4 0x2F2FF15D EQ PUSH2 0x14CC JUMPI DUP1 PUSH4 0x313CE567 EQ PUSH2 0x14B0 JUMPI DUP1 PUSH4 0x31993A1C EQ PUSH2 0x1487 JUMPI DUP1 PUSH4 0x32CB6B0C EQ PUSH2 0x1461 JUMPI DUP1 PUSH4 0x355274EA EQ PUSH2 0x1461 JUMPI DUP1 PUSH4 0x3644E515 EQ PUSH2 0x143E JUMPI DUP1 PUSH4 0x36568ABE EQ PUSH2 0x13F7 JUMPI DUP1 PUSH4 0x3E0C0629 EQ PUSH2 0x12D4 JUMPI DUP1 PUSH4 0x3F4BA83A EQ PUSH2 0x11EE JUMPI DUP1 PUSH4 0x40C10F19 EQ PUSH2 0xFE8 JUMPI DUP1 PUSH4 0x42275C59 EQ PUSH2 0xFAD JUMPI DUP1 PUSH4 0x4F1EF286 EQ PUSH2 0xD30 JUMPI DUP1 PUSH4 0x52D1902D EQ PUSH2 0xCB3 JUMPI DUP1 PUSH4 0x5C975ABB EQ PUSH2 0xC83 JUMPI DUP1 PUSH4 0x61D027B3 EQ PUSH2 0xC5A JUMPI DUP1 PUSH4 0x70A08231 EQ PUSH2 0xC13 JUMPI DUP1 PUSH4 0x7455202E EQ PUSH2 0xBEA JUMPI DUP1 PUSH4 0x7ECEBE00 EQ PUSH2 0xB91 JUMPI DUP1 PUSH4 0x7F51BB1F EQ PUSH2 0xAAF JUMPI DUP1 PUSH4 0x809C585C EQ PUSH2 0xA93 JUMPI DUP1 PUSH4 0x8456CB59 EQ PUSH2 0x96F JUMPI DUP1 PUSH4 0x84B0196E EQ PUSH2 0x813 JUMPI DUP1 PUSH4 0x91D14854 EQ PUSH2 0x7B9 JUMPI DUP1 PUSH4 0x95D89B41 EQ PUSH2 0x6D8 JUMPI DUP1 PUSH4 0xA217FDDF EQ PUSH2 0x6BC JUMPI DUP1 PUSH4 0xA9059CBB EQ PUSH2 0x68B JUMPI DUP1 PUSH4 0xAD3CB1CC EQ PUSH2 0x641 JUMPI DUP1 PUSH4 0xD505ACCF EQ PUSH2 0x4B6 JUMPI DUP1 PUSH4 0xD5391393 EQ PUSH2 0x47B JUMPI DUP1 PUSH4 0xD547741F EQ PUSH2 0x42F JUMPI DUP1 PUSH4 0xDD62ED3E EQ PUSH2 0x3E6 JUMPI DUP1 PUSH4 0xED686A0C EQ PUSH2 0x231 JUMPI PUSH4 0xF72C0D8B EQ PUSH2 0x203 JUMPI CODESIZE PUSH2 0xF JUMP JUMPDEST CALLVALUE PUSH2 0x22C JUMPI PUSH1 0x0 CALLDATASIZE PUSH1 0x3 NOT ADD SLT PUSH2 0x22C JUMPI PUSH1 0x20 PUSH1 0x40 MLOAD PUSH1 0x0 DUP1 MLOAD PUSH1 0x20 PUSH2 0x3918 DUP4 CODECOPY DUP2 MLOAD SWAP2 MSTORE DUP2 MSTORE RETURN JUMPDEST PUSH1 0x0 DUP1 REVERT JUMPDEST CALLVALUE PUSH2 0x22C JUMPI PUSH1 0x60 CALLDATASIZE PUSH1 0x3 NOT ADD SLT PUSH2 0x22C JUMPI PUSH2 0x24A PUSH2 0x271E JUMP JUMPDEST PUSH2 0x252 PUSH2 0x2734 JUMP JUMPDEST PUSH2 0x25A PUSH2 0x274A JUMP JUMPDEST SWAP1 PUSH2 0x263 PUSH2 0x2B93 JUMP JUMPDEST PUSH1 0xFF PUSH1 0x0 SLOAD PUSH1 0xA0 SHR AND PUSH2 0x3AE JUMPI PUSH1 0x1 PUSH1 0x1 PUSH1 0xA0 SHL SUB DUP4 DUP2 AND SWAP3 SWAP1 DUP4 ISZERO PUSH2 0x371 JUMPI DUP3 AND SWAP4 DUP5 ISZERO PUSH2 0x32C JUMPI PUSH2 0x2F2 SWAP3 PUSH2 0x2BE PUSH2 0x2CE SWAP3 PUSH2 0x2A3 ADDRESS DUP9 EQ ISZERO PUSH2 0x2AF3 JUMP JUMPDEST PUSH2 0x2AF ADDRESS DUP10 EQ ISZERO PUSH2 0x2AF3 JUMP JUMPDEST PUSH2 0x2B8 DUP2 PUSH2 0x2C30 JUMP JUMPDEST POP PUSH2 0x2CBE JUMP JUMPDEST POP PUSH2 0x2C8 DUP2 PUSH2 0x2D5C JUMP JUMPDEST POP PUSH2 0x2DF4 JUMP JUMPDEST POP PUSH2 0x2D8 DUP2 PUSH2 0x3229 JUMP JUMPDEST POP PUSH2 0x2E2 DUP2 PUSH2 0x32B0 JUMP JUMPDEST POP PUSH2 0x2EC DUP2 PUSH2 0x3346 JUMP JUMPDEST POP PUSH2 0x33DC JUMP JUMPDEST POP PUSH1 0x0 DUP1 SLOAD PUSH1 0xFF PUSH1 0xA0 SHL NOT AND PUSH1 0x1 PUSH1 0xA0 SHL OR DUP2 SSTORE PUSH32 0x5DB8A0F9F45A2B5A19AE3DF073FFAA88502E813E3157CE52DFD37D1D612314CB SWAP1 DUP1 LOG3 STOP JUMPDEST PUSH1 0x40 MLOAD PUSH3 0x461BCD PUSH1 0xE5 SHL DUP2 MSTORE PUSH1 0x20 PUSH1 0x4 DUP3 ADD MSTORE PUSH1 0x18 PUSH1 0x24 DUP3 ADD MSTORE PUSH32 0x496E76616C696420757067726164652074696D656C6F636B0000000000000000 PUSH1 0x44 DUP3 ADD MSTORE PUSH1 0x64 SWAP1 REVERT JUMPDEST PUSH1 0x40 MLOAD PUSH3 0x461BCD PUSH1 0xE5 SHL DUP2 MSTORE PUSH1 0x20 PUSH1 0x4 DUP3 ADD MSTORE PUSH1 0x15 PUSH1 0x24 DUP3 ADD MSTORE PUSH21 0x496E76616C6964206D61696E2074696D656C6F636B PUSH1 0x58 SHL PUSH1 0x44 DUP3 ADD MSTORE PUSH1 0x64 SWAP1 REVERT JUMPDEST PUSH1 0x40 MLOAD PUSH3 0x461BCD PUSH1 0xE5 SHL DUP2 MSTORE PUSH1 0x20 PUSH1 0x4 DUP3 ADD MSTORE PUSH1 0x10 PUSH1 0x24 DUP3 ADD MSTORE PUSH16 0x105B1C9958591E481B5A59DC985D1959 PUSH1 0x82 SHL PUSH1 0x44 DUP3 ADD MSTORE PUSH1 0x64 SWAP1 REVERT JUMPDEST CALLVALUE PUSH2 0x22C JUMPI PUSH1 0x40 CALLDATASIZE PUSH1 0x3 NOT ADD SLT PUSH2 0x22C JUMPI PUSH2 0x3FF PUSH2 0x271E JUMP JUMPDEST PUSH2 0x410 PUSH2 0x40A PUSH2 0x2734 JUMP JUMPDEST SWAP2 PUSH2 0x2ABA JUMP JUMPDEST SWAP1 PUSH1 0x1 DUP1 PUSH1 0xA0 SHL SUB AND PUSH1 0x0 MSTORE PUSH1 0x20 MSTORE PUSH1 0x20 PUSH1 0x40 PUSH1 0x0 KECCAK256 SLOAD PUSH1 0x40 MLOAD SWAP1 DUP2 MSTORE RETURN JUMPDEST CALLVALUE PUSH2 0x22C JUMPI PUSH1 0x40 CALLDATASIZE PUSH1 0x3 NOT ADD SLT PUSH2 0x22C JUMPI PUSH2 0x1B PUSH1 0x4 CALLDATALOAD PUSH2 0x44E PUSH2 0x2734 JUMP JUMPDEST SWAP1 DUP1 PUSH1 0x0 MSTORE PUSH1 0x0 DUP1 MLOAD PUSH1 0x20 PUSH2 0x3958 DUP4 CODECOPY DUP2 MLOAD SWAP2 MSTORE PUSH1 0x20 MSTORE PUSH2 0x476 PUSH1 0x1 PUSH1 0x40 PUSH1 0x0 KECCAK256 ADD SLOAD PUSH2 0x2BCD JUMP JUMPDEST PUSH2 0x3472 JUMP JUMPDEST CALLVALUE PUSH2 0x22C JUMPI PUSH1 0x0 CALLDATASIZE PUSH1 0x3 NOT ADD SLT PUSH2 0x22C JUMPI PUSH1 0x20 PUSH1 0x40 MLOAD PUSH32 0x9F2DF0FED2C77648DE5860A4CC508CD0818C85B8B8A1AB4CEEEF8D981C8956A6 DUP2 MSTORE RETURN JUMPDEST CALLVALUE PUSH2 0x22C JUMPI PUSH1 0xE0 CALLDATASIZE PUSH1 0x3 NOT ADD SLT PUSH2 0x22C JUMPI PUSH2 0x4CF PUSH2 0x271E JUMP JUMPDEST PUSH2 0x4D7 PUSH2 0x2734 JUMP JUMPDEST PUSH1 0x44 CALLDATALOAD SWAP1 PUSH1 0x64 CALLDATALOAD SWAP3 PUSH1 0x84 CALLDATALOAD SWAP4 PUSH1 0xFF DUP6 AND DUP6 SUB PUSH2 0x22C JUMPI DUP1 TIMESTAMP GT PUSH2 0x629 JUMPI PUSH1 0x1 DUP1 PUSH1 0xA0 SHL SUB SWAP1 DUP2 DUP4 AND SWAP6 DUP7 PUSH1 0x0 MSTORE PUSH32 0x5AB42CED628888259C08AC98DB1EB0CF702FC1501344311D8B100CD1BFE4BB00 PUSH1 0x20 MSTORE PUSH1 0x40 PUSH1 0x0 KECCAK256 SWAP1 DUP2 SLOAD SWAP2 PUSH1 0x1 DUP4 ADD SWAP1 SSTORE PUSH1 0x40 MLOAD SWAP3 PUSH1 0x20 DUP5 ADD SWAP3 PUSH32 0x6E71EDAE12B1B97F4D1F60370FEF10105FA2FAAE0126114A169C64845D6126C9 DUP5 MSTORE DUP10 PUSH1 0x40 DUP7 ADD MSTORE DUP6 DUP9 AND PUSH1 0x60 DUP7 ADD MSTORE DUP9 PUSH1 0x80 DUP7 ADD MSTORE PUSH1 0xA0 DUP6 ADD MSTORE PUSH1 0xC0 DUP5 ADD MSTORE PUSH1 0xC0 DUP4 MSTORE PUSH1 0xE0 DUP4 ADD SWAP2 DUP4 DUP4 LT PUSH1 0x1 PUSH1 0x1 PUSH1 0x40 SHL SUB DUP5 GT OR PUSH2 0x613 JUMPI PUSH2 0x5E2 SWAP4 PUSH2 0x5D9 SWAP4 PUSH1 0x40 MSTORE MLOAD SWAP1 KECCAK256 PUSH2 0x5B2 PUSH2 0x359B JUMP JUMPDEST SWAP1 PUSH1 0x40 MLOAD SWAP2 PUSH2 0x1901 PUSH1 0xF0 SHL DUP4 MSTORE PUSH1 0x2 DUP4 ADD MSTORE PUSH1 0x22 DUP3 ADD MSTORE PUSH1 0xC4 CALLDATALOAD SWAP2 PUSH1 0x42 PUSH1 0xA4 CALLDATALOAD SWAP3 KECCAK256 PUSH2 0x3610 JUMP JUMPDEST SWAP1 SWAP3 SWAP2 SWAP3 PUSH2 0x36A0 JUMP JUMPDEST AND DUP5 DUP2 SUB PUSH2 0x5F5 JUMPI POP PUSH2 0x1B SWAP4 POP PUSH2 0x350E JUMP JUMPDEST PUSH1 0x44 SWAP1 DUP6 PUSH1 0x40 MLOAD SWAP2 PUSH4 0x25C00723 PUSH1 0xE1 SHL DUP4 MSTORE PUSH1 0x4 DUP4 ADD MSTORE PUSH1 0x24 DUP3 ADD MSTORE REVERT JUMPDEST PUSH4 0x4E487B71 PUSH1 0xE0 SHL PUSH1 0x0 MSTORE PUSH1 0x41 PUSH1 0x4 MSTORE PUSH1 0x24 PUSH1 0x0 REVERT JUMPDEST PUSH1 0x24 SWAP1 PUSH1 0x40 MLOAD SWAP1 PUSH4 0x313C8981 PUSH1 0xE1 SHL DUP3 MSTORE PUSH1 0x4 DUP3 ADD MSTORE REVERT JUMPDEST CALLVALUE PUSH2 0x22C JUMPI PUSH1 0x0 CALLDATASIZE PUSH1 0x3 NOT ADD SLT PUSH2 0x22C JUMPI PUSH2 0x687 PUSH1 0x40 MLOAD PUSH2 0x661 DUP2 PUSH2 0x2760 JUMP JUMPDEST PUSH1 0x5 DUP2 MSTORE PUSH5 0x352E302E3 PUSH1 0xDC SHL PUSH1 0x20 DUP3 ADD MSTORE PUSH1 0x40 MLOAD SWAP2 DUP3 SWAP2 PUSH1 0x20 DUP4 MSTORE PUSH1 0x20 DUP4 ADD SWAP1 PUSH2 0x26DE JUMP JUMPDEST SUB SWAP1 RETURN JUMPDEST CALLVALUE PUSH2 0x22C JUMPI PUSH1 0x40 CALLDATASIZE PUSH1 0x3 NOT ADD SLT PUSH2 0x22C JUMPI PUSH2 0x6B1 PUSH2 0x6A7 PUSH2 0x271E JUMP JUMPDEST PUSH1 0x24 CALLDATALOAD SWAP1 CALLER PUSH2 0x30FF JUMP JUMPDEST PUSH1 0x20 PUSH1 0x40 MLOAD PUSH1 0x1 DUP2 MSTORE RETURN JUMPDEST CALLVALUE PUSH2 0x22C JUMPI PUSH1 0x0 CALLDATASIZE PUSH1 0x3 NOT ADD SLT PUSH2 0x22C JUMPI PUSH1 0x20 PUSH1 0x40 MLOAD PUSH1 0x0 DUP2 MSTORE RETURN JUMPDEST CALLVALUE PUSH2 0x22C JUMPI PUSH1 0x0 CALLDATASIZE PUSH1 0x3 NOT ADD SLT PUSH2 0x22C JUMPI PUSH1 0x40 MLOAD PUSH1 0x0 DUP1 MLOAD PUSH1 0x20 PUSH2 0x38D8 DUP4 CODECOPY DUP2 MLOAD SWAP2 MSTORE DUP1 SLOAD DUP3 PUSH1 0x0 PUSH2 0x709 DUP4 PUSH2 0x27B7 JUMP JUMPDEST SWAP3 DUP4 DUP4 MSTORE PUSH1 0x20 SWAP5 PUSH1 0x1 SWAP2 DUP7 PUSH1 0x1 DUP3 AND SWAP2 DUP3 PUSH1 0x0 EQ PUSH2 0x797 JUMPI POP POP PUSH1 0x1 EQ PUSH2 0x74D JUMPI JUMPDEST POP POP PUSH2 0x739 SWAP3 POP SUB DUP4 PUSH2 0x277B JUMP JUMPDEST PUSH2 0x687 PUSH1 0x40 MLOAD SWAP3 DUP3 DUP5 SWAP4 DUP5 MSTORE DUP4 ADD SWAP1 PUSH2 0x26DE JUMP JUMPDEST DUP6 SWAP3 POP PUSH1 0x0 MSTORE PUSH1 0x0 DUP1 MLOAD PUSH1 0x20 PUSH2 0x39B8 DUP4 CODECOPY DUP2 MLOAD SWAP2 MSTORE SWAP1 PUSH1 0x0 SWAP2 JUMPDEST DUP6 DUP4 LT PUSH2 0x77F JUMPI POP POP PUSH2 0x739 SWAP4 POP DUP3 ADD ADD DUP6 DUP1 PUSH2 0x72B JUMP JUMPDEST DUP1 SLOAD DUP4 DUP10 ADD DUP6 ADD MSTORE DUP8 SWAP5 POP DUP7 SWAP4 SWAP1 SWAP3 ADD SWAP2 DUP2 ADD PUSH2 0x767 JUMP JUMPDEST SWAP3 POP SWAP4 POP POP PUSH2 0x739 SWAP5 SWAP2 POP PUSH1 0xFF NOT AND DUP3 DUP5 ADD MSTORE ISZERO ISZERO PUSH1 0x5 SHL DUP3 ADD ADD DUP6 DUP1 PUSH2 0x72B JUMP JUMPDEST CALLVALUE PUSH2 0x22C JUMPI PUSH1 0x40 CALLDATASIZE PUSH1 0x3 NOT ADD SLT PUSH2 0x22C JUMPI PUSH2 0x7D2 PUSH2 0x2734 JUMP JUMPDEST PUSH1 0x4 CALLDATALOAD PUSH1 0x0 MSTORE PUSH1 0x0 DUP1 MLOAD PUSH1 0x20 PUSH2 0x3958 DUP4 CODECOPY DUP2 MLOAD SWAP2 MSTORE PUSH1 0x20 MSTORE PUSH1 0x40 PUSH1 0x0 KECCAK256 SWAP1 PUSH1 0x1 DUP1 PUSH1 0xA0 SHL SUB AND PUSH1 0x0 MSTORE PUSH1 0x20 MSTORE PUSH1 0x20 PUSH1 0xFF PUSH1 0x40 PUSH1 0x0 KECCAK256 SLOAD AND PUSH1 0x40 MLOAD SWAP1 ISZERO ISZERO DUP2 MSTORE RETURN JUMPDEST CALLVALUE PUSH2 0x22C JUMPI PUSH1 0x0 CALLDATASIZE PUSH1 0x3 NOT ADD SLT PUSH2 0x22C JUMPI PUSH32 0xA16A46D94261C7517CC8FF89F61C0CE93598E3C849801011DEE649A6A557D100 SLOAD ISZERO DUP1 PUSH2 0x946 JUMPI JUMPDEST ISZERO PUSH2 0x909 JUMPI PUSH2 0x85A PUSH2 0x27F1 JUMP JUMPDEST PUSH2 0x862 PUSH2 0x28B7 JUMP JUMPDEST PUSH1 0x40 MLOAD PUSH1 0x20 DUP1 DUP3 ADD SWAP3 DUP3 DUP5 LT PUSH1 0x1 PUSH1 0x1 PUSH1 0x40 SHL SUB DUP6 GT OR PUSH2 0x613 JUMPI SWAP2 PUSH1 0x20 PUSH2 0x8BC DUP6 SWAP5 PUSH2 0x8AE SWAP8 SWAP7 PUSH1 0x40 MSTORE PUSH1 0x0 DUP5 MSTORE PUSH1 0x40 MLOAD SWAP8 DUP9 SWAP8 PUSH1 0xF PUSH1 0xF8 SHL DUP10 MSTORE PUSH1 0xE0 DUP6 DUP11 ADD MSTORE PUSH1 0xE0 DUP10 ADD SWAP1 PUSH2 0x26DE JUMP JUMPDEST SWAP1 DUP8 DUP3 SUB PUSH1 0x40 DUP10 ADD MSTORE PUSH2 0x26DE JUMP JUMPDEST SWAP2 CHAINID PUSH1 0x60 DUP8 ADD MSTORE ADDRESS PUSH1 0x80 DUP8 ADD MSTORE PUSH1 0x0 PUSH1 0xA0 DUP8 ADD MSTORE DUP6 DUP4 SUB PUSH1 0xC0 DUP8 ADD MSTORE MLOAD SWAP2 DUP3 DUP2 MSTORE ADD SWAP3 SWAP2 PUSH1 0x0 JUMPDEST DUP3 DUP2 LT PUSH2 0x8F2 JUMPI POP POP POP POP SUB SWAP1 RETURN JUMPDEST DUP4 MLOAD DUP6 MSTORE DUP7 SWAP6 POP SWAP4 DUP2 ADD SWAP4 SWAP3 DUP2 ADD SWAP3 PUSH1 0x1 ADD PUSH2 0x8E3 JUMP JUMPDEST PUSH1 0x40 MLOAD PUSH3 0x461BCD PUSH1 0xE5 SHL DUP2 MSTORE PUSH1 0x20 PUSH1 0x4 DUP3 ADD MSTORE PUSH1 0x15 PUSH1 0x24 DUP3 ADD MSTORE PUSH21 0x1152540DCC4C8E88155B9A5B9A5D1A585B1A5E9959 PUSH1 0x5A SHL PUSH1 0x44 DUP3 ADD MSTORE PUSH1 0x64 SWAP1 REVERT JUMPDEST POP PUSH32 0xA16A46D94261C7517CC8FF89F61C0CE93598E3C849801011DEE649A6A557D101 SLOAD ISZERO PUSH2 0x84D JUMP JUMPDEST CALLVALUE PUSH2 0x22C JUMPI PUSH1 0x0 CALLDATASIZE PUSH1 0x3 NOT ADD SLT PUSH2 0x22C JUMPI CALLER PUSH1 0x0 SWAP1 DUP2 MSTORE PUSH32 0xD17A96B5AB97BAEB5ABD2AFF3D879F3AE21BDF0A88374FF422DDD156525D2A07 PUSH1 0x20 SWAP1 DUP2 MSTORE PUSH1 0x40 SWAP1 SWAP2 KECCAK256 SLOAD PUSH1 0xFF AND PUSH1 0x0 DUP1 MLOAD PUSH1 0x20 PUSH2 0x3958 DUP4 CODECOPY DUP2 MLOAD SWAP2 MSTORE DUP2 ISZERO PUSH2 0xA51 JUMPI JUMPDEST POP ISZERO PUSH2 0xA1E JUMPI PUSH32 0x62E78CEA01BEE320CD4E420270B5EA74000D11B0C9F74754EBDBFC544B05A258 SWAP1 PUSH2 0x9FB PUSH2 0x34E3 JUMP JUMPDEST PUSH1 0x0 DUP1 MLOAD PUSH1 0x20 PUSH2 0x3998 DUP4 CODECOPY DUP2 MLOAD SWAP2 MSTORE DUP1 SLOAD PUSH1 0xFF NOT AND PUSH1 0x1 OR SWAP1 SSTORE PUSH1 0x40 MLOAD CALLER DUP2 MSTORE LOG1 STOP JUMPDEST PUSH1 0x64 SWAP1 PUSH1 0x40 MLOAD SWAP1 PUSH3 0x461BCD PUSH1 0xE5 SHL DUP3 MSTORE PUSH1 0x4 DUP3 ADD MSTORE PUSH1 0xC PUSH1 0x24 DUP3 ADD MSTORE PUSH12 0x155B985D5D1A1BDC9A5E9959 PUSH1 0xA2 SHL PUSH1 0x44 DUP3 ADD MSTORE REVERT JUMPDEST SWAP1 POP PUSH32 0xBF8B034AF7A434C44D9299A66A1071085478BB9A7FDC1F0EBCB5D36DC76F02B2 PUSH1 0x0 MSTORE DUP2 MSTORE PUSH1 0x40 PUSH1 0x0 KECCAK256 CALLER PUSH1 0x0 MSTORE DUP2 MSTORE PUSH1 0xFF PUSH1 0x40 PUSH1 0x0 KECCAK256 SLOAD AND DUP3 PUSH2 0x9CB JUMP JUMPDEST CALLVALUE PUSH2 0x22C JUMPI PUSH1 0x0 CALLDATASIZE PUSH1 0x3 NOT ADD SLT PUSH2 0x22C JUMPI PUSH1 0x20 PUSH1 0x40 MLOAD PUSH1 0x1 DUP2 MSTORE RETURN JUMPDEST CALLVALUE PUSH2 0x22C JUMPI PUSH1 0x20 CALLDATASIZE PUSH1 0x3 NOT ADD SLT PUSH2 0x22C JUMPI PUSH2 0xAC8 PUSH2 0x271E JUMP JUMPDEST PUSH2 0xAD0 PUSH2 0x2B93 JUMP JUMPDEST PUSH1 0x1 PUSH1 0x1 PUSH1 0xA0 SHL SUB SWAP1 DUP2 AND SWAP1 PUSH2 0xAE7 DUP3 ISZERO ISZERO PUSH2 0x29CF JUMP JUMPDEST PUSH2 0xAF3 ADDRESS DUP4 EQ ISZERO PUSH2 0x2A0E JUMP JUMPDEST PUSH1 0x0 SLOAD SWAP1 DUP2 AND SWAP1 DUP2 DUP4 EQ PUSH2 0xB38 JUMPI PUSH1 0x1 PUSH1 0x1 PUSH1 0xA0 SHL SUB NOT AND DUP3 OR PUSH1 0x0 SWAP1 DUP2 SSTORE PUSH32 0x4AB5BE82436D353E61CA18726E984E561F5C1CC7C6D38B29D2553C790434705A SWAP1 DUP1 LOG3 STOP JUMPDEST PUSH1 0x40 MLOAD PUSH3 0x461BCD PUSH1 0xE5 SHL DUP2 MSTORE PUSH1 0x20 PUSH1 0x4 DUP3 ADD MSTORE PUSH1 0x2B PUSH1 0x24 DUP3 ADD MSTORE PUSH32 0x4E6577207472656173757279206D75737420626520646966666572656E742066 PUSH1 0x44 DUP3 ADD MSTORE PUSH11 0x1C9BDB4818DD5C9C995B9D PUSH1 0xAA SHL PUSH1 0x64 DUP3 ADD MSTORE PUSH1 0x84 SWAP1 REVERT JUMPDEST CALLVALUE PUSH2 0x22C JUMPI PUSH1 0x20 CALLDATASIZE PUSH1 0x3 NOT ADD SLT PUSH2 0x22C JUMPI PUSH1 0x1 PUSH1 0x1 PUSH1 0xA0 SHL SUB PUSH2 0xBB2 PUSH2 0x271E JUMP JUMPDEST AND PUSH1 0x0 MSTORE PUSH32 0x5AB42CED628888259C08AC98DB1EB0CF702FC1501344311D8B100CD1BFE4BB00 PUSH1 0x20 MSTORE PUSH1 0x20 PUSH1 0x40 PUSH1 0x0 KECCAK256 SLOAD PUSH1 0x40 MLOAD SWAP1 DUP2 MSTORE RETURN JUMPDEST CALLVALUE PUSH2 0x22C JUMPI PUSH1 0x0 CALLDATASIZE PUSH1 0x3 NOT ADD SLT PUSH2 0x22C JUMPI PUSH1 0x20 PUSH1 0x40 MLOAD PUSH1 0x0 DUP1 MLOAD PUSH1 0x20 PUSH2 0x3A58 DUP4 CODECOPY DUP2 MLOAD SWAP2 MSTORE DUP2 MSTORE RETURN JUMPDEST CALLVALUE PUSH2 0x22C JUMPI PUSH1 0x20 CALLDATASIZE PUSH1 0x3 NOT ADD SLT PUSH2 0x22C JUMPI PUSH1 0x1 PUSH1 0x1 PUSH1 0xA0 SHL SUB PUSH2 0xC34 PUSH2 0x271E JUMP JUMPDEST AND PUSH1 0x0 MSTORE PUSH1 0x0 DUP1 MLOAD PUSH1 0x20 PUSH2 0x3898 DUP4 CODECOPY DUP2 MLOAD SWAP2 MSTORE PUSH1 0x20 MSTORE PUSH1 0x20 PUSH1 0x40 PUSH1 0x0 KECCAK256 SLOAD PUSH1 0x40 MLOAD SWAP1 DUP2 MSTORE RETURN JUMPDEST CALLVALUE PUSH2 0x22C JUMPI PUSH1 0x0 CALLDATASIZE PUSH1 0x3 NOT ADD SLT PUSH2 0x22C JUMPI PUSH1 0x0 SLOAD PUSH1 0x40 MLOAD PUSH1 0x1 PUSH1 0x1 PUSH1 0xA0 SHL SUB SWAP1 SWAP2 AND DUP2 MSTORE PUSH1 0x20 SWAP1 RETURN JUMPDEST CALLVALUE PUSH2 0x22C JUMPI PUSH1 0x0 CALLDATASIZE PUSH1 0x3 NOT ADD SLT PUSH2 0x22C JUMPI PUSH1 0x20 PUSH1 0xFF PUSH1 0x0 DUP1 MLOAD PUSH1 0x20 PUSH2 0x3998 DUP4 CODECOPY DUP2 MLOAD SWAP2 MSTORE SLOAD AND PUSH1 0x40 MLOAD SWAP1 ISZERO ISZERO DUP2 MSTORE RETURN JUMPDEST CALLVALUE PUSH2 0x22C JUMPI PUSH1 0x0 CALLDATASIZE PUSH1 0x3 NOT ADD SLT PUSH2 0x22C JUMPI PUSH32 0x0 PUSH1 0x1 PUSH1 0x1 PUSH1 0xA0 SHL SUB AND ADDRESS SUB PUSH2 0xD1E JUMPI PUSH1 0x20 PUSH1 0x40 MLOAD PUSH32 0x360894A13BA1A3210667C828492DB98DCA3E2076CC3735A920A3CA505D382BBC DUP2 MSTORE RETURN JUMPDEST PUSH1 0x40 MLOAD PUSH4 0x703E46DD PUSH1 0xE1 SHL DUP2 MSTORE PUSH1 0x4 SWAP1 REVERT JUMPDEST PUSH1 0x40 CALLDATASIZE PUSH1 0x3 NOT ADD SLT PUSH2 0x22C JUMPI PUSH2 0xD44 PUSH2 0x271E JUMP JUMPDEST PUSH1 0x24 SWAP1 DUP2 CALLDATALOAD PUSH1 0x1 PUSH1 0x1 PUSH1 0x40 SHL SUB DUP2 GT PUSH2 0x22C JUMPI CALLDATASIZE PUSH1 0x23 DUP3 ADD SLT ISZERO PUSH2 0x22C JUMPI DUP1 PUSH1 0x4 ADD CALLDATALOAD SWAP2 PUSH2 0xD71 DUP4 PUSH2 0x279C JUMP JUMPDEST PUSH2 0xD7E PUSH1 0x40 MLOAD SWAP2 DUP3 PUSH2 0x277B JUMP JUMPDEST DUP4 DUP2 MSTORE PUSH1 0x20 SWAP4 DUP5 DUP3 ADD SWAP4 CALLDATASIZE DUP8 DUP4 DUP4 ADD ADD GT PUSH2 0x22C JUMPI DUP2 PUSH1 0x0 SWAP3 DUP9 DUP9 SWAP4 ADD DUP8 CALLDATACOPY DUP4 ADD ADD MSTORE PUSH1 0x1 PUSH1 0x1 PUSH1 0xA0 SHL SUB PUSH32 0x0 DUP2 AND ADDRESS DUP2 EQ SWAP1 DUP2 ISZERO PUSH2 0xF7F JUMPI JUMPDEST POP PUSH2 0xD1E JUMPI PUSH1 0x0 DUP1 MLOAD PUSH1 0x20 PUSH2 0x3918 DUP4 CODECOPY DUP2 MLOAD SWAP2 MSTORE DUP1 PUSH1 0x0 MSTORE PUSH1 0x0 DUP1 MLOAD PUSH1 0x20 PUSH2 0x3958 DUP4 CODECOPY DUP2 MLOAD SWAP2 MSTORE DUP7 MSTORE PUSH1 0x40 PUSH1 0x0 KECCAK256 CALLER PUSH1 0x0 MSTORE DUP7 MSTORE PUSH1 0xFF PUSH1 0x40 PUSH1 0x0 KECCAK256 SLOAD AND ISZERO PUSH2 0xF62 JUMPI POP PUSH1 0x40 MLOAD PUSH4 0x52D1902D PUSH1 0xE0 SHL DUP2 MSTORE SWAP1 DUP4 AND SWAP5 DUP1 DUP3 PUSH1 0x4 DUP2 DUP10 GAS STATICCALL SWAP2 DUP3 SWAP2 PUSH1 0x0 SWAP4 PUSH2 0xF32 JUMPI JUMPDEST POP POP PUSH2 0xE5C JUMPI PUSH1 0x40 MLOAD PUSH4 0x4C9C8CE3 PUSH1 0xE0 SHL DUP2 MSTORE PUSH1 0x4 DUP2 ADD DUP7 SWAP1 MSTORE DUP7 SWAP1 REVERT JUMPDEST DUP5 SWAP1 DUP7 PUSH32 0x360894A13BA1A3210667C828492DB98DCA3E2076CC3735A920A3CA505D382BBC SWAP2 DUP3 DUP2 SUB PUSH2 0xF1D JUMPI POP DUP5 EXTCODESIZE ISZERO PUSH2 0xF07 JUMPI POP DUP1 SLOAD PUSH1 0x1 PUSH1 0x1 PUSH1 0xA0 SHL SUB NOT AND DUP3 OR SWAP1 SSTORE PUSH1 0x40 MLOAD SWAP1 PUSH32 0xBC7CD75A20EE27FD9ADEBAB32041F755214DBC6BFFA90CC0225B39DA2E5C2D3B PUSH1 0x0 DUP1 LOG2 DUP2 MLOAD ISZERO PUSH2 0xEED JUMPI POP PUSH1 0x0 PUSH2 0x1B SWAP4 DUP2 SWAP3 MLOAD SWAP1 DUP5 GAS DELEGATECALL PUSH2 0xEE7 PUSH2 0x2A8A JUMP JUMPDEST SWAP2 PUSH2 0x37D4 JUMP JUMPDEST SWAP3 POP POP POP CALLVALUE PUSH2 0xEF8 JUMPI STOP JUMPDEST PUSH4 0xB398979F PUSH1 0xE0 SHL DUP2 MSTORE PUSH1 0x4 SWAP1 REVERT JUMPDEST PUSH1 0x40 MLOAD PUSH4 0x4C9C8CE3 PUSH1 0xE0 SHL DUP2 MSTORE PUSH1 0x4 DUP2 ADD DUP5 SWAP1 MSTORE REVERT JUMPDEST PUSH1 0x40 MLOAD SWAP1 PUSH4 0x2A875269 PUSH1 0xE2 SHL DUP3 MSTORE PUSH1 0x4 DUP3 ADD MSTORE REVERT JUMPDEST SWAP1 DUP1 SWAP3 SWAP4 POP DUP2 RETURNDATASIZE DUP4 GT PUSH2 0xF5B JUMPI JUMPDEST PUSH2 0xF4A DUP2 DUP4 PUSH2 0x277B JUMP JUMPDEST DUP2 ADD SUB SLT PUSH2 0x22C JUMPI MLOAD SWAP1 DUP8 DUP1 PUSH2 0xE3E JUMP JUMPDEST POP RETURNDATASIZE PUSH2 0xF40 JUMP JUMPDEST DUP7 PUSH1 0x44 SWAP2 PUSH1 0x40 MLOAD SWAP2 PUSH4 0xE2517D3F PUSH1 0xE0 SHL DUP4 MSTORE CALLER PUSH1 0x4 DUP5 ADD MSTORE DUP3 ADD MSTORE REVERT JUMPDEST SWAP1 POP DUP2 PUSH32 0x360894A13BA1A3210667C828492DB98DCA3E2076CC3735A920A3CA505D382BBC SLOAD AND EQ ISZERO DUP8 PUSH2 0xDD7 JUMP JUMPDEST CALLVALUE PUSH2 0x22C JUMPI PUSH1 0x0 CALLDATASIZE PUSH1 0x3 NOT ADD SLT PUSH2 0x22C JUMPI PUSH1 0x20 PUSH1 0x40 MLOAD PUSH32 0x365FCCB66C62533AD1447FEC73F7B764CF03AC69D512070F7C0AA889025CEC19 DUP2 MSTORE RETURN JUMPDEST CALLVALUE PUSH2 0x22C JUMPI PUSH1 0x40 CALLDATASIZE PUSH1 0x3 NOT ADD SLT PUSH2 0x22C JUMPI PUSH2 0x1001 PUSH2 0x271E JUMP JUMPDEST CALLER PUSH1 0x0 SWAP1 DUP2 MSTORE PUSH32 0x549FE2656C81D2947B3B913F0A53B9EA86C71E049F3A1B8AA23C09A8A05CB8D4 PUSH1 0x20 SWAP1 DUP2 MSTORE PUSH1 0x40 SWAP1 SWAP2 KECCAK256 SLOAD PUSH1 0x24 SWAP3 DUP4 CALLDATALOAD SWAP2 PUSH32 0x9F2DF0FED2C77648DE5860A4CC508CD0818C85B8B8A1AB4CEEEF8D981C8956A6 SWAP1 PUSH1 0xFF AND ISZERO PUSH2 0x11D1 JUMPI POP PUSH2 0x106C PUSH2 0x34E3 JUMP JUMPDEST PUSH2 0x1074 PUSH2 0x2C00 JUMP JUMPDEST PUSH1 0x1 PUSH1 0x1 PUSH1 0xA0 SHL SUB AND SWAP1 DUP2 ISZERO PUSH2 0x1196 JUMPI DUP1 ISZERO PUSH2 0x115D JUMPI PUSH32 0x52C63247E1F47DB19D5CE0460030C497F067CA4CEBF71BA98EEADABE20BACE02 SWAP3 DUP4 SLOAD SWAP1 DUP3 DUP3 ADD DUP1 SWAP3 GT PUSH2 0x1148 JUMPI PUSH1 0x0 SWAP3 PUSH32 0xDDF252AD1BE2C89B69C2B068FC378DAA952BA7F163C4A11628F55A4DF523B3EF SWAP3 DUP7 SSTORE DUP5 DUP5 MSTORE PUSH1 0x0 DUP1 MLOAD PUSH1 0x20 PUSH2 0x3898 DUP4 CODECOPY DUP2 MLOAD SWAP2 MSTORE DUP3 MSTORE PUSH1 0x40 DUP5 KECCAK256 DUP2 DUP2 SLOAD ADD SWAP1 SSTORE PUSH1 0x40 MLOAD SWAP1 DUP2 MSTORE LOG3 SLOAD PUSH8 0x6765C793FA10079D PUSH1 0x1B SHL DUP1 DUP3 GT PUSH2 0x112D JUMPI PUSH1 0x1 PUSH1 0x0 DUP1 MLOAD PUSH1 0x20 PUSH2 0x39D8 DUP4 CODECOPY DUP2 MLOAD SWAP2 MSTORE SSTORE STOP JUMPDEST PUSH1 0x44 SWAP3 PUSH1 0x40 MLOAD SWAP3 PUSH4 0x279E7E15 PUSH1 0xE2 SHL DUP5 MSTORE PUSH1 0x4 DUP5 ADD MSTORE DUP3 ADD MSTORE REVERT JUMPDEST DUP6 PUSH4 0x4E487B71 PUSH1 0xE0 SHL PUSH1 0x0 MSTORE PUSH1 0x11 PUSH1 0x4 MSTORE PUSH1 0x0 REVERT JUMPDEST PUSH1 0x40 MLOAD PUSH3 0x461BCD PUSH1 0xE5 SHL DUP2 MSTORE PUSH1 0x4 DUP2 ADD DUP5 SWAP1 MSTORE PUSH1 0x12 DUP2 DUP7 ADD MSTORE PUSH18 0x416D6F756E74206D757374206265203E203 PUSH1 0x74 SHL PUSH1 0x44 DUP3 ADD MSTORE PUSH1 0x64 SWAP1 REVERT JUMPDEST PUSH1 0x40 MLOAD PUSH3 0x461BCD PUSH1 0xE5 SHL DUP2 MSTORE PUSH1 0x4 DUP2 ADD DUP5 SWAP1 MSTORE PUSH1 0x14 DUP2 DUP7 ADD MSTORE PUSH20 0x4D696E7420746F207A65726F2061646472657373 PUSH1 0x60 SHL PUSH1 0x44 DUP3 ADD MSTORE PUSH1 0x64 SWAP1 REVERT JUMPDEST DUP5 PUSH1 0x44 SWAP2 PUSH1 0x40 MLOAD SWAP2 PUSH4 0xE2517D3F PUSH1 0xE0 SHL DUP4 MSTORE CALLER PUSH1 0x4 DUP5 ADD MSTORE DUP3 ADD MSTORE REVERT JUMPDEST CALLVALUE PUSH2 0x22C JUMPI PUSH1 0x0 CALLDATASIZE PUSH1 0x3 NOT ADD SLT PUSH2 0x22C JUMPI CALLER PUSH1 0x0 SWAP1 DUP2 MSTORE PUSH32 0xD17A96B5AB97BAEB5ABD2AFF3D879F3AE21BDF0A88374FF422DDD156525D2A07 PUSH1 0x20 MSTORE PUSH1 0x40 SWAP1 KECCAK256 SLOAD PUSH32 0x365FCCB66C62533AD1447FEC73F7B764CF03AC69D512070F7C0AA889025CEC19 SWAP1 PUSH1 0xFF AND ISZERO PUSH2 0x12B6 JUMPI PUSH1 0x0 DUP1 MLOAD PUSH1 0x20 PUSH2 0x3998 DUP4 CODECOPY DUP2 MLOAD SWAP2 MSTORE DUP1 SLOAD PUSH1 0xFF DUP2 AND ISZERO PUSH2 0x12A4 JUMPI PUSH1 0xFF NOT AND SWAP1 SSTORE PUSH32 0x5DB9EE0A495BF2E6FF9C91A7834C1BA4FDD244A5E8AA4E537BD38AEAE4B073AA PUSH1 0x20 PUSH1 0x40 MLOAD CALLER DUP2 MSTORE LOG1 STOP JUMPDEST PUSH1 0x40 MLOAD PUSH4 0x8DFC202B PUSH1 0xE0 SHL DUP2 MSTORE PUSH1 0x4 SWAP1 REVERT JUMPDEST PUSH1 0x44 SWAP1 PUSH1 0x40 MLOAD SWAP1 PUSH4 0xE2517D3F PUSH1 0xE0 SHL DUP3 MSTORE CALLER PUSH1 0x4 DUP4 ADD MSTORE PUSH1 0x24 DUP3 ADD MSTORE REVERT JUMPDEST CALLVALUE PUSH2 0x22C JUMPI PUSH1 0x40 CALLDATASIZE PUSH1 0x3 NOT ADD SLT PUSH2 0x22C JUMPI PUSH1 0x4 CALLDATALOAD PUSH1 0x1 PUSH1 0x1 PUSH1 0xA0 SHL SUB DUP2 AND SWAP1 DUP2 SWAP1 SUB PUSH2 0x22C JUMPI PUSH1 0x24 CALLDATALOAD PUSH2 0x1305 PUSH2 0x2B49 JUMP JUMPDEST PUSH2 0x130D PUSH2 0x2C00 JUMP JUMPDEST PUSH2 0x1318 DUP3 ISZERO ISZERO PUSH2 0x2954 JUMP JUMPDEST PUSH2 0x1323 DUP2 ISZERO ISZERO PUSH2 0x2992 JUMP JUMPDEST DUP1 SELFBALANCE LT PUSH2 0x13BB JUMPI PUSH1 0x0 DUP1 DUP1 DUP1 DUP5 DUP7 GAS CALL PUSH2 0x133B PUSH2 0x2A8A JUMP JUMPDEST POP ISZERO PUSH2 0x1380 JUMPI PUSH1 0x20 PUSH32 0x5AF21D7340BF49FDE03A32C3BCC785015C94ACD83531FC6DFBFB93A24C364CA SWAP2 PUSH1 0x40 MLOAD SWAP1 DUP2 MSTORE LOG2 PUSH1 0x1 PUSH1 0x0 DUP1 MLOAD PUSH1 0x20 PUSH2 0x39D8 DUP4 CODECOPY DUP2 MLOAD SWAP2 MSTORE SSTORE STOP JUMPDEST PUSH1 0x40 MLOAD PUSH3 0x461BCD PUSH1 0xE5 SHL DUP2 MSTORE PUSH1 0x20 PUSH1 0x4 DUP3 ADD MSTORE PUSH1 0x13 PUSH1 0x24 DUP3 ADD MSTORE PUSH19 0x115512081D1C985B9CD9995C8819985A5B1959 PUSH1 0x6A SHL PUSH1 0x44 DUP3 ADD MSTORE PUSH1 0x64 SWAP1 REVERT JUMPDEST PUSH1 0x40 MLOAD PUSH3 0x461BCD PUSH1 0xE5 SHL DUP2 MSTORE PUSH1 0x20 PUSH1 0x4 DUP3 ADD MSTORE PUSH1 0x14 PUSH1 0x24 DUP3 ADD MSTORE PUSH20 0x496E73756666696369656E742062616C616E6365 PUSH1 0x60 SHL PUSH1 0x44 DUP3 ADD MSTORE PUSH1 0x64 SWAP1 REVERT JUMPDEST CALLVALUE PUSH2 0x22C JUMPI PUSH1 0x40 CALLDATASIZE PUSH1 0x3 NOT ADD SLT PUSH2 0x22C JUMPI PUSH2 0x1410 PUSH2 0x2734 JUMP JUMPDEST CALLER PUSH1 0x1 PUSH1 0x1 PUSH1 0xA0 SHL SUB DUP3 AND SUB PUSH2 0x142C JUMPI PUSH2 0x1B SWAP1 PUSH1 0x4 CALLDATALOAD PUSH2 0x3472 JUMP JUMPDEST PUSH1 0x40 MLOAD PUSH4 0x334BD919 PUSH1 0xE1 SHL DUP2 MSTORE PUSH1 0x4 SWAP1 REVERT JUMPDEST CALLVALUE PUSH2 0x22C JUMPI PUSH1 0x0 CALLDATASIZE PUSH1 0x3 NOT ADD SLT PUSH2 0x22C JUMPI PUSH1 0x20 PUSH2 0x1459 PUSH2 0x359B JUMP JUMPDEST PUSH1 0x40 MLOAD SWAP1 DUP2 MSTORE RETURN JUMPDEST CALLVALUE PUSH2 0x22C JUMPI PUSH1 0x0 CALLDATASIZE PUSH1 0x3 NOT ADD SLT PUSH2 0x22C JUMPI PUSH1 0x20 PUSH1 0x40 MLOAD PUSH8 0x6765C793FA10079D PUSH1 0x1B SHL DUP2 MSTORE RETURN JUMPDEST CALLVALUE PUSH2 0x22C JUMPI PUSH1 0x0 CALLDATASIZE PUSH1 0x3 NOT ADD SLT PUSH2 0x22C JUMPI PUSH1 0x20 PUSH1 0x40 MLOAD PUSH1 0x0 DUP1 MLOAD PUSH1 0x20 PUSH2 0x39F8 DUP4 CODECOPY DUP2 MLOAD SWAP2 MSTORE DUP2 MSTORE RETURN JUMPDEST CALLVALUE PUSH2 0x22C JUMPI PUSH1 0x0 CALLDATASIZE PUSH1 0x3 NOT ADD SLT PUSH2 0x22C JUMPI PUSH1 0x20 PUSH1 0x40 MLOAD PUSH1 0x12 DUP2 MSTORE RETURN JUMPDEST CALLVALUE PUSH2 0x22C JUMPI PUSH1 0x40 CALLDATASIZE PUSH1 0x3 NOT ADD SLT PUSH2 0x22C JUMPI PUSH2 0x1B PUSH1 0x4 CALLDATALOAD PUSH2 0x14EB PUSH2 0x2734 JUMP JUMPDEST SWAP1 DUP1 PUSH1 0x0 MSTORE PUSH1 0x0 DUP1 MLOAD PUSH1 0x20 PUSH2 0x3958 DUP4 CODECOPY DUP2 MLOAD SWAP2 MSTORE PUSH1 0x20 MSTORE PUSH2 0x1513 PUSH1 0x1 PUSH1 0x40 PUSH1 0x0 KECCAK256 ADD SLOAD PUSH2 0x2BCD JUMP JUMPDEST PUSH2 0x308A JUMP JUMPDEST CALLVALUE PUSH2 0x22C JUMPI PUSH1 0x0 CALLDATASIZE PUSH1 0x3 NOT ADD SLT PUSH2 0x22C JUMPI PUSH1 0x20 PUSH1 0xFF PUSH1 0x0 SLOAD PUSH1 0xA0 SHR AND PUSH1 0x40 MLOAD SWAP1 ISZERO ISZERO DUP2 MSTORE RETURN JUMPDEST CALLVALUE PUSH2 0x22C JUMPI PUSH1 0x20 CALLDATASIZE PUSH1 0x3 NOT ADD SLT PUSH2 0x22C JUMPI PUSH1 0x4 CALLDATALOAD PUSH1 0x0 MSTORE PUSH1 0x0 DUP1 MLOAD PUSH1 0x20 PUSH2 0x3958 DUP4 CODECOPY DUP2 MLOAD SWAP2 MSTORE PUSH1 0x20 MSTORE PUSH1 0x20 PUSH1 0x1 PUSH1 0x40 PUSH1 0x0 KECCAK256 ADD SLOAD PUSH1 0x40 MLOAD SWAP1 DUP2 MSTORE RETURN JUMPDEST CALLVALUE PUSH2 0x22C JUMPI PUSH1 0x60 CALLDATASIZE PUSH1 0x3 NOT ADD SLT PUSH2 0x22C JUMPI PUSH2 0x1593 PUSH2 0x271E JUMP JUMPDEST PUSH2 0x159B PUSH2 0x2734 JUMP JUMPDEST PUSH1 0x44 CALLDATALOAD SWAP1 PUSH2 0x15A8 DUP4 PUSH2 0x2ABA JUMP JUMPDEST CALLER PUSH1 0x0 MSTORE PUSH1 0x20 MSTORE PUSH1 0x40 PUSH1 0x0 KECCAK256 SLOAD SWAP3 PUSH1 0x0 NOT DUP5 LT PUSH2 0x15CA JUMPI JUMPDEST PUSH2 0x6B1 SWAP4 POP PUSH2 0x30FF JUMP JUMPDEST DUP3 DUP5 LT PUSH2 0x1639 JUMPI PUSH1 0x1 PUSH1 0x1 PUSH1 0xA0 SHL SUB DUP2 AND ISZERO PUSH2 0x1620 JUMPI CALLER ISZERO PUSH2 0x1607 JUMPI DUP3 PUSH2 0x6B1 SWAP5 PUSH2 0x15F4 DUP4 PUSH2 0x2ABA JUMP JUMPDEST CALLER PUSH1 0x0 MSTORE PUSH1 0x20 MSTORE SUB PUSH1 0x40 PUSH1 0x0 KECCAK256 SSTORE PUSH2 0x15C0 JUMP JUMPDEST PUSH1 0x40 MLOAD PUSH4 0x4A1406B1 PUSH1 0xE1 SHL DUP2 MSTORE PUSH1 0x0 PUSH1 0x4 DUP3 ADD MSTORE PUSH1 0x24 SWAP1 REVERT JUMPDEST PUSH1 0x40 MLOAD PUSH4 0xE602DF05 PUSH1 0xE0 SHL DUP2 MSTORE PUSH1 0x0 PUSH1 0x4 DUP3 ADD MSTORE PUSH1 0x24 SWAP1 REVERT JUMPDEST PUSH1 0x40 MLOAD PUSH4 0x7DC7A0D9 PUSH1 0xE1 SHL DUP2 MSTORE CALLER PUSH1 0x4 DUP3 ADD MSTORE PUSH1 0x24 DUP2 ADD DUP6 SWAP1 MSTORE PUSH1 0x44 DUP2 ADD DUP5 SWAP1 MSTORE PUSH1 0x64 SWAP1 REVERT JUMPDEST CALLVALUE PUSH2 0x22C JUMPI PUSH1 0x0 CALLDATASIZE PUSH1 0x3 NOT ADD SLT PUSH2 0x22C JUMPI PUSH1 0x20 PUSH32 0x52C63247E1F47DB19D5CE0460030C497F067CA4CEBF71BA98EEADABE20BACE02 SLOAD PUSH1 0x40 MLOAD SWAP1 DUP2 MSTORE RETURN JUMPDEST CALLVALUE PUSH2 0x22C JUMPI PUSH1 0xA0 CALLDATASIZE PUSH1 0x3 NOT ADD SLT PUSH2 0x22C JUMPI PUSH2 0x16B5 PUSH2 0x271E JUMP JUMPDEST PUSH2 0x16BD PUSH2 0x2734 JUMP JUMPDEST PUSH2 0x16C5 PUSH2 0x274A JUMP JUMPDEST PUSH1 0x64 DUP1 CALLDATALOAD PUSH1 0x1 PUSH1 0x1 PUSH1 0xA0 SHL SUB DUP2 AND SWAP4 SWAP2 SWAP3 SWAP2 SWAP1 DUP5 SWAP1 SUB PUSH2 0x22C JUMPI PUSH1 0x84 CALLDATALOAD PUSH1 0x1 PUSH1 0x1 PUSH1 0xA0 SHL SUB DUP2 AND SWAP1 DUP2 SWAP1 SUB PUSH2 0x22C JUMPI PUSH1 0x0 DUP1 MLOAD PUSH1 0x20 PUSH2 0x3A18 DUP4 CODECOPY DUP2 MLOAD SWAP2 MSTORE SLOAD SWAP5 PUSH1 0x1 PUSH1 0x1 PUSH1 0x40 SHL SUB DUP7 AND DUP1 ISZERO SWAP1 DUP2 PUSH2 0x2405 JUMPI JUMPDEST PUSH1 0x1 EQ SWAP1 DUP2 PUSH2 0x23FB JUMPI JUMPDEST ISZERO SWAP1 DUP2 PUSH2 0x23F2 JUMPI JUMPDEST POP PUSH2 0x23E0 JUMPI PUSH1 0x1 PUSH1 0x1 PUSH1 0x1 PUSH1 0x40 SHL SUB NOT DUP8 AND OR PUSH1 0x0 DUP1 MLOAD PUSH1 0x20 PUSH2 0x3A18 DUP4 CODECOPY DUP2 MLOAD SWAP2 MSTORE SSTORE PUSH1 0xFF DUP7 PUSH1 0x40 SHR AND ISZERO PUSH2 0x23B3 JUMPI JUMPDEST PUSH2 0x176E PUSH1 0x1 PUSH1 0x1 PUSH1 0xA0 SHL SUB DUP9 AND ISZERO ISZERO PUSH2 0x29CF JUMP JUMPDEST PUSH1 0x1 PUSH1 0x1 PUSH1 0xA0 SHL SUB DUP4 AND DUP1 ISZERO PUSH2 0x237B JUMPI PUSH1 0x1 PUSH1 0x1 PUSH1 0xA0 SHL SUB DUP6 AND SWAP1 DUP2 ISZERO PUSH2 0x2344 JUMPI DUP3 ISZERO PUSH2 0x2309 JUMPI DUP4 ISZERO PUSH2 0x22CD JUMPI PUSH2 0x17B0 PUSH1 0x1 PUSH1 0x1 PUSH1 0xA0 SHL SUB DUP11 AND ADDRESS EQ ISZERO PUSH2 0x2A0E JUMP JUMPDEST ADDRESS EQ PUSH2 0x227E JUMPI ADDRESS EQ PUSH2 0x2230 JUMPI ADDRESS EQ PUSH2 0x21DE JUMPI ADDRESS EQ PUSH2 0x218B JUMPI PUSH2 0x17D0 PUSH2 0x2A64 JUMP JUMPDEST PUSH1 0x40 MLOAD SWAP1 PUSH2 0x17DD DUP3 PUSH2 0x2760 JUMP JUMPDEST PUSH1 0x5 DUP3 MSTORE PUSH5 0x244E454241 PUSH1 0xD8 SHL PUSH1 0x20 DUP4 ADD MSTORE PUSH2 0x17F7 PUSH2 0x356C JUMP JUMPDEST PUSH2 0x17FF PUSH2 0x356C JUMP JUMPDEST DUP1 MLOAD SWAP1 PUSH1 0x1 PUSH1 0x1 PUSH1 0x40 SHL SUB DUP3 GT PUSH2 0x613 JUMPI DUP2 SWAP1 PUSH2 0x182A PUSH1 0x0 DUP1 MLOAD PUSH1 0x20 PUSH2 0x3878 DUP4 CODECOPY DUP2 MLOAD SWAP2 MSTORE SLOAD PUSH2 0x27B7 JUMP JUMPDEST PUSH1 0x1F DUP2 GT PUSH2 0x210A JUMPI JUMPDEST POP PUSH1 0x20 SWAP1 PUSH1 0x1F DUP4 GT PUSH1 0x1 EQ PUSH2 0x2078 JUMPI PUSH1 0x0 SWAP3 PUSH2 0x206D JUMPI JUMPDEST POP POP DUP2 PUSH1 0x1 SHL SWAP2 PUSH1 0x0 NOT SWAP1 PUSH1 0x3 SHL SHR NOT AND OR PUSH1 0x0 DUP1 MLOAD PUSH1 0x20 PUSH2 0x3878 DUP4 CODECOPY DUP2 MLOAD SWAP2 MSTORE SSTORE JUMPDEST DUP1 MLOAD SWAP1 PUSH1 0x1 PUSH1 0x1 PUSH1 0x40 SHL SUB DUP3 GT PUSH2 0x613 JUMPI DUP2 SWAP1 PUSH2 0x1898 PUSH1 0x0 DUP1 MLOAD PUSH1 0x20 PUSH2 0x38D8 DUP4 CODECOPY DUP2 MLOAD SWAP2 MSTORE SLOAD PUSH2 0x27B7 JUMP JUMPDEST PUSH1 0x1F DUP2 GT PUSH2 0x1FEC JUMPI JUMPDEST POP PUSH1 0x20 SWAP1 PUSH1 0x1F DUP4 GT PUSH1 0x1 EQ PUSH2 0x1F5A JUMPI PUSH1 0x0 SWAP3 PUSH2 0x1F4F JUMPI JUMPDEST POP POP DUP2 PUSH1 0x1 SHL SWAP2 PUSH1 0x0 NOT SWAP1 PUSH1 0x3 SHL SHR NOT AND OR PUSH1 0x0 DUP1 MLOAD PUSH1 0x20 PUSH2 0x38D8 DUP4 CODECOPY DUP2 MLOAD SWAP2 MSTORE SSTORE JUMPDEST PUSH2 0x18E3 PUSH2 0x356C JUMP JUMPDEST PUSH2 0x18EB PUSH2 0x356C JUMP JUMPDEST PUSH8 0x6765C793FA10079D PUSH1 0x1B SHL PUSH32 0xF070392F17D5F958CC1AC31867DABECFC5C9758B4A419A200803226D7155D00 SSTORE PUSH2 0x1921 PUSH2 0x2A64 JUMP JUMPDEST SWAP5 PUSH2 0x192A PUSH2 0x356C JUMP JUMPDEST PUSH1 0x40 MLOAD SWAP6 PUSH2 0x1937 DUP8 PUSH2 0x2760 JUMP JUMPDEST PUSH1 0x1 DUP8 MSTORE PUSH1 0x31 PUSH1 0xF8 SHL PUSH1 0x20 DUP9 ADD MSTORE PUSH2 0x194D PUSH2 0x356C JUMP JUMPDEST DUP1 MLOAD SWAP1 PUSH1 0x1 PUSH1 0x1 PUSH1 0x40 SHL SUB DUP3 GT PUSH2 0x613 JUMPI DUP2 SWAP1 PUSH2 0x1978 PUSH1 0x0 DUP1 MLOAD PUSH1 0x20 PUSH2 0x38B8 DUP4 CODECOPY DUP2 MLOAD SWAP2 MSTORE SLOAD PUSH2 0x27B7 JUMP JUMPDEST PUSH1 0x1F DUP2 GT PUSH2 0x1ECE JUMPI JUMPDEST POP PUSH1 0x20 SWAP1 PUSH1 0x1F DUP4 GT PUSH1 0x1 EQ PUSH2 0x1E3C JUMPI PUSH1 0x0 SWAP3 PUSH2 0x1E31 JUMPI JUMPDEST POP POP DUP2 PUSH1 0x1 SHL SWAP2 PUSH1 0x0 NOT SWAP1 PUSH1 0x3 SHL SHR NOT AND OR PUSH1 0x0 DUP1 MLOAD PUSH1 0x20 PUSH2 0x38B8 DUP4 CODECOPY DUP2 MLOAD SWAP2 MSTORE SSTORE JUMPDEST DUP6 MLOAD PUSH1 0x1 PUSH1 0x1 PUSH1 0x40 SHL SUB DUP2 GT PUSH2 0x613 JUMPI PUSH2 0x19E3 PUSH1 0x0 DUP1 MLOAD PUSH1 0x20 PUSH2 0x38F8 DUP4 CODECOPY DUP2 MLOAD SWAP2 MSTORE SLOAD PUSH2 0x27B7 JUMP JUMPDEST PUSH1 0x1F DUP2 GT PUSH2 0x1DBB JUMPI JUMPDEST POP PUSH1 0x20 PUSH1 0x1F DUP3 GT PUSH1 0x1 EQ PUSH2 0x1D1F JUMPI SWAP2 DUP2 PUSH2 0x1B8A SWAP6 SWAP5 SWAP3 PUSH2 0x1B78 SWAP5 PUSH2 0x1B91 SWAP10 SWAP11 PUSH1 0x0 SWAP3 PUSH2 0x1D14 JUMPI JUMPDEST POP POP DUP2 PUSH1 0x1 SHL SWAP2 PUSH1 0x0 NOT SWAP1 PUSH1 0x3 SHL SHR NOT AND OR PUSH1 0x0 DUP1 MLOAD PUSH1 0x20 PUSH2 0x38F8 DUP4 CODECOPY DUP2 MLOAD SWAP2 MSTORE SSTORE JUMPDEST PUSH1 0x0 PUSH32 0xA16A46D94261C7517CC8FF89F61C0CE93598E3C849801011DEE649A6A557D100 SSTORE PUSH1 0x0 PUSH32 0xA16A46D94261C7517CC8FF89F61C0CE93598E3C849801011DEE649A6A557D101 SSTORE PUSH2 0x1A86 PUSH2 0x356C JUMP JUMPDEST PUSH2 0x1A8E PUSH2 0x356C JUMP JUMPDEST PUSH2 0x1A96 PUSH2 0x356C JUMP JUMPDEST PUSH2 0x1A9E PUSH2 0x356C JUMP JUMPDEST PUSH2 0x1AA6 PUSH2 0x356C JUMP JUMPDEST PUSH1 0x1 PUSH1 0x0 DUP1 MLOAD PUSH1 0x20 PUSH2 0x39D8 DUP4 CODECOPY DUP2 MLOAD SWAP2 MSTORE SSTORE PUSH1 0x1 DUP1 PUSH1 0xA0 SHL SUB AND PUSH12 0xFFFFFFFFFFFFFFFFFFFFFFFF PUSH1 0xA0 SHL PUSH1 0x0 SLOAD AND OR PUSH1 0x0 SSTORE PUSH2 0x1AE1 DUP2 PUSH2 0x2C30 JUMP JUMPDEST POP PUSH2 0x1AEB DUP2 PUSH2 0x2CBE JUMP JUMPDEST POP PUSH1 0x0 DUP1 MLOAD PUSH1 0x20 PUSH2 0x3918 DUP4 CODECOPY DUP2 MLOAD SWAP2 MSTORE DUP1 PUSH1 0x0 MSTORE PUSH1 0x0 DUP1 MLOAD PUSH1 0x20 PUSH2 0x3958 DUP4 CODECOPY DUP2 MLOAD SWAP2 MSTORE PUSH1 0x20 MSTORE PUSH1 0x1 PUSH1 0x40 PUSH1 0x0 KECCAK256 ADD SWAP1 DUP2 SLOAD SWAP2 PUSH1 0x0 DUP1 MLOAD PUSH1 0x20 PUSH2 0x3A58 DUP4 CODECOPY DUP2 MLOAD SWAP2 MSTORE SWAP3 DUP4 DUP1 SWAP3 SSTORE PUSH32 0xBD79B86FFE0AB8E8776151514217CD7CACD52C909F66475C3AF44E129F0B00FF SWAP3 DUP4 PUSH1 0x0 DUP1 LOG4 DUP2 PUSH1 0x0 MSTORE DUP2 PUSH1 0x1 PUSH1 0x40 PUSH1 0x0 KECCAK256 ADD SWAP2 DUP2 DUP4 SLOAD SWAP4 SSTORE PUSH1 0x0 DUP1 LOG4 PUSH2 0x2C8 DUP2 PUSH2 0x2D5C JUMP JUMPDEST POP PUSH2 0x1B84 PUSH1 0x84 CALLDATALOAD PUSH2 0x2E8C JUMP JUMPDEST POP PUSH2 0x2F36 JUMP JUMPDEST POP CALLDATALOAD PUSH2 0x2FE0 JUMP JUMPDEST POP PUSH1 0x0 SLOAD PUSH1 0x1 PUSH1 0x1 PUSH1 0xA0 SHL SUB AND DUP1 ISZERO PUSH2 0x1CFB JUMPI PUSH32 0x52C63247E1F47DB19D5CE0460030C497F067CA4CEBF71BA98EEADABE20BACE02 SWAP1 DUP2 SLOAD PUSH8 0x6765C793FA10079D PUSH1 0x1B SHL DUP2 ADD DUP1 SWAP2 GT PUSH2 0x1CE5 JUMPI DUP3 SSTORE DUP1 PUSH1 0x0 MSTORE PUSH1 0x0 DUP1 MLOAD PUSH1 0x20 PUSH2 0x3898 DUP4 CODECOPY DUP2 MLOAD SWAP2 MSTORE PUSH1 0x20 MSTORE PUSH1 0x40 PUSH1 0x0 KECCAK256 PUSH8 0x6765C793FA10079D PUSH1 0x1B SHL DUP2 SLOAD ADD SWAP1 SSTORE PUSH1 0x0 PUSH32 0xDDF252AD1BE2C89B69C2B068FC378DAA952BA7F163C4A11628F55A4DF523B3EF PUSH1 0x20 PUSH1 0x40 MLOAD PUSH8 0x6765C793FA10079D PUSH1 0x1B SHL DUP2 MSTORE LOG3 SLOAD PUSH8 0x6765C793FA10079D PUSH1 0x1B SHL DUP2 GT PUSH2 0x1CBC JUMPI PUSH1 0xFF DUP3 PUSH1 0x40 SHR AND ISZERO PUSH2 0x1C63 JUMPI STOP JUMPDEST PUSH9 0xFF0000000000000000 NOT PUSH1 0x0 DUP1 MLOAD PUSH1 0x20 PUSH2 0x3A18 DUP4 CODECOPY DUP2 MLOAD SWAP2 MSTORE SLOAD AND PUSH1 0x0 DUP1 MLOAD PUSH1 0x20 PUSH2 0x3A18 DUP4 CODECOPY DUP2 MLOAD SWAP2 MSTORE SSTORE PUSH32 0xC7F505B2F371AE2175EE4913F4499E1F2633A7B5936321EED1CDAEB6115181D2 PUSH1 0x20 PUSH1 0x40 MLOAD PUSH1 0x1 DUP2 MSTORE LOG1 STOP JUMPDEST PUSH1 0x44 SWAP1 PUSH1 0x40 MLOAD SWAP1 PUSH4 0x279E7E15 PUSH1 0xE2 SHL DUP3 MSTORE PUSH1 0x4 DUP3 ADD MSTORE PUSH8 0x6765C793FA10079D PUSH1 0x1B SHL PUSH1 0x24 DUP3 ADD MSTORE REVERT JUMPDEST PUSH4 0x4E487B71 PUSH1 0xE0 SHL PUSH1 0x0 MSTORE PUSH1 0x11 PUSH1 0x4 MSTORE PUSH1 0x24 PUSH1 0x0 REVERT JUMPDEST PUSH1 0x40 MLOAD PUSH4 0xEC442F05 PUSH1 0xE0 SHL DUP2 MSTORE PUSH1 0x0 PUSH1 0x4 DUP3 ADD MSTORE PUSH1 0x24 SWAP1 REVERT JUMPDEST ADD MLOAD SWAP1 POP DUP11 DUP1 PUSH2 0x1A13 JUMP JUMPDEST PUSH1 0x0 DUP1 MLOAD PUSH1 0x20 PUSH2 0x38F8 DUP4 CODECOPY DUP2 MLOAD SWAP2 MSTORE PUSH1 0x0 MSTORE PUSH1 0x0 DUP1 MLOAD PUSH1 0x20 PUSH2 0x3A38 DUP4 CODECOPY DUP2 MLOAD SWAP2 MSTORE SWAP8 PUSH1 0x0 JUMPDEST PUSH1 0x1F NOT DUP5 AND DUP2 LT PUSH2 0x1DA3 JUMPI POP DUP3 PUSH2 0x1B91 SWAP9 SWAP10 PUSH2 0x1B78 SWAP6 SWAP4 PUSH1 0x1 SWAP4 PUSH2 0x1B8A SWAP10 SWAP9 SWAP7 PUSH1 0x1F NOT DUP2 AND LT PUSH2 0x1D8A JUMPI JUMPDEST POP POP POP DUP2 SHL ADD PUSH1 0x0 DUP1 MLOAD PUSH1 0x20 PUSH2 0x38F8 DUP4 CODECOPY DUP2 MLOAD SWAP2 MSTORE SSTORE PUSH2 0x1A36 JUMP JUMPDEST ADD MLOAD PUSH1 0x0 NOT PUSH1 0xF8 DUP5 PUSH1 0x3 SHL AND SHR NOT AND SWAP1 SSTORE DUP11 DUP1 DUP1 PUSH2 0x1D6F JUMP JUMPDEST DUP3 DUP3 ADD MLOAD DUP11 SSTORE PUSH1 0x1 SWAP1 SWAP10 ADD SWAP9 PUSH1 0x20 SWAP3 DUP4 ADD SWAP3 ADD PUSH2 0x1D44 JUMP JUMPDEST PUSH1 0x0 DUP1 MLOAD PUSH1 0x20 PUSH2 0x38F8 DUP4 CODECOPY DUP2 MLOAD SWAP2 MSTORE PUSH1 0x0 MSTORE PUSH1 0x1F DUP3 ADD PUSH1 0x5 SHR PUSH1 0x0 DUP1 MLOAD PUSH1 0x20 PUSH2 0x3A38 DUP4 CODECOPY DUP2 MLOAD SWAP2 MSTORE ADD PUSH1 0x20 DUP4 LT PUSH2 0x1E1C JUMPI JUMPDEST PUSH1 0x1F DUP3 ADD PUSH1 0x5 SHR PUSH1 0x0 DUP1 MLOAD PUSH1 0x20 PUSH2 0x3A38 DUP4 CODECOPY DUP2 MLOAD SWAP2 MSTORE ADD DUP2 LT PUSH2 0x1E10 JUMPI POP PUSH2 0x19EC JUMP JUMPDEST PUSH1 0x0 DUP2 SSTORE PUSH1 0x1 ADD PUSH2 0x1DED JUMP JUMPDEST POP PUSH1 0x0 DUP1 MLOAD PUSH1 0x20 PUSH2 0x3A38 DUP4 CODECOPY DUP2 MLOAD SWAP2 MSTORE PUSH2 0x1DED JUMP JUMPDEST ADD MLOAD SWAP1 POP DUP9 DUP1 PUSH2 0x1998 JUMP JUMPDEST SWAP3 POP PUSH1 0x0 DUP1 MLOAD PUSH1 0x20 PUSH2 0x38B8 DUP4 CODECOPY DUP2 MLOAD SWAP2 MSTORE PUSH1 0x0 MSTORE PUSH1 0x0 DUP1 MLOAD PUSH1 0x20 PUSH2 0x3938 DUP4 CODECOPY DUP2 MLOAD SWAP2 MSTORE SWAP1 PUSH1 0x0 SWAP4 JUMPDEST PUSH1 0x1F NOT DUP5 AND DUP6 LT PUSH2 0x1EB3 JUMPI PUSH1 0x1 SWAP5 POP DUP4 PUSH1 0x1F NOT DUP2 AND LT PUSH2 0x1E9A JUMPI JUMPDEST POP POP POP DUP2 SHL ADD PUSH1 0x0 DUP1 MLOAD PUSH1 0x20 PUSH2 0x38B8 DUP4 CODECOPY DUP2 MLOAD SWAP2 MSTORE SSTORE PUSH2 0x19BB JUMP JUMPDEST ADD MLOAD PUSH1 0x0 NOT PUSH1 0xF8 DUP5 PUSH1 0x3 SHL AND SHR NOT AND SWAP1 SSTORE DUP9 DUP1 DUP1 PUSH2 0x1E7F JUMP JUMPDEST DUP2 DUP2 ADD MLOAD DUP4 SSTORE PUSH1 0x20 SWAP5 DUP6 ADD SWAP5 PUSH1 0x1 SWAP1 SWAP4 ADD SWAP3 SWAP1 SWAP2 ADD SWAP1 PUSH2 0x1E64 JUMP JUMPDEST SWAP1 SWAP2 POP PUSH1 0x0 DUP1 MLOAD PUSH1 0x20 PUSH2 0x38B8 DUP4 CODECOPY DUP2 MLOAD SWAP2 MSTORE PUSH1 0x0 MSTORE PUSH1 0x1F DUP4 ADD PUSH1 0x5 SHR PUSH1 0x0 DUP1 MLOAD PUSH1 0x20 PUSH2 0x3938 DUP4 CODECOPY DUP2 MLOAD SWAP2 MSTORE ADD PUSH1 0x20 DUP5 LT PUSH2 0x1F3A JUMPI JUMPDEST SWAP1 DUP4 SWAP3 SWAP2 JUMPDEST PUSH1 0x1F DUP3 ADD PUSH1 0x5 SHR PUSH1 0x0 DUP1 MLOAD PUSH1 0x20 PUSH2 0x3938 DUP4 CODECOPY DUP2 MLOAD SWAP2 MSTORE ADD DUP2 LT PUSH2 0x1F2B JUMPI POP PUSH2 0x1981 JUMP JUMPDEST PUSH1 0x0 DUP2 SSTORE DUP5 SWAP4 POP PUSH1 0x1 ADD PUSH2 0x1F08 JUMP JUMPDEST POP PUSH1 0x0 DUP1 MLOAD PUSH1 0x20 PUSH2 0x3938 DUP4 CODECOPY DUP2 MLOAD SWAP2 MSTORE PUSH2 0x1F03 JUMP JUMPDEST ADD MLOAD SWAP1 POP DUP8 DUP1 PUSH2 0x18B8 JUMP JUMPDEST SWAP3 POP PUSH1 0x0 DUP1 MLOAD PUSH1 0x20 PUSH2 0x38D8 DUP4 CODECOPY DUP2 MLOAD SWAP2 MSTORE PUSH1 0x0 MSTORE PUSH1 0x0 DUP1 MLOAD PUSH1 0x20 PUSH2 0x39B8 DUP4 CODECOPY DUP2 MLOAD SWAP2 MSTORE SWAP1 PUSH1 0x0 SWAP4 JUMPDEST PUSH1 0x1F NOT DUP5 AND DUP6 LT PUSH2 0x1FD1 JUMPI PUSH1 0x1 SWAP5 POP DUP4 PUSH1 0x1F NOT DUP2 AND LT PUSH2 0x1FB8 JUMPI JUMPDEST POP POP POP DUP2 SHL ADD PUSH1 0x0 DUP1 MLOAD PUSH1 0x20 PUSH2 0x38D8 DUP4 CODECOPY DUP2 MLOAD SWAP2 MSTORE SSTORE PUSH2 0x18DB JUMP JUMPDEST ADD MLOAD PUSH1 0x0 NOT PUSH1 0xF8 DUP5 PUSH1 0x3 SHL AND SHR NOT AND SWAP1 SSTORE DUP8 DUP1 DUP1 PUSH2 0x1F9D JUMP JUMPDEST DUP2 DUP2 ADD MLOAD DUP4 SSTORE PUSH1 0x20 SWAP5 DUP6 ADD SWAP5 PUSH1 0x1 SWAP1 SWAP4 ADD SWAP3 SWAP1 SWAP2 ADD SWAP1 PUSH2 0x1F82 JUMP JUMPDEST SWAP1 SWAP2 POP PUSH1 0x0 DUP1 MLOAD PUSH1 0x20 PUSH2 0x38D8 DUP4 CODECOPY DUP2 MLOAD SWAP2 MSTORE PUSH1 0x0 MSTORE PUSH1 0x1F DUP4 ADD PUSH1 0x5 SHR PUSH1 0x0 DUP1 MLOAD PUSH1 0x20 PUSH2 0x39B8 DUP4 CODECOPY DUP2 MLOAD SWAP2 MSTORE ADD PUSH1 0x20 DUP5 LT PUSH2 0x2058 JUMPI JUMPDEST SWAP1 DUP4 SWAP3 SWAP2 JUMPDEST PUSH1 0x1F DUP3 ADD PUSH1 0x5 SHR PUSH1 0x0 DUP1 MLOAD PUSH1 0x20 PUSH2 0x39B8 DUP4 CODECOPY DUP2 MLOAD SWAP2 MSTORE ADD DUP2 LT PUSH2 0x2049 JUMPI POP PUSH2 0x18A1 JUMP JUMPDEST PUSH1 0x0 DUP2 SSTORE DUP5 SWAP4 POP PUSH1 0x1 ADD PUSH2 0x2026 JUMP JUMPDEST POP PUSH1 0x0 DUP1 MLOAD PUSH1 0x20 PUSH2 0x39B8 DUP4 CODECOPY DUP2 MLOAD SWAP2 MSTORE PUSH2 0x2021 JUMP JUMPDEST ADD MLOAD SWAP1 POP DUP9 DUP1 PUSH2 0x184A JUMP JUMPDEST SWAP3 POP PUSH1 0x0 DUP1 MLOAD PUSH1 0x20 PUSH2 0x3878 DUP4 CODECOPY DUP2 MLOAD SWAP2 MSTORE PUSH1 0x0 MSTORE PUSH1 0x0 DUP1 MLOAD PUSH1 0x20 PUSH2 0x3858 DUP4 CODECOPY DUP2 MLOAD SWAP2 MSTORE SWAP1 PUSH1 0x0 SWAP4 JUMPDEST PUSH1 0x1F NOT DUP5 AND DUP6 LT PUSH2 0x20EF JUMPI PUSH1 0x1 SWAP5 POP DUP4 PUSH1 0x1F NOT DUP2 AND LT PUSH2 0x20D6 JUMPI JUMPDEST POP POP POP DUP2 SHL ADD PUSH1 0x0 DUP1 MLOAD PUSH1 0x20 PUSH2 0x3878 DUP4 CODECOPY DUP2 MLOAD SWAP2 MSTORE SSTORE PUSH2 0x186D JUMP JUMPDEST ADD MLOAD PUSH1 0x0 NOT PUSH1 0xF8 DUP5 PUSH1 0x3 SHL AND SHR NOT AND SWAP1 SSTORE DUP9 DUP1 DUP1 PUSH2 0x20BB JUMP JUMPDEST DUP2 DUP2 ADD MLOAD DUP4 SSTORE PUSH1 0x20 SWAP5 DUP6 ADD SWAP5 PUSH1 0x1 SWAP1 SWAP4 ADD SWAP3 SWAP1 SWAP2 ADD SWAP1 PUSH2 0x20A0 JUMP JUMPDEST SWAP1 SWAP2 POP PUSH1 0x0 DUP1 MLOAD PUSH1 0x20 PUSH2 0x3878 DUP4 CODECOPY DUP2 MLOAD SWAP2 MSTORE PUSH1 0x0 MSTORE PUSH1 0x1F DUP4 ADD PUSH1 0x5 SHR PUSH1 0x0 DUP1 MLOAD PUSH1 0x20 PUSH2 0x3858 DUP4 CODECOPY DUP2 MLOAD SWAP2 MSTORE ADD PUSH1 0x20 DUP5 LT PUSH2 0x2176 JUMPI JUMPDEST SWAP1 DUP4 SWAP3 SWAP2 JUMPDEST PUSH1 0x1F DUP3 ADD PUSH1 0x5 SHR PUSH1 0x0 DUP1 MLOAD PUSH1 0x20 PUSH2 0x3858 DUP4 CODECOPY DUP2 MLOAD SWAP2 MSTORE ADD DUP2 LT PUSH2 0x2167 JUMPI POP PUSH2 0x1833 JUMP JUMPDEST PUSH1 0x0 DUP2 SSTORE DUP5 SWAP4 POP PUSH1 0x1 ADD PUSH2 0x2144 JUMP JUMPDEST POP PUSH1 0x0 DUP1 MLOAD PUSH1 0x20 PUSH2 0x3858 DUP4 CODECOPY DUP2 MLOAD SWAP2 MSTORE PUSH2 0x213F JUMP JUMPDEST PUSH1 0x40 MLOAD PUSH3 0x461BCD PUSH1 0xE5 SHL DUP2 MSTORE PUSH1 0x20 PUSH1 0x4 DUP3 ADD MSTORE PUSH1 0x26 PUSH1 0x24 DUP3 ADD MSTORE PUSH32 0x53616C6520636F6E74726163742063616E6E6F7420626520746F6B656E20636F PUSH1 0x44 DUP3 ADD MSTORE PUSH6 0x1B9D1C9858DD PUSH1 0xD2 SHL DUP2 DUP6 ADD MSTORE PUSH1 0x84 SWAP1 REVERT JUMPDEST PUSH1 0x40 MLOAD PUSH3 0x461BCD PUSH1 0xE5 SHL DUP2 MSTORE PUSH1 0x20 PUSH1 0x4 DUP3 ADD MSTORE PUSH1 0x25 PUSH1 0x24 DUP3 ADD MSTORE PUSH32 0x426F74206578656375746F722063616E6E6F7420626520746F6B656E20636F6E PUSH1 0x44 DUP3 ADD MSTORE PUSH5 0x1D1C9858DD PUSH1 0xDA SHL DUP2 DUP7 ADD MSTORE PUSH1 0x84 SWAP1 REVERT JUMPDEST PUSH1 0x40 MLOAD PUSH3 0x461BCD PUSH1 0xE5 SHL DUP2 MSTORE PUSH1 0x20 PUSH1 0x4 DUP3 ADD MSTORE PUSH1 0x21 PUSH1 0x24 DUP3 ADD MSTORE PUSH32 0x4F707320736166652063616E6E6F7420626520746F6B656E20636F6E74726163 PUSH1 0x44 DUP3 ADD MSTORE PUSH1 0x1D PUSH1 0xFA SHL DUP2 DUP8 ADD MSTORE PUSH1 0x84 SWAP1 REVERT JUMPDEST PUSH1 0x40 MLOAD PUSH3 0x461BCD PUSH1 0xE5 SHL DUP2 MSTORE PUSH1 0x20 PUSH1 0x4 DUP3 ADD MSTORE PUSH1 0x22 PUSH1 0x24 DUP3 ADD MSTORE PUSH32 0x4D61696E20736166652063616E6E6F7420626520746F6B656E20636F6E747261 PUSH1 0x44 DUP3 ADD MSTORE PUSH2 0x18DD PUSH1 0xF2 SHL DUP2 DUP9 ADD MSTORE PUSH1 0x84 SWAP1 REVERT JUMPDEST PUSH1 0x40 MLOAD PUSH3 0x461BCD PUSH1 0xE5 SHL DUP2 MSTORE PUSH1 0x20 PUSH1 0x4 DUP3 ADD MSTORE PUSH1 0x15 PUSH1 0x24 DUP3 ADD MSTORE PUSH21 0x125B9D985B1A59081CD85B194818DBDB9D1C9858DD PUSH1 0x5A SHL PUSH1 0x44 DUP3 ADD MSTORE DUP8 SWAP1 REVERT JUMPDEST PUSH1 0x40 MLOAD PUSH3 0x461BCD PUSH1 0xE5 SHL DUP2 MSTORE PUSH1 0x20 PUSH1 0x4 DUP3 ADD MSTORE PUSH1 0x14 PUSH1 0x24 DUP3 ADD MSTORE PUSH20 0x24B73B30B634B2103137BA1032BC32B1BABA37B9 PUSH1 0x61 SHL PUSH1 0x44 DUP3 ADD MSTORE DUP8 SWAP1 REVERT JUMPDEST PUSH1 0x40 MLOAD PUSH3 0x461BCD PUSH1 0xE5 SHL DUP2 MSTORE PUSH1 0x20 PUSH1 0x4 DUP3 ADD MSTORE PUSH1 0x10 PUSH1 0x24 DUP3 ADD MSTORE PUSH16 0x496E76616C6964206F70732073616665 PUSH1 0x80 SHL PUSH1 0x44 DUP3 ADD MSTORE DUP8 SWAP1 REVERT JUMPDEST PUSH1 0x40 MLOAD PUSH3 0x461BCD PUSH1 0xE5 SHL DUP2 MSTORE PUSH1 0x20 PUSH1 0x4 DUP3 ADD MSTORE PUSH1 0x11 PUSH1 0x24 DUP3 ADD MSTORE PUSH17 0x496E76616C6964206D61696E2073616665 PUSH1 0x78 SHL PUSH1 0x44 DUP3 ADD MSTORE DUP7 SWAP1 REVERT JUMPDEST PUSH9 0xFFFFFFFFFFFFFFFFFF NOT DUP7 AND PUSH9 0x10000000000000001 OR PUSH1 0x0 DUP1 MLOAD PUSH1 0x20 PUSH2 0x3A18 DUP4 CODECOPY DUP2 MLOAD SWAP2 MSTORE SSTORE PUSH2 0x175A JUMP JUMPDEST PUSH1 0x40 MLOAD PUSH4 0xF92EE8A9 PUSH1 0xE0 SHL DUP2 MSTORE PUSH1 0x4 SWAP1 REVERT JUMPDEST SWAP1 POP ISZERO DUP9 PUSH2 0x172A JUMP JUMPDEST ADDRESS EXTCODESIZE ISZERO SWAP2 POP PUSH2 0x1722 JUMP JUMPDEST PUSH1 0x40 DUP9 SWAP1 SHR PUSH1 0xFF AND ISZERO SWAP2 POP PUSH2 0x1718 JUMP JUMPDEST CALLVALUE PUSH2 0x22C JUMPI PUSH1 0x60 CALLDATASIZE PUSH1 0x3 NOT ADD SLT PUSH2 0x22C JUMPI PUSH1 0x1 PUSH1 0x1 PUSH1 0xA0 SHL SUB PUSH1 0x4 CALLDATALOAD DUP2 DUP2 AND SWAP1 DUP2 SWAP1 SUB PUSH2 0x22C JUMPI PUSH2 0x2444 PUSH2 0x2734 JUMP JUMPDEST SWAP2 PUSH1 0x44 CALLDATALOAD SWAP3 PUSH2 0x2451 PUSH2 0x2B49 JUMP JUMPDEST PUSH2 0x2459 PUSH2 0x2C00 JUMP JUMPDEST ADDRESS DUP4 EQ PUSH2 0x252B JUMPI AND SWAP2 PUSH2 0x246D DUP4 ISZERO ISZERO PUSH2 0x2954 JUMP JUMPDEST PUSH2 0x2478 DUP2 ISZERO ISZERO PUSH2 0x2992 JUMP JUMPDEST PUSH1 0x40 MLOAD PUSH4 0xA9059CBB PUSH1 0xE0 SHL DUP2 MSTORE DUP4 PUSH1 0x4 DUP3 ADD MSTORE DUP2 PUSH1 0x24 DUP3 ADD MSTORE PUSH1 0x20 DUP2 PUSH1 0x44 DUP2 PUSH1 0x0 DUP8 GAS CALL DUP1 ISZERO PUSH2 0x251F JUMPI PUSH2 0x24E7 JUMPI JUMPDEST POP PUSH1 0x20 PUSH32 0x879F92DDED0F26B83C3E00B12E0395DC72CFC3077343D1854ED6988EDD1F9096 SWAP2 PUSH1 0x40 MLOAD SWAP1 DUP2 MSTORE LOG3 PUSH1 0x1 PUSH1 0x0 DUP1 MLOAD PUSH1 0x20 PUSH2 0x39D8 DUP4 CODECOPY DUP2 MLOAD SWAP2 MSTORE SSTORE STOP JUMPDEST PUSH1 0x20 DUP2 RETURNDATASIZE PUSH1 0x20 GT PUSH2 0x2517 JUMPI JUMPDEST DUP2 PUSH2 0x2500 PUSH1 0x20 SWAP4 DUP4 PUSH2 0x277B JUMP JUMPDEST DUP2 ADD SUB SLT PUSH2 0x22C JUMPI MLOAD DUP1 ISZERO ISZERO SUB PUSH2 0x22C JUMPI DUP4 PUSH2 0x24A7 JUMP JUMPDEST RETURNDATASIZE SWAP2 POP PUSH2 0x24F3 JUMP JUMPDEST PUSH1 0x40 MLOAD RETURNDATASIZE PUSH1 0x0 DUP3 RETURNDATACOPY RETURNDATASIZE SWAP1 REVERT JUMPDEST PUSH1 0x40 MLOAD PUSH3 0x461BCD PUSH1 0xE5 SHL DUP2 MSTORE PUSH1 0x20 PUSH1 0x4 DUP3 ADD MSTORE PUSH1 0x13 PUSH1 0x24 DUP3 ADD MSTORE PUSH19 0x43616E6E6F74207265636F766572204E454241 PUSH1 0x68 SHL PUSH1 0x44 DUP3 ADD MSTORE PUSH1 0x64 SWAP1 REVERT JUMPDEST CALLVALUE PUSH2 0x22C JUMPI PUSH1 0x0 CALLDATASIZE PUSH1 0x3 NOT ADD SLT PUSH2 0x22C JUMPI PUSH1 0x20 PUSH1 0x40 MLOAD PUSH32 0xBF8B034AF7A434C44D9299A66A1071085478BB9A7FDC1F0EBCB5D36DC76F02B2 DUP2 MSTORE RETURN JUMPDEST CALLVALUE PUSH2 0x22C JUMPI PUSH1 0x40 CALLDATASIZE PUSH1 0x3 NOT ADD SLT PUSH2 0x22C JUMPI PUSH2 0x6B1 PUSH2 0x25BD PUSH2 0x271E JUMP JUMPDEST PUSH1 0x24 CALLDATALOAD SWAP1 CALLER PUSH2 0x350E JUMP JUMPDEST CALLVALUE PUSH2 0x22C JUMPI PUSH1 0x0 CALLDATASIZE PUSH1 0x3 NOT ADD SLT PUSH2 0x22C JUMPI PUSH1 0x40 MLOAD PUSH1 0x0 DUP1 MLOAD PUSH1 0x20 PUSH2 0x3878 DUP4 CODECOPY DUP2 MLOAD SWAP2 MSTORE DUP1 SLOAD DUP3 PUSH1 0x0 PUSH2 0x25F8 DUP4 PUSH2 0x27B7 JUMP JUMPDEST SWAP3 DUP4 DUP4 MSTORE PUSH1 0x20 SWAP5 PUSH1 0x1 SWAP2 DUP7 PUSH1 0x1 DUP3 AND SWAP2 DUP3 PUSH1 0x0 EQ PUSH2 0x797 JUMPI POP POP PUSH1 0x1 EQ PUSH2 0x2627 JUMPI POP POP PUSH2 0x739 SWAP3 POP SUB DUP4 PUSH2 0x277B JUMP JUMPDEST DUP6 SWAP3 POP PUSH1 0x0 MSTORE PUSH1 0x0 DUP1 MLOAD PUSH1 0x20 PUSH2 0x3858 DUP4 CODECOPY DUP2 MLOAD SWAP2 MSTORE SWAP1 PUSH1 0x0 SWAP2 JUMPDEST DUP6 DUP4 LT PUSH2 0x2659 JUMPI POP POP PUSH2 0x739 SWAP4 POP DUP3 ADD ADD DUP6 DUP1 PUSH2 0x72B JUMP JUMPDEST DUP1 SLOAD DUP4 DUP10 ADD DUP6 ADD MSTORE DUP8 SWAP5 POP DUP7 SWAP4 SWAP1 SWAP3 ADD SWAP2 DUP2 ADD PUSH2 0x2641 JUMP JUMPDEST CALLVALUE PUSH2 0x22C JUMPI PUSH1 0x20 CALLDATASIZE PUSH1 0x3 NOT ADD SLT PUSH2 0x22C JUMPI PUSH1 0x4 CALLDATALOAD SWAP1 PUSH4 0xFFFFFFFF PUSH1 0xE0 SHL DUP3 AND DUP1 SWAP3 SUB PUSH2 0x22C JUMPI PUSH1 0x20 SWAP2 PUSH4 0x40C10F19 PUSH1 0xE0 SHL DUP2 EQ SWAP1 DUP2 ISZERO PUSH2 0x26B3 JUMPI JUMPDEST POP ISZERO ISZERO DUP2 MSTORE RETURN JUMPDEST PUSH4 0x7965DB0B PUSH1 0xE0 SHL DUP2 EQ SWAP2 POP DUP2 ISZERO PUSH2 0x26CD JUMPI JUMPDEST POP DUP4 PUSH2 0x26AC JUMP JUMPDEST PUSH4 0x1FFC9A7 PUSH1 0xE0 SHL EQ SWAP1 POP DUP4 PUSH2 0x26C6 JUMP JUMPDEST SWAP2 SWAP1 DUP3 MLOAD SWAP3 DUP4 DUP3 MSTORE PUSH1 0x0 JUMPDEST DUP5 DUP2 LT PUSH2 0x270A JUMPI POP POP DUP3 PUSH1 0x0 PUSH1 0x20 DUP1 SWAP5 SWAP6 DUP5 ADD ADD MSTORE PUSH1 0x1F DUP1 NOT SWAP2 ADD AND ADD ADD SWAP1 JUMP JUMPDEST PUSH1 0x20 DUP2 DUP4 ADD DUP2 ADD MLOAD DUP5 DUP4 ADD DUP3 ADD MSTORE ADD PUSH2 0x26E9 JUMP JUMPDEST PUSH1 0x4 CALLDATALOAD SWAP1 PUSH1 0x1 PUSH1 0x1 PUSH1 0xA0 SHL SUB DUP3 AND DUP3 SUB PUSH2 0x22C JUMPI JUMP JUMPDEST PUSH1 0x24 CALLDATALOAD SWAP1 PUSH1 0x1 PUSH1 0x1 PUSH1 0xA0 SHL SUB DUP3 AND DUP3 SUB PUSH2 0x22C JUMPI JUMP JUMPDEST PUSH1 0x44 CALLDATALOAD SWAP1 PUSH1 0x1 PUSH1 0x1 PUSH1 0xA0 SHL SUB DUP3 AND DUP3 SUB PUSH2 0x22C JUMPI JUMP JUMPDEST PUSH1 0x40 DUP2 ADD SWAP1 DUP2 LT PUSH1 0x1 PUSH1 0x1 PUSH1 0x40 SHL SUB DUP3 GT OR PUSH2 0x613 JUMPI PUSH1 0x40 MSTORE JUMP JUMPDEST SWAP1 PUSH1 0x1F DUP1 NOT SWAP2 ADD AND DUP2 ADD SWAP1 DUP2 LT PUSH1 0x1 PUSH1 0x1 PUSH1 0x40 SHL SUB DUP3 GT OR PUSH2 0x613 JUMPI PUSH1 0x40 MSTORE JUMP JUMPDEST PUSH1 0x1 PUSH1 0x1 PUSH1 0x40 SHL SUB DUP2 GT PUSH2 0x613 JUMPI PUSH1 0x1F ADD PUSH1 0x1F NOT AND PUSH1 0x20 ADD SWAP1 JUMP JUMPDEST SWAP1 PUSH1 0x1 DUP3 DUP2 SHR SWAP3 AND DUP1 ISZERO PUSH2 0x27E7 JUMPI JUMPDEST PUSH1 0x20 DUP4 LT EQ PUSH2 0x27D1 JUMPI JUMP JUMPDEST PUSH4 0x4E487B71 PUSH1 0xE0 SHL PUSH1 0x0 MSTORE PUSH1 0x22 PUSH1 0x4 MSTORE PUSH1 0x24 PUSH1 0x0 REVERT JUMPDEST SWAP2 PUSH1 0x7F AND SWAP2 PUSH2 0x27C6 JUMP JUMPDEST PUSH1 0x40 MLOAD SWAP1 PUSH1 0x0 DUP3 PUSH1 0x0 DUP1 MLOAD PUSH1 0x20 PUSH2 0x38B8 DUP4 CODECOPY DUP2 MLOAD SWAP2 MSTORE SWAP2 DUP3 SLOAD SWAP3 PUSH2 0x2814 DUP5 PUSH2 0x27B7 JUMP JUMPDEST DUP1 DUP5 MSTORE SWAP4 PUSH1 0x20 SWAP2 PUSH1 0x1 SWAP2 DUP3 DUP2 AND SWAP1 DUP2 ISZERO PUSH2 0x2891 JUMPI POP PUSH1 0x1 EQ PUSH2 0x2842 JUMPI JUMPDEST POP POP POP PUSH2 0x2840 SWAP3 POP SUB DUP4 PUSH2 0x277B JUMP JUMPDEST JUMP JUMPDEST PUSH1 0x0 SWAP1 DUP2 MSTORE PUSH1 0x0 DUP1 MLOAD PUSH1 0x20 PUSH2 0x3938 DUP4 CODECOPY DUP2 MLOAD SWAP2 MSTORE SWAP6 SWAP1 SWAP4 POP SWAP2 SWAP1 JUMPDEST DUP3 DUP5 LT PUSH2 0x2879 JUMPI POP PUSH2 0x2840 SWAP5 POP POP POP DUP2 ADD PUSH1 0x20 ADD CODESIZE DUP1 DUP1 PUSH2 0x2831 JUMP JUMPDEST DUP6 SLOAD DUP9 DUP6 ADD DUP4 ADD MSTORE SWAP5 DUP6 ADD SWAP5 DUP8 SWAP5 POP SWAP3 DUP2 ADD SWAP3 PUSH2 0x285D JUMP JUMPDEST SWAP3 POP POP POP PUSH1 0x20 SWAP3 POP PUSH2 0x2840 SWAP5 SWAP2 POP PUSH1 0xFF NOT AND DUP3 DUP5 ADD MSTORE ISZERO ISZERO PUSH1 0x5 SHL DUP3 ADD ADD CODESIZE DUP1 DUP1 PUSH2 0x2831 JUMP JUMPDEST PUSH1 0x40 MLOAD SWAP1 PUSH1 0x0 DUP3 PUSH1 0x0 DUP1 MLOAD PUSH1 0x20 PUSH2 0x38F8 DUP4 CODECOPY DUP2 MLOAD SWAP2 MSTORE SWAP2 DUP3 SLOAD SWAP3 PUSH2 0x28DA DUP5 PUSH2 0x27B7 JUMP JUMPDEST DUP1 DUP5 MSTORE SWAP4 PUSH1 0x20 SWAP2 PUSH1 0x1 SWAP2 DUP3 DUP2 AND SWAP1 DUP2 ISZERO PUSH2 0x2891 JUMPI POP PUSH1 0x1 EQ PUSH2 0x2905 JUMPI POP POP POP PUSH2 0x2840 SWAP3 POP SUB DUP4 PUSH2 0x277B JUMP JUMPDEST PUSH1 0x0 SWAP1 DUP2 MSTORE PUSH1 0x0 DUP1 MLOAD PUSH1 0x20 PUSH2 0x3A38 DUP4 CODECOPY DUP2 MLOAD SWAP2 MSTORE SWAP6 SWAP1 SWAP4 POP SWAP2 SWAP1 JUMPDEST DUP3 DUP5 LT PUSH2 0x293C JUMPI POP PUSH2 0x2840 SWAP5 POP POP POP DUP2 ADD PUSH1 0x20 ADD CODESIZE DUP1 DUP1 PUSH2 0x2831 JUMP JUMPDEST DUP6 SLOAD DUP9 DUP6 ADD DUP4 ADD MSTORE SWAP5 DUP6 ADD SWAP5 DUP8 SWAP5 POP SWAP3 DUP2 ADD SWAP3 PUSH2 0x2920 JUMP JUMPDEST ISZERO PUSH2 0x295B JUMPI JUMP JUMPDEST PUSH1 0x40 MLOAD PUSH3 0x461BCD PUSH1 0xE5 SHL DUP2 MSTORE PUSH1 0x20 PUSH1 0x4 DUP3 ADD MSTORE PUSH1 0xF PUSH1 0x24 DUP3 ADD MSTORE PUSH15 0x496E76616C69642061646472657373 PUSH1 0x88 SHL PUSH1 0x44 DUP3 ADD MSTORE PUSH1 0x64 SWAP1 REVERT JUMPDEST ISZERO PUSH2 0x2999 JUMPI JUMP JUMPDEST PUSH1 0x40 MLOAD PUSH3 0x461BCD PUSH1 0xE5 SHL DUP2 MSTORE PUSH1 0x20 PUSH1 0x4 DUP3 ADD MSTORE PUSH1 0xE PUSH1 0x24 DUP3 ADD MSTORE PUSH14 0x125B9D985B1A5908185B5BDD5B9D PUSH1 0x92 SHL PUSH1 0x44 DUP3 ADD MSTORE PUSH1 0x64 SWAP1 REVERT JUMPDEST ISZERO PUSH2 0x29D6 JUMPI JUMP JUMPDEST PUSH1 0x40 MLOAD PUSH3 0x461BCD PUSH1 0xE5 SHL DUP2 MSTORE PUSH1 0x20 PUSH1 0x4 DUP3 ADD MSTORE PUSH1 0x10 PUSH1 0x24 DUP3 ADD MSTORE PUSH16 0x496E76616C6964207472656173757279 PUSH1 0x80 SHL PUSH1 0x44 DUP3 ADD MSTORE PUSH1 0x64 SWAP1 REVERT JUMPDEST ISZERO PUSH2 0x2A15 JUMPI JUMP JUMPDEST PUSH1 0x40 MLOAD PUSH3 0x461BCD PUSH1 0xE5 SHL DUP2 MSTORE PUSH1 0x20 PUSH1 0x4 DUP3 ADD MSTORE PUSH1 0x21 PUSH1 0x24 DUP3 ADD MSTORE PUSH32 0x54726561737572792063616E6E6F7420626520746F6B656E20636F6E74726163 PUSH1 0x44 DUP3 ADD MSTORE PUSH1 0x1D PUSH1 0xFA SHL PUSH1 0x64 DUP3 ADD MSTORE PUSH1 0x84 SWAP1 REVERT JUMPDEST PUSH1 0x40 MLOAD SWAP1 PUSH2 0x2A71 DUP3 PUSH2 0x2760 JUMP JUMPDEST PUSH1 0xA DUP3 MSTORE PUSH10 0x2722A120902A37B5B2B7 PUSH1 0xB1 SHL PUSH1 0x20 DUP4 ADD MSTORE JUMP JUMPDEST RETURNDATASIZE ISZERO PUSH2 0x2AB5 JUMPI RETURNDATASIZE SWAP1 PUSH2 0x2A9B DUP3 PUSH2 0x279C JUMP JUMPDEST SWAP2 PUSH2 0x2AA9 PUSH1 0x40 MLOAD SWAP4 DUP5 PUSH2 0x277B JUMP JUMPDEST DUP3 MSTORE RETURNDATASIZE PUSH1 0x0 PUSH1 0x20 DUP5 ADD RETURNDATACOPY JUMP JUMPDEST PUSH1 0x60 SWAP1 JUMP JUMPDEST PUSH1 0x1 PUSH1 0x1 PUSH1 0xA0 SHL SUB AND PUSH1 0x0 SWAP1 DUP2 MSTORE PUSH32 0x52C63247E1F47DB19D5CE0460030C497F067CA4CEBF71BA98EEADABE20BACE01 PUSH1 0x20 MSTORE PUSH1 0x40 SWAP1 KECCAK256 SWAP1 JUMP JUMPDEST ISZERO PUSH2 0x2AFA JUMPI JUMP JUMPDEST PUSH1 0x40 MLOAD PUSH3 0x461BCD PUSH1 0xE5 SHL DUP2 MSTORE PUSH1 0x20 PUSH1 0x4 DUP3 ADD MSTORE PUSH1 0x21 PUSH1 0x24 DUP3 ADD MSTORE PUSH32 0x54696D656C6F636B2063616E6E6F7420626520746F6B656E20636F6E74726163 PUSH1 0x44 DUP3 ADD MSTORE PUSH1 0x1D PUSH1 0xFA SHL PUSH1 0x64 DUP3 ADD MSTORE PUSH1 0x84 SWAP1 REVERT JUMPDEST CALLER PUSH1 0x0 SWAP1 DUP2 MSTORE PUSH32 0xBE278F4AD0972113A7BD5492B4CD8A33CAFC699350AC844C18227CD07E8A09D PUSH1 0x20 MSTORE PUSH1 0x40 SWAP1 KECCAK256 SLOAD PUSH1 0x0 DUP1 MLOAD PUSH1 0x20 PUSH2 0x39F8 DUP4 CODECOPY DUP2 MLOAD SWAP2 MSTORE SWAP1 PUSH1 0xFF AND ISZERO PUSH2 0x12B6 JUMPI POP JUMP JUMPDEST CALLER PUSH1 0x0 SWAP1 DUP2 MSTORE PUSH32 0xB7DB2DD08FCB62D0C9E08C51941CAE53C267786A0B75803FB7960902FC8EF97D PUSH1 0x20 MSTORE PUSH1 0x40 DUP2 KECCAK256 SLOAD PUSH1 0xFF AND ISZERO PUSH2 0x12B6 JUMPI POP JUMP JUMPDEST DUP1 PUSH1 0x0 MSTORE PUSH1 0x0 DUP1 MLOAD PUSH1 0x20 PUSH2 0x3958 DUP4 CODECOPY DUP2 MLOAD SWAP2 MSTORE PUSH1 0x20 MSTORE PUSH1 0x40 PUSH1 0x0 KECCAK256 CALLER PUSH1 0x0 MSTORE PUSH1 0x20 MSTORE PUSH1 0xFF PUSH1 0x40 PUSH1 0x0 KECCAK256 SLOAD AND ISZERO PUSH2 0x12B6 JUMPI POP JUMP JUMPDEST PUSH1 0x0 DUP1 MLOAD PUSH1 0x20 PUSH2 0x39D8 DUP4 CODECOPY DUP2 MLOAD SWAP2 MSTORE PUSH1 0x2 DUP2 SLOAD EQ PUSH2 0x2C1E JUMPI PUSH1 0x2 SWAP1 SSTORE JUMP JUMPDEST PUSH1 0x40 MLOAD PUSH4 0x3EE5AEB5 PUSH1 0xE0 SHL DUP2 MSTORE PUSH1 0x4 SWAP1 REVERT JUMPDEST PUSH1 0x1 PUSH1 0x1 PUSH1 0xA0 SHL SUB AND PUSH1 0x0 DUP2 DUP2 MSTORE PUSH32 0xB7DB2DD08FCB62D0C9E08C51941CAE53C267786A0B75803FB7960902FC8EF97D PUSH1 0x20 MSTORE PUSH1 0x40 DUP2 KECCAK256 SLOAD SWAP1 SWAP2 SWAP1 PUSH1 0x0 DUP1 MLOAD PUSH1 0x20 PUSH2 0x3958 DUP4 CODECOPY DUP2 MLOAD SWAP2 MSTORE SWAP1 PUSH1 0xFF AND PUSH2 0x2CB9 JUMPI DUP3 DUP1 MSTORE PUSH1 0x20 MSTORE PUSH1 0x40 DUP3 KECCAK256 DUP2 DUP4 MSTORE PUSH1 0x20 MSTORE PUSH1 0x40 DUP3 KECCAK256 PUSH1 0x1 PUSH1 0xFF NOT DUP3 SLOAD AND OR SWAP1 SSTORE CALLER SWAP2 PUSH1 0x0 DUP1 MLOAD PUSH1 0x20 PUSH2 0x3838 DUP4 CODECOPY DUP2 MLOAD SWAP2 MSTORE DUP2 DUP1 LOG4 PUSH1 0x1 SWAP1 JUMP JUMPDEST POP POP SWAP1 JUMP JUMPDEST PUSH1 0x1 PUSH1 0x1 PUSH1 0xA0 SHL SUB AND PUSH1 0x0 DUP2 DUP2 MSTORE PUSH32 0xBE278F4AD0972113A7BD5492B4CD8A33CAFC699350AC844C18227CD07E8A09D PUSH1 0x20 MSTORE PUSH1 0x40 DUP2 KECCAK256 SLOAD SWAP1 SWAP2 SWAP1 PUSH1 0x0 DUP1 MLOAD PUSH1 0x20 PUSH2 0x39F8 DUP4 CODECOPY DUP2 MLOAD SWAP2 MSTORE SWAP1 PUSH1 0x0 DUP1 MLOAD PUSH1 0x20 PUSH2 0x3958 DUP4 CODECOPY DUP2 MLOAD SWAP2 MSTORE SWAP1 PUSH1 0xFF AND PUSH2 0x2D56 JUMPI DUP2 DUP5 MSTORE PUSH1 0x20 MSTORE PUSH1 0x40 DUP4 KECCAK256 DUP3 DUP5 MSTORE PUSH1 0x20 MSTORE PUSH1 0x40 DUP4 KECCAK256 PUSH1 0x1 PUSH1 0xFF NOT DUP3 SLOAD AND OR SWAP1 SSTORE PUSH1 0x0 DUP1 MLOAD PUSH1 0x20 PUSH2 0x3838 DUP4 CODECOPY DUP2 MLOAD SWAP2 MSTORE CALLER SWAP4 DUP1 LOG4 PUSH1 0x1 SWAP1 JUMP JUMPDEST POP POP POP SWAP1 JUMP JUMPDEST PUSH1 0x1 PUSH1 0x1 PUSH1 0xA0 SHL SUB AND PUSH1 0x0 DUP2 DUP2 MSTORE PUSH32 0x1DD8DA7456500296E75257D3F7B15F593A25957EA0A2CFBC125D925064C64414 PUSH1 0x20 MSTORE PUSH1 0x40 DUP2 KECCAK256 SLOAD SWAP1 SWAP2 SWAP1 PUSH1 0x0 DUP1 MLOAD PUSH1 0x20 PUSH2 0x3A58 DUP4 CODECOPY DUP2 MLOAD SWAP2 MSTORE SWAP1 PUSH1 0x0 DUP1 MLOAD PUSH1 0x20 PUSH2 0x3958 DUP4 CODECOPY DUP2 MLOAD SWAP2 MSTORE SWAP1 PUSH1 0xFF AND PUSH2 0x2D56 JUMPI DUP2 DUP5 MSTORE PUSH1 0x20 MSTORE PUSH1 0x40 DUP4 KECCAK256 DUP3 DUP5 MSTORE PUSH1 0x20 MSTORE PUSH1 0x40 DUP4 KECCAK256 PUSH1 0x1 PUSH1 0xFF NOT DUP3 SLOAD AND OR SWAP1 SSTORE PUSH1 0x0 DUP1 MLOAD PUSH1 0x20 PUSH2 0x3838 DUP4 CODECOPY DUP2 MLOAD SWAP2 MSTORE CALLER SWAP4 DUP1 LOG4 PUSH1 0x1 SWAP1 JUMP JUMPDEST PUSH1 0x1 PUSH1 0x1 PUSH1 0xA0 SHL SUB AND PUSH1 0x0 DUP2 DUP2 MSTORE PUSH32 0xAB71E3F32666744D246EDFF3F96E4BDAFEE2E9867098CDD118A979A7464786A8 PUSH1 0x20 MSTORE PUSH1 0x40 DUP2 KECCAK256 SLOAD SWAP1 SWAP2 SWAP1 PUSH1 0x0 DUP1 MLOAD PUSH1 0x20 PUSH2 0x3918 DUP4 CODECOPY DUP2 MLOAD SWAP2 MSTORE SWAP1 PUSH1 0x0 DUP1 MLOAD PUSH1 0x20 PUSH2 0x3958 DUP4 CODECOPY DUP2 MLOAD SWAP2 MSTORE SWAP1 PUSH1 0xFF AND PUSH2 0x2D56 JUMPI DUP2 DUP5 MSTORE PUSH1 0x20 MSTORE PUSH1 0x40 DUP4 KECCAK256 DUP3 DUP5 MSTORE PUSH1 0x20 MSTORE PUSH1 0x40 DUP4 KECCAK256 PUSH1 0x1 PUSH1 0xFF NOT DUP3 SLOAD AND OR SWAP1 SSTORE PUSH1 0x0 DUP1 MLOAD PUSH1 0x20 PUSH2 0x3838 DUP4 CODECOPY DUP2 MLOAD SWAP2 MSTORE CALLER SWAP4 DUP1 LOG4 PUSH1 0x1 SWAP1 JUMP JUMPDEST PUSH1 0x1 PUSH1 0x1 PUSH1 0xA0 SHL SUB AND PUSH1 0x0 DUP2 DUP2 MSTORE PUSH32 0x549FE2656C81D2947B3B913F0A53B9EA86C71E049F3A1B8AA23C09A8A05CB8D4 PUSH1 0x20 MSTORE PUSH1 0x40 DUP2 KECCAK256 SLOAD SWAP1 SWAP2 SWAP1 PUSH32 0x9F2DF0FED2C77648DE5860A4CC508CD0818C85B8B8A1AB4CEEEF8D981C8956A6 SWAP1 PUSH1 0x0 DUP1 MLOAD PUSH1 0x20 PUSH2 0x3958 DUP4 CODECOPY DUP2 MLOAD SWAP2 MSTORE SWAP1 PUSH1 0xFF AND PUSH2 0x2D56 JUMPI DUP2 DUP5 MSTORE PUSH1 0x20 MSTORE PUSH1 0x40 DUP4 KECCAK256 DUP3 DUP5 MSTORE PUSH1 0x20 MSTORE PUSH1 0x40 DUP4 KECCAK256 PUSH1 0x1 PUSH1 0xFF NOT DUP3 SLOAD AND OR SWAP1 SSTORE PUSH1 0x0 DUP1 MLOAD PUSH1 0x20 PUSH2 0x3838 DUP4 CODECOPY DUP2 MLOAD SWAP2 MSTORE CALLER SWAP4 DUP1 LOG4 PUSH1 0x1 SWAP1 JUMP JUMPDEST PUSH1 0x1 PUSH1 0x1 PUSH1 0xA0 SHL SUB AND PUSH1 0x0 DUP2 DUP2 MSTORE PUSH32 0xD17A96B5AB97BAEB5ABD2AFF3D879F3AE21BDF0A88374FF422DDD156525D2A07 PUSH1 0x20 MSTORE PUSH1 0x40 DUP2 KECCAK256 SLOAD SWAP1 SWAP2 SWAP1 PUSH32 0x365FCCB66C62533AD1447FEC73F7B764CF03AC69D512070F7C0AA889025CEC19 SWAP1 PUSH1 0x0 DUP1 MLOAD PUSH1 0x20 PUSH2 0x3958 DUP4 CODECOPY DUP2 MLOAD SWAP2 MSTORE SWAP1 PUSH1 0xFF AND PUSH2 0x2D56 JUMPI DUP2 DUP5 MSTORE PUSH1 0x20 MSTORE PUSH1 0x40 DUP4 KECCAK256 DUP3 DUP5 MSTORE PUSH1 0x20 MSTORE PUSH1 0x40 DUP4 KECCAK256 PUSH1 0x1 PUSH1 0xFF NOT DUP3 SLOAD AND OR SWAP1 SSTORE PUSH1 0x0 DUP1 MLOAD PUSH1 0x20 PUSH2 0x3838 DUP4 CODECOPY DUP2 MLOAD SWAP2 MSTORE CALLER SWAP4 DUP1 LOG4 PUSH1 0x1 SWAP1 JUMP JUMPDEST PUSH1 0x1 PUSH1 0x1 PUSH1 0xA0 SHL SUB AND PUSH1 0x0 DUP2 DUP2 MSTORE PUSH32 0x95DDA6C6F31EA0C92078AACA3A510DC395BC467E87B1D2BE7F9E24C15AAFF99A PUSH1 0x20 MSTORE PUSH1 0x40 DUP2 KECCAK256 SLOAD SWAP1 SWAP2 SWAP1 PUSH32 0xBF8B034AF7A434C44D9299A66A1071085478BB9A7FDC1F0EBCB5D36DC76F02B2 SWAP1 PUSH1 0x0 DUP1 MLOAD PUSH1 0x20 PUSH2 0x3958 DUP4 CODECOPY DUP2 MLOAD SWAP2 MSTORE SWAP1 PUSH1 0xFF AND PUSH2 0x2D56 JUMPI DUP2 DUP5 MSTORE PUSH1 0x20 MSTORE PUSH1 0x40 DUP4 KECCAK256 DUP3 DUP5 MSTORE PUSH1 0x20 MSTORE PUSH1 0x40 DUP4 KECCAK256 PUSH1 0x1 PUSH1 0xFF NOT DUP3 SLOAD AND OR SWAP1 SSTORE PUSH1 0x0 DUP1 MLOAD PUSH1 0x20 PUSH2 0x3838 DUP4 CODECOPY DUP2 MLOAD SWAP2 MSTORE CALLER SWAP4 DUP1 LOG4 PUSH1 0x1 SWAP1 JUMP JUMPDEST SWAP1 PUSH1 0x0 SWAP2 DUP1 DUP4 MSTORE PUSH1 0x0 DUP1 MLOAD PUSH1 0x20 PUSH2 0x3958 DUP4 CODECOPY DUP2 MLOAD SWAP2 MSTORE DUP1 PUSH1 0x20 MSTORE PUSH1 0x40 DUP5 KECCAK256 SWAP3 PUSH1 0x1 DUP1 PUSH1 0xA0 SHL SUB AND SWAP3 DUP4 DUP6 MSTORE PUSH1 0x20 MSTORE PUSH1 0xFF PUSH1 0x40 DUP6 KECCAK256 SLOAD AND ISZERO PUSH1 0x0 EQ PUSH2 0x2D56 JUMPI DUP2 DUP5 MSTORE PUSH1 0x20 MSTORE PUSH1 0x40 DUP4 KECCAK256 DUP3 DUP5 MSTORE PUSH1 0x20 MSTORE PUSH1 0x40 DUP4 KECCAK256 PUSH1 0x1 PUSH1 0xFF NOT DUP3 SLOAD AND OR SWAP1 SSTORE PUSH1 0x0 DUP1 MLOAD PUSH1 0x20 PUSH2 0x3838 DUP4 CODECOPY DUP2 MLOAD SWAP2 MSTORE CALLER SWAP4 DUP1 LOG4 PUSH1 0x1 SWAP1 JUMP JUMPDEST SWAP2 PUSH1 0x1 PUSH1 0x1 PUSH1 0xA0 SHL SUB DUP1 DUP5 AND SWAP3 DUP4 ISZERO PUSH2 0x3210 JUMPI AND SWAP3 DUP4 ISZERO PUSH2 0x1CFB JUMPI PUSH1 0xFF PUSH1 0x0 DUP1 MLOAD PUSH1 0x20 PUSH2 0x3998 DUP4 CODECOPY DUP2 MLOAD SWAP2 MSTORE SLOAD AND PUSH2 0x31D2 JUMPI PUSH1 0x0 SWAP1 DUP4 DUP3 MSTORE PUSH1 0x0 DUP1 MLOAD PUSH1 0x20 PUSH2 0x3898 DUP4 CODECOPY DUP2 MLOAD SWAP2 MSTORE DUP1 PUSH1 0x20 MSTORE PUSH1 0x40 DUP4 KECCAK256 SLOAD SWAP2 DUP5 DUP4 LT PUSH2 0x319F JUMPI POP DUP3 DUP5 PUSH32 0xDDF252AD1BE2C89B69C2B068FC378DAA952BA7F163C4A11628F55A4DF523B3EF SWAP6 SWAP4 PUSH1 0x40 SWAP4 DUP9 PUSH1 0x20 SWAP8 MSTORE DUP7 MSTORE SUB DUP3 DUP3 KECCAK256 SSTORE DUP7 DUP2 MSTORE KECCAK256 DUP2 DUP2 SLOAD ADD SWAP1 SSTORE PUSH1 0x40 MLOAD SWAP1 DUP2 MSTORE LOG3 JUMP JUMPDEST PUSH1 0x40 MLOAD PUSH4 0x391434E3 PUSH1 0xE2 SHL DUP2 MSTORE PUSH1 0x1 PUSH1 0x1 PUSH1 0xA0 SHL SUB SWAP2 SWAP1 SWAP2 AND PUSH1 0x4 DUP3 ADD MSTORE PUSH1 0x24 DUP2 ADD SWAP3 SWAP1 SWAP3 MSTORE POP PUSH1 0x44 DUP2 ADD DUP4 SWAP1 MSTORE PUSH1 0x64 SWAP1 REVERT JUMPDEST PUSH1 0x40 MLOAD PUSH3 0x461BCD PUSH1 0xE5 SHL DUP2 MSTORE PUSH1 0x20 PUSH1 0x4 DUP3 ADD MSTORE PUSH1 0x16 PUSH1 0x24 DUP3 ADD MSTORE PUSH22 0x151BDAD95B881D1C985B9CD9995C9CC81C185D5CD959 PUSH1 0x52 SHL PUSH1 0x44 DUP3 ADD MSTORE PUSH1 0x64 SWAP1 REVERT JUMPDEST PUSH1 0x40 MLOAD PUSH4 0x4B637E8F PUSH1 0xE1 SHL DUP2 MSTORE PUSH1 0x0 PUSH1 0x4 DUP3 ADD MSTORE PUSH1 0x24 SWAP1 REVERT JUMPDEST PUSH1 0x1 PUSH1 0x1 PUSH1 0xA0 SHL SUB AND PUSH1 0x0 DUP2 DUP2 MSTORE PUSH32 0xB7DB2DD08FCB62D0C9E08C51941CAE53C267786A0B75803FB7960902FC8EF97D PUSH1 0x20 MSTORE PUSH1 0x40 DUP2 KECCAK256 SLOAD SWAP1 SWAP2 SWAP1 PUSH1 0x0 DUP1 MLOAD PUSH1 0x20 PUSH2 0x3958 DUP4 CODECOPY DUP2 MLOAD SWAP2 MSTORE SWAP1 PUSH1 0xFF AND ISZERO PUSH2 0x2CB9 JUMPI DUP3 DUP1 MSTORE PUSH1 0x20 MSTORE PUSH1 0x40 DUP3 KECCAK256 DUP2 DUP4 MSTORE PUSH1 0x20 MSTORE PUSH1 0x40 DUP3 KECCAK256 PUSH1 0xFF NOT DUP2 SLOAD AND SWAP1 SSTORE CALLER SWAP2 PUSH1 0x0 DUP1 MLOAD PUSH1 0x20 PUSH2 0x3978 DUP4 CODECOPY DUP2 MLOAD SWAP2 MSTORE DUP2 DUP1 LOG4 PUSH1 0x1 SWAP1 JUMP JUMPDEST PUSH1 0x1 PUSH1 0x1 PUSH1 0xA0 SHL SUB AND PUSH1 0x0 DUP2 DUP2 MSTORE PUSH32 0xBE278F4AD0972113A7BD5492B4CD8A33CAFC699350AC844C18227CD07E8A09D PUSH1 0x20 MSTORE PUSH1 0x40 DUP2 KECCAK256 SLOAD SWAP1 SWAP2 SWAP1 PUSH1 0x0 DUP1 MLOAD PUSH1 0x20 PUSH2 0x39F8 DUP4 CODECOPY DUP2 MLOAD SWAP2 MSTORE SWAP1 PUSH1 0x0 DUP1 MLOAD PUSH1 0x20 PUSH2 0x3958 DUP4 CODECOPY DUP2 MLOAD SWAP2 MSTORE SWAP1 PUSH1 0xFF AND ISZERO PUSH2 0x2D56 JUMPI DUP2 DUP5 MSTORE PUSH1 0x20 MSTORE PUSH1 0x40 DUP4 KECCAK256 DUP3 DUP5 MSTORE PUSH1 0x20 MSTORE PUSH1 0x40 DUP4 KECCAK256 PUSH1 0xFF NOT DUP2 SLOAD AND SWAP1 SSTORE PUSH1 0x0 DUP1 MLOAD PUSH1 0x20 PUSH2 0x3978 DUP4 CODECOPY DUP2 MLOAD SWAP2 MSTORE CALLER SWAP4 DUP1 LOG4 PUSH1 0x1 SWAP1 JUMP JUMPDEST PUSH1 0x1 PUSH1 0x1 PUSH1 0xA0 SHL SUB AND PUSH1 0x0 DUP2 DUP2 MSTORE PUSH32 0x1DD8DA7456500296E75257D3F7B15F593A25957EA0A2CFBC125D925064C64414 PUSH1 0x20 MSTORE PUSH1 0x40 DUP2 KECCAK256 SLOAD SWAP1 SWAP2 SWAP1 PUSH1 0x0 DUP1 MLOAD PUSH1 0x20 PUSH2 0x3A58 DUP4 CODECOPY DUP2 MLOAD SWAP2 MSTORE SWAP1 PUSH1 0x0 DUP1 MLOAD PUSH1 0x20 PUSH2 0x3958 DUP4 CODECOPY DUP2 MLOAD SWAP2 MSTORE SWAP1 PUSH1 0xFF AND ISZERO PUSH2 0x2D56 JUMPI DUP2 DUP5 MSTORE PUSH1 0x20 MSTORE PUSH1 0x40 DUP4 KECCAK256 DUP3 DUP5 MSTORE PUSH1 0x20 MSTORE PUSH1 0x40 DUP4 KECCAK256 PUSH1 0xFF NOT DUP2 SLOAD AND SWAP1 SSTORE PUSH1 0x0 DUP1 MLOAD PUSH1 0x20 PUSH2 0x3978 DUP4 CODECOPY DUP2 MLOAD SWAP2 MSTORE CALLER SWAP4 DUP1 LOG4 PUSH1 0x1 SWAP1 JUMP JUMPDEST PUSH1 0x1 PUSH1 0x1 PUSH1 0xA0 SHL SUB AND PUSH1 0x0 DUP2 DUP2 MSTORE PUSH32 0xAB71E3F32666744D246EDFF3F96E4BDAFEE2E9867098CDD118A979A7464786A8 PUSH1 0x20 MSTORE PUSH1 0x40 DUP2 KECCAK256 SLOAD SWAP1 SWAP2 SWAP1 PUSH1 0x0 DUP1 MLOAD PUSH1 0x20 PUSH2 0x3918 DUP4 CODECOPY DUP2 MLOAD SWAP2 MSTORE SWAP1 PUSH1 0x0 DUP1 MLOAD PUSH1 0x20 PUSH2 0x3958 DUP4 CODECOPY DUP2 MLOAD SWAP2 MSTORE SWAP1 PUSH1 0xFF AND ISZERO PUSH2 0x2D56 JUMPI DUP2 DUP5 MSTORE PUSH1 0x20 MSTORE PUSH1 0x40 DUP4 KECCAK256 DUP3 DUP5 MSTORE PUSH1 0x20 MSTORE PUSH1 0x40 DUP4 KECCAK256 PUSH1 0xFF NOT DUP2 SLOAD AND SWAP1 SSTORE PUSH1 0x0 DUP1 MLOAD PUSH1 0x20 PUSH2 0x3978 DUP4 CODECOPY DUP2 MLOAD SWAP2 MSTORE CALLER SWAP4 DUP1 LOG4 PUSH1 0x1 SWAP1 JUMP JUMPDEST SWAP1 PUSH1 0x0 SWAP2 DUP1 DUP4 MSTORE PUSH1 0x0 DUP1 MLOAD PUSH1 0x20 PUSH2 0x3958 DUP4 CODECOPY DUP2 MLOAD SWAP2 MSTORE DUP1 PUSH1 0x20 MSTORE PUSH1 0x40 DUP5 KECCAK256 SWAP3 PUSH1 0x1 DUP1 PUSH1 0xA0 SHL SUB AND SWAP3 DUP4 DUP6 MSTORE PUSH1 0x20 MSTORE PUSH1 0xFF PUSH1 0x40 DUP6 KECCAK256 SLOAD AND PUSH1 0x0 EQ PUSH2 0x2D56 JUMPI DUP2 DUP5 MSTORE PUSH1 0x20 MSTORE PUSH1 0x40 DUP4 KECCAK256 DUP3 DUP5 MSTORE PUSH1 0x20 MSTORE PUSH1 0x40 DUP4 KECCAK256 PUSH1 0xFF NOT DUP2 SLOAD AND SWAP1 SSTORE PUSH1 0x0 DUP1 MLOAD PUSH1 0x20 PUSH2 0x3978 DUP4 CODECOPY DUP2 MLOAD SWAP2 MSTORE CALLER SWAP4 DUP1 LOG4 PUSH1 0x1 SWAP1 JUMP JUMPDEST PUSH1 0xFF PUSH1 0x0 DUP1 MLOAD PUSH1 0x20 PUSH2 0x3998 DUP4 CODECOPY DUP2 MLOAD SWAP2 MSTORE SLOAD AND PUSH2 0x34FC JUMPI JUMP JUMPDEST PUSH1 0x40 MLOAD PUSH4 0xD93C0665 PUSH1 0xE0 SHL DUP2 MSTORE PUSH1 0x4 SWAP1 REVERT JUMPDEST SWAP2 PUSH1 0x1 PUSH1 0x1 PUSH1 0xA0 SHL SUB DUP1 DUP5 AND SWAP3 DUP4 ISZERO PUSH2 0x1620 JUMPI AND SWAP3 DUP4 ISZERO PUSH2 0x1607 JUMPI PUSH32 0x8C5BE1E5EBEC7D5BD14F71427D1E84F3DD0314C0F7B2291E5B200AC8C7C3B925 SWAP2 PUSH2 0x3556 PUSH1 0x20 SWAP3 PUSH2 0x2ABA JUMP JUMPDEST DUP6 PUSH1 0x0 MSTORE DUP3 MSTORE DUP1 PUSH1 0x40 PUSH1 0x0 KECCAK256 SSTORE PUSH1 0x40 MLOAD SWAP1 DUP2 MSTORE LOG3 JUMP JUMPDEST PUSH1 0xFF PUSH1 0x0 DUP1 MLOAD PUSH1 0x20 PUSH2 0x3A18 DUP4 CODECOPY DUP2 MLOAD SWAP2 MSTORE SLOAD PUSH1 0x40 SHR AND ISZERO PUSH2 0x3589 JUMPI JUMP JUMPDEST PUSH1 0x40 MLOAD PUSH4 0x1AFCD79F PUSH1 0xE3 SHL DUP2 MSTORE PUSH1 0x4 SWAP1 REVERT JUMPDEST PUSH2 0x35A3 PUSH2 0x3725 JUMP JUMPDEST PUSH2 0x35AB PUSH2 0x378F JUMP JUMPDEST PUSH1 0x40 MLOAD SWAP1 PUSH1 0x20 DUP3 ADD SWAP3 PUSH32 0x8B73C3C69BB8FE3D512ECC4CF759CC79239F7B179B0FFACAA9A75D522B39400F DUP5 MSTORE PUSH1 0x40 DUP4 ADD MSTORE PUSH1 0x60 DUP3 ADD MSTORE CHAINID PUSH1 0x80 DUP3 ADD MSTORE ADDRESS PUSH1 0xA0 DUP3 ADD MSTORE PUSH1 0xA0 DUP2 MSTORE PUSH1 0xC0 DUP2 ADD DUP2 DUP2 LT PUSH1 0x1 PUSH1 0x1 PUSH1 0x40 SHL SUB DUP3 GT OR PUSH2 0x613 JUMPI PUSH1 0x40 MSTORE MLOAD SWAP1 KECCAK256 SWAP1 JUMP JUMPDEST SWAP2 SWAP1 PUSH32 0x7FFFFFFFFFFFFFFFFFFFFFFFFFFFFFFF5D576E7357A4501DDFE92F46681B20A0 DUP5 GT PUSH2 0x3694 JUMPI SWAP3 PUSH1 0x20 SWAP3 SWAP2 PUSH1 0xFF PUSH1 0x80 SWAP6 PUSH1 0x40 MLOAD SWAP5 DUP6 MSTORE AND DUP5 DUP5 ADD MSTORE PUSH1 0x40 DUP4 ADD MSTORE PUSH1 0x60 DUP3 ADD MSTORE PUSH1 0x0 SWAP3 DUP4 SWAP2 DUP3 DUP1 MSTORE PUSH1 0x1 GAS STATICCALL ISZERO PUSH2 0x3688 JUMPI DUP1 MLOAD PUSH1 0x1 PUSH1 0x1 PUSH1 0xA0 SHL SUB DUP2 AND ISZERO PUSH2 0x367F JUMPI SWAP2 DUP2 SWAP1 JUMP JUMPDEST POP DUP1 SWAP2 PUSH1 0x1 SWAP2 SWAP1 JUMP JUMPDEST PUSH1 0x40 MLOAD SWAP1 RETURNDATASIZE SWAP1 DUP3 RETURNDATACOPY RETURNDATASIZE SWAP1 REVERT JUMPDEST POP POP POP PUSH1 0x0 SWAP2 PUSH1 0x3 SWAP2 SWAP1 JUMP JUMPDEST PUSH1 0x4 DUP2 LT ISZERO PUSH2 0x370F JUMPI DUP1 PUSH2 0x36B2 JUMPI POP POP JUMP JUMPDEST PUSH1 0x1 DUP2 SUB PUSH2 0x36CC JUMPI PUSH1 0x40 MLOAD PUSH4 0xF645EEDF PUSH1 0xE0 SHL DUP2 MSTORE PUSH1 0x4 SWAP1 REVERT JUMPDEST PUSH1 0x2 DUP2 SUB PUSH2 0x36ED JUMPI PUSH1 0x40 MLOAD PUSH4 0xFCE698F7 PUSH1 0xE0 SHL DUP2 MSTORE PUSH1 0x4 DUP2 ADD DUP4 SWAP1 MSTORE PUSH1 0x24 SWAP1 REVERT JUMPDEST PUSH1 0x3 EQ PUSH2 0x36F7 JUMPI POP JUMP JUMPDEST PUSH1 0x24 SWAP1 PUSH1 0x40 MLOAD SWAP1 PUSH4 0x35E2F383 PUSH1 0xE2 SHL DUP3 MSTORE PUSH1 0x4 DUP3 ADD MSTORE REVERT JUMPDEST PUSH4 0x4E487B71 PUSH1 0xE0 SHL PUSH1 0x0 MSTORE PUSH1 0x21 PUSH1 0x4 MSTORE PUSH1 0x24 PUSH1 0x0 REVERT JUMPDEST PUSH2 0x372D PUSH2 0x27F1 JUMP JUMPDEST DUP1 MLOAD SWAP1 DUP2 ISZERO PUSH2 0x373D JUMPI PUSH1 0x20 ADD KECCAK256 SWAP1 JUMP JUMPDEST POP POP PUSH32 0xA16A46D94261C7517CC8FF89F61C0CE93598E3C849801011DEE649A6A557D100 SLOAD DUP1 ISZERO PUSH2 0x376A JUMPI SWAP1 JUMP JUMPDEST POP PUSH32 0xC5D2460186F7233C927E7DB2DCC703C0E500B653CA82273B7BFAD8045D85A470 SWAP1 JUMP JUMPDEST PUSH2 0x3797 PUSH2 0x28B7 JUMP JUMPDEST DUP1 MLOAD SWAP1 DUP2 ISZERO PUSH2 0x37A7 JUMPI PUSH1 0x20 ADD KECCAK256 SWAP1 JUMP JUMPDEST POP POP PUSH32 0xA16A46D94261C7517CC8FF89F61C0CE93598E3C849801011DEE649A6A557D101 SLOAD DUP1 ISZERO PUSH2 0x376A JUMPI SWAP1 JUMP JUMPDEST SWAP1 PUSH2 0x37FB JUMPI POP DUP1 MLOAD ISZERO PUSH2 0x37E9 JUMPI PUSH1 0x20 DUP2 MLOAD SWAP2 ADD REVERT JUMPDEST PUSH1 0x40 MLOAD PUSH4 0xD6BDA275 PUSH1 0xE0 SHL DUP2 MSTORE PUSH1 0x4 SWAP1 REVERT JUMPDEST DUP2 MLOAD ISZERO DUP1 PUSH2 0x382E JUMPI JUMPDEST PUSH2 0x380C JUMPI POP SWAP1 JUMP JUMPDEST PUSH1 0x40 MLOAD PUSH4 0x9996B315 PUSH1 0xE0 SHL DUP2 MSTORE PUSH1 0x1 PUSH1 0x1 PUSH1 0xA0 SHL SUB SWAP1 SWAP2 AND PUSH1 0x4 DUP3 ADD MSTORE PUSH1 0x24 SWAP1 REVERT JUMPDEST POP DUP1 EXTCODESIZE ISZERO PUSH2 0x3804 JUMP INVALID 0x2F DUP8 DUP9 GT PUSH31 0x7EFF1D82E926EC794901D17C78024A50270940304540A733656F0D2AE08A8E 0x29 0x25 EXTCODEHASH PUSH10 0xAC5D979A101956AB8F8D SWAP14 PUSH30 0xED63FA7A83B16FC47648EAB052C63247E1F47DB19D5CE0460030C497F067 0xCA 0x4C 0xEB 0xF7 SHL 0xA9 DUP15 0xEA 0xDA 0xBE KECCAK256 0xBA 0xCE SUB MSTORE 0xC6 ORIGIN SELFBALANCE 0xE1 DELEGATECALL PUSH30 0xB19D5CE0460030C497F067CA4CEBF71BA98EEADABE20BACE00A16A46D942 PUSH2 0xC751 PUSH29 0xC8FF89F61C0CE93598E3C849801011DEE649A6A557D10252C63247E1F4 PUSH30 0xB19D5CE0460030C497F067CA4CEBF71BA98EEADABE20BACE04A16A46D942 PUSH2 0xC751 PUSH29 0xC8FF89F61C0CE93598E3C849801011DEE649A6A557D103189AB7A9244D CREATE DUP5 DUP2 0x22 ISZERO NUMBER ISZERO 0xAF PUSH18 0xFE140F3DB0FE014031783B0946B8C9D2E342 0xAD 0x5D RETURNDATACOPY 0x1F 0x2E PUSH15 0x70EDCF6D991B8A3023D3FCA8047A13 ISZERO SWAP3 0xF9 0xED 0xB9 REVERT SWAP12 DUP10 0xD5 PUSH30 0x2DD7BC7DEC4DCEEDDA775E58DD541E08A116C6C53815C0BD028192F7B62 PUSH9 0xF6391F5C32D9C69D 0x2A SELFBALANCE 0xEA PUSH8 0xB442974B53935D1 0xED 0xC7 REVERT PUSH5 0xEB21E047A8 CODECOPY OR SHL 0xCD 0x5E 0xD1 0x5C PUSH15 0x187E77E9AEE88184C21F4F2182AB58 0x27 0xCB EXTCODESIZE PUSH31 0x7FBEDCD63F0330046A2803E59A4DE4E7A4C574B1243F25977AC4C77D5A1A4 0xA6 MULMOD 0xB5 CODECOPY 0x4C 0xEB 0xB4 LOG2 0xAA SWAP12 PUSH24 0x9B17422D0DF92223018B32B4D1FA46E071723D6817E2486D STOP EXTCODESIZE 0xEC 0xC5 PUSH0 STOP EXP 0xCF DUP1 JUMP STOP SLT RETURNDATACOPY CREATE SMOD MULMOD SAR LOG3 0xB3 SELFDESTRUCT 0xB3 SWAP5 PUSH21 0x74C656C127AA68CB0FFEC232A8FF8F0C57E16840D CREATE BLOCKHASH CALL POP DUP9 0xDC 0x2F DUP2 INVALID CODECOPY SHR CODECOPY 0x23 0xBE 0xC7 RETURNDATACOPY 0x23 0xA9 PUSH7 0x2EFC9C229C6A00 PUSH0 SWAP13 0xE3 BASEFEE ISZERO 0xF8 0xE1 EQ BALANCE 0xC7 0xBB PUSH22 0xA8E6886A91478F7FFC1DBB0A98DC240FDDD76B753781 0xC3 CALLDATACOPY 0xE0 MLOAD 0x28 0xE8 0xC8 SWAP6 0x28 0xEF MULMOD ADDMOD 0x5E CODECOPY SUB 0xDC 0xE1 PUSH26 0xDF4F50758529E64CB759D09AA264697066735822122070035E06 PUSH9 0xCD07EC460F11462B9D PUSH17 0x2188AD4B862CFB612A2C9ECC70C715344F PUSH5 0x736F6C6343 STOP ADDMOD AND STOP CALLER "},"methodIdentifiers":{"ADMIN_PAUSER_ROLE()":"42275c59","BOT_PAUSER_ROLE()":"0b06806a","DEFAULT_ADMIN_ROLE()":"a217fddf","DOMAIN_SEPARATOR()":"3644e515","MAX_SUPPLY()":"32cb6b0c","MINTER_ROLE()":"d5391393","RECOVERY_ROLE()":"31993a1c","UPGRADER_ADMIN_ROLE()":"7455202e","UPGRADER_ROLE()":"f72c0d8b","UPGRADE_INTERFACE_VERSION()":"ad3cb1cc","allowance(address,address)":"dd62ed3e","approve(address,uint256)":"095ea7b3","balanceOf(address)":"70a08231","cap()":"355274ea","decimals()":"313ce567","eip712Domain()":"84b0196e","getRoleAdmin(bytes32)":"248a9ca3","grantRole(bytes32,address)":"2f2ff15d","hasRole(bytes32,address)":"91d14854","initialize(address,address,address,address,address)":"1459457a","isCapImmutable()":"809c585c","migrateRoles(address,address,address)":"ed686a0c","migrated()":"2c678c64","mint(address,uint256)":"40c10f19","name()":"06fdde03","nonces(address)":"7ecebe00","pause()":"8456cb59","paused()":"5c975abb","permit(address,address,uint256,uint256,uint8,bytes32,bytes32)":"d505accf","proxiableUUID()":"52d1902d","recoverERC20(address,address,uint256)":"1171bda9","recoverETH(address,uint256)":"3e0c0629","renounceRole(bytes32,address)":"36568abe","revokeRole(bytes32,address)":"d547741f","supportsInterface(bytes4)":"01ffc9a7","symbol()":"95d89b41","totalSupply()":"18160ddd","transfer(address,uint256)":"a9059cbb","transferFrom(address,address,uint256)":"23b872dd","treasury()":"61d027b3","unpause()":"3f4ba83a","updateTreasury(address)":"7f51bb1f","upgradeToAndCall(address,bytes)":"4f1ef286"}},"storageLayout":{"storage":[{"astId":9195,"contract":"contracts/NEBA.sol:NEBA","label":"treasury","offset":0,"slot":"0","type":"t_address"},{"astId":9197,"contract":"contracts/NEBA.sol:NEBA","label":"migrated","offset":20,"slot":"0","type":"t_bool"},{"astId":9908,"contract":"contracts/NEBA.sol:NEBA","label":"__gap","offset":0,"slot":"1","type":"t_array(t_uint256)50_storage"}],"types":{"t_address":{"encoding":"inplace","label":"address","numberOfBytes":"20"},"t_array(t_uint256)50_storage":{"base":"t_uint256","encoding":"inplace","label":"uint256[50]","numberOfBytes":"1600"},"t_bool":{"encoding":"inplace","label":"bool","numberOfBytes":"1"},"t_uint256":{"encoding":"inplace","label":"uint256","numberOfBytes":"32"}}}}}}