{"contracts/TransferHook.sol":{"TransferHook":{"abi":[{"inputs":[],"name":"AccessControlBadConfirmation","type":"error"},{"inputs":[{"internalType":"address","name":"account","type":"address"},{"internalType":"bytes32","name":"neededRole","type":"bytes32"}],"name":"AccessControlUnauthorizedAccount","type":"error"},{"inputs":[],"name":"AddressBlacklisted","type":"error"},{"inputs":[],"name":"HooksDisabled","type":"error"},{"inputs":[],"name":"InvalidInitialization","type":"error"},{"inputs":[],"name":"NotInitializing","type":"error"},{"inputs":[],"name":"TransferAmountBelowMinimum","type":"error"},{"inputs":[],"name":"TransferAmountExceedsLimit","type":"error"},{"inputs":[],"name":"UnauthorizedCaller","type":"error"},{"anonymous":false,"inputs":[{"indexed":true,"internalType":"address","name":"account","type":"address"},{"indexed":false,"internalType":"bool","name":"blacklisted","type":"bool"}],"name":"BlacklistUpdated","type":"event"},{"anonymous":false,"inputs":[{"indexed":false,"internalType":"bool","name":"enabled","type":"bool"}],"name":"HooksToggled","type":"event"},{"anonymous":false,"inputs":[{"indexed":false,"internalType":"uint64","name":"version","type":"uint64"}],"name":"Initialized","type":"event"},{"anonymous":false,"inputs":[{"indexed":false,"internalType":"uint256","name":"maxAmount","type":"uint256"},{"indexed":false,"internalType":"uint256","name":"minAmount","type":"uint256"}],"name":"LimitsUpdated","type":"event"},{"anonymous":false,"inputs":[{"indexed":true,"internalType":"bytes32","name":"role","type":"bytes32"},{"indexed":true,"internalType":"bytes32","name":"previousAdminRole","type":"bytes32"},{"indexed":true,"internalType":"bytes32","name":"newAdminRole","type":"bytes32"}],"name":"RoleAdminChanged","type":"event"},{"anonymous":false,"inputs":[{"indexed":true,"internalType":"bytes32","name":"role","type":"bytes32"},{"indexed":true,"internalType":"address","name":"account","type":"address"},{"indexed":true,"internalType":"address","name":"sender","type":"address"}],"name":"RoleGranted","type":"event"},{"anonymous":false,"inputs":[{"indexed":true,"internalType":"bytes32","name":"role","type":"bytes32"},{"indexed":true,"internalType":"address","name":"account","type":"address"},{"indexed":true,"internalType":"address","name":"sender","type":"address"}],"name":"RoleRevoked","type":"event"},{"anonymous":false,"inputs":[{"indexed":true,"internalType":"address","name":"from","type":"address"},{"indexed":true,"internalType":"address","name":"to","type":"address"},{"indexed":false,"internalType":"uint256","name":"amount","type":"uint256"},{"indexed":false,"internalType":"uint256","name":"timestamp","type":"uint256"}],"name":"TransferExecuted","type":"event"},{"anonymous":false,"inputs":[{"indexed":true,"internalType":"address","name":"account","type":"address"},{"indexed":false,"internalType":"bool","name":"whitelisted","type":"bool"},{"indexed":false,"internalType":"bool","name":"isSender","type":"bool"}],"name":"WhitelistUpdated","type":"event"},{"inputs":[],"name":"DEFAULT_ADMIN_ROLE","outputs":[{"internalType":"bytes32","name":"","type":"bytes32"}],"stateMutability":"view","type":"function"},{"inputs":[],"name":"HOOK_MANAGER_ROLE","outputs":[{"internalType":"bytes32","name":"","type":"bytes32"}],"stateMutability":"view","type":"function"},{"inputs":[{"internalType":"address","name":"from","type":"address"},{"internalType":"address","name":"to","type":"address"},{"internalType":"uint256","name":"amount","type":"uint256"}],"name":"afterTransfer","outputs":[],"stateMutability":"nonpayable","type":"function"},{"inputs":[{"internalType":"address","name":"from","type":"address"},{"internalType":"address","name":"to","type":"address"},{"internalType":"uint256","name":"amount","type":"uint256"}],"name":"beforeTransfer","outputs":[],"stateMutability":"view","type":"function"},{"inputs":[{"internalType":"address","name":"","type":"address"}],"name":"blacklistedAddresses","outputs":[{"internalType":"bool","name":"","type":"bool"}],"stateMutability":"view","type":"function"},{"inputs":[{"internalType":"bytes32","name":"role","type":"bytes32"}],"name":"getRoleAdmin","outputs":[{"internalType":"bytes32","name":"","type":"bytes32"}],"stateMutability":"view","type":"function"},{"inputs":[{"internalType":"address","name":"account","type":"address"}],"name":"getTransferStats","outputs":[{"internalType":"uint256","name":"count","type":"uint256"},{"internalType":"uint256","name":"total","type":"uint256"},{"internalType":"uint256","name":"lastTime","type":"uint256"}],"stateMutability":"view","type":"function"},{"inputs":[{"internalType":"bytes32","name":"role","type":"bytes32"},{"internalType":"address","name":"account","type":"address"}],"name":"grantRole","outputs":[],"stateMutability":"nonpayable","type":"function"},{"inputs":[{"internalType":"bytes32","name":"role","type":"bytes32"},{"internalType":"address","name":"account","type":"address"}],"name":"hasRole","outputs":[{"internalType":"bool","name":"","type":"bool"}],"stateMutability":"view","type":"function"},{"inputs":[],"name":"hooksEnabled","outputs":[{"internalType":"bool","name":"","type":"bool"}],"stateMutability":"view","type":"function"},{"inputs":[{"internalType":"address","name":"admin","type":"address"},{"internalType":"uint256","name":"_maxTransferAmount","type":"uint256"},{"internalType":"uint256","name":"_minTransferAmount","type":"uint256"}],"name":"initialize","outputs":[],"stateMutability":"nonpayable","type":"function"},{"inputs":[{"internalType":"address","name":"account","type":"address"}],"name":"isBlacklisted","outputs":[{"internalType":"bool","name":"","type":"bool"}],"stateMutability":"view","type":"function"},{"inputs":[{"internalType":"address","name":"account","type":"address"}],"name":"isWhitelistedReceiver","outputs":[{"internalType":"bool","name":"","type":"bool"}],"stateMutability":"view","type":"function"},{"inputs":[{"internalType":"address","name":"account","type":"address"}],"name":"isWhitelistedSender","outputs":[{"internalType":"bool","name":"","type":"bool"}],"stateMutability":"view","type":"function"},{"inputs":[{"internalType":"address","name":"","type":"address"}],"name":"lastTransferTime","outputs":[{"internalType":"uint256","name":"","type":"uint256"}],"stateMutability":"view","type":"function"},{"inputs":[],"name":"maxTransferAmount","outputs":[{"internalType":"uint256","name":"","type":"uint256"}],"stateMutability":"view","type":"function"},{"inputs":[],"name":"minTransferAmount","outputs":[{"internalType":"uint256","name":"","type":"uint256"}],"stateMutability":"view","type":"function"},{"inputs":[{"internalType":"bytes32","name":"role","type":"bytes32"},{"internalType":"address","name":"callerConfirmation","type":"address"}],"name":"renounceRole","outputs":[],"stateMutability":"nonpayable","type":"function"},{"inputs":[{"internalType":"bytes32","name":"role","type":"bytes32"},{"internalType":"address","name":"account","type":"address"}],"name":"revokeRole","outputs":[],"stateMutability":"nonpayable","type":"function"},{"inputs":[{"internalType":"bytes4","name":"interfaceId","type":"bytes4"}],"name":"supportsInterface","outputs":[{"internalType":"bool","name":"","type":"bool"}],"stateMutability":"view","type":"function"},{"inputs":[],"name":"toggleHooks","outputs":[],"stateMutability":"nonpayable","type":"function"},{"inputs":[{"internalType":"address","name":"","type":"address"}],"name":"totalTransferred","outputs":[{"internalType":"uint256","name":"","type":"uint256"}],"stateMutability":"view","type":"function"},{"inputs":[{"internalType":"address","name":"","type":"address"}],"name":"transferCount","outputs":[{"internalType":"uint256","name":"","type":"uint256"}],"stateMutability":"view","type":"function"},{"inputs":[{"internalType":"address","name":"account","type":"address"},{"internalType":"bool","name":"blacklisted","type":"bool"}],"name":"updateBlacklist","outputs":[],"stateMutability":"nonpayable","type":"function"},{"inputs":[{"internalType":"uint256","name":"_maxTransferAmount","type":"uint256"},{"internalType":"uint256","name":"_minTransferAmount","type":"uint256"}],"name":"updateLimits","outputs":[],"stateMutability":"nonpayable","type":"function"},{"inputs":[{"internalType":"address","name":"account","type":"address"},{"internalType":"bool","name":"whitelisted","type":"bool"},{"internalType":"bool","name":"isSender","type":"bool"}],"name":"updateWhitelist","outputs":[],"stateMutability":"nonpayable","type":"function"},{"inputs":[{"internalType":"address","name":"","type":"address"}],"name":"whitelistedReceivers","outputs":[{"internalType":"bool","name":"","type":"bool"}],"stateMutability":"view","type":"function"},{"inputs":[{"internalType":"address","name":"","type":"address"}],"name":"whitelistedSenders","outputs":[{"internalType":"bool","name":"","type":"bool"}],"stateMutability":"view","type":"function"}],"evm":{"bytecode":{"linkReferences":{},"object":"6080806040523461001657610eac908161001c8239f35b600080fdfe608060408181526004918236101561001657600080fd5b600092833560e01c91826301ffc9a7146108d0575081630d2d8a31146108985781631b9e2fad1461080a5781631ffb811f14610880578163248a9ca314610848578163272efc691461080a5781632bedd955146107cf5781632dc74c20146107975781632f2ff15d1461076d57816336568abe1461072757816338e901b6146106ef57816340dfb1dc1461062457816365f6c6f51461040f57816368841431146106055781637a1ac61e146104a25781637e3b64511461044d578163851024041461040f5781639155e0831461039457816391d1485414610340578163a217fddf14610325578163a2240e19146102cd578163a8497870146102ab578163a9e757231461028d578163aff6c36a14610232578163d547741f146101e157508063d5749d42146101b7578063f49062ca146101995763fe575a871461015957600080fd5b346101955760203660031901126101955760209160ff9082906001600160a01b03610182610923565b1681526003855220541690519015158152f35b5080fd5b82346101b4576101b16101ab36610954565b91610a78565b80f35b80fd5b50346101955760203660031901126101955760209160ff9082906001600160a01b03610182610923565b9190503461022e578060031936011261022e5761022a9135610225600161020661093e565b93838752600080516020610e5783398151915260205286200154610bb7565b610dd3565b5080f35b8280fd5b50503461019557816003193601126101955760207fccccc2b9fbbc74545c7f9dac70ee99992ba9927917a3ad98439b8aecb678a43191610270610b3d565b83549060ff8083161516809260ff1916178555519015158152a180f35b90503461022e578260031936011261022e5760209250549051908152f35b50503461019557816003193601126101955760ff602092541690519015158152f35b9190503461022e578060031936011261022e57817f4d4981437d0211f9e6843eb024d9ada1fa3a99514d4343d4aece106dd11524bb9235908160243591610312610b3d565b558060055582519182526020820152a180f35b50503461019557816003193601126101955751908152602090f35b90503461022e578160031936011261022e578160209360ff9261036161093e565b90358252600080516020610e5783398151915286528282206001600160a01b039091168252855220549151911615158152f35b5050346101955780600319360112610195577f6a12b3df6cba4203bd7fd06b816789f87de8c594299aed5717ae070fac781bac60206103d1610923565b6103d9610989565b906103e2610b3d565b6001600160a01b031680865260038352848620805460ff191660ff8415151617905593519015158152a280f35b5050346101955760203660031901126101955760209160ff9082906001600160a01b0361043a610923565b1681526002855220541690519015158152f35b505034610195576020366003190112610195576060916001600160a01b03610473610923565b168152600660205281812054916007602052808083205492600860205220549181519384526020840152820152f35b90503461022e57606036600319011261022e576104bd610923565b7ff0c57e16840df040f15088dc2f81fe391c3923bec73e23a9662efc9c229c6a009182549160ff83861c16159267ffffffffffffffff8116801590816105fd575b60011490816105f3575b1590816105ea575b506105da5767ffffffffffffffff1981166001178555836105bb575b5060ff8454861c16156105ac578061054661054c92610bea565b50610c8a565b50845460ff19166001178555602435905560443560055561056b578280f35b805468ff00000000000000001916905551600181527fc7f505b2f371ae2175ee4913f4499e1f2633a7b5936321eed1cdaeb6115181d290602090a138808280f35b508351631afcd79f60e31b8152fd5b68ffffffffffffffffff1916680100000000000000011784553861052c565b855163f92ee8a960e01b81528390fd5b90501538610510565b303b159150610508565b8591506104fe565b5050346101955781600319360112610195576020906005549051908152f35b5050346101955760603660031901126101955761063f610923565b610647610989565b91604435918215158084036106eb577f855852ede06df792cbe12bbb8b292fd0d251a1dcfea1f072d5793f1930568ebf93610680610b3d565b156106c3576001600160a01b03821686526001602052828620805460ff191660ff871515161790555b8251941515855260208501526001600160a01b031692a280f35b6001600160a01b03821686526002602052828620805460ff191660ff871515161790556106a9565b8580fd5b5050346101955760203660031901126101955760209181906001600160a01b03610717610923565b1681526007845220549051908152f35b83833461019557806003193601126101955761074161093e565b90336001600160a01b0383160361075e575061022a919235610dd3565b5163334bd91960e11b81528390fd5b9190503461022e578060031936011261022e5761022a9135610792600161020661093e565b610d4c565b5050346101955760203660031901126101955760209181906001600160a01b036107bf610923565b1681526006845220549051908152f35b505034610195578160031936011261019557602090517f5e2eeb607131c4761f5374c6345d52581873680e97436d5d4763adb8eabe151e8152f35b5050346101955760203660031901126101955760209160ff9082906001600160a01b03610835610923565b1681526001855220541690519015158152f35b90503461022e57602036600319011261022e5781602093600192358152600080516020610e5783398151915285522001549051908152f35b83346101b4576101b161089236610954565b91610998565b5050346101955760203660031901126101955760209181906001600160a01b036108c0610923565b1681526008845220549051908152f35b84913461022e57602036600319011261022e573563ffffffff60e01b811680910361022e5760209250637965db0b60e01b8114908115610912575b5015158152f35b6301ffc9a760e01b1490508361090b565b600435906001600160a01b038216820361093957565b600080fd5b602435906001600160a01b038216820361093957565b6060906003190112610939576001600160a01b0390600435828116810361093957916024359081168103610939579060443590565b60243590811515820361093957565b60ff6000541615610a41576001600160a01b0390811660009081526003602052604090205460ff16918215610a2a575b5050610a18576004548111610a0657600554811090816109fc575b506109ea57565b604051630c9156bd60e21b8152600490fd5b90501515386109e3565b60405163092c644960e21b8152600490fd5b604051631f7b776b60e01b8152600490fd5b9091501660005260ff6040600020541638806109c8565b505050565b6000198114610a555760010190565b634e487b7160e01b600052601160045260246000fd5b91908201809211610a5557565b909160009260ff84541615610b37577f8e386ea29f37964fdbdb87193d773dea74e258b0f6108461c88c712051fb27bc9160018060a01b038094169384865260209060068252604093848820610ace8154610a46565b9055169586815260068252838120610ae68154610a46565b905585815260078252838120610afd848254610a6b565b905586815260078252838120610b14848254610a6b565b9055858152600882524284822055868152834291205582519182524290820152a3565b50505050565b3360009081527ff8fde46f3f6cfd0682a1d36d6f11cb582bfe7381d604f9632c25d17e31591e4360205260409020547f5e2eeb607131c4761f5374c6345d52581873680e97436d5d4763adb8eabe151e9060ff1615610b995750565b6044906040519063e2517d3f60e01b82523360048301526024820152fd5b80600052600080516020610e5783398151915260205260406000203360005260205260ff6040600020541615610b995750565b6001600160a01b031660008181527fb7db2dd08fcb62d0c9e08c51941cae53c267786a0b75803fb7960902fc8ef97d6020526040812054909190600080516020610e578339815191529060ff16610c85578280526020526040822081835260205260408220600160ff1982541617905533917f2f8788117e7eff1d82e926ec794901d17c78024a50270940304540a733656f0d8180a4600190565b505090565b6001600160a01b031660008181527ff8fde46f3f6cfd0682a1d36d6f11cb582bfe7381d604f9632c25d17e31591e4360205260408120549091907f5e2eeb607131c4761f5374c6345d52581873680e97436d5d4763adb8eabe151e90600080516020610e578339815191529060ff16610d46578184526020526040832082845260205260408320600160ff198254161790557f2f8788117e7eff1d82e926ec794901d17c78024a50270940304540a733656f0d339380a4600190565b50505090565b90600091808352600080516020610e5783398151915280602052604084209260018060a01b03169283855260205260ff60408520541615600014610d46578184526020526040832082845260205260408320600160ff198254161790557f2f8788117e7eff1d82e926ec794901d17c78024a50270940304540a733656f0d339380a4600190565b90600091808352600080516020610e5783398151915280602052604084209260018060a01b03169283855260205260ff604085205416600014610d4657818452602052604083208284526020526040832060ff1981541690557ff6391f5c32d9c69d2a47ea670b442974b53935d1edc7fd64eb21e047a839171b339380a460019056fe02dd7bc7dec4dceedda775e58dd541e08a116c6c53815c0bd028192f7b626800a2646970667358221220e7de7d587855841eb4b5d17adabea5f5222e73bb4daf6500c743b3133980d09464736f6c63430008160033","opcodes":"PUSH1 0x80 DUP1 PUSH1 0x40 MSTORE CALLVALUE PUSH2 0x16 JUMPI PUSH2 0xEAC SWAP1 DUP2 PUSH2 0x1C DUP3 CODECOPY RETURN JUMPDEST PUSH1 0x0 DUP1 REVERT INVALID PUSH1 0x80 PUSH1 0x40 DUP2 DUP2 MSTORE PUSH1 0x4 SWAP2 DUP3 CALLDATASIZE LT ISZERO PUSH2 0x16 JUMPI PUSH1 0x0 DUP1 REVERT JUMPDEST PUSH1 0x0 SWAP3 DUP4 CALLDATALOAD PUSH1 0xE0 SHR SWAP2 DUP3 PUSH4 0x1FFC9A7 EQ PUSH2 0x8D0 JUMPI POP DUP2 PUSH4 0xD2D8A31 EQ PUSH2 0x898 JUMPI DUP2 PUSH4 0x1B9E2FAD EQ PUSH2 0x80A JUMPI DUP2 PUSH4 0x1FFB811F EQ PUSH2 0x880 JUMPI DUP2 PUSH4 0x248A9CA3 EQ PUSH2 0x848 JUMPI DUP2 PUSH4 0x272EFC69 EQ PUSH2 0x80A JUMPI DUP2 PUSH4 0x2BEDD955 EQ PUSH2 0x7CF JUMPI DUP2 PUSH4 0x2DC74C20 EQ PUSH2 0x797 JUMPI DUP2 PUSH4 0x2F2FF15D EQ PUSH2 0x76D JUMPI DUP2 PUSH4 0x36568ABE EQ PUSH2 0x727 JUMPI DUP2 PUSH4 0x38E901B6 EQ PUSH2 0x6EF JUMPI DUP2 PUSH4 0x40DFB1DC EQ PUSH2 0x624 JUMPI DUP2 PUSH4 0x65F6C6F5 EQ PUSH2 0x40F JUMPI DUP2 PUSH4 0x68841431 EQ PUSH2 0x605 JUMPI DUP2 PUSH4 0x7A1AC61E EQ PUSH2 0x4A2 JUMPI DUP2 PUSH4 0x7E3B6451 EQ PUSH2 0x44D JUMPI DUP2 PUSH4 0x85102404 EQ PUSH2 0x40F JUMPI DUP2 PUSH4 0x9155E083 EQ PUSH2 0x394 JUMPI DUP2 PUSH4 0x91D14854 EQ PUSH2 0x340 JUMPI DUP2 PUSH4 0xA217FDDF EQ PUSH2 0x325 JUMPI DUP2 PUSH4 0xA2240E19 EQ PUSH2 0x2CD JUMPI DUP2 PUSH4 0xA8497870 EQ PUSH2 0x2AB JUMPI DUP2 PUSH4 0xA9E75723 EQ PUSH2 0x28D JUMPI DUP2 PUSH4 0xAFF6C36A EQ PUSH2 0x232 JUMPI DUP2 PUSH4 0xD547741F EQ PUSH2 0x1E1 JUMPI POP DUP1 PUSH4 0xD5749D42 EQ PUSH2 0x1B7 JUMPI DUP1 PUSH4 0xF49062CA EQ PUSH2 0x199 JUMPI PUSH4 0xFE575A87 EQ PUSH2 0x159 JUMPI PUSH1 0x0 DUP1 REVERT JUMPDEST CALLVALUE PUSH2 0x195 JUMPI PUSH1 0x20 CALLDATASIZE PUSH1 0x3 NOT ADD SLT PUSH2 0x195 JUMPI PUSH1 0x20 SWAP2 PUSH1 0xFF SWAP1 DUP3 SWAP1 PUSH1 0x1 PUSH1 0x1 PUSH1 0xA0 SHL SUB PUSH2 0x182 PUSH2 0x923 JUMP JUMPDEST AND DUP2 MSTORE PUSH1 0x3 DUP6 MSTORE KECCAK256 SLOAD AND SWAP1 MLOAD SWAP1 ISZERO ISZERO DUP2 MSTORE RETURN JUMPDEST POP DUP1 REVERT JUMPDEST DUP3 CALLVALUE PUSH2 0x1B4 JUMPI PUSH2 0x1B1 PUSH2 0x1AB CALLDATASIZE PUSH2 0x954 JUMP JUMPDEST SWAP2 PUSH2 0xA78 JUMP JUMPDEST DUP1 RETURN JUMPDEST DUP1 REVERT JUMPDEST POP CALLVALUE PUSH2 0x195 JUMPI PUSH1 0x20 CALLDATASIZE PUSH1 0x3 NOT ADD SLT PUSH2 0x195 JUMPI PUSH1 0x20 SWAP2 PUSH1 0xFF SWAP1 DUP3 SWAP1 PUSH1 0x1 PUSH1 0x1 PUSH1 0xA0 SHL SUB PUSH2 0x182 PUSH2 0x923 JUMP JUMPDEST SWAP2 SWAP1 POP CALLVALUE PUSH2 0x22E JUMPI DUP1 PUSH1 0x3 NOT CALLDATASIZE ADD SLT PUSH2 0x22E JUMPI PUSH2 0x22A SWAP2 CALLDATALOAD PUSH2 0x225 PUSH1 0x1 PUSH2 0x206 PUSH2 0x93E JUMP JUMPDEST SWAP4 DUP4 DUP8 MSTORE PUSH1 0x0 DUP1 MLOAD PUSH1 0x20 PUSH2 0xE57 DUP4 CODECOPY DUP2 MLOAD SWAP2 MSTORE PUSH1 0x20 MSTORE DUP7 KECCAK256 ADD SLOAD PUSH2 0xBB7 JUMP JUMPDEST PUSH2 0xDD3 JUMP JUMPDEST POP DUP1 RETURN JUMPDEST DUP3 DUP1 REVERT JUMPDEST POP POP CALLVALUE PUSH2 0x195 JUMPI DUP2 PUSH1 0x3 NOT CALLDATASIZE ADD SLT PUSH2 0x195 JUMPI PUSH1 0x20 PUSH32 0xCCCCC2B9FBBC74545C7F9DAC70EE99992BA9927917A3AD98439B8AECB678A431 SWAP2 PUSH2 0x270 PUSH2 0xB3D JUMP JUMPDEST DUP4 SLOAD SWAP1 PUSH1 0xFF DUP1 DUP4 AND ISZERO AND DUP1 SWAP3 PUSH1 0xFF NOT AND OR DUP6 SSTORE MLOAD SWAP1 ISZERO ISZERO DUP2 MSTORE LOG1 DUP1 RETURN JUMPDEST SWAP1 POP CALLVALUE PUSH2 0x22E JUMPI DUP3 PUSH1 0x3 NOT CALLDATASIZE ADD SLT PUSH2 0x22E JUMPI PUSH1 0x20 SWAP3 POP SLOAD SWAP1 MLOAD SWAP1 DUP2 MSTORE RETURN JUMPDEST POP POP CALLVALUE PUSH2 0x195 JUMPI DUP2 PUSH1 0x3 NOT CALLDATASIZE ADD SLT PUSH2 0x195 JUMPI PUSH1 0xFF PUSH1 0x20 SWAP3 SLOAD AND SWAP1 MLOAD SWAP1 ISZERO ISZERO DUP2 MSTORE RETURN JUMPDEST SWAP2 SWAP1 POP CALLVALUE PUSH2 0x22E JUMPI DUP1 PUSH1 0x3 NOT CALLDATASIZE ADD SLT PUSH2 0x22E JUMPI DUP2 PUSH32 0x4D4981437D0211F9E6843EB024D9ADA1FA3A99514D4343D4AECE106DD11524BB SWAP3 CALLDATALOAD SWAP1 DUP2 PUSH1 0x24 CALLDATALOAD SWAP2 PUSH2 0x312 PUSH2 0xB3D JUMP JUMPDEST SSTORE DUP1 PUSH1 0x5 SSTORE DUP3 MLOAD SWAP2 DUP3 MSTORE PUSH1 0x20 DUP3 ADD MSTORE LOG1 DUP1 RETURN JUMPDEST POP POP CALLVALUE PUSH2 0x195 JUMPI DUP2 PUSH1 0x3 NOT CALLDATASIZE ADD SLT PUSH2 0x195 JUMPI MLOAD SWAP1 DUP2 MSTORE PUSH1 0x20 SWAP1 RETURN JUMPDEST SWAP1 POP CALLVALUE PUSH2 0x22E JUMPI DUP2 PUSH1 0x3 NOT CALLDATASIZE ADD SLT PUSH2 0x22E JUMPI DUP2 PUSH1 0x20 SWAP4 PUSH1 0xFF SWAP3 PUSH2 0x361 PUSH2 0x93E JUMP JUMPDEST SWAP1 CALLDATALOAD DUP3 MSTORE PUSH1 0x0 DUP1 MLOAD PUSH1 0x20 PUSH2 0xE57 DUP4 CODECOPY DUP2 MLOAD SWAP2 MSTORE DUP7 MSTORE DUP3 DUP3 KECCAK256 PUSH1 0x1 PUSH1 0x1 PUSH1 0xA0 SHL SUB SWAP1 SWAP2 AND DUP3 MSTORE DUP6 MSTORE KECCAK256 SLOAD SWAP2 MLOAD SWAP2 AND ISZERO ISZERO DUP2 MSTORE RETURN JUMPDEST POP POP CALLVALUE PUSH2 0x195 JUMPI DUP1 PUSH1 0x3 NOT CALLDATASIZE ADD SLT PUSH2 0x195 JUMPI PUSH32 0x6A12B3DF6CBA4203BD7FD06B816789F87DE8C594299AED5717AE070FAC781BAC PUSH1 0x20 PUSH2 0x3D1 PUSH2 0x923 JUMP JUMPDEST PUSH2 0x3D9 PUSH2 0x989 JUMP JUMPDEST SWAP1 PUSH2 0x3E2 PUSH2 0xB3D JUMP JUMPDEST PUSH1 0x1 PUSH1 0x1 PUSH1 0xA0 SHL SUB AND DUP1 DUP7 MSTORE PUSH1 0x3 DUP4 MSTORE DUP5 DUP7 KECCAK256 DUP1 SLOAD PUSH1 0xFF NOT AND PUSH1 0xFF DUP5 ISZERO ISZERO AND OR SWAP1 SSTORE SWAP4 MLOAD SWAP1 ISZERO ISZERO DUP2 MSTORE LOG2 DUP1 RETURN JUMPDEST POP POP CALLVALUE PUSH2 0x195 JUMPI PUSH1 0x20 CALLDATASIZE PUSH1 0x3 NOT ADD SLT PUSH2 0x195 JUMPI PUSH1 0x20 SWAP2 PUSH1 0xFF SWAP1 DUP3 SWAP1 PUSH1 0x1 PUSH1 0x1 PUSH1 0xA0 SHL SUB PUSH2 0x43A PUSH2 0x923 JUMP JUMPDEST AND DUP2 MSTORE PUSH1 0x2 DUP6 MSTORE KECCAK256 SLOAD AND SWAP1 MLOAD SWAP1 ISZERO ISZERO DUP2 MSTORE RETURN JUMPDEST POP POP CALLVALUE PUSH2 0x195 JUMPI PUSH1 0x20 CALLDATASIZE PUSH1 0x3 NOT ADD SLT PUSH2 0x195 JUMPI PUSH1 0x60 SWAP2 PUSH1 0x1 PUSH1 0x1 PUSH1 0xA0 SHL SUB PUSH2 0x473 PUSH2 0x923 JUMP JUMPDEST AND DUP2 MSTORE PUSH1 0x6 PUSH1 0x20 MSTORE DUP2 DUP2 KECCAK256 SLOAD SWAP2 PUSH1 0x7 PUSH1 0x20 MSTORE DUP1 DUP1 DUP4 KECCAK256 SLOAD SWAP3 PUSH1 0x8 PUSH1 0x20 MSTORE KECCAK256 SLOAD SWAP2 DUP2 MLOAD SWAP4 DUP5 MSTORE PUSH1 0x20 DUP5 ADD MSTORE DUP3 ADD MSTORE RETURN JUMPDEST SWAP1 POP CALLVALUE PUSH2 0x22E JUMPI PUSH1 0x60 CALLDATASIZE PUSH1 0x3 NOT ADD SLT PUSH2 0x22E JUMPI PUSH2 0x4BD PUSH2 0x923 JUMP JUMPDEST PUSH32 0xF0C57E16840DF040F15088DC2F81FE391C3923BEC73E23A9662EFC9C229C6A00 SWAP2 DUP3 SLOAD SWAP2 PUSH1 0xFF DUP4 DUP7 SHR AND ISZERO SWAP3 PUSH8 0xFFFFFFFFFFFFFFFF DUP2 AND DUP1 ISZERO SWAP1 DUP2 PUSH2 0x5FD JUMPI JUMPDEST PUSH1 0x1 EQ SWAP1 DUP2 PUSH2 0x5F3 JUMPI JUMPDEST ISZERO SWAP1 DUP2 PUSH2 0x5EA JUMPI JUMPDEST POP PUSH2 0x5DA JUMPI PUSH8 0xFFFFFFFFFFFFFFFF NOT DUP2 AND PUSH1 0x1 OR DUP6 SSTORE DUP4 PUSH2 0x5BB JUMPI JUMPDEST POP PUSH1 0xFF DUP5 SLOAD DUP7 SHR AND ISZERO PUSH2 0x5AC JUMPI DUP1 PUSH2 0x546 PUSH2 0x54C SWAP3 PUSH2 0xBEA JUMP JUMPDEST POP PUSH2 0xC8A JUMP JUMPDEST POP DUP5 SLOAD PUSH1 0xFF NOT AND PUSH1 0x1 OR DUP6 SSTORE PUSH1 0x24 CALLDATALOAD SWAP1 SSTORE PUSH1 0x44 CALLDATALOAD PUSH1 0x5 SSTORE PUSH2 0x56B JUMPI DUP3 DUP1 RETURN JUMPDEST DUP1 SLOAD PUSH9 0xFF0000000000000000 NOT AND SWAP1 SSTORE MLOAD PUSH1 0x1 DUP2 MSTORE PUSH32 0xC7F505B2F371AE2175EE4913F4499E1F2633A7B5936321EED1CDAEB6115181D2 SWAP1 PUSH1 0x20 SWAP1 LOG1 CODESIZE DUP1 DUP3 DUP1 RETURN JUMPDEST POP DUP4 MLOAD PUSH4 0x1AFCD79F PUSH1 0xE3 SHL DUP2 MSTORE REVERT JUMPDEST PUSH9 0xFFFFFFFFFFFFFFFFFF NOT AND PUSH9 0x10000000000000001 OR DUP5 SSTORE CODESIZE PUSH2 0x52C JUMP JUMPDEST DUP6 MLOAD PUSH4 0xF92EE8A9 PUSH1 0xE0 SHL DUP2 MSTORE DUP4 SWAP1 REVERT JUMPDEST SWAP1 POP ISZERO CODESIZE PUSH2 0x510 JUMP JUMPDEST ADDRESS EXTCODESIZE ISZERO SWAP2 POP PUSH2 0x508 JUMP JUMPDEST DUP6 SWAP2 POP PUSH2 0x4FE JUMP JUMPDEST POP POP CALLVALUE PUSH2 0x195 JUMPI DUP2 PUSH1 0x3 NOT CALLDATASIZE ADD SLT PUSH2 0x195 JUMPI PUSH1 0x20 SWAP1 PUSH1 0x5 SLOAD SWAP1 MLOAD SWAP1 DUP2 MSTORE RETURN JUMPDEST POP POP CALLVALUE PUSH2 0x195 JUMPI PUSH1 0x60 CALLDATASIZE PUSH1 0x3 NOT ADD SLT PUSH2 0x195 JUMPI PUSH2 0x63F PUSH2 0x923 JUMP JUMPDEST PUSH2 0x647 PUSH2 0x989 JUMP JUMPDEST SWAP2 PUSH1 0x44 CALLDATALOAD SWAP2 DUP3 ISZERO ISZERO DUP1 DUP5 SUB PUSH2 0x6EB JUMPI PUSH32 0x855852EDE06DF792CBE12BBB8B292FD0D251A1DCFEA1F072D5793F1930568EBF SWAP4 PUSH2 0x680 PUSH2 0xB3D JUMP JUMPDEST ISZERO PUSH2 0x6C3 JUMPI PUSH1 0x1 PUSH1 0x1 PUSH1 0xA0 SHL SUB DUP3 AND DUP7 MSTORE PUSH1 0x1 PUSH1 0x20 MSTORE DUP3 DUP7 KECCAK256 DUP1 SLOAD PUSH1 0xFF NOT AND PUSH1 0xFF DUP8 ISZERO ISZERO AND OR SWAP1 SSTORE JUMPDEST DUP3 MLOAD SWAP5 ISZERO ISZERO DUP6 MSTORE PUSH1 0x20 DUP6 ADD MSTORE PUSH1 0x1 PUSH1 0x1 PUSH1 0xA0 SHL SUB AND SWAP3 LOG2 DUP1 RETURN JUMPDEST PUSH1 0x1 PUSH1 0x1 PUSH1 0xA0 SHL SUB DUP3 AND DUP7 MSTORE PUSH1 0x2 PUSH1 0x20 MSTORE DUP3 DUP7 KECCAK256 DUP1 SLOAD PUSH1 0xFF NOT AND PUSH1 0xFF DUP8 ISZERO ISZERO AND OR SWAP1 SSTORE PUSH2 0x6A9 JUMP JUMPDEST DUP6 DUP1 REVERT JUMPDEST POP POP CALLVALUE PUSH2 0x195 JUMPI PUSH1 0x20 CALLDATASIZE PUSH1 0x3 NOT ADD SLT PUSH2 0x195 JUMPI PUSH1 0x20 SWAP2 DUP2 SWAP1 PUSH1 0x1 PUSH1 0x1 PUSH1 0xA0 SHL SUB PUSH2 0x717 PUSH2 0x923 JUMP JUMPDEST AND DUP2 MSTORE PUSH1 0x7 DUP5 MSTORE KECCAK256 SLOAD SWAP1 MLOAD SWAP1 DUP2 MSTORE RETURN JUMPDEST DUP4 DUP4 CALLVALUE PUSH2 0x195 JUMPI DUP1 PUSH1 0x3 NOT CALLDATASIZE ADD SLT PUSH2 0x195 JUMPI PUSH2 0x741 PUSH2 0x93E JUMP JUMPDEST SWAP1 CALLER PUSH1 0x1 PUSH1 0x1 PUSH1 0xA0 SHL SUB DUP4 AND SUB PUSH2 0x75E JUMPI POP PUSH2 0x22A SWAP2 SWAP3 CALLDATALOAD PUSH2 0xDD3 JUMP JUMPDEST MLOAD PUSH4 0x334BD919 PUSH1 0xE1 SHL DUP2 MSTORE DUP4 SWAP1 REVERT JUMPDEST SWAP2 SWAP1 POP CALLVALUE PUSH2 0x22E JUMPI DUP1 PUSH1 0x3 NOT CALLDATASIZE ADD SLT PUSH2 0x22E JUMPI PUSH2 0x22A SWAP2 CALLDATALOAD PUSH2 0x792 PUSH1 0x1 PUSH2 0x206 PUSH2 0x93E JUMP JUMPDEST PUSH2 0xD4C JUMP JUMPDEST POP POP CALLVALUE PUSH2 0x195 JUMPI PUSH1 0x20 CALLDATASIZE PUSH1 0x3 NOT ADD SLT PUSH2 0x195 JUMPI PUSH1 0x20 SWAP2 DUP2 SWAP1 PUSH1 0x1 PUSH1 0x1 PUSH1 0xA0 SHL SUB PUSH2 0x7BF PUSH2 0x923 JUMP JUMPDEST AND DUP2 MSTORE PUSH1 0x6 DUP5 MSTORE KECCAK256 SLOAD SWAP1 MLOAD SWAP1 DUP2 MSTORE RETURN JUMPDEST POP POP CALLVALUE PUSH2 0x195 JUMPI DUP2 PUSH1 0x3 NOT CALLDATASIZE ADD SLT PUSH2 0x195 JUMPI PUSH1 0x20 SWAP1 MLOAD PUSH32 0x5E2EEB607131C4761F5374C6345D52581873680E97436D5D4763ADB8EABE151E DUP2 MSTORE RETURN JUMPDEST POP POP CALLVALUE PUSH2 0x195 JUMPI PUSH1 0x20 CALLDATASIZE PUSH1 0x3 NOT ADD SLT PUSH2 0x195 JUMPI PUSH1 0x20 SWAP2 PUSH1 0xFF SWAP1 DUP3 SWAP1 PUSH1 0x1 PUSH1 0x1 PUSH1 0xA0 SHL SUB PUSH2 0x835 PUSH2 0x923 JUMP JUMPDEST AND DUP2 MSTORE PUSH1 0x1 DUP6 MSTORE KECCAK256 SLOAD AND SWAP1 MLOAD SWAP1 ISZERO ISZERO DUP2 MSTORE RETURN JUMPDEST SWAP1 POP CALLVALUE PUSH2 0x22E JUMPI PUSH1 0x20 CALLDATASIZE PUSH1 0x3 NOT ADD SLT PUSH2 0x22E JUMPI DUP2 PUSH1 0x20 SWAP4 PUSH1 0x1 SWAP3 CALLDATALOAD DUP2 MSTORE PUSH1 0x0 DUP1 MLOAD PUSH1 0x20 PUSH2 0xE57 DUP4 CODECOPY DUP2 MLOAD SWAP2 MSTORE DUP6 MSTORE KECCAK256 ADD SLOAD SWAP1 MLOAD SWAP1 DUP2 MSTORE RETURN JUMPDEST DUP4 CALLVALUE PUSH2 0x1B4 JUMPI PUSH2 0x1B1 PUSH2 0x892 CALLDATASIZE PUSH2 0x954 JUMP JUMPDEST SWAP2 PUSH2 0x998 JUMP JUMPDEST POP POP CALLVALUE PUSH2 0x195 JUMPI PUSH1 0x20 CALLDATASIZE PUSH1 0x3 NOT ADD SLT PUSH2 0x195 JUMPI PUSH1 0x20 SWAP2 DUP2 SWAP1 PUSH1 0x1 PUSH1 0x1 PUSH1 0xA0 SHL SUB PUSH2 0x8C0 PUSH2 0x923 JUMP JUMPDEST AND DUP2 MSTORE PUSH1 0x8 DUP5 MSTORE KECCAK256 SLOAD SWAP1 MLOAD SWAP1 DUP2 MSTORE RETURN JUMPDEST DUP5 SWAP2 CALLVALUE PUSH2 0x22E JUMPI PUSH1 0x20 CALLDATASIZE PUSH1 0x3 NOT ADD SLT PUSH2 0x22E JUMPI CALLDATALOAD PUSH4 0xFFFFFFFF PUSH1 0xE0 SHL DUP2 AND DUP1 SWAP2 SUB PUSH2 0x22E JUMPI PUSH1 0x20 SWAP3 POP PUSH4 0x7965DB0B PUSH1 0xE0 SHL DUP2 EQ SWAP1 DUP2 ISZERO PUSH2 0x912 JUMPI JUMPDEST POP ISZERO ISZERO DUP2 MSTORE RETURN JUMPDEST PUSH4 0x1FFC9A7 PUSH1 0xE0 SHL EQ SWAP1 POP DUP4 PUSH2 0x90B JUMP JUMPDEST PUSH1 0x4 CALLDATALOAD SWAP1 PUSH1 0x1 PUSH1 0x1 PUSH1 0xA0 SHL SUB DUP3 AND DUP3 SUB PUSH2 0x939 JUMPI JUMP JUMPDEST PUSH1 0x0 DUP1 REVERT JUMPDEST PUSH1 0x24 CALLDATALOAD SWAP1 PUSH1 0x1 PUSH1 0x1 PUSH1 0xA0 SHL SUB DUP3 AND DUP3 SUB PUSH2 0x939 JUMPI JUMP JUMPDEST PUSH1 0x60 SWAP1 PUSH1 0x3 NOT ADD SLT PUSH2 0x939 JUMPI PUSH1 0x1 PUSH1 0x1 PUSH1 0xA0 SHL SUB SWAP1 PUSH1 0x4 CALLDATALOAD DUP3 DUP2 AND DUP2 SUB PUSH2 0x939 JUMPI SWAP2 PUSH1 0x24 CALLDATALOAD SWAP1 DUP2 AND DUP2 SUB PUSH2 0x939 JUMPI SWAP1 PUSH1 0x44 CALLDATALOAD SWAP1 JUMP JUMPDEST PUSH1 0x24 CALLDATALOAD SWAP1 DUP2 ISZERO ISZERO DUP3 SUB PUSH2 0x939 JUMPI JUMP JUMPDEST PUSH1 0xFF PUSH1 0x0 SLOAD AND ISZERO PUSH2 0xA41 JUMPI PUSH1 0x1 PUSH1 0x1 PUSH1 0xA0 SHL SUB SWAP1 DUP2 AND PUSH1 0x0 SWAP1 DUP2 MSTORE PUSH1 0x3 PUSH1 0x20 MSTORE PUSH1 0x40 SWAP1 KECCAK256 SLOAD PUSH1 0xFF AND SWAP2 DUP3 ISZERO PUSH2 0xA2A JUMPI JUMPDEST POP POP PUSH2 0xA18 JUMPI PUSH1 0x4 SLOAD DUP2 GT PUSH2 0xA06 JUMPI PUSH1 0x5 SLOAD DUP2 LT SWAP1 DUP2 PUSH2 0x9FC JUMPI JUMPDEST POP PUSH2 0x9EA JUMPI JUMP JUMPDEST PUSH1 0x40 MLOAD PUSH4 0xC9156BD PUSH1 0xE2 SHL DUP2 MSTORE PUSH1 0x4 SWAP1 REVERT JUMPDEST SWAP1 POP ISZERO ISZERO CODESIZE PUSH2 0x9E3 JUMP JUMPDEST PUSH1 0x40 MLOAD PUSH4 0x92C6449 PUSH1 0xE2 SHL DUP2 MSTORE PUSH1 0x4 SWAP1 REVERT JUMPDEST PUSH1 0x40 MLOAD PUSH4 0x1F7B776B PUSH1 0xE0 SHL DUP2 MSTORE PUSH1 0x4 SWAP1 REVERT JUMPDEST SWAP1 SWAP2 POP AND PUSH1 0x0 MSTORE PUSH1 0xFF PUSH1 0x40 PUSH1 0x0 KECCAK256 SLOAD AND CODESIZE DUP1 PUSH2 0x9C8 JUMP JUMPDEST POP POP POP JUMP JUMPDEST PUSH1 0x0 NOT DUP2 EQ PUSH2 0xA55 JUMPI PUSH1 0x1 ADD SWAP1 JUMP JUMPDEST PUSH4 0x4E487B71 PUSH1 0xE0 SHL PUSH1 0x0 MSTORE PUSH1 0x11 PUSH1 0x4 MSTORE PUSH1 0x24 PUSH1 0x0 REVERT JUMPDEST SWAP2 SWAP1 DUP3 ADD DUP1 SWAP3 GT PUSH2 0xA55 JUMPI JUMP JUMPDEST SWAP1 SWAP2 PUSH1 0x0 SWAP3 PUSH1 0xFF DUP5 SLOAD AND ISZERO PUSH2 0xB37 JUMPI PUSH32 0x8E386EA29F37964FDBDB87193D773DEA74E258B0F6108461C88C712051FB27BC SWAP2 PUSH1 0x1 DUP1 PUSH1 0xA0 SHL SUB DUP1 SWAP5 AND SWAP4 DUP5 DUP7 MSTORE PUSH1 0x20 SWAP1 PUSH1 0x6 DUP3 MSTORE PUSH1 0x40 SWAP4 DUP5 DUP9 KECCAK256 PUSH2 0xACE DUP2 SLOAD PUSH2 0xA46 JUMP JUMPDEST SWAP1 SSTORE AND SWAP6 DUP7 DUP2 MSTORE PUSH1 0x6 DUP3 MSTORE DUP4 DUP2 KECCAK256 PUSH2 0xAE6 DUP2 SLOAD PUSH2 0xA46 JUMP JUMPDEST SWAP1 SSTORE DUP6 DUP2 MSTORE PUSH1 0x7 DUP3 MSTORE DUP4 DUP2 KECCAK256 PUSH2 0xAFD DUP5 DUP3 SLOAD PUSH2 0xA6B JUMP JUMPDEST SWAP1 SSTORE DUP7 DUP2 MSTORE PUSH1 0x7 DUP3 MSTORE DUP4 DUP2 KECCAK256 PUSH2 0xB14 DUP5 DUP3 SLOAD PUSH2 0xA6B JUMP JUMPDEST SWAP1 SSTORE DUP6 DUP2 MSTORE PUSH1 0x8 DUP3 MSTORE TIMESTAMP DUP5 DUP3 KECCAK256 SSTORE DUP7 DUP2 MSTORE DUP4 TIMESTAMP SWAP2 KECCAK256 SSTORE DUP3 MLOAD SWAP2 DUP3 MSTORE TIMESTAMP SWAP1 DUP3 ADD MSTORE LOG3 JUMP JUMPDEST POP POP POP POP JUMP JUMPDEST CALLER PUSH1 0x0 SWAP1 DUP2 MSTORE PUSH32 0xF8FDE46F3F6CFD0682A1D36D6F11CB582BFE7381D604F9632C25D17E31591E43 PUSH1 0x20 MSTORE PUSH1 0x40 SWAP1 KECCAK256 SLOAD PUSH32 0x5E2EEB607131C4761F5374C6345D52581873680E97436D5D4763ADB8EABE151E SWAP1 PUSH1 0xFF AND ISZERO PUSH2 0xB99 JUMPI POP JUMP JUMPDEST PUSH1 0x44 SWAP1 PUSH1 0x40 MLOAD SWAP1 PUSH4 0xE2517D3F PUSH1 0xE0 SHL DUP3 MSTORE CALLER PUSH1 0x4 DUP4 ADD MSTORE PUSH1 0x24 DUP3 ADD MSTORE REVERT JUMPDEST DUP1 PUSH1 0x0 MSTORE PUSH1 0x0 DUP1 MLOAD PUSH1 0x20 PUSH2 0xE57 DUP4 CODECOPY DUP2 MLOAD SWAP2 MSTORE PUSH1 0x20 MSTORE PUSH1 0x40 PUSH1 0x0 KECCAK256 CALLER PUSH1 0x0 MSTORE PUSH1 0x20 MSTORE PUSH1 0xFF PUSH1 0x40 PUSH1 0x0 KECCAK256 SLOAD AND ISZERO PUSH2 0xB99 JUMPI POP JUMP JUMPDEST PUSH1 0x1 PUSH1 0x1 PUSH1 0xA0 SHL SUB AND PUSH1 0x0 DUP2 DUP2 MSTORE PUSH32 0xB7DB2DD08FCB62D0C9E08C51941CAE53C267786A0B75803FB7960902FC8EF97D PUSH1 0x20 MSTORE PUSH1 0x40 DUP2 KECCAK256 SLOAD SWAP1 SWAP2 SWAP1 PUSH1 0x0 DUP1 MLOAD PUSH1 0x20 PUSH2 0xE57 DUP4 CODECOPY DUP2 MLOAD SWAP2 MSTORE SWAP1 PUSH1 0xFF AND PUSH2 0xC85 JUMPI DUP3 DUP1 MSTORE PUSH1 0x20 MSTORE PUSH1 0x40 DUP3 KECCAK256 DUP2 DUP4 MSTORE PUSH1 0x20 MSTORE PUSH1 0x40 DUP3 KECCAK256 PUSH1 0x1 PUSH1 0xFF NOT DUP3 SLOAD AND OR SWAP1 SSTORE CALLER SWAP2 PUSH32 0x2F8788117E7EFF1D82E926EC794901D17C78024A50270940304540A733656F0D DUP2 DUP1 LOG4 PUSH1 0x1 SWAP1 JUMP JUMPDEST POP POP SWAP1 JUMP JUMPDEST PUSH1 0x1 PUSH1 0x1 PUSH1 0xA0 SHL SUB AND PUSH1 0x0 DUP2 DUP2 MSTORE PUSH32 0xF8FDE46F3F6CFD0682A1D36D6F11CB582BFE7381D604F9632C25D17E31591E43 PUSH1 0x20 MSTORE PUSH1 0x40 DUP2 KECCAK256 SLOAD SWAP1 SWAP2 SWAP1 PUSH32 0x5E2EEB607131C4761F5374C6345D52581873680E97436D5D4763ADB8EABE151E SWAP1 PUSH1 0x0 DUP1 MLOAD PUSH1 0x20 PUSH2 0xE57 DUP4 CODECOPY DUP2 MLOAD SWAP2 MSTORE SWAP1 PUSH1 0xFF AND PUSH2 0xD46 JUMPI DUP2 DUP5 MSTORE PUSH1 0x20 MSTORE PUSH1 0x40 DUP4 KECCAK256 DUP3 DUP5 MSTORE PUSH1 0x20 MSTORE PUSH1 0x40 DUP4 KECCAK256 PUSH1 0x1 PUSH1 0xFF NOT DUP3 SLOAD AND OR SWAP1 SSTORE PUSH32 0x2F8788117E7EFF1D82E926EC794901D17C78024A50270940304540A733656F0D CALLER SWAP4 DUP1 LOG4 PUSH1 0x1 SWAP1 JUMP JUMPDEST POP POP POP SWAP1 JUMP JUMPDEST SWAP1 PUSH1 0x0 SWAP2 DUP1 DUP4 MSTORE PUSH1 0x0 DUP1 MLOAD PUSH1 0x20 PUSH2 0xE57 DUP4 CODECOPY DUP2 MLOAD SWAP2 MSTORE DUP1 PUSH1 0x20 MSTORE PUSH1 0x40 DUP5 KECCAK256 SWAP3 PUSH1 0x1 DUP1 PUSH1 0xA0 SHL SUB AND SWAP3 DUP4 DUP6 MSTORE PUSH1 0x20 MSTORE PUSH1 0xFF PUSH1 0x40 DUP6 KECCAK256 SLOAD AND ISZERO PUSH1 0x0 EQ PUSH2 0xD46 JUMPI DUP2 DUP5 MSTORE PUSH1 0x20 MSTORE PUSH1 0x40 DUP4 KECCAK256 DUP3 DUP5 MSTORE PUSH1 0x20 MSTORE PUSH1 0x40 DUP4 KECCAK256 PUSH1 0x1 PUSH1 0xFF NOT DUP3 SLOAD AND OR SWAP1 SSTORE PUSH32 0x2F8788117E7EFF1D82E926EC794901D17C78024A50270940304540A733656F0D CALLER SWAP4 DUP1 LOG4 PUSH1 0x1 SWAP1 JUMP JUMPDEST SWAP1 PUSH1 0x0 SWAP2 DUP1 DUP4 MSTORE PUSH1 0x0 DUP1 MLOAD PUSH1 0x20 PUSH2 0xE57 DUP4 CODECOPY DUP2 MLOAD SWAP2 MSTORE DUP1 PUSH1 0x20 MSTORE PUSH1 0x40 DUP5 KECCAK256 SWAP3 PUSH1 0x1 DUP1 PUSH1 0xA0 SHL SUB AND SWAP3 DUP4 DUP6 MSTORE PUSH1 0x20 MSTORE PUSH1 0xFF PUSH1 0x40 DUP6 KECCAK256 SLOAD AND PUSH1 0x0 EQ PUSH2 0xD46 JUMPI DUP2 DUP5 MSTORE PUSH1 0x20 MSTORE PUSH1 0x40 DUP4 KECCAK256 DUP3 DUP5 MSTORE PUSH1 0x20 MSTORE PUSH1 0x40 DUP4 KECCAK256 PUSH1 0xFF NOT DUP2 SLOAD AND SWAP1 SSTORE PUSH32 0xF6391F5C32D9C69D2A47EA670B442974B53935D1EDC7FD64EB21E047A839171B CALLER SWAP4 DUP1 LOG4 PUSH1 0x1 SWAP1 JUMP INVALID MUL 0xDD PUSH28 0xC7DEC4DCEEDDA775E58DD541E08A116C6C53815C0BD028192F7B6268 STOP LOG2 PUSH5 0x6970667358 0x22 SLT KECCAK256 0xE7 0xDE PUSH30 0x587855841EB4B5D17ADABEA5F5222E73BB4DAF6500C743B3133980D09464 PUSH20 0x6F6C634300081600330000000000000000000000 "},"methodIdentifiers":{"DEFAULT_ADMIN_ROLE()":"a217fddf","HOOK_MANAGER_ROLE()":"2bedd955","afterTransfer(address,address,uint256)":"f49062ca","beforeTransfer(address,address,uint256)":"1ffb811f","blacklistedAddresses(address)":"d5749d42","getRoleAdmin(bytes32)":"248a9ca3","getTransferStats(address)":"7e3b6451","grantRole(bytes32,address)":"2f2ff15d","hasRole(bytes32,address)":"91d14854","hooksEnabled()":"a8497870","initialize(address,uint256,uint256)":"7a1ac61e","isBlacklisted(address)":"fe575a87","isWhitelistedReceiver(address)":"85102404","isWhitelistedSender(address)":"1b9e2fad","lastTransferTime(address)":"0d2d8a31","maxTransferAmount()":"a9e75723","minTransferAmount()":"68841431","renounceRole(bytes32,address)":"36568abe","revokeRole(bytes32,address)":"d547741f","supportsInterface(bytes4)":"01ffc9a7","toggleHooks()":"aff6c36a","totalTransferred(address)":"38e901b6","transferCount(address)":"2dc74c20","updateBlacklist(address,bool)":"9155e083","updateLimits(uint256,uint256)":"a2240e19","updateWhitelist(address,bool,bool)":"40dfb1dc","whitelistedReceivers(address)":"65f6c6f5","whitelistedSenders(address)":"272efc69"}},"storageLayout":{"storage":[{"astId":11166,"contract":"contracts/TransferHook.sol:TransferHook","label":"hooksEnabled","offset":0,"slot":"0","type":"t_bool"},{"astId":11170,"contract":"contracts/TransferHook.sol:TransferHook","label":"whitelistedSenders","offset":0,"slot":"1","type":"t_mapping(t_address,t_bool)"},{"astId":11174,"contract":"contracts/TransferHook.sol:TransferHook","label":"whitelistedReceivers","offset":0,"slot":"2","type":"t_mapping(t_address,t_bool)"},{"astId":11178,"contract":"contracts/TransferHook.sol:TransferHook","label":"blacklistedAddresses","offset":0,"slot":"3","type":"t_mapping(t_address,t_bool)"},{"astId":11180,"contract":"contracts/TransferHook.sol:TransferHook","label":"maxTransferAmount","offset":0,"slot":"4","type":"t_uint256"},{"astId":11182,"contract":"contracts/TransferHook.sol:TransferHook","label":"minTransferAmount","offset":0,"slot":"5","type":"t_uint256"},{"astId":11186,"contract":"contracts/TransferHook.sol:TransferHook","label":"transferCount","offset":0,"slot":"6","type":"t_mapping(t_address,t_uint256)"},{"astId":11190,"contract":"contracts/TransferHook.sol:TransferHook","label":"totalTransferred","offset":0,"slot":"7","type":"t_mapping(t_address,t_uint256)"},{"astId":11194,"contract":"contracts/TransferHook.sol:TransferHook","label":"lastTransferTime","offset":0,"slot":"8","type":"t_mapping(t_address,t_uint256)"}],"types":{"t_address":{"encoding":"inplace","label":"address","numberOfBytes":"20"},"t_bool":{"encoding":"inplace","label":"bool","numberOfBytes":"1"},"t_mapping(t_address,t_bool)":{"encoding":"mapping","key":"t_address","label":"mapping(address => bool)","numberOfBytes":"32","value":"t_bool"},"t_mapping(t_address,t_uint256)":{"encoding":"mapping","key":"t_address","label":"mapping(address => uint256)","numberOfBytes":"32","value":"t_uint256"},"t_uint256":{"encoding":"inplace","label":"uint256","numberOfBytes":"32"}}}}}}