{"contracts/CircuitBreaker.sol":{"CircuitBreaker":{"abi":[{"inputs":[],"name":"AccessControlBadConfirmation","type":"error"},{"inputs":[{"internalType":"address","name":"account","type":"address"},{"internalType":"bytes32","name":"neededRole","type":"bytes32"}],"name":"AccessControlUnauthorizedAccount","type":"error"},{"inputs":[],"name":"CircuitBreakerActive","type":"error"},{"inputs":[],"name":"EnforcedPause","type":"error"},{"inputs":[],"name":"ExpectedPause","type":"error"},{"inputs":[],"name":"FailedAttemptsExceeded","type":"error"},{"inputs":[],"name":"InvalidInitialization","type":"error"},{"inputs":[],"name":"InvalidParameters","type":"error"},{"inputs":[],"name":"NotInitializing","type":"error"},{"inputs":[],"name":"UnauthorizedCaller","type":"error"},{"inputs":[],"name":"VelocityLimitExceeded","type":"error"},{"inputs":[],"name":"VolumeLimitExceeded","type":"error"},{"anonymous":false,"inputs":[{"indexed":false,"internalType":"uint256","name":"timestamp","type":"uint256"}],"name":"AutoResetTriggered","type":"event"},{"anonymous":false,"inputs":[{"indexed":false,"internalType":"string","name":"reason","type":"string"},{"indexed":false,"internalType":"uint256","name":"timestamp","type":"uint256"}],"name":"CircuitBreakerActivated","type":"event"},{"anonymous":false,"inputs":[{"indexed":false,"internalType":"uint256","name":"timestamp","type":"uint256"}],"name":"CircuitBreakerDeactivated","type":"event"},{"anonymous":false,"inputs":[{"indexed":false,"internalType":"address","name":"account","type":"address"},{"indexed":false,"internalType":"uint256","name":"attempts","type":"uint256"}],"name":"FailedAttemptsExceededEvent","type":"event"},{"anonymous":false,"inputs":[{"indexed":false,"internalType":"uint64","name":"version","type":"uint64"}],"name":"Initialized","type":"event"},{"anonymous":false,"inputs":[{"indexed":false,"internalType":"address","name":"account","type":"address"}],"name":"Paused","type":"event"},{"anonymous":false,"inputs":[{"indexed":true,"internalType":"bytes32","name":"role","type":"bytes32"},{"indexed":true,"internalType":"bytes32","name":"previousAdminRole","type":"bytes32"},{"indexed":true,"internalType":"bytes32","name":"newAdminRole","type":"bytes32"}],"name":"RoleAdminChanged","type":"event"},{"anonymous":false,"inputs":[{"indexed":true,"internalType":"bytes32","name":"role","type":"bytes32"},{"indexed":true,"internalType":"address","name":"account","type":"address"},{"indexed":true,"internalType":"address","name":"sender","type":"address"}],"name":"RoleGranted","type":"event"},{"anonymous":false,"inputs":[{"indexed":true,"internalType":"bytes32","name":"role","type":"bytes32"},{"indexed":true,"internalType":"address","name":"account","type":"address"},{"indexed":true,"internalType":"address","name":"sender","type":"address"}],"name":"RoleRevoked","type":"event"},{"anonymous":false,"inputs":[{"indexed":false,"internalType":"address","name":"account","type":"address"}],"name":"Unpaused","type":"event"},{"anonymous":false,"inputs":[{"indexed":false,"internalType":"uint256","name":"limit","type":"uint256"},{"indexed":false,"internalType":"uint256","name":"actual","type":"uint256"},{"indexed":false,"internalType":"string","name":"period","type":"string"}],"name":"VelocityLimitExceededEvent","type":"event"},{"anonymous":false,"inputs":[{"indexed":false,"internalType":"uint256","name":"limit","type":"uint256"},{"indexed":false,"internalType":"uint256","name":"actual","type":"uint256"},{"indexed":false,"internalType":"string","name":"period","type":"string"}],"name":"VolumeLimitExceededEvent","type":"event"},{"inputs":[],"name":"CIRCUIT_BREAKER_ROLE","outputs":[{"internalType":"bytes32","name":"","type":"bytes32"}],"stateMutability":"view","type":"function"},{"inputs":[],"name":"DEFAULT_ADMIN_ROLE","outputs":[{"internalType":"bytes32","name":"","type":"bytes32"}],"stateMutability":"view","type":"function"},{"inputs":[{"internalType":"string","name":"reason","type":"string"}],"name":"activateCircuitBreaker","outputs":[],"stateMutability":"nonpayable","type":"function"},{"inputs":[],"name":"activationReason","outputs":[{"internalType":"string","name":"","type":"string"}],"stateMutability":"view","type":"function"},{"inputs":[],"name":"activationTime","outputs":[{"internalType":"uint256","name":"","type":"uint256"}],"stateMutability":"view","type":"function"},{"inputs":[],"name":"autoReset","outputs":[],"stateMutability":"nonpayable","type":"function"},{"inputs":[],"name":"autoResetInterval","outputs":[{"internalType":"uint256","name":"","type":"uint256"}],"stateMutability":"view","type":"function"},{"inputs":[{"internalType":"address","name":"","type":"address"},{"internalType":"address","name":"","type":"address"},{"internalType":"uint256","name":"amount","type":"uint256"}],"name":"checkTransfer","outputs":[],"stateMutability":"view","type":"function"},{"inputs":[{"internalType":"uint256","name":"","type":"uint256"}],"name":"dailyTransferCount","outputs":[{"internalType":"uint256","name":"","type":"uint256"}],"stateMutability":"view","type":"function"},{"inputs":[{"internalType":"uint256","name":"","type":"uint256"}],"name":"dailyVolume","outputs":[{"internalType":"uint256","name":"","type":"uint256"}],"stateMutability":"view","type":"function"},{"inputs":[],"name":"deactivateCircuitBreaker","outputs":[],"stateMutability":"nonpayable","type":"function"},{"inputs":[],"name":"failedAttemptWindow","outputs":[{"internalType":"uint256","name":"","type":"uint256"}],"stateMutability":"view","type":"function"},{"inputs":[{"internalType":"address","name":"","type":"address"}],"name":"failedAttempts","outputs":[{"internalType":"uint256","name":"","type":"uint256"}],"stateMutability":"view","type":"function"},{"inputs":[],"name":"getActivationReason","outputs":[{"internalType":"string","name":"","type":"string"}],"stateMutability":"view","type":"function"},{"inputs":[],"name":"getCurrentDailyTransferCount","outputs":[{"internalType":"uint256","name":"","type":"uint256"}],"stateMutability":"view","type":"function"},{"inputs":[],"name":"getCurrentDailyVolume","outputs":[{"internalType":"uint256","name":"","type":"uint256"}],"stateMutability":"view","type":"function"},{"inputs":[],"name":"getCurrentHourlyTransferCount","outputs":[{"internalType":"uint256","name":"","type":"uint256"}],"stateMutability":"view","type":"function"},{"inputs":[],"name":"getCurrentHourlyVolume","outputs":[{"internalType":"uint256","name":"","type":"uint256"}],"stateMutability":"view","type":"function"},{"inputs":[{"internalType":"bytes32","name":"role","type":"bytes32"}],"name":"getRoleAdmin","outputs":[{"internalType":"bytes32","name":"","type":"bytes32"}],"stateMutability":"view","type":"function"},{"inputs":[{"internalType":"bytes32","name":"role","type":"bytes32"},{"internalType":"address","name":"account","type":"address"}],"name":"grantRole","outputs":[],"stateMutability":"nonpayable","type":"function"},{"inputs":[{"internalType":"bytes32","name":"role","type":"bytes32"},{"internalType":"address","name":"account","type":"address"}],"name":"hasRole","outputs":[{"internalType":"bool","name":"","type":"bool"}],"stateMutability":"view","type":"function"},{"inputs":[{"internalType":"uint256","name":"","type":"uint256"}],"name":"hourlyTransferCount","outputs":[{"internalType":"uint256","name":"","type":"uint256"}],"stateMutability":"view","type":"function"},{"inputs":[{"internalType":"uint256","name":"","type":"uint256"}],"name":"hourlyVolume","outputs":[{"internalType":"uint256","name":"","type":"uint256"}],"stateMutability":"view","type":"function"},{"inputs":[{"internalType":"address","name":"admin","type":"address"},{"internalType":"uint256","name":"_maxDailyVolume","type":"uint256"},{"internalType":"uint256","name":"_maxHourlyVolume","type":"uint256"},{"internalType":"uint256","name":"_maxSingleTransfer","type":"uint256"},{"internalType":"uint256","name":"_maxTransfersPerHour","type":"uint256"},{"internalType":"uint256","name":"_maxTransfersPerDay","type":"uint256"},{"internalType":"uint256","name":"_maxFailedAttempts","type":"uint256"},{"internalType":"uint256","name":"_failedAttemptWindow","type":"uint256"},{"internalType":"uint256","name":"_autoResetInterval","type":"uint256"}],"name":"initialize","outputs":[],"stateMutability":"nonpayable","type":"function"},{"inputs":[],"name":"isActive","outputs":[{"internalType":"bool","name":"","type":"bool"}],"stateMutability":"view","type":"function"},{"inputs":[],"name":"isCircuitBreakerActive","outputs":[{"internalType":"bool","name":"","type":"bool"}],"stateMutability":"view","type":"function"},{"inputs":[{"internalType":"address","name":"","type":"address"}],"name":"lastFailedAttempt","outputs":[{"internalType":"uint256","name":"","type":"uint256"}],"stateMutability":"view","type":"function"},{"inputs":[],"name":"lastResetTime","outputs":[{"internalType":"uint256","name":"","type":"uint256"}],"stateMutability":"view","type":"function"},{"inputs":[],"name":"maxDailyVolume","outputs":[{"internalType":"uint256","name":"","type":"uint256"}],"stateMutability":"view","type":"function"},{"inputs":[],"name":"maxFailedAttempts","outputs":[{"internalType":"uint256","name":"","type":"uint256"}],"stateMutability":"view","type":"function"},{"inputs":[],"name":"maxHourlyVolume","outputs":[{"internalType":"uint256","name":"","type":"uint256"}],"stateMutability":"view","type":"function"},{"inputs":[],"name":"maxSingleTransfer","outputs":[{"internalType":"uint256","name":"","type":"uint256"}],"stateMutability":"view","type":"function"},{"inputs":[],"name":"maxTransfersPerDay","outputs":[{"internalType":"uint256","name":"","type":"uint256"}],"stateMutability":"view","type":"function"},{"inputs":[],"name":"maxTransfersPerHour","outputs":[{"internalType":"uint256","name":"","type":"uint256"}],"stateMutability":"view","type":"function"},{"inputs":[],"name":"paused","outputs":[{"internalType":"bool","name":"","type":"bool"}],"stateMutability":"view","type":"function"},{"inputs":[{"internalType":"address","name":"account","type":"address"}],"name":"recordFailedAttempt","outputs":[],"stateMutability":"nonpayable","type":"function"},{"inputs":[{"internalType":"address","name":"from","type":"address"},{"internalType":"address","name":"","type":"address"},{"internalType":"uint256","name":"amount","type":"uint256"}],"name":"recordTransfer","outputs":[],"stateMutability":"nonpayable","type":"function"},{"inputs":[{"internalType":"bytes32","name":"role","type":"bytes32"},{"internalType":"address","name":"callerConfirmation","type":"address"}],"name":"renounceRole","outputs":[],"stateMutability":"nonpayable","type":"function"},{"inputs":[{"internalType":"bytes32","name":"role","type":"bytes32"},{"internalType":"address","name":"account","type":"address"}],"name":"revokeRole","outputs":[],"stateMutability":"nonpayable","type":"function"},{"inputs":[{"internalType":"bytes4","name":"interfaceId","type":"bytes4"}],"name":"supportsInterface","outputs":[{"internalType":"bool","name":"","type":"bool"}],"stateMutability":"view","type":"function"},{"inputs":[{"internalType":"uint256","name":"_maxDailyVolume","type":"uint256"},{"internalType":"uint256","name":"_maxHourlyVolume","type":"uint256"},{"internalType":"uint256","name":"_maxSingleTransfer","type":"uint256"},{"internalType":"uint256","name":"_maxTransfersPerHour","type":"uint256"},{"internalType":"uint256","name":"_maxTransfersPerDay","type":"uint256"},{"internalType":"uint256","name":"_maxFailedAttempts","type":"uint256"},{"internalType":"uint256","name":"_failedAttemptWindow","type":"uint256"},{"internalType":"uint256","name":"_autoResetInterval","type":"uint256"}],"name":"updateLimits","outputs":[],"stateMutability":"nonpayable","type":"function"}],"evm":{"bytecode":{"linkReferences":{},"object":"6080806040523461001657611715908161001c8239f35b600080fdfe60406080815260048036101561001457600080fd5b600091823560e01c806206d1c514610e9e5783816301e3a90314610e0a5750806301ffc9a714610db457806307df2f1814610d9557806312da5d1e14610d765780631393585714610d4b57806322f3e2d414610c72578063248a9ca314610d13578063258061aa14610cf45780632f2ff15d14610ccc57806332627ec714610c9457806332941ecb14610c7257806336568abe14610c2b57806336b089d814610c0c57806342200b9e14610ba257806344baa6c2146109005780635c975abb14610b5f5780635feb1f7114610b4057806363236f4914610b18578063668fb1be146109d75780636b5a0d8c146109545780636c58ab8314610935578063789b6315146109005780637b969e1d146108c85780637c5cf1691461089e5780638fbf59291461087657806391d1485414610822578063943ca3b9146107fa578063a2177124146107db578063a217fddf146107c0578063a7e02d7514610796578063ae6e01451461076b578063cc1dd94f146104f8578063d114e6fc14610380578063d547741f14610335578063da4493f614610316578063da4a64bc146102f7578063df18315b146102d9578063e54e55ae1461029a578063e6b64fdb146102725763fd270b8d146101e457600080fd5b3461026e5761010036600319011261026e578280526000805160206116a083398151915260205280832033845260205260ff81842054161561025257508035600355602435905560443560055560643560065560843560075560a43560085560c43560095560e435600a5580f35b91604492519163e2517d3f60e01b835233908301526024820152fd5b8280fd5b50903461026e57602036600319011261026e576020928291358152600f845220549051908152f35b8382346102d557816003193601126102d557602090517f7e6b58bc1470e1fc07bc9b21e0435be41fdc30ede9591781476a8d169a2654928152f35b5080fd5b50903461026e578260031936011261026e5760209250549051908152f35b8382346102d557816003193601126102d5576020906007549051908152f35b8382346102d557816003193601126102d5576020906002549051908152f35b503461026e578060031936011261026e5761037c91356103776001610358610f4f565b938387526000805160206116a08339815191526020528620015461120d565b611429565b5080f35b50903461026e5761012036600319011261026e5761039c610f6a565b7ff0c57e16840df040f15088dc2f81fe391c3923bec73e23a9662efc9c229c6a009182549160ff83861c16159267ffffffffffffffff8116801590816104f0575b60011490816104e6575b1590816104dd575b506104cd5767ffffffffffffffff19811660011785556104309190846104ae575b5061041961165e565b61042161165e565b61042a81611240565b506112e0565b50602435600355604435905560643560055560843560065560a43560075560c43560085560e43560095561010435600a5542600b5561046d578280f35b805468ff00000000000000001916905551600181527fc7f505b2f371ae2175ee4913f4499e1f2633a7b5936321eed1cdaeb6115181d290602090a138808280f35b68ffffffffffffffffff19166801000000000000000117855538610410565b855163f92ee8a960e01b81528390fd5b905015386103ef565b303b1591506103e7565b8591506103dd565b503461026e5761050736610f80565b9291505060ff8454166107295760055482116106d157620151804204610e10420490808652602093600c8552610540818589205461111b565b6003541061067d5761055c90838852600d86528488205461111b565b855410610628578552600f83528185205460075411156105da578452600e825280842054600654111561058d578380f35b5162461bcd60e51b8152918201526024808201527f486f75726c79207472616e7366657220636f756e74206c696d697420657863656044820152631959195960e21b606482015260849150fd5b505162461bcd60e51b815291820152602360248201527f4461696c79207472616e7366657220636f756e74206c696d697420657863656560448201526219195960ea1b606482015260849150fd5b50505162461bcd60e51b815291820152602960248201527f5472616e7366657220776f756c642065786365656420686f75726c7920766f6c6044820152681d5b59481b1a5b5a5d60ba1b606482015260849150fd5b835162461bcd60e51b8152808701869052602860248201527f5472616e7366657220776f756c6420657863656564206461696c7920766f6c756044820152671b59481b1a5b5a5d60c21b6064820152608490fd5b5162461bcd60e51b8152602081840152602d60248201527f5472616e7366657220616d6f756e7420657863656564732073696e676c65207460448201526c1c985b9cd9995c881b1a5b5a5d609a1b6064820152608490fd5b5162461bcd60e51b8152602081840152601960248201527f4369726375697420627265616b657220697320616374697665000000000000006044820152606490fd5b8382346102d557816003193601126102d557806020926201518042048152600c845220549051908152f35b8382346102d557816003193601126102d55780602092610e1042048152600d845220549051908152f35b8382346102d557816003193601126102d55751908152602090f35b8382346102d557816003193601126102d557602090600b549051908152f35b50903461026e57602036600319011261026e576020928291358152600c845220549051908152f35b50903461026e578160031936011261026e578160209360ff92610843610f4f565b903582526000805160206116a083398151915286528282206001600160a01b039091168252855220549151911615158152f35b50903461026e57602036600319011261026e576020928291358152600d845220549051908152f35b8382346102d557816003193601126102d55780602092610e1042048152600e845220549051908152f35b8382346102d55760203660031901126102d55760209181906001600160a01b036108f0610f6a565b1681526011845220549051908152f35b8382346102d557816003193601126102d5576109319061091e611027565b90519182916020835260208301906110db565b0390f35b8382346102d557816003193601126102d5576020906006549051908152f35b503461026e57602036600319011261026e578282359167ffffffffffffffff9384841161026e573660238501121561026e578301359384116102d55736602485850101116102d557836109d49460246020936109ae611193565b51956109c3601f8401601f1916860188610fef565b8287520183860137830101526114ac565b80f35b508290346102d55760208060031936011261026e576001600160a01b036109fc610f6a565b169081845260118152828420544203428111610b055760095411610aea57818452601081526001838520555b81845260118152428385205560108152828420546008541115610a49578380f35b825183810181811067ffffffffffffffff821117610ad7577fcef34426b92fd7c1a4dacfb9e7b9625a61226ac4a0e6750a048ad536f84fa87f95965090610aba918552601881527f4661696c656420617474656d7074732065786365656465640000000000000000838201526114ac565b8185526010815282852054908351928352820152a1808280808380f35b634e487b7160e01b865260418752602486fd5b81845260108152828420610afe8154611184565b9055610a28565b634e487b7160e01b855260118652602485fd5b50903461026e57602036600319011261026e576020928291358152600e845220549051908152f35b8382346102d557816003193601126102d557602090600a549051908152f35b8382346102d557816003193601126102d55760209060ff7fcd5ed15c6e187e77e9aee88184c21f4f2182ab5827cb3b7e07fbedcd63f03300541690519015158152f35b8382346102d557816003193601126102d55760207f4658f69373abd2ae36994b6398ba682f149ae01805feb8227244965d9f32090991610be0611193565b60ff198454168455610bfb610bf6600154610fb5565b61113e565b60006001558360025551428152a180f35b8382346102d557816003193601126102d5576020906005549051908152f35b508290346102d557806003193601126102d557610c46610f4f565b90336001600160a01b03831603610c63575061037c919235611429565b5163334bd91960e11b81528390fd5b8382346102d557816003193601126102d55760ff602092541690519015158152f35b8382346102d55760203660031901126102d55760209181906001600160a01b03610cbc610f6a565b1681526010845220549051908152f35b503461026e578060031936011261026e5761037c9135610cef6001610358610f4f565b6113a2565b8382346102d557816003193601126102d5576020906009549051908152f35b50903461026e57602036600319011261026e57816020936001923581526000805160206116a083398151915285522001549051908152f35b8382346102d557816003193601126102d557806020926201518042048152600f845220549051908152f35b8382346102d557816003193601126102d5576020906008549051908152f35b8382346102d557816003193601126102d5576020906003549051908152f35b50903461026e57602036600319011261026e57359063ffffffff60e01b821680920361026e5760209250637965db0b60e01b8214918215610df9575b50519015158152f35b6301ffc9a760e01b14915038610df0565b808334610e9b57610e1a36610f80565b905062015180420490610e10420490828652600c602052848620610e3f82825461111b565b9055818652600d602052610e5785872091825461111b565b90558452600e602052828420610e6d8154611184565b90558352600f602052818320610e838154611184565b90556001600160a01b03168252601060205281205580f35b50fd5b8382346102d557816003193601126102d557610ebf600b54600a549061111b565b421015610eca575080f35b60207ff1b43c2e52a9e846469baaebdb63ecfd00023cf4e2b651237f6068f2467d20939160ff198454168455610f04610bf6600154610fb5565b60006001558360025542600b55620151804204808552600c83528482812055610e1042048552600d83528482812055600e835284828120558452600f8252838181205551428152a180f35b602435906001600160a01b0382168203610f6557565b600080fd5b600435906001600160a01b0382168203610f6557565b6060906003190112610f65576001600160a01b03906004358281168103610f6557916024359081168103610f65579060443590565b90600182811c92168015610fe5575b6020831014610fcf57565b634e487b7160e01b600052602260045260246000fd5b91607f1691610fc4565b90601f8019910116810190811067ffffffffffffffff82111761101157604052565b634e487b7160e01b600052604160045260246000fd5b6040519060008260019160015461103d81610fb5565b80845293602091600181169081156110b75750600114611068575b505061106692500383610fef565b565b91509260016000526000805160206116c0833981519152936000925b82841061109f57506110669450505081016020013880611058565b85548885018301529485019487945092810192611084565b9150506020925061106694915060ff191682840152151560051b8201013880611058565b919082519283825260005b848110611107575050826000602080949584010152601f8019910116010190565b6020818301810151848301820152016110e6565b9190820180921161112857565b634e487b7160e01b600052601160045260246000fd5b601f81116111495750565b60019060006001600052601f6000805160206116c0833981519152920160051c8201915b82811061117a5750505050565b818155830161116d565b60001981146111285760010190565b3360009081527f4d7367b4c45c93361c07a01249cc1ef90933a8773f26df2dabd0fb4074504d1160205260409020547f7e6b58bc1470e1fc07bc9b21e0435be41fdc30ede9591781476a8d169a2654929060ff16156111ef5750565b6044906040519063e2517d3f60e01b82523360048301526024820152fd5b806000526000805160206116a083398151915260205260406000203360005260205260ff60406000205416156111ef5750565b6001600160a01b031660008181527fb7db2dd08fcb62d0c9e08c51941cae53c267786a0b75803fb7960902fc8ef97d60205260408120549091906000805160206116a08339815191529060ff166112db578280526020526040822081835260205260408220600160ff1982541617905533917f2f8788117e7eff1d82e926ec794901d17c78024a50270940304540a733656f0d8180a4600190565b505090565b6001600160a01b031660008181527f4d7367b4c45c93361c07a01249cc1ef90933a8773f26df2dabd0fb4074504d1160205260408120549091907f7e6b58bc1470e1fc07bc9b21e0435be41fdc30ede9591781476a8d169a265492906000805160206116a08339815191529060ff1661139c578184526020526040832082845260205260408320600160ff198254161790557f2f8788117e7eff1d82e926ec794901d17c78024a50270940304540a733656f0d339380a4600190565b50505090565b906000918083526000805160206116a083398151915280602052604084209260018060a01b03169283855260205260ff6040852054161560001461139c578184526020526040832082845260205260408320600160ff198254161790557f2f8788117e7eff1d82e926ec794901d17c78024a50270940304540a733656f0d339380a4600190565b906000918083526000805160206116a083398151915280602052604084209260018060a01b03169283855260205260ff60408520541660001461139c57818452602052604083208284526020526040832060ff1981541690557ff6391f5c32d9c69d2a47ea670b442974b53935d1edc7fd64eb21e047a839171b339380a4600190565b6000805460ff191660019081178255825193929167ffffffffffffffff851161164a576114d98254610fb5565b601f81116115f7575b50602090816001601f881114611564575093947f11803daffb8bd292f79dc0d607f5a1c30184b28e74ca55f6352d0d874d2107279461154e94939282611559575b50600019600383901b1c191690821b1790555b426002556040519182916040835260408301906110db565b4260208301520390a1565b905083015138611523565b8382526000805160206116c08339815191529291601f198816915b8282106115e057505095839261154e959492827f11803daffb8bd292f79dc0d607f5a1c30184b28e74ca55f6352d0d874d2107279899106115c7575b5050811b019055611536565b85015160001960f88460031b161c1916905538806115bb565b808685968294968a0151815501950193019061157f565b8282526000805160206116c0833981519152601f870160051c81019160208810611640575b601f0160051c019083905b8281106116355750506114e2565b838155018390611627565b909150819061161c565b634e487b7160e01b81526041600452602490fd5b60ff7ff0c57e16840df040f15088dc2f81fe391c3923bec73e23a9662efc9c229c6a005460401c161561168d57565b604051631afcd79f60e31b8152600490fdfe02dd7bc7dec4dceedda775e58dd541e08a116c6c53815c0bd028192f7b626800b10e2d527612073b26eecdfd717e6a320cf44b4afac2b0732d9fcbe2b7fa0cf6a264697066735822122061f18665effe1162fa9f4b5b5a163110ef54f774aaec0d11793c6fbb72ee2c4d64736f6c63430008160033","opcodes":"PUSH1 0x80 DUP1 PUSH1 0x40 MSTORE CALLVALUE PUSH2 0x16 JUMPI PUSH2 0x1715 SWAP1 DUP2 PUSH2 0x1C DUP3 CODECOPY RETURN JUMPDEST PUSH1 0x0 DUP1 REVERT INVALID PUSH1 0x40 PUSH1 0x80 DUP2 MSTORE PUSH1 0x4 DUP1 CALLDATASIZE LT ISZERO PUSH2 0x14 JUMPI PUSH1 0x0 DUP1 REVERT JUMPDEST PUSH1 0x0 SWAP2 DUP3 CALLDATALOAD PUSH1 0xE0 SHR DUP1 PUSH3 0x6D1C5 EQ PUSH2 0xE9E JUMPI DUP4 DUP2 PUSH4 0x1E3A903 EQ PUSH2 0xE0A JUMPI POP DUP1 PUSH4 0x1FFC9A7 EQ PUSH2 0xDB4 JUMPI DUP1 PUSH4 0x7DF2F18 EQ PUSH2 0xD95 JUMPI DUP1 PUSH4 0x12DA5D1E EQ PUSH2 0xD76 JUMPI DUP1 PUSH4 0x13935857 EQ PUSH2 0xD4B JUMPI DUP1 PUSH4 0x22F3E2D4 EQ PUSH2 0xC72 JUMPI DUP1 PUSH4 0x248A9CA3 EQ PUSH2 0xD13 JUMPI DUP1 PUSH4 0x258061AA EQ PUSH2 0xCF4 JUMPI DUP1 PUSH4 0x2F2FF15D EQ PUSH2 0xCCC JUMPI DUP1 PUSH4 0x32627EC7 EQ PUSH2 0xC94 JUMPI DUP1 PUSH4 0x32941ECB EQ PUSH2 0xC72 JUMPI DUP1 PUSH4 0x36568ABE EQ PUSH2 0xC2B JUMPI DUP1 PUSH4 0x36B089D8 EQ PUSH2 0xC0C JUMPI DUP1 PUSH4 0x42200B9E EQ PUSH2 0xBA2 JUMPI DUP1 PUSH4 0x44BAA6C2 EQ PUSH2 0x900 JUMPI DUP1 PUSH4 0x5C975ABB EQ PUSH2 0xB5F JUMPI DUP1 PUSH4 0x5FEB1F71 EQ PUSH2 0xB40 JUMPI DUP1 PUSH4 0x63236F49 EQ PUSH2 0xB18 JUMPI DUP1 PUSH4 0x668FB1BE EQ PUSH2 0x9D7 JUMPI DUP1 PUSH4 0x6B5A0D8C EQ PUSH2 0x954 JUMPI DUP1 PUSH4 0x6C58AB83 EQ PUSH2 0x935 JUMPI DUP1 PUSH4 0x789B6315 EQ PUSH2 0x900 JUMPI DUP1 PUSH4 0x7B969E1D EQ PUSH2 0x8C8 JUMPI DUP1 PUSH4 0x7C5CF169 EQ PUSH2 0x89E JUMPI DUP1 PUSH4 0x8FBF5929 EQ PUSH2 0x876 JUMPI DUP1 PUSH4 0x91D14854 EQ PUSH2 0x822 JUMPI DUP1 PUSH4 0x943CA3B9 EQ PUSH2 0x7FA JUMPI DUP1 PUSH4 0xA2177124 EQ PUSH2 0x7DB JUMPI DUP1 PUSH4 0xA217FDDF EQ PUSH2 0x7C0 JUMPI DUP1 PUSH4 0xA7E02D75 EQ PUSH2 0x796 JUMPI DUP1 PUSH4 0xAE6E0145 EQ PUSH2 0x76B JUMPI DUP1 PUSH4 0xCC1DD94F EQ PUSH2 0x4F8 JUMPI DUP1 PUSH4 0xD114E6FC EQ PUSH2 0x380 JUMPI DUP1 PUSH4 0xD547741F EQ PUSH2 0x335 JUMPI DUP1 PUSH4 0xDA4493F6 EQ PUSH2 0x316 JUMPI DUP1 PUSH4 0xDA4A64BC EQ PUSH2 0x2F7 JUMPI DUP1 PUSH4 0xDF18315B EQ PUSH2 0x2D9 JUMPI DUP1 PUSH4 0xE54E55AE EQ PUSH2 0x29A JUMPI DUP1 PUSH4 0xE6B64FDB EQ PUSH2 0x272 JUMPI PUSH4 0xFD270B8D EQ PUSH2 0x1E4 JUMPI PUSH1 0x0 DUP1 REVERT JUMPDEST CALLVALUE PUSH2 0x26E JUMPI PUSH2 0x100 CALLDATASIZE PUSH1 0x3 NOT ADD SLT PUSH2 0x26E JUMPI DUP3 DUP1 MSTORE PUSH1 0x0 DUP1 MLOAD PUSH1 0x20 PUSH2 0x16A0 DUP4 CODECOPY DUP2 MLOAD SWAP2 MSTORE PUSH1 0x20 MSTORE DUP1 DUP4 KECCAK256 CALLER DUP5 MSTORE PUSH1 0x20 MSTORE PUSH1 0xFF DUP2 DUP5 KECCAK256 SLOAD AND ISZERO PUSH2 0x252 JUMPI POP DUP1 CALLDATALOAD PUSH1 0x3 SSTORE PUSH1 0x24 CALLDATALOAD SWAP1 SSTORE PUSH1 0x44 CALLDATALOAD PUSH1 0x5 SSTORE PUSH1 0x64 CALLDATALOAD PUSH1 0x6 SSTORE PUSH1 0x84 CALLDATALOAD PUSH1 0x7 SSTORE PUSH1 0xA4 CALLDATALOAD PUSH1 0x8 SSTORE PUSH1 0xC4 CALLDATALOAD PUSH1 0x9 SSTORE PUSH1 0xE4 CALLDATALOAD PUSH1 0xA SSTORE DUP1 RETURN JUMPDEST SWAP2 PUSH1 0x44 SWAP3 MLOAD SWAP2 PUSH4 0xE2517D3F PUSH1 0xE0 SHL DUP4 MSTORE CALLER SWAP1 DUP4 ADD MSTORE PUSH1 0x24 DUP3 ADD MSTORE REVERT JUMPDEST DUP3 DUP1 REVERT JUMPDEST POP SWAP1 CALLVALUE PUSH2 0x26E JUMPI PUSH1 0x20 CALLDATASIZE PUSH1 0x3 NOT ADD SLT PUSH2 0x26E JUMPI PUSH1 0x20 SWAP3 DUP3 SWAP2 CALLDATALOAD DUP2 MSTORE PUSH1 0xF DUP5 MSTORE KECCAK256 SLOAD SWAP1 MLOAD SWAP1 DUP2 MSTORE RETURN JUMPDEST DUP4 DUP3 CALLVALUE PUSH2 0x2D5 JUMPI DUP2 PUSH1 0x3 NOT CALLDATASIZE ADD SLT PUSH2 0x2D5 JUMPI PUSH1 0x20 SWAP1 MLOAD PUSH32 0x7E6B58BC1470E1FC07BC9B21E0435BE41FDC30EDE9591781476A8D169A265492 DUP2 MSTORE RETURN JUMPDEST POP DUP1 REVERT JUMPDEST POP SWAP1 CALLVALUE PUSH2 0x26E JUMPI DUP3 PUSH1 0x3 NOT CALLDATASIZE ADD SLT PUSH2 0x26E JUMPI PUSH1 0x20 SWAP3 POP SLOAD SWAP1 MLOAD SWAP1 DUP2 MSTORE RETURN JUMPDEST DUP4 DUP3 CALLVALUE PUSH2 0x2D5 JUMPI DUP2 PUSH1 0x3 NOT CALLDATASIZE ADD SLT PUSH2 0x2D5 JUMPI PUSH1 0x20 SWAP1 PUSH1 0x7 SLOAD SWAP1 MLOAD SWAP1 DUP2 MSTORE RETURN JUMPDEST DUP4 DUP3 CALLVALUE PUSH2 0x2D5 JUMPI DUP2 PUSH1 0x3 NOT CALLDATASIZE ADD SLT PUSH2 0x2D5 JUMPI PUSH1 0x20 SWAP1 PUSH1 0x2 SLOAD SWAP1 MLOAD SWAP1 DUP2 MSTORE RETURN JUMPDEST POP CALLVALUE PUSH2 0x26E JUMPI DUP1 PUSH1 0x3 NOT CALLDATASIZE ADD SLT PUSH2 0x26E JUMPI PUSH2 0x37C SWAP2 CALLDATALOAD PUSH2 0x377 PUSH1 0x1 PUSH2 0x358 PUSH2 0xF4F JUMP JUMPDEST SWAP4 DUP4 DUP8 MSTORE PUSH1 0x0 DUP1 MLOAD PUSH1 0x20 PUSH2 0x16A0 DUP4 CODECOPY DUP2 MLOAD SWAP2 MSTORE PUSH1 0x20 MSTORE DUP7 KECCAK256 ADD SLOAD PUSH2 0x120D JUMP JUMPDEST PUSH2 0x1429 JUMP JUMPDEST POP DUP1 RETURN JUMPDEST POP SWAP1 CALLVALUE PUSH2 0x26E JUMPI PUSH2 0x120 CALLDATASIZE PUSH1 0x3 NOT ADD SLT PUSH2 0x26E JUMPI PUSH2 0x39C PUSH2 0xF6A JUMP JUMPDEST PUSH32 0xF0C57E16840DF040F15088DC2F81FE391C3923BEC73E23A9662EFC9C229C6A00 SWAP2 DUP3 SLOAD SWAP2 PUSH1 0xFF DUP4 DUP7 SHR AND ISZERO SWAP3 PUSH8 0xFFFFFFFFFFFFFFFF DUP2 AND DUP1 ISZERO SWAP1 DUP2 PUSH2 0x4F0 JUMPI JUMPDEST PUSH1 0x1 EQ SWAP1 DUP2 PUSH2 0x4E6 JUMPI JUMPDEST ISZERO SWAP1 DUP2 PUSH2 0x4DD JUMPI JUMPDEST POP PUSH2 0x4CD JUMPI PUSH8 0xFFFFFFFFFFFFFFFF NOT DUP2 AND PUSH1 0x1 OR DUP6 SSTORE PUSH2 0x430 SWAP2 SWAP1 DUP5 PUSH2 0x4AE JUMPI JUMPDEST POP PUSH2 0x419 PUSH2 0x165E JUMP JUMPDEST PUSH2 0x421 PUSH2 0x165E JUMP JUMPDEST PUSH2 0x42A DUP2 PUSH2 0x1240 JUMP JUMPDEST POP PUSH2 0x12E0 JUMP JUMPDEST POP PUSH1 0x24 CALLDATALOAD PUSH1 0x3 SSTORE PUSH1 0x44 CALLDATALOAD SWAP1 SSTORE PUSH1 0x64 CALLDATALOAD PUSH1 0x5 SSTORE PUSH1 0x84 CALLDATALOAD PUSH1 0x6 SSTORE PUSH1 0xA4 CALLDATALOAD PUSH1 0x7 SSTORE PUSH1 0xC4 CALLDATALOAD PUSH1 0x8 SSTORE PUSH1 0xE4 CALLDATALOAD PUSH1 0x9 SSTORE PUSH2 0x104 CALLDATALOAD PUSH1 0xA SSTORE TIMESTAMP PUSH1 0xB SSTORE PUSH2 0x46D JUMPI DUP3 DUP1 RETURN JUMPDEST DUP1 SLOAD PUSH9 0xFF0000000000000000 NOT AND SWAP1 SSTORE MLOAD PUSH1 0x1 DUP2 MSTORE PUSH32 0xC7F505B2F371AE2175EE4913F4499E1F2633A7B5936321EED1CDAEB6115181D2 SWAP1 PUSH1 0x20 SWAP1 LOG1 CODESIZE DUP1 DUP3 DUP1 RETURN JUMPDEST PUSH9 0xFFFFFFFFFFFFFFFFFF NOT AND PUSH9 0x10000000000000001 OR DUP6 SSTORE CODESIZE PUSH2 0x410 JUMP JUMPDEST DUP6 MLOAD PUSH4 0xF92EE8A9 PUSH1 0xE0 SHL DUP2 MSTORE DUP4 SWAP1 REVERT JUMPDEST SWAP1 POP ISZERO CODESIZE PUSH2 0x3EF JUMP JUMPDEST ADDRESS EXTCODESIZE ISZERO SWAP2 POP PUSH2 0x3E7 JUMP JUMPDEST DUP6 SWAP2 POP PUSH2 0x3DD JUMP JUMPDEST POP CALLVALUE PUSH2 0x26E JUMPI PUSH2 0x507 CALLDATASIZE PUSH2 0xF80 JUMP JUMPDEST SWAP3 SWAP2 POP POP PUSH1 0xFF DUP5 SLOAD AND PUSH2 0x729 JUMPI PUSH1 0x5 SLOAD DUP3 GT PUSH2 0x6D1 JUMPI PUSH3 0x15180 TIMESTAMP DIV PUSH2 0xE10 TIMESTAMP DIV SWAP1 DUP1 DUP7 MSTORE PUSH1 0x20 SWAP4 PUSH1 0xC DUP6 MSTORE PUSH2 0x540 DUP2 DUP6 DUP10 KECCAK256 SLOAD PUSH2 0x111B JUMP JUMPDEST PUSH1 0x3 SLOAD LT PUSH2 0x67D JUMPI PUSH2 0x55C SWAP1 DUP4 DUP9 MSTORE PUSH1 0xD DUP7 MSTORE DUP5 DUP9 KECCAK256 SLOAD PUSH2 0x111B JUMP JUMPDEST DUP6 SLOAD LT PUSH2 0x628 JUMPI DUP6 MSTORE PUSH1 0xF DUP4 MSTORE DUP2 DUP6 KECCAK256 SLOAD PUSH1 0x7 SLOAD GT ISZERO PUSH2 0x5DA JUMPI DUP5 MSTORE PUSH1 0xE DUP3 MSTORE DUP1 DUP5 KECCAK256 SLOAD PUSH1 0x6 SLOAD GT ISZERO PUSH2 0x58D JUMPI DUP4 DUP1 RETURN JUMPDEST MLOAD PUSH3 0x461BCD PUSH1 0xE5 SHL DUP2 MSTORE SWAP2 DUP3 ADD MSTORE PUSH1 0x24 DUP1 DUP3 ADD MSTORE PUSH32 0x486F75726C79207472616E7366657220636F756E74206C696D69742065786365 PUSH1 0x44 DUP3 ADD MSTORE PUSH4 0x19591959 PUSH1 0xE2 SHL PUSH1 0x64 DUP3 ADD MSTORE PUSH1 0x84 SWAP2 POP REVERT JUMPDEST POP MLOAD PUSH3 0x461BCD PUSH1 0xE5 SHL DUP2 MSTORE SWAP2 DUP3 ADD MSTORE PUSH1 0x23 PUSH1 0x24 DUP3 ADD MSTORE PUSH32 0x4461696C79207472616E7366657220636F756E74206C696D6974206578636565 PUSH1 0x44 DUP3 ADD MSTORE PUSH3 0x191959 PUSH1 0xEA SHL PUSH1 0x64 DUP3 ADD MSTORE PUSH1 0x84 SWAP2 POP REVERT JUMPDEST POP POP MLOAD PUSH3 0x461BCD PUSH1 0xE5 SHL DUP2 MSTORE SWAP2 DUP3 ADD MSTORE PUSH1 0x29 PUSH1 0x24 DUP3 ADD MSTORE PUSH32 0x5472616E7366657220776F756C642065786365656420686F75726C7920766F6C PUSH1 0x44 DUP3 ADD MSTORE PUSH9 0x1D5B59481B1A5B5A5D PUSH1 0xBA SHL PUSH1 0x64 DUP3 ADD MSTORE PUSH1 0x84 SWAP2 POP REVERT JUMPDEST DUP4 MLOAD PUSH3 0x461BCD PUSH1 0xE5 SHL DUP2 MSTORE DUP1 DUP8 ADD DUP7 SWAP1 MSTORE PUSH1 0x28 PUSH1 0x24 DUP3 ADD MSTORE PUSH32 0x5472616E7366657220776F756C6420657863656564206461696C7920766F6C75 PUSH1 0x44 DUP3 ADD MSTORE PUSH8 0x1B59481B1A5B5A5D PUSH1 0xC2 SHL PUSH1 0x64 DUP3 ADD MSTORE PUSH1 0x84 SWAP1 REVERT JUMPDEST MLOAD PUSH3 0x461BCD PUSH1 0xE5 SHL DUP2 MSTORE PUSH1 0x20 DUP2 DUP5 ADD MSTORE PUSH1 0x2D PUSH1 0x24 DUP3 ADD MSTORE PUSH32 0x5472616E7366657220616D6F756E7420657863656564732073696E676C652074 PUSH1 0x44 DUP3 ADD MSTORE PUSH13 0x1C985B9CD9995C881B1A5B5A5D PUSH1 0x9A SHL PUSH1 0x64 DUP3 ADD MSTORE PUSH1 0x84 SWAP1 REVERT JUMPDEST MLOAD PUSH3 0x461BCD PUSH1 0xE5 SHL DUP2 MSTORE PUSH1 0x20 DUP2 DUP5 ADD MSTORE PUSH1 0x19 PUSH1 0x24 DUP3 ADD MSTORE PUSH32 0x4369726375697420627265616B65722069732061637469766500000000000000 PUSH1 0x44 DUP3 ADD MSTORE PUSH1 0x64 SWAP1 REVERT JUMPDEST DUP4 DUP3 CALLVALUE PUSH2 0x2D5 JUMPI DUP2 PUSH1 0x3 NOT CALLDATASIZE ADD SLT PUSH2 0x2D5 JUMPI DUP1 PUSH1 0x20 SWAP3 PUSH3 0x15180 TIMESTAMP DIV DUP2 MSTORE PUSH1 0xC DUP5 MSTORE KECCAK256 SLOAD SWAP1 MLOAD SWAP1 DUP2 MSTORE RETURN JUMPDEST DUP4 DUP3 CALLVALUE PUSH2 0x2D5 JUMPI DUP2 PUSH1 0x3 NOT CALLDATASIZE ADD SLT PUSH2 0x2D5 JUMPI DUP1 PUSH1 0x20 SWAP3 PUSH2 0xE10 TIMESTAMP DIV DUP2 MSTORE PUSH1 0xD DUP5 MSTORE KECCAK256 SLOAD SWAP1 MLOAD SWAP1 DUP2 MSTORE RETURN JUMPDEST DUP4 DUP3 CALLVALUE PUSH2 0x2D5 JUMPI DUP2 PUSH1 0x3 NOT CALLDATASIZE ADD SLT PUSH2 0x2D5 JUMPI MLOAD SWAP1 DUP2 MSTORE PUSH1 0x20 SWAP1 RETURN JUMPDEST DUP4 DUP3 CALLVALUE PUSH2 0x2D5 JUMPI DUP2 PUSH1 0x3 NOT CALLDATASIZE ADD SLT PUSH2 0x2D5 JUMPI PUSH1 0x20 SWAP1 PUSH1 0xB SLOAD SWAP1 MLOAD SWAP1 DUP2 MSTORE RETURN JUMPDEST POP SWAP1 CALLVALUE PUSH2 0x26E JUMPI PUSH1 0x20 CALLDATASIZE PUSH1 0x3 NOT ADD SLT PUSH2 0x26E JUMPI PUSH1 0x20 SWAP3 DUP3 SWAP2 CALLDATALOAD DUP2 MSTORE PUSH1 0xC DUP5 MSTORE KECCAK256 SLOAD SWAP1 MLOAD SWAP1 DUP2 MSTORE RETURN JUMPDEST POP SWAP1 CALLVALUE PUSH2 0x26E JUMPI DUP2 PUSH1 0x3 NOT CALLDATASIZE ADD SLT PUSH2 0x26E JUMPI DUP2 PUSH1 0x20 SWAP4 PUSH1 0xFF SWAP3 PUSH2 0x843 PUSH2 0xF4F JUMP JUMPDEST SWAP1 CALLDATALOAD DUP3 MSTORE PUSH1 0x0 DUP1 MLOAD PUSH1 0x20 PUSH2 0x16A0 DUP4 CODECOPY DUP2 MLOAD SWAP2 MSTORE DUP7 MSTORE DUP3 DUP3 KECCAK256 PUSH1 0x1 PUSH1 0x1 PUSH1 0xA0 SHL SUB SWAP1 SWAP2 AND DUP3 MSTORE DUP6 MSTORE KECCAK256 SLOAD SWAP2 MLOAD SWAP2 AND ISZERO ISZERO DUP2 MSTORE RETURN JUMPDEST POP SWAP1 CALLVALUE PUSH2 0x26E JUMPI PUSH1 0x20 CALLDATASIZE PUSH1 0x3 NOT ADD SLT PUSH2 0x26E JUMPI PUSH1 0x20 SWAP3 DUP3 SWAP2 CALLDATALOAD DUP2 MSTORE PUSH1 0xD DUP5 MSTORE KECCAK256 SLOAD SWAP1 MLOAD SWAP1 DUP2 MSTORE RETURN JUMPDEST DUP4 DUP3 CALLVALUE PUSH2 0x2D5 JUMPI DUP2 PUSH1 0x3 NOT CALLDATASIZE ADD SLT PUSH2 0x2D5 JUMPI DUP1 PUSH1 0x20 SWAP3 PUSH2 0xE10 TIMESTAMP DIV DUP2 MSTORE PUSH1 0xE DUP5 MSTORE KECCAK256 SLOAD SWAP1 MLOAD SWAP1 DUP2 MSTORE RETURN JUMPDEST DUP4 DUP3 CALLVALUE PUSH2 0x2D5 JUMPI PUSH1 0x20 CALLDATASIZE PUSH1 0x3 NOT ADD SLT PUSH2 0x2D5 JUMPI PUSH1 0x20 SWAP2 DUP2 SWAP1 PUSH1 0x1 PUSH1 0x1 PUSH1 0xA0 SHL SUB PUSH2 0x8F0 PUSH2 0xF6A JUMP JUMPDEST AND DUP2 MSTORE PUSH1 0x11 DUP5 MSTORE KECCAK256 SLOAD SWAP1 MLOAD SWAP1 DUP2 MSTORE RETURN JUMPDEST DUP4 DUP3 CALLVALUE PUSH2 0x2D5 JUMPI DUP2 PUSH1 0x3 NOT CALLDATASIZE ADD SLT PUSH2 0x2D5 JUMPI PUSH2 0x931 SWAP1 PUSH2 0x91E PUSH2 0x1027 JUMP JUMPDEST SWAP1 MLOAD SWAP2 DUP3 SWAP2 PUSH1 0x20 DUP4 MSTORE PUSH1 0x20 DUP4 ADD SWAP1 PUSH2 0x10DB JUMP JUMPDEST SUB SWAP1 RETURN JUMPDEST DUP4 DUP3 CALLVALUE PUSH2 0x2D5 JUMPI DUP2 PUSH1 0x3 NOT CALLDATASIZE ADD SLT PUSH2 0x2D5 JUMPI PUSH1 0x20 SWAP1 PUSH1 0x6 SLOAD SWAP1 MLOAD SWAP1 DUP2 MSTORE RETURN JUMPDEST POP CALLVALUE PUSH2 0x26E JUMPI PUSH1 0x20 CALLDATASIZE PUSH1 0x3 NOT ADD SLT PUSH2 0x26E JUMPI DUP3 DUP3 CALLDATALOAD SWAP2 PUSH8 0xFFFFFFFFFFFFFFFF SWAP4 DUP5 DUP5 GT PUSH2 0x26E JUMPI CALLDATASIZE PUSH1 0x23 DUP6 ADD SLT ISZERO PUSH2 0x26E JUMPI DUP4 ADD CALLDATALOAD SWAP4 DUP5 GT PUSH2 0x2D5 JUMPI CALLDATASIZE PUSH1 0x24 DUP6 DUP6 ADD ADD GT PUSH2 0x2D5 JUMPI DUP4 PUSH2 0x9D4 SWAP5 PUSH1 0x24 PUSH1 0x20 SWAP4 PUSH2 0x9AE PUSH2 0x1193 JUMP JUMPDEST MLOAD SWAP6 PUSH2 0x9C3 PUSH1 0x1F DUP5 ADD PUSH1 0x1F NOT AND DUP7 ADD DUP9 PUSH2 0xFEF JUMP JUMPDEST DUP3 DUP8 MSTORE ADD DUP4 DUP7 ADD CALLDATACOPY DUP4 ADD ADD MSTORE PUSH2 0x14AC JUMP JUMPDEST DUP1 RETURN JUMPDEST POP DUP3 SWAP1 CALLVALUE PUSH2 0x2D5 JUMPI PUSH1 0x20 DUP1 PUSH1 0x3 NOT CALLDATASIZE ADD SLT PUSH2 0x26E JUMPI PUSH1 0x1 PUSH1 0x1 PUSH1 0xA0 SHL SUB PUSH2 0x9FC PUSH2 0xF6A JUMP JUMPDEST AND SWAP1 DUP2 DUP5 MSTORE PUSH1 0x11 DUP2 MSTORE DUP3 DUP5 KECCAK256 SLOAD TIMESTAMP SUB TIMESTAMP DUP2 GT PUSH2 0xB05 JUMPI PUSH1 0x9 SLOAD GT PUSH2 0xAEA JUMPI DUP2 DUP5 MSTORE PUSH1 0x10 DUP2 MSTORE PUSH1 0x1 DUP4 DUP6 KECCAK256 SSTORE JUMPDEST DUP2 DUP5 MSTORE PUSH1 0x11 DUP2 MSTORE TIMESTAMP DUP4 DUP6 KECCAK256 SSTORE PUSH1 0x10 DUP2 MSTORE DUP3 DUP5 KECCAK256 SLOAD PUSH1 0x8 SLOAD GT ISZERO PUSH2 0xA49 JUMPI DUP4 DUP1 RETURN JUMPDEST DUP3 MLOAD DUP4 DUP2 ADD DUP2 DUP2 LT PUSH8 0xFFFFFFFFFFFFFFFF DUP3 GT OR PUSH2 0xAD7 JUMPI PUSH32 0xCEF34426B92FD7C1A4DACFB9E7B9625A61226AC4A0E6750A048AD536F84FA87F SWAP6 SWAP7 POP SWAP1 PUSH2 0xABA SWAP2 DUP6 MSTORE PUSH1 0x18 DUP2 MSTORE PUSH32 0x4661696C656420617474656D7074732065786365656465640000000000000000 DUP4 DUP3 ADD MSTORE PUSH2 0x14AC JUMP JUMPDEST DUP2 DUP6 MSTORE PUSH1 0x10 DUP2 MSTORE DUP3 DUP6 KECCAK256 SLOAD SWAP1 DUP4 MLOAD SWAP3 DUP4 MSTORE DUP3 ADD MSTORE LOG1 DUP1 DUP3 DUP1 DUP1 DUP4 DUP1 RETURN JUMPDEST PUSH4 0x4E487B71 PUSH1 0xE0 SHL DUP7 MSTORE PUSH1 0x41 DUP8 MSTORE PUSH1 0x24 DUP7 REVERT JUMPDEST DUP2 DUP5 MSTORE PUSH1 0x10 DUP2 MSTORE DUP3 DUP5 KECCAK256 PUSH2 0xAFE DUP2 SLOAD PUSH2 0x1184 JUMP JUMPDEST SWAP1 SSTORE PUSH2 0xA28 JUMP JUMPDEST PUSH4 0x4E487B71 PUSH1 0xE0 SHL DUP6 MSTORE PUSH1 0x11 DUP7 MSTORE PUSH1 0x24 DUP6 REVERT JUMPDEST POP SWAP1 CALLVALUE PUSH2 0x26E JUMPI PUSH1 0x20 CALLDATASIZE PUSH1 0x3 NOT ADD SLT PUSH2 0x26E JUMPI PUSH1 0x20 SWAP3 DUP3 SWAP2 CALLDATALOAD DUP2 MSTORE PUSH1 0xE DUP5 MSTORE KECCAK256 SLOAD SWAP1 MLOAD SWAP1 DUP2 MSTORE RETURN JUMPDEST DUP4 DUP3 CALLVALUE PUSH2 0x2D5 JUMPI DUP2 PUSH1 0x3 NOT CALLDATASIZE ADD SLT PUSH2 0x2D5 JUMPI PUSH1 0x20 SWAP1 PUSH1 0xA SLOAD SWAP1 MLOAD SWAP1 DUP2 MSTORE RETURN JUMPDEST DUP4 DUP3 CALLVALUE PUSH2 0x2D5 JUMPI DUP2 PUSH1 0x3 NOT CALLDATASIZE ADD SLT PUSH2 0x2D5 JUMPI PUSH1 0x20 SWAP1 PUSH1 0xFF PUSH32 0xCD5ED15C6E187E77E9AEE88184C21F4F2182AB5827CB3B7E07FBEDCD63F03300 SLOAD AND SWAP1 MLOAD SWAP1 ISZERO ISZERO DUP2 MSTORE RETURN JUMPDEST DUP4 DUP3 CALLVALUE PUSH2 0x2D5 JUMPI DUP2 PUSH1 0x3 NOT CALLDATASIZE ADD SLT PUSH2 0x2D5 JUMPI PUSH1 0x20 PUSH32 0x4658F69373ABD2AE36994B6398BA682F149AE01805FEB8227244965D9F320909 SWAP2 PUSH2 0xBE0 PUSH2 0x1193 JUMP JUMPDEST PUSH1 0xFF NOT DUP5 SLOAD AND DUP5 SSTORE PUSH2 0xBFB PUSH2 0xBF6 PUSH1 0x1 SLOAD PUSH2 0xFB5 JUMP JUMPDEST PUSH2 0x113E JUMP JUMPDEST PUSH1 0x0 PUSH1 0x1 SSTORE DUP4 PUSH1 0x2 SSTORE MLOAD TIMESTAMP DUP2 MSTORE LOG1 DUP1 RETURN JUMPDEST DUP4 DUP3 CALLVALUE PUSH2 0x2D5 JUMPI DUP2 PUSH1 0x3 NOT CALLDATASIZE ADD SLT PUSH2 0x2D5 JUMPI PUSH1 0x20 SWAP1 PUSH1 0x5 SLOAD SWAP1 MLOAD SWAP1 DUP2 MSTORE RETURN JUMPDEST POP DUP3 SWAP1 CALLVALUE PUSH2 0x2D5 JUMPI DUP1 PUSH1 0x3 NOT CALLDATASIZE ADD SLT PUSH2 0x2D5 JUMPI PUSH2 0xC46 PUSH2 0xF4F JUMP JUMPDEST SWAP1 CALLER PUSH1 0x1 PUSH1 0x1 PUSH1 0xA0 SHL SUB DUP4 AND SUB PUSH2 0xC63 JUMPI POP PUSH2 0x37C SWAP2 SWAP3 CALLDATALOAD PUSH2 0x1429 JUMP JUMPDEST MLOAD PUSH4 0x334BD919 PUSH1 0xE1 SHL DUP2 MSTORE DUP4 SWAP1 REVERT JUMPDEST DUP4 DUP3 CALLVALUE PUSH2 0x2D5 JUMPI DUP2 PUSH1 0x3 NOT CALLDATASIZE ADD SLT PUSH2 0x2D5 JUMPI PUSH1 0xFF PUSH1 0x20 SWAP3 SLOAD AND SWAP1 MLOAD SWAP1 ISZERO ISZERO DUP2 MSTORE RETURN JUMPDEST DUP4 DUP3 CALLVALUE PUSH2 0x2D5 JUMPI PUSH1 0x20 CALLDATASIZE PUSH1 0x3 NOT ADD SLT PUSH2 0x2D5 JUMPI PUSH1 0x20 SWAP2 DUP2 SWAP1 PUSH1 0x1 PUSH1 0x1 PUSH1 0xA0 SHL SUB PUSH2 0xCBC PUSH2 0xF6A JUMP JUMPDEST AND DUP2 MSTORE PUSH1 0x10 DUP5 MSTORE KECCAK256 SLOAD SWAP1 MLOAD SWAP1 DUP2 MSTORE RETURN JUMPDEST POP CALLVALUE PUSH2 0x26E JUMPI DUP1 PUSH1 0x3 NOT CALLDATASIZE ADD SLT PUSH2 0x26E JUMPI PUSH2 0x37C SWAP2 CALLDATALOAD PUSH2 0xCEF PUSH1 0x1 PUSH2 0x358 PUSH2 0xF4F JUMP JUMPDEST PUSH2 0x13A2 JUMP JUMPDEST DUP4 DUP3 CALLVALUE PUSH2 0x2D5 JUMPI DUP2 PUSH1 0x3 NOT CALLDATASIZE ADD SLT PUSH2 0x2D5 JUMPI PUSH1 0x20 SWAP1 PUSH1 0x9 SLOAD SWAP1 MLOAD SWAP1 DUP2 MSTORE RETURN JUMPDEST POP SWAP1 CALLVALUE PUSH2 0x26E JUMPI PUSH1 0x20 CALLDATASIZE PUSH1 0x3 NOT ADD SLT PUSH2 0x26E JUMPI DUP2 PUSH1 0x20 SWAP4 PUSH1 0x1 SWAP3 CALLDATALOAD DUP2 MSTORE PUSH1 0x0 DUP1 MLOAD PUSH1 0x20 PUSH2 0x16A0 DUP4 CODECOPY DUP2 MLOAD SWAP2 MSTORE DUP6 MSTORE KECCAK256 ADD SLOAD SWAP1 MLOAD SWAP1 DUP2 MSTORE RETURN JUMPDEST DUP4 DUP3 CALLVALUE PUSH2 0x2D5 JUMPI DUP2 PUSH1 0x3 NOT CALLDATASIZE ADD SLT PUSH2 0x2D5 JUMPI DUP1 PUSH1 0x20 SWAP3 PUSH3 0x15180 TIMESTAMP DIV DUP2 MSTORE PUSH1 0xF DUP5 MSTORE KECCAK256 SLOAD SWAP1 MLOAD SWAP1 DUP2 MSTORE RETURN JUMPDEST DUP4 DUP3 CALLVALUE PUSH2 0x2D5 JUMPI DUP2 PUSH1 0x3 NOT CALLDATASIZE ADD SLT PUSH2 0x2D5 JUMPI PUSH1 0x20 SWAP1 PUSH1 0x8 SLOAD SWAP1 MLOAD SWAP1 DUP2 MSTORE RETURN JUMPDEST DUP4 DUP3 CALLVALUE PUSH2 0x2D5 JUMPI DUP2 PUSH1 0x3 NOT CALLDATASIZE ADD SLT PUSH2 0x2D5 JUMPI PUSH1 0x20 SWAP1 PUSH1 0x3 SLOAD SWAP1 MLOAD SWAP1 DUP2 MSTORE RETURN JUMPDEST POP SWAP1 CALLVALUE PUSH2 0x26E JUMPI PUSH1 0x20 CALLDATASIZE PUSH1 0x3 NOT ADD SLT PUSH2 0x26E JUMPI CALLDATALOAD SWAP1 PUSH4 0xFFFFFFFF PUSH1 0xE0 SHL DUP3 AND DUP1 SWAP3 SUB PUSH2 0x26E JUMPI PUSH1 0x20 SWAP3 POP PUSH4 0x7965DB0B PUSH1 0xE0 SHL DUP3 EQ SWAP2 DUP3 ISZERO PUSH2 0xDF9 JUMPI JUMPDEST POP MLOAD SWAP1 ISZERO ISZERO DUP2 MSTORE RETURN JUMPDEST PUSH4 0x1FFC9A7 PUSH1 0xE0 SHL EQ SWAP2 POP CODESIZE PUSH2 0xDF0 JUMP JUMPDEST DUP1 DUP4 CALLVALUE PUSH2 0xE9B JUMPI PUSH2 0xE1A CALLDATASIZE PUSH2 0xF80 JUMP JUMPDEST SWAP1 POP PUSH3 0x15180 TIMESTAMP DIV SWAP1 PUSH2 0xE10 TIMESTAMP DIV SWAP1 DUP3 DUP7 MSTORE PUSH1 0xC PUSH1 0x20 MSTORE DUP5 DUP7 KECCAK256 PUSH2 0xE3F DUP3 DUP3 SLOAD PUSH2 0x111B JUMP JUMPDEST SWAP1 SSTORE DUP2 DUP7 MSTORE PUSH1 0xD PUSH1 0x20 MSTORE PUSH2 0xE57 DUP6 DUP8 KECCAK256 SWAP2 DUP3 SLOAD PUSH2 0x111B JUMP JUMPDEST SWAP1 SSTORE DUP5 MSTORE PUSH1 0xE PUSH1 0x20 MSTORE DUP3 DUP5 KECCAK256 PUSH2 0xE6D DUP2 SLOAD PUSH2 0x1184 JUMP JUMPDEST SWAP1 SSTORE DUP4 MSTORE PUSH1 0xF PUSH1 0x20 MSTORE DUP2 DUP4 KECCAK256 PUSH2 0xE83 DUP2 SLOAD PUSH2 0x1184 JUMP JUMPDEST SWAP1 SSTORE PUSH1 0x1 PUSH1 0x1 PUSH1 0xA0 SHL SUB AND DUP3 MSTORE PUSH1 0x10 PUSH1 0x20 MSTORE DUP2 KECCAK256 SSTORE DUP1 RETURN JUMPDEST POP REVERT JUMPDEST DUP4 DUP3 CALLVALUE PUSH2 0x2D5 JUMPI DUP2 PUSH1 0x3 NOT CALLDATASIZE ADD SLT PUSH2 0x2D5 JUMPI PUSH2 0xEBF PUSH1 0xB SLOAD PUSH1 0xA SLOAD SWAP1 PUSH2 0x111B JUMP JUMPDEST TIMESTAMP LT ISZERO PUSH2 0xECA JUMPI POP DUP1 RETURN JUMPDEST PUSH1 0x20 PUSH32 0xF1B43C2E52A9E846469BAAEBDB63ECFD00023CF4E2B651237F6068F2467D2093 SWAP2 PUSH1 0xFF NOT DUP5 SLOAD AND DUP5 SSTORE PUSH2 0xF04 PUSH2 0xBF6 PUSH1 0x1 SLOAD PUSH2 0xFB5 JUMP JUMPDEST PUSH1 0x0 PUSH1 0x1 SSTORE DUP4 PUSH1 0x2 SSTORE TIMESTAMP PUSH1 0xB SSTORE PUSH3 0x15180 TIMESTAMP DIV DUP1 DUP6 MSTORE PUSH1 0xC DUP4 MSTORE DUP5 DUP3 DUP2 KECCAK256 SSTORE PUSH2 0xE10 TIMESTAMP DIV DUP6 MSTORE PUSH1 0xD DUP4 MSTORE DUP5 DUP3 DUP2 KECCAK256 SSTORE PUSH1 0xE DUP4 MSTORE DUP5 DUP3 DUP2 KECCAK256 SSTORE DUP5 MSTORE PUSH1 0xF DUP3 MSTORE DUP4 DUP2 DUP2 KECCAK256 SSTORE MLOAD TIMESTAMP DUP2 MSTORE LOG1 DUP1 RETURN JUMPDEST PUSH1 0x24 CALLDATALOAD SWAP1 PUSH1 0x1 PUSH1 0x1 PUSH1 0xA0 SHL SUB DUP3 AND DUP3 SUB PUSH2 0xF65 JUMPI JUMP JUMPDEST PUSH1 0x0 DUP1 REVERT JUMPDEST PUSH1 0x4 CALLDATALOAD SWAP1 PUSH1 0x1 PUSH1 0x1 PUSH1 0xA0 SHL SUB DUP3 AND DUP3 SUB PUSH2 0xF65 JUMPI JUMP JUMPDEST PUSH1 0x60 SWAP1 PUSH1 0x3 NOT ADD SLT PUSH2 0xF65 JUMPI PUSH1 0x1 PUSH1 0x1 PUSH1 0xA0 SHL SUB SWAP1 PUSH1 0x4 CALLDATALOAD DUP3 DUP2 AND DUP2 SUB PUSH2 0xF65 JUMPI SWAP2 PUSH1 0x24 CALLDATALOAD SWAP1 DUP2 AND DUP2 SUB PUSH2 0xF65 JUMPI SWAP1 PUSH1 0x44 CALLDATALOAD SWAP1 JUMP JUMPDEST SWAP1 PUSH1 0x1 DUP3 DUP2 SHR SWAP3 AND DUP1 ISZERO PUSH2 0xFE5 JUMPI JUMPDEST PUSH1 0x20 DUP4 LT EQ PUSH2 0xFCF JUMPI JUMP JUMPDEST PUSH4 0x4E487B71 PUSH1 0xE0 SHL PUSH1 0x0 MSTORE PUSH1 0x22 PUSH1 0x4 MSTORE PUSH1 0x24 PUSH1 0x0 REVERT JUMPDEST SWAP2 PUSH1 0x7F AND SWAP2 PUSH2 0xFC4 JUMP JUMPDEST SWAP1 PUSH1 0x1F DUP1 NOT SWAP2 ADD AND DUP2 ADD SWAP1 DUP2 LT PUSH8 0xFFFFFFFFFFFFFFFF DUP3 GT OR PUSH2 0x1011 JUMPI PUSH1 0x40 MSTORE JUMP JUMPDEST PUSH4 0x4E487B71 PUSH1 0xE0 SHL PUSH1 0x0 MSTORE PUSH1 0x41 PUSH1 0x4 MSTORE PUSH1 0x24 PUSH1 0x0 REVERT JUMPDEST PUSH1 0x40 MLOAD SWAP1 PUSH1 0x0 DUP3 PUSH1 0x1 SWAP2 PUSH1 0x1 SLOAD PUSH2 0x103D DUP2 PUSH2 0xFB5 JUMP JUMPDEST DUP1 DUP5 MSTORE SWAP4 PUSH1 0x20 SWAP2 PUSH1 0x1 DUP2 AND SWAP1 DUP2 ISZERO PUSH2 0x10B7 JUMPI POP PUSH1 0x1 EQ PUSH2 0x1068 JUMPI JUMPDEST POP POP PUSH2 0x1066 SWAP3 POP SUB DUP4 PUSH2 0xFEF JUMP JUMPDEST JUMP JUMPDEST SWAP2 POP SWAP3 PUSH1 0x1 PUSH1 0x0 MSTORE PUSH1 0x0 DUP1 MLOAD PUSH1 0x20 PUSH2 0x16C0 DUP4 CODECOPY DUP2 MLOAD SWAP2 MSTORE SWAP4 PUSH1 0x0 SWAP3 JUMPDEST DUP3 DUP5 LT PUSH2 0x109F JUMPI POP PUSH2 0x1066 SWAP5 POP POP POP DUP2 ADD PUSH1 0x20 ADD CODESIZE DUP1 PUSH2 0x1058 JUMP JUMPDEST DUP6 SLOAD DUP9 DUP6 ADD DUP4 ADD MSTORE SWAP5 DUP6 ADD SWAP5 DUP8 SWAP5 POP SWAP3 DUP2 ADD SWAP3 PUSH2 0x1084 JUMP JUMPDEST SWAP2 POP POP PUSH1 0x20 SWAP3 POP PUSH2 0x1066 SWAP5 SWAP2 POP PUSH1 0xFF NOT AND DUP3 DUP5 ADD MSTORE ISZERO ISZERO PUSH1 0x5 SHL DUP3 ADD ADD CODESIZE DUP1 PUSH2 0x1058 JUMP JUMPDEST SWAP2 SWAP1 DUP3 MLOAD SWAP3 DUP4 DUP3 MSTORE PUSH1 0x0 JUMPDEST DUP5 DUP2 LT PUSH2 0x1107 JUMPI POP POP DUP3 PUSH1 0x0 PUSH1 0x20 DUP1 SWAP5 SWAP6 DUP5 ADD ADD MSTORE PUSH1 0x1F DUP1 NOT SWAP2 ADD AND ADD ADD SWAP1 JUMP JUMPDEST PUSH1 0x20 DUP2 DUP4 ADD DUP2 ADD MLOAD DUP5 DUP4 ADD DUP3 ADD MSTORE ADD PUSH2 0x10E6 JUMP JUMPDEST SWAP2 SWAP1 DUP3 ADD DUP1 SWAP3 GT PUSH2 0x1128 JUMPI JUMP JUMPDEST PUSH4 0x4E487B71 PUSH1 0xE0 SHL PUSH1 0x0 MSTORE PUSH1 0x11 PUSH1 0x4 MSTORE PUSH1 0x24 PUSH1 0x0 REVERT JUMPDEST PUSH1 0x1F DUP2 GT PUSH2 0x1149 JUMPI POP JUMP JUMPDEST PUSH1 0x1 SWAP1 PUSH1 0x0 PUSH1 0x1 PUSH1 0x0 MSTORE PUSH1 0x1F PUSH1 0x0 DUP1 MLOAD PUSH1 0x20 PUSH2 0x16C0 DUP4 CODECOPY DUP2 MLOAD SWAP2 MSTORE SWAP3 ADD PUSH1 0x5 SHR DUP3 ADD SWAP2 JUMPDEST DUP3 DUP2 LT PUSH2 0x117A JUMPI POP POP POP POP JUMP JUMPDEST DUP2 DUP2 SSTORE DUP4 ADD PUSH2 0x116D JUMP JUMPDEST PUSH1 0x0 NOT DUP2 EQ PUSH2 0x1128 JUMPI PUSH1 0x1 ADD SWAP1 JUMP JUMPDEST CALLER PUSH1 0x0 SWAP1 DUP2 MSTORE PUSH32 0x4D7367B4C45C93361C07A01249CC1EF90933A8773F26DF2DABD0FB4074504D11 PUSH1 0x20 MSTORE PUSH1 0x40 SWAP1 KECCAK256 SLOAD PUSH32 0x7E6B58BC1470E1FC07BC9B21E0435BE41FDC30EDE9591781476A8D169A265492 SWAP1 PUSH1 0xFF AND ISZERO PUSH2 0x11EF JUMPI POP JUMP JUMPDEST PUSH1 0x44 SWAP1 PUSH1 0x40 MLOAD SWAP1 PUSH4 0xE2517D3F PUSH1 0xE0 SHL DUP3 MSTORE CALLER PUSH1 0x4 DUP4 ADD MSTORE PUSH1 0x24 DUP3 ADD MSTORE REVERT JUMPDEST DUP1 PUSH1 0x0 MSTORE PUSH1 0x0 DUP1 MLOAD PUSH1 0x20 PUSH2 0x16A0 DUP4 CODECOPY DUP2 MLOAD SWAP2 MSTORE PUSH1 0x20 MSTORE PUSH1 0x40 PUSH1 0x0 KECCAK256 CALLER PUSH1 0x0 MSTORE PUSH1 0x20 MSTORE PUSH1 0xFF PUSH1 0x40 PUSH1 0x0 KECCAK256 SLOAD AND ISZERO PUSH2 0x11EF JUMPI POP JUMP JUMPDEST PUSH1 0x1 PUSH1 0x1 PUSH1 0xA0 SHL SUB AND PUSH1 0x0 DUP2 DUP2 MSTORE PUSH32 0xB7DB2DD08FCB62D0C9E08C51941CAE53C267786A0B75803FB7960902FC8EF97D PUSH1 0x20 MSTORE PUSH1 0x40 DUP2 KECCAK256 SLOAD SWAP1 SWAP2 SWAP1 PUSH1 0x0 DUP1 MLOAD PUSH1 0x20 PUSH2 0x16A0 DUP4 CODECOPY DUP2 MLOAD SWAP2 MSTORE SWAP1 PUSH1 0xFF AND PUSH2 0x12DB JUMPI DUP3 DUP1 MSTORE PUSH1 0x20 MSTORE PUSH1 0x40 DUP3 KECCAK256 DUP2 DUP4 MSTORE PUSH1 0x20 MSTORE PUSH1 0x40 DUP3 KECCAK256 PUSH1 0x1 PUSH1 0xFF NOT DUP3 SLOAD AND OR SWAP1 SSTORE CALLER SWAP2 PUSH32 0x2F8788117E7EFF1D82E926EC794901D17C78024A50270940304540A733656F0D DUP2 DUP1 LOG4 PUSH1 0x1 SWAP1 JUMP JUMPDEST POP POP SWAP1 JUMP JUMPDEST PUSH1 0x1 PUSH1 0x1 PUSH1 0xA0 SHL SUB AND PUSH1 0x0 DUP2 DUP2 MSTORE PUSH32 0x4D7367B4C45C93361C07A01249CC1EF90933A8773F26DF2DABD0FB4074504D11 PUSH1 0x20 MSTORE PUSH1 0x40 DUP2 KECCAK256 SLOAD SWAP1 SWAP2 SWAP1 PUSH32 0x7E6B58BC1470E1FC07BC9B21E0435BE41FDC30EDE9591781476A8D169A265492 SWAP1 PUSH1 0x0 DUP1 MLOAD PUSH1 0x20 PUSH2 0x16A0 DUP4 CODECOPY DUP2 MLOAD SWAP2 MSTORE SWAP1 PUSH1 0xFF AND PUSH2 0x139C JUMPI DUP2 DUP5 MSTORE PUSH1 0x20 MSTORE PUSH1 0x40 DUP4 KECCAK256 DUP3 DUP5 MSTORE PUSH1 0x20 MSTORE PUSH1 0x40 DUP4 KECCAK256 PUSH1 0x1 PUSH1 0xFF NOT DUP3 SLOAD AND OR SWAP1 SSTORE PUSH32 0x2F8788117E7EFF1D82E926EC794901D17C78024A50270940304540A733656F0D CALLER SWAP4 DUP1 LOG4 PUSH1 0x1 SWAP1 JUMP JUMPDEST POP POP POP SWAP1 JUMP JUMPDEST SWAP1 PUSH1 0x0 SWAP2 DUP1 DUP4 MSTORE PUSH1 0x0 DUP1 MLOAD PUSH1 0x20 PUSH2 0x16A0 DUP4 CODECOPY DUP2 MLOAD SWAP2 MSTORE DUP1 PUSH1 0x20 MSTORE PUSH1 0x40 DUP5 KECCAK256 SWAP3 PUSH1 0x1 DUP1 PUSH1 0xA0 SHL SUB AND SWAP3 DUP4 DUP6 MSTORE PUSH1 0x20 MSTORE PUSH1 0xFF PUSH1 0x40 DUP6 KECCAK256 SLOAD AND ISZERO PUSH1 0x0 EQ PUSH2 0x139C JUMPI DUP2 DUP5 MSTORE PUSH1 0x20 MSTORE PUSH1 0x40 DUP4 KECCAK256 DUP3 DUP5 MSTORE PUSH1 0x20 MSTORE PUSH1 0x40 DUP4 KECCAK256 PUSH1 0x1 PUSH1 0xFF NOT DUP3 SLOAD AND OR SWAP1 SSTORE PUSH32 0x2F8788117E7EFF1D82E926EC794901D17C78024A50270940304540A733656F0D CALLER SWAP4 DUP1 LOG4 PUSH1 0x1 SWAP1 JUMP JUMPDEST SWAP1 PUSH1 0x0 SWAP2 DUP1 DUP4 MSTORE PUSH1 0x0 DUP1 MLOAD PUSH1 0x20 PUSH2 0x16A0 DUP4 CODECOPY DUP2 MLOAD SWAP2 MSTORE DUP1 PUSH1 0x20 MSTORE PUSH1 0x40 DUP5 KECCAK256 SWAP3 PUSH1 0x1 DUP1 PUSH1 0xA0 SHL SUB AND SWAP3 DUP4 DUP6 MSTORE PUSH1 0x20 MSTORE PUSH1 0xFF PUSH1 0x40 DUP6 KECCAK256 SLOAD AND PUSH1 0x0 EQ PUSH2 0x139C JUMPI DUP2 DUP5 MSTORE PUSH1 0x20 MSTORE PUSH1 0x40 DUP4 KECCAK256 DUP3 DUP5 MSTORE PUSH1 0x20 MSTORE PUSH1 0x40 DUP4 KECCAK256 PUSH1 0xFF NOT DUP2 SLOAD AND SWAP1 SSTORE PUSH32 0xF6391F5C32D9C69D2A47EA670B442974B53935D1EDC7FD64EB21E047A839171B CALLER SWAP4 DUP1 LOG4 PUSH1 0x1 SWAP1 JUMP JUMPDEST PUSH1 0x0 DUP1 SLOAD PUSH1 0xFF NOT AND PUSH1 0x1 SWAP1 DUP2 OR DUP3 SSTORE DUP3 MLOAD SWAP4 SWAP3 SWAP2 PUSH8 0xFFFFFFFFFFFFFFFF DUP6 GT PUSH2 0x164A JUMPI PUSH2 0x14D9 DUP3 SLOAD PUSH2 0xFB5 JUMP JUMPDEST PUSH1 0x1F DUP2 GT PUSH2 0x15F7 JUMPI JUMPDEST POP PUSH1 0x20 SWAP1 DUP2 PUSH1 0x1 PUSH1 0x1F DUP9 GT EQ PUSH2 0x1564 JUMPI POP SWAP4 SWAP5 PUSH32 0x11803DAFFB8BD292F79DC0D607F5A1C30184B28E74CA55F6352D0D874D210727 SWAP5 PUSH2 0x154E SWAP5 SWAP4 SWAP3 DUP3 PUSH2 0x1559 JUMPI JUMPDEST POP PUSH1 0x0 NOT PUSH1 0x3 DUP4 SWAP1 SHL SHR NOT AND SWAP1 DUP3 SHL OR SWAP1 SSTORE JUMPDEST TIMESTAMP PUSH1 0x2 SSTORE PUSH1 0x40 MLOAD SWAP2 DUP3 SWAP2 PUSH1 0x40 DUP4 MSTORE PUSH1 0x40 DUP4 ADD SWAP1 PUSH2 0x10DB JUMP JUMPDEST TIMESTAMP PUSH1 0x20 DUP4 ADD MSTORE SUB SWAP1 LOG1 JUMP JUMPDEST SWAP1 POP DUP4 ADD MLOAD CODESIZE PUSH2 0x1523 JUMP JUMPDEST DUP4 DUP3 MSTORE PUSH1 0x0 DUP1 MLOAD PUSH1 0x20 PUSH2 0x16C0 DUP4 CODECOPY DUP2 MLOAD SWAP2 MSTORE SWAP3 SWAP2 PUSH1 0x1F NOT DUP9 AND SWAP2 JUMPDEST DUP3 DUP3 LT PUSH2 0x15E0 JUMPI POP POP SWAP6 DUP4 SWAP3 PUSH2 0x154E SWAP6 SWAP5 SWAP3 DUP3 PUSH32 0x11803DAFFB8BD292F79DC0D607F5A1C30184B28E74CA55F6352D0D874D210727 SWAP9 SWAP10 LT PUSH2 0x15C7 JUMPI JUMPDEST POP POP DUP2 SHL ADD SWAP1 SSTORE PUSH2 0x1536 JUMP JUMPDEST DUP6 ADD MLOAD PUSH1 0x0 NOT PUSH1 0xF8 DUP5 PUSH1 0x3 SHL AND SHR NOT AND SWAP1 SSTORE CODESIZE DUP1 PUSH2 0x15BB JUMP JUMPDEST DUP1 DUP7 DUP6 SWAP7 DUP3 SWAP5 SWAP7 DUP11 ADD MLOAD DUP2 SSTORE ADD SWAP6 ADD SWAP4 ADD SWAP1 PUSH2 0x157F JUMP JUMPDEST DUP3 DUP3 MSTORE PUSH1 0x0 DUP1 MLOAD PUSH1 0x20 PUSH2 0x16C0 DUP4 CODECOPY DUP2 MLOAD SWAP2 MSTORE PUSH1 0x1F DUP8 ADD PUSH1 0x5 SHR DUP2 ADD SWAP2 PUSH1 0x20 DUP9 LT PUSH2 0x1640 JUMPI JUMPDEST PUSH1 0x1F ADD PUSH1 0x5 SHR ADD SWAP1 DUP4 SWAP1 JUMPDEST DUP3 DUP2 LT PUSH2 0x1635 JUMPI POP POP PUSH2 0x14E2 JUMP JUMPDEST DUP4 DUP2 SSTORE ADD DUP4 SWAP1 PUSH2 0x1627 JUMP JUMPDEST SWAP1 SWAP2 POP DUP2 SWAP1 PUSH2 0x161C JUMP JUMPDEST PUSH4 0x4E487B71 PUSH1 0xE0 SHL DUP2 MSTORE PUSH1 0x41 PUSH1 0x4 MSTORE PUSH1 0x24 SWAP1 REVERT JUMPDEST PUSH1 0xFF PUSH32 0xF0C57E16840DF040F15088DC2F81FE391C3923BEC73E23A9662EFC9C229C6A00 SLOAD PUSH1 0x40 SHR AND ISZERO PUSH2 0x168D JUMPI JUMP JUMPDEST PUSH1 0x40 MLOAD PUSH4 0x1AFCD79F PUSH1 0xE3 SHL DUP2 MSTORE PUSH1 0x4 SWAP1 REVERT INVALID MUL 0xDD PUSH28 0xC7DEC4DCEEDDA775E58DD541E08A116C6C53815C0BD028192F7B6268 STOP 0xB1 0xE 0x2D MSTORE PUSH23 0x12073B26EECDFD717E6A320CF44B4AFAC2B0732D9FCBE2 0xB7 STATICCALL 0xC 0xF6 LOG2 PUSH5 0x6970667358 0x22 SLT KECCAK256 PUSH2 0xF186 PUSH6 0xEFFE1162FA9F 0x4B JUMPDEST GAS AND BALANCE LT 0xEF SLOAD 0xF7 PUSH21 0xAAEC0D11793C6FBB72EE2C4D64736F6C6343000816 STOP CALLER "},"methodIdentifiers":{"CIRCUIT_BREAKER_ROLE()":"e54e55ae","DEFAULT_ADMIN_ROLE()":"a217fddf","activateCircuitBreaker(string)":"6b5a0d8c","activationReason()":"44baa6c2","activationTime()":"da4493f6","autoReset()":"0006d1c5","autoResetInterval()":"5feb1f71","checkTransfer(address,address,uint256)":"cc1dd94f","dailyTransferCount(uint256)":"e6b64fdb","dailyVolume(uint256)":"943ca3b9","deactivateCircuitBreaker()":"42200b9e","failedAttemptWindow()":"258061aa","failedAttempts(address)":"32627ec7","getActivationReason()":"789b6315","getCurrentDailyTransferCount()":"13935857","getCurrentDailyVolume()":"ae6e0145","getCurrentHourlyTransferCount()":"7c5cf169","getCurrentHourlyVolume()":"a7e02d75","getRoleAdmin(bytes32)":"248a9ca3","grantRole(bytes32,address)":"2f2ff15d","hasRole(bytes32,address)":"91d14854","hourlyTransferCount(uint256)":"63236f49","hourlyVolume(uint256)":"8fbf5929","initialize(address,uint256,uint256,uint256,uint256,uint256,uint256,uint256,uint256)":"d114e6fc","isActive()":"22f3e2d4","isCircuitBreakerActive()":"32941ecb","lastFailedAttempt(address)":"7b969e1d","lastResetTime()":"a2177124","maxDailyVolume()":"07df2f18","maxFailedAttempts()":"12da5d1e","maxHourlyVolume()":"df18315b","maxSingleTransfer()":"36b089d8","maxTransfersPerDay()":"da4a64bc","maxTransfersPerHour()":"6c58ab83","paused()":"5c975abb","recordFailedAttempt(address)":"668fb1be","recordTransfer(address,address,uint256)":"01e3a903","renounceRole(bytes32,address)":"36568abe","revokeRole(bytes32,address)":"d547741f","supportsInterface(bytes4)":"01ffc9a7","updateLimits(uint256,uint256,uint256,uint256,uint256,uint256,uint256,uint256)":"fd270b8d"}},"storageLayout":{"storage":[{"astId":9055,"contract":"contracts/CircuitBreaker.sol:CircuitBreaker","label":"isCircuitBreakerActive","offset":0,"slot":"0","type":"t_bool"},{"astId":9057,"contract":"contracts/CircuitBreaker.sol:CircuitBreaker","label":"activationReason","offset":0,"slot":"1","type":"t_string_storage"},{"astId":9059,"contract":"contracts/CircuitBreaker.sol:CircuitBreaker","label":"activationTime","offset":0,"slot":"2","type":"t_uint256"},{"astId":9061,"contract":"contracts/CircuitBreaker.sol:CircuitBreaker","label":"maxDailyVolume","offset":0,"slot":"3","type":"t_uint256"},{"astId":9063,"contract":"contracts/CircuitBreaker.sol:CircuitBreaker","label":"maxHourlyVolume","offset":0,"slot":"4","type":"t_uint256"},{"astId":9065,"contract":"contracts/CircuitBreaker.sol:CircuitBreaker","label":"maxSingleTransfer","offset":0,"slot":"5","type":"t_uint256"},{"astId":9067,"contract":"contracts/CircuitBreaker.sol:CircuitBreaker","label":"maxTransfersPerHour","offset":0,"slot":"6","type":"t_uint256"},{"astId":9069,"contract":"contracts/CircuitBreaker.sol:CircuitBreaker","label":"maxTransfersPerDay","offset":0,"slot":"7","type":"t_uint256"},{"astId":9071,"contract":"contracts/CircuitBreaker.sol:CircuitBreaker","label":"maxFailedAttempts","offset":0,"slot":"8","type":"t_uint256"},{"astId":9073,"contract":"contracts/CircuitBreaker.sol:CircuitBreaker","label":"failedAttemptWindow","offset":0,"slot":"9","type":"t_uint256"},{"astId":9075,"contract":"contracts/CircuitBreaker.sol:CircuitBreaker","label":"autoResetInterval","offset":0,"slot":"10","type":"t_uint256"},{"astId":9077,"contract":"contracts/CircuitBreaker.sol:CircuitBreaker","label":"lastResetTime","offset":0,"slot":"11","type":"t_uint256"},{"astId":9081,"contract":"contracts/CircuitBreaker.sol:CircuitBreaker","label":"dailyVolume","offset":0,"slot":"12","type":"t_mapping(t_uint256,t_uint256)"},{"astId":9085,"contract":"contracts/CircuitBreaker.sol:CircuitBreaker","label":"hourlyVolume","offset":0,"slot":"13","type":"t_mapping(t_uint256,t_uint256)"},{"astId":9089,"contract":"contracts/CircuitBreaker.sol:CircuitBreaker","label":"hourlyTransferCount","offset":0,"slot":"14","type":"t_mapping(t_uint256,t_uint256)"},{"astId":9093,"contract":"contracts/CircuitBreaker.sol:CircuitBreaker","label":"dailyTransferCount","offset":0,"slot":"15","type":"t_mapping(t_uint256,t_uint256)"},{"astId":9097,"contract":"contracts/CircuitBreaker.sol:CircuitBreaker","label":"failedAttempts","offset":0,"slot":"16","type":"t_mapping(t_address,t_uint256)"},{"astId":9101,"contract":"contracts/CircuitBreaker.sol:CircuitBreaker","label":"lastFailedAttempt","offset":0,"slot":"17","type":"t_mapping(t_address,t_uint256)"}],"types":{"t_address":{"encoding":"inplace","label":"address","numberOfBytes":"20"},"t_bool":{"encoding":"inplace","label":"bool","numberOfBytes":"1"},"t_mapping(t_address,t_uint256)":{"encoding":"mapping","key":"t_address","label":"mapping(address => uint256)","numberOfBytes":"32","value":"t_uint256"},"t_mapping(t_uint256,t_uint256)":{"encoding":"mapping","key":"t_uint256","label":"mapping(uint256 => uint256)","numberOfBytes":"32","value":"t_uint256"},"t_string_storage":{"encoding":"bytes","label":"string","numberOfBytes":"32"},"t_uint256":{"encoding":"inplace","label":"uint256","numberOfBytes":"32"}}}}}}