{
    "contractName": "NEBAminimalSimple",
    "abi": [
        {
            "inputs": [],
            "stateMutability": "nonpayable",
            "type": "constructor"
        },
        {
            "inputs": [
                {
                    "internalType": "address",
                    "name": "target",
                    "type": "address"
                }
            ],
            "name": "AddressEmptyCode",
            "type": "error"
        },
        {
            "inputs": [],
            "name": "ECDSAInvalidSignature",
            "type": "error"
        },
        {
            "inputs": [
                {
                    "internalType": "uint256",
                    "name": "length",
                    "type": "uint256"
                }
            ],
            "name": "ECDSAInvalidSignatureLength",
            "type": "error"
        },
        {
            "inputs": [
                {
                    "internalType": "bytes32",
                    "name": "s",
                    "type": "bytes32"
                }
            ],
            "name": "ECDSAInvalidSignatureS",
            "type": "error"
        },
        {
            "inputs": [
                {
                    "internalType": "address",
                    "name": "implementation",
                    "type": "address"
                }
            ],
            "name": "ERC1967InvalidImplementation",
            "type": "error"
        },
        {
            "inputs": [],
            "name": "ERC1967NonPayable",
            "type": "error"
        },
        {
            "inputs": [
                {
                    "internalType": "uint256",
                    "name": "increasedSupply",
                    "type": "uint256"
                },
                {
                    "internalType": "uint256",
                    "name": "cap",
                    "type": "uint256"
                }
            ],
            "name": "ERC20ExceededCap",
            "type": "error"
        },
        {
            "inputs": [
                {
                    "internalType": "address",
                    "name": "spender",
                    "type": "address"
                },
                {
                    "internalType": "uint256",
                    "name": "allowance",
                    "type": "uint256"
                },
                {
                    "internalType": "uint256",
                    "name": "needed",
                    "type": "uint256"
                }
            ],
            "name": "ERC20InsufficientAllowance",
            "type": "error"
        },
        {
            "inputs": [
                {
                    "internalType": "address",
                    "name": "sender",
                    "type": "address"
                },
                {
                    "internalType": "uint256",
                    "name": "balance",
                    "type": "uint256"
                },
                {
                    "internalType": "uint256",
                    "name": "needed",
                    "type": "uint256"
                }
            ],
            "name": "ERC20InsufficientBalance",
            "type": "error"
        },
        {
            "inputs": [
                {
                    "internalType": "address",
                    "name": "approver",
                    "type": "address"
                }
            ],
            "name": "ERC20InvalidApprover",
            "type": "error"
        },
        {
            "inputs": [
                {
                    "internalType": "uint256",
                    "name": "cap",
                    "type": "uint256"
                }
            ],
            "name": "ERC20InvalidCap",
            "type": "error"
        },
        {
            "inputs": [
                {
                    "internalType": "address",
                    "name": "receiver",
                    "type": "address"
                }
            ],
            "name": "ERC20InvalidReceiver",
            "type": "error"
        },
        {
            "inputs": [
                {
                    "internalType": "address",
                    "name": "sender",
                    "type": "address"
                }
            ],
            "name": "ERC20InvalidSender",
            "type": "error"
        },
        {
            "inputs": [
                {
                    "internalType": "address",
                    "name": "spender",
                    "type": "address"
                }
            ],
            "name": "ERC20InvalidSpender",
            "type": "error"
        },
        {
            "inputs": [
                {
                    "internalType": "uint256",
                    "name": "deadline",
                    "type": "uint256"
                }
            ],
            "name": "ERC2612ExpiredSignature",
            "type": "error"
        },
        {
            "inputs": [
                {
                    "internalType": "address",
                    "name": "signer",
                    "type": "address"
                },
                {
                    "internalType": "address",
                    "name": "owner",
                    "type": "address"
                }
            ],
            "name": "ERC2612InvalidSigner",
            "type": "error"
        },
        {
            "inputs": [],
            "name": "FailedCall",
            "type": "error"
        },
        {
            "inputs": [
                {
                    "internalType": "address",
                    "name": "account",
                    "type": "address"
                },
                {
                    "internalType": "uint256",
                    "name": "currentNonce",
                    "type": "uint256"
                }
            ],
            "name": "InvalidAccountNonce",
            "type": "error"
        },
        {
            "inputs": [],
            "name": "InvalidAddress",
            "type": "error"
        },
        {
            "inputs": [],
            "name": "InvalidInitialization",
            "type": "error"
        },
        {
            "inputs": [],
            "name": "NotInitializing",
            "type": "error"
        },
        {
            "inputs": [],
            "name": "ReentrancyGuardReentrantCall",
            "type": "error"
        },
        {
            "inputs": [],
            "name": "UUPSUnauthorizedCallContext",
            "type": "error"
        },
        {
            "inputs": [
                {
                    "internalType": "bytes32",
                    "name": "slot",
                    "type": "bytes32"
                }
            ],
            "name": "UUPSUnsupportedProxiableUUID",
            "type": "error"
        },
        {
            "anonymous": false,
            "inputs": [
                {
                    "indexed": true,
                    "internalType": "address",
                    "name": "owner",
                    "type": "address"
                },
                {
                    "indexed": true,
                    "internalType": "address",
                    "name": "spender",
                    "type": "address"
                },
                {
                    "indexed": false,
                    "internalType": "uint256",
                    "name": "value",
                    "type": "uint256"
                }
            ],
            "name": "Approval",
            "type": "event"
        },
        {
            "anonymous": false,
            "inputs": [],
            "name": "EIP712DomainChanged",
            "type": "event"
        },
        {
            "anonymous": false,
            "inputs": [
                {
                    "indexed": false,
                    "internalType": "uint64",
                    "name": "version",
                    "type": "uint64"
                }
            ],
            "name": "Initialized",
            "type": "event"
        },
        {
            "anonymous": false,
            "inputs": [
                {
                    "indexed": true,
                    "internalType": "address",
                    "name": "from",
                    "type": "address"
                },
                {
                    "indexed": true,
                    "internalType": "address",
                    "name": "to",
                    "type": "address"
                },
                {
                    "indexed": false,
                    "internalType": "uint256",
                    "name": "value",
                    "type": "uint256"
                }
            ],
            "name": "Transfer",
            "type": "event"
        },
        {
            "anonymous": false,
            "inputs": [
                {
                    "indexed": true,
                    "internalType": "address",
                    "name": "oldTreasury",
                    "type": "address"
                },
                {
                    "indexed": true,
                    "internalType": "address",
                    "name": "newTreasury",
                    "type": "address"
                }
            ],
            "name": "TreasuryUpdated",
            "type": "event"
        },
        {
            "anonymous": false,
            "inputs": [
                {
                    "indexed": true,
                    "internalType": "address",
                    "name": "implementation",
                    "type": "address"
                }
            ],
            "name": "Upgraded",
            "type": "event"
        },
        {
            "inputs": [],
            "name": "DOMAIN_SEPARATOR",
            "outputs": [
                {
                    "internalType": "bytes32",
                    "name": "",
                    "type": "bytes32"
                }
            ],
            "stateMutability": "view",
            "type": "function"
        },
        {
            "inputs": [],
            "name": "MAX_SUPPLY",
            "outputs": [
                {
                    "internalType": "uint256",
                    "name": "",
                    "type": "uint256"
                }
            ],
            "stateMutability": "view",
            "type": "function"
        },
        {
            "inputs": [],
            "name": "TOKEN_DECIMALS",
            "outputs": [
                {
                    "internalType": "uint8",
                    "name": "",
                    "type": "uint8"
                }
            ],
            "stateMutability": "view",
            "type": "function"
        },
        {
            "inputs": [],
            "name": "TOKEN_NAME",
            "outputs": [
                {
                    "internalType": "string",
                    "name": "",
                    "type": "string"
                }
            ],
            "stateMutability": "view",
            "type": "function"
        },
        {
            "inputs": [],
            "name": "TOKEN_SYMBOL",
            "outputs": [
                {
                    "internalType": "string",
                    "name": "",
                    "type": "string"
                }
            ],
            "stateMutability": "view",
            "type": "function"
        },
        {
            "inputs": [],
            "name": "UPGRADE_INTERFACE_VERSION",
            "outputs": [
                {
                    "internalType": "string",
                    "name": "",
                    "type": "string"
                }
            ],
            "stateMutability": "view",
            "type": "function"
        },
        {
            "inputs": [],
            "name": "admin",
            "outputs": [
                {
                    "internalType": "address",
                    "name": "",
                    "type": "address"
                }
            ],
            "stateMutability": "view",
            "type": "function"
        },
        {
            "inputs": [
                {
                    "internalType": "address",
                    "name": "owner",
                    "type": "address"
                },
                {
                    "internalType": "address",
                    "name": "spender",
                    "type": "address"
                }
            ],
            "name": "allowance",
            "outputs": [
                {
                    "internalType": "uint256",
                    "name": "",
                    "type": "uint256"
                }
            ],
            "stateMutability": "view",
            "type": "function"
        },
        {
            "inputs": [
                {
                    "internalType": "address",
                    "name": "spender",
                    "type": "address"
                },
                {
                    "internalType": "uint256",
                    "name": "value",
                    "type": "uint256"
                }
            ],
            "name": "approve",
            "outputs": [
                {
                    "internalType": "bool",
                    "name": "",
                    "type": "bool"
                }
            ],
            "stateMutability": "nonpayable",
            "type": "function"
        },
        {
            "inputs": [
                {
                    "internalType": "address",
                    "name": "account",
                    "type": "address"
                }
            ],
            "name": "balanceOf",
            "outputs": [
                {
                    "internalType": "uint256",
                    "name": "",
                    "type": "uint256"
                }
            ],
            "stateMutability": "view",
            "type": "function"
        },
        {
            "inputs": [],
            "name": "cap",
            "outputs": [
                {
                    "internalType": "uint256",
                    "name": "",
                    "type": "uint256"
                }
            ],
            "stateMutability": "pure",
            "type": "function"
        },
        {
            "inputs": [],
            "name": "decimals",
            "outputs": [
                {
                    "internalType": "uint8",
                    "name": "",
                    "type": "uint8"
                }
            ],
            "stateMutability": "view",
            "type": "function"
        },
        {
            "inputs": [],
            "name": "eip712Domain",
            "outputs": [
                {
                    "internalType": "bytes1",
                    "name": "fields",
                    "type": "bytes1"
                },
                {
                    "internalType": "string",
                    "name": "name",
                    "type": "string"
                },
                {
                    "internalType": "string",
                    "name": "version",
                    "type": "string"
                },
                {
                    "internalType": "uint256",
                    "name": "chainId",
                    "type": "uint256"
                },
                {
                    "internalType": "address",
                    "name": "verifyingContract",
                    "type": "address"
                },
                {
                    "internalType": "bytes32",
                    "name": "salt",
                    "type": "bytes32"
                },
                {
                    "internalType": "uint256[]",
                    "name": "extensions",
                    "type": "uint256[]"
                }
            ],
            "stateMutability": "view",
            "type": "function"
        },
        {
            "inputs": [
                {
                    "internalType": "address",
                    "name": "_treasury",
                    "type": "address"
                },
                {
                    "internalType": "address",
                    "name": "_admin",
                    "type": "address"
                }
            ],
            "name": "initialize",
            "outputs": [],
            "stateMutability": "nonpayable",
            "type": "function"
        },
        {
            "inputs": [],
            "name": "isCapImmutable",
            "outputs": [
                {
                    "internalType": "bool",
                    "name": "",
                    "type": "bool"
                }
            ],
            "stateMutability": "pure",
            "type": "function"
        },
        {
            "inputs": [
                {
                    "internalType": "uint256",
                    "name": "amount",
                    "type": "uint256"
                }
            ],
            "name": "mintToTreasury",
            "outputs": [],
            "stateMutability": "nonpayable",
            "type": "function"
        },
        {
            "inputs": [],
            "name": "name",
            "outputs": [
                {
                    "internalType": "string",
                    "name": "",
                    "type": "string"
                }
            ],
            "stateMutability": "view",
            "type": "function"
        },
        {
            "inputs": [
                {
                    "internalType": "address",
                    "name": "owner",
                    "type": "address"
                }
            ],
            "name": "nonces",
            "outputs": [
                {
                    "internalType": "uint256",
                    "name": "",
                    "type": "uint256"
                }
            ],
            "stateMutability": "view",
            "type": "function"
        },
        {
            "inputs": [
                {
                    "internalType": "address",
                    "name": "owner",
                    "type": "address"
                },
                {
                    "internalType": "address",
                    "name": "spender",
                    "type": "address"
                },
                {
                    "internalType": "uint256",
                    "name": "value",
                    "type": "uint256"
                },
                {
                    "internalType": "uint256",
                    "name": "deadline",
                    "type": "uint256"
                },
                {
                    "internalType": "uint8",
                    "name": "v",
                    "type": "uint8"
                },
                {
                    "internalType": "bytes32",
                    "name": "r",
                    "type": "bytes32"
                },
                {
                    "internalType": "bytes32",
                    "name": "s",
                    "type": "bytes32"
                }
            ],
            "name": "permit",
            "outputs": [],
            "stateMutability": "nonpayable",
            "type": "function"
        },
        {
            "inputs": [],
            "name": "proxiableUUID",
            "outputs": [
                {
                    "internalType": "bytes32",
                    "name": "",
                    "type": "bytes32"
                }
            ],
            "stateMutability": "view",
            "type": "function"
        },
        {
            "inputs": [],
            "name": "symbol",
            "outputs": [
                {
                    "internalType": "string",
                    "name": "",
                    "type": "string"
                }
            ],
            "stateMutability": "view",
            "type": "function"
        },
        {
            "inputs": [],
            "name": "totalSupply",
            "outputs": [
                {
                    "internalType": "uint256",
                    "name": "",
                    "type": "uint256"
                }
            ],
            "stateMutability": "view",
            "type": "function"
        },
        {
            "inputs": [
                {
                    "internalType": "address",
                    "name": "to",
                    "type": "address"
                },
                {
                    "internalType": "uint256",
                    "name": "value",
                    "type": "uint256"
                }
            ],
            "name": "transfer",
            "outputs": [
                {
                    "internalType": "bool",
                    "name": "",
                    "type": "bool"
                }
            ],
            "stateMutability": "nonpayable",
            "type": "function"
        },
        {
            "inputs": [
                {
                    "internalType": "address",
                    "name": "from",
                    "type": "address"
                },
                {
                    "internalType": "address",
                    "name": "to",
                    "type": "address"
                },
                {
                    "internalType": "uint256",
                    "name": "value",
                    "type": "uint256"
                }
            ],
            "name": "transferFrom",
            "outputs": [
                {
                    "internalType": "bool",
                    "name": "",
                    "type": "bool"
                }
            ],
            "stateMutability": "nonpayable",
            "type": "function"
        },
        {
            "inputs": [],
            "name": "treasury",
            "outputs": [
                {
                    "internalType": "address",
                    "name": "",
                    "type": "address"
                }
            ],
            "stateMutability": "view",
            "type": "function"
        },
        {
            "inputs": [
                {
                    "internalType": "address",
                    "name": "_treasury",
                    "type": "address"
                }
            ],
            "name": "updateTreasury",
            "outputs": [],
            "stateMutability": "nonpayable",
            "type": "function"
        },
        {
            "inputs": [
                {
                    "internalType": "address",
                    "name": "newImplementation",
                    "type": "address"
                },
                {
                    "internalType": "bytes",
                    "name": "data",
                    "type": "bytes"
                }
            ],
            "name": "upgradeToAndCall",
            "outputs": [],
            "stateMutability": "payable",
            "type": "function"
        }
    ],
    "bytecode": "60a080604052346100c257306080525f5160206120535f395f51905f525460ff8160401c166100b3576002600160401b03196001600160401b03821601610060575b604051611f8c90816100c782396080518181816108cb015261099b0152f35b6001600160401b0319166001600160401b039081175f5160206120535f395f51905f525581527fc7f505b2f371ae2175ee4913f4499e1f2633a7b5936321eed1cdaeb6115181d290602090a15f80610041565b63f92ee8a960e01b5f5260045ffd5b5f80fdfe60806040526004361015610011575f80fd5b5f3560e01c806306fdde031461167c578063095ea7b31461165657806318160ddd1461162d578063188214001461161257806323b872dd1461153a5780632a9053181461151f578063313ce5671461089e57806332cb6b0c146114f9578063355274ea146114f95780633644e515146114d7578063485cc95514610b5d5780634f1ef2861461091f57806352d1902d146108b95780635b7f415c1461089e57806361d027b31461087757806370a08231146108335780637ecebe00146107dc5780637f51bb1f14610758578063809c585c1461073d57806384b0196e146105f357806395d89b41146104fd578063a65948a314610395578063a9059cbb14610364578063ad3cb1cc14610319578063d505accf146101b5578063dd62ed3e1461016e5763f851a44014610142575f80fd5b3461016a575f36600319011261016a576001546040516001600160a01b039091168152602090f35b5f80fd5b3461016a57604036600319011261016a5761018761175d565b610198610192611773565b91611a04565b9060018060a01b03165f52602052602060405f2054604051908152f35b3461016a5760e036600319011261016a576101ce61175d565b6101d6611773565b604435906064359260843560ff8116810361016a57844211610306576102c96102d29160018060a01b03841696875f527f5ab42ced628888259c08ac98db1eb0cf702fc1501344311d8b100cd1bfe4bb0060205260405f20908154916001830190556040519060208201927f6e71edae12b1b97f4d1f60370fef10105fa2faae0126114a169c64845d6126c984528a604084015260018060a01b038916606084015289608084015260a083015260c082015260c0815261029760e082611789565b5190206102a2611bb6565b906040519161190160f01b83526002830152602282015260c43591604260a4359220611c48565b90929192611cd5565b6001600160a01b03168481036102ef57506102ed9350611b53565b005b84906325c0072360e11b5f5260045260245260445ffd5b8463313c898160e11b5f5260045260245ffd5b3461016a575f36600319011261016a5761036060405161033a604082611789565b60058152640352e302e360dc1b6020820152604051918291602083526020830190611739565b0390f35b3461016a57604036600319011261016a5761038a61038061175d565b6024359033611a82565b602060405160018152f35b3461016a57602036600319011261016a576004356103be60018060a01b03600154163314611a3c565b6b033b2e3c9fd0803ce80000006103e3825f516020611ed75f395f51905f5254611a75565b116104c3575f546001600160a01b03169081156104b0577fddf252ad1be2c89b69c2b068fc378daa952ba7f163c4a11628f55a4df523b3ef6020826104375f945f516020611ed75f395f51905f5254611a75565b5f516020611ed75f395f51905f52558484525f516020611e775f395f51905f52825260408420818154019055604051908152a35f516020611ed75f395f51905f52546b033b2e3c9fd0803ce8000000811161048e57005b63279e7e1560e21b5f526004526b033b2e3c9fd0803ce800000060245260445ffd5b63ec442f0560e01b5f525f60045260245ffd5b60405162461bcd60e51b815260206004820152601260248201527145786365656473206d617820737570706c7960701b6044820152606490fd5b3461016a575f36600319011261016a576040515f5f516020611eb75f395f51905f525461052981611812565b80845290600181169081156105cf5750600114610565575b6103608361055181850382611789565b604051918291602083526020830190611739565b5f516020611eb75f395f51905f525f9081527f46a2803e59a4de4e7a4c574b1243f25977ac4c77d5a1a4a609b5394cebb4a2aa939250905b8082106105b557509091508101602001610551610541565b91926001816020925483858801015201910190929161059d565b60ff191660208086019190915291151560051b840190910191506105519050610541565b3461016a575f36600319011261016a577fa16a46d94261c7517cc8ff89f61c0ce93598e3c849801011dee649a6a557d100541580610714575b156106d75761067b61063c61184a565b610644611919565b6020610689604051926106578385611789565b5f84525f368137604051958695600f60f81b875260e08588015260e0870190611739565b908582036040870152611739565b4660608501523060808501525f60a085015283810360c08501528180845192838152019301915f5b8281106106c057505050500390f35b8351855286955093810193928101926001016106b1565b60405162461bcd60e51b81526020600482015260156024820152741152540dcc4c8e88155b9a5b9a5d1a585b1a5e9959605a1b6044820152606490fd5b507fa16a46d94261c7517cc8ff89f61c0ce93598e3c849801011dee649a6a557d101541561062c565b3461016a575f36600319011261016a57602060405160018152f35b3461016a57602036600319011261016a5761077161175d565b61078660018060a01b03600154163314611a3c565b6001600160a01b031661079a8115156119c6565b5f80546001600160a01b03198116831782556001600160a01b0316907f4ab5be82436d353e61ca18726e984e561f5c1cc7c6d38b29d2553c790434705a9080a3005b3461016a57602036600319011261016a576001600160a01b036107fd61175d565b165f527f5ab42ced628888259c08ac98db1eb0cf702fc1501344311d8b100cd1bfe4bb00602052602060405f2054604051908152f35b3461016a57602036600319011261016a576001600160a01b0361085461175d565b165f525f516020611e775f395f51905f52602052602060405f2054604051908152f35b3461016a575f36600319011261016a575f546040516001600160a01b039091168152602090f35b3461016a575f36600319011261016a57602060405160128152f35b3461016a575f36600319011261016a577f00000000000000000000000000000000000000000000000000000000000000006001600160a01b031630036109105760206040515f516020611f175f395f51905f528152f35b63703e46dd60e11b5f5260045ffd5b604036600319011261016a5761093361175d565b6024359067ffffffffffffffff821161016a573660238301121561016a57816004013590610960826117ab565b9161096e6040519384611789565b8083526020830193366024838301011161016a57815f926024602093018737840101526001600160a01b037f000000000000000000000000000000000000000000000000000000000000000016308114908115610b3b575b50610910576109e060018060a01b03600154163314611a3c565b6040516352d1902d60e01b81526001600160a01b0382169390602081600481885afa5f9181610b07575b50610a225784634c9c8ce360e01b5f5260045260245ffd5b805f516020611f175f395f51905f52869203610af55750823b15610ae3575f516020611f175f395f51905f5280546001600160a01b031916821790557fbc7cd75a20ee27fd9adebab32041f755214dbc6bffa90cc0225b39da2e5c2d3b5f80a2825115610aca575f80916102ed945190845af43d15610ac2573d91610aa6836117ab565b92610ab46040519485611789565b83523d5f602085013e611df8565b606091611df8565b50505034610ad457005b63b398979f60e01b5f5260045ffd5b634c9c8ce360e01b5f5260045260245ffd5b632a87526960e21b5f5260045260245ffd5b9091506020813d602011610b33575b81610b2360209383611789565b8101031261016a57519086610a0a565b3d9150610b16565b5f516020611f175f395f51905f52546001600160a01b031614159050846109c6565b3461016a57604036600319011261016a57610b7661175d565b610b7e611773565b905f516020611f375f395f51905f52549060ff8260401c16159167ffffffffffffffff8116801590816114cf575b60011490816114c5575b1590816114bc575b506114ad5767ffffffffffffffff1981166001175f516020611f375f395f51905f525582611481575b506001600160a01b031691821580158061146f575b610c05906119c6565b610c0d6117c7565b610c156117ef565b90610c1e611c1d565b610c26611c1d565b80519067ffffffffffffffff8211611152578190610c515f516020611e575f395f51905f5254611812565b601f81116113f5575b50602090601f8311600114611377575f9261136c575b50508160011b915f199060031b1c1916175f516020611e575f395f51905f52555b80519067ffffffffffffffff8211611152578190610cbc5f516020611eb75f395f51905f5254611812565b601f81116112f2575b50602090601f8311600114611274575f92611269575b50508160011b915f199060031b1c1916175f516020611eb75f395f51905f52555b610d04611c1d565b610d0c611c1d565b6b033b2e3c9fd0803ce80000007f0f070392f17d5f958cc1ac31867dabecfc5c9758b4a419a200803226d7155d0055610d436117c7565b91610d4c611c1d565b604092835190610d5c8583611789565b60018252603160f81b6020830152610d72611c1d565b80519067ffffffffffffffff8211611152578190610d9d5f516020611e975f395f51905f5254611812565b601f81116111ef575b50602090601f8311600114611171575f92611166575b50508160011b915f199060031b1c1916175f516020611e975f395f51905f52555b80519067ffffffffffffffff8211611152578190610e085f516020611ef75f395f51905f5254611812565b601f81116110d8575b50602090601f831160011461105a575f9261104f575b50508160011b915f199060031b1c1916175f516020611ef75f395f51905f52555b5f7fa16a46d94261c7517cc8ff89f61c0ce93598e3c849801011dee649a6a557d100555f7fa16a46d94261c7517cc8ff89f61c0ce93598e3c849801011dee649a6a557d10155610e96611c1d565b610e9e611c1d565b610ea6611c1d565b60017f9b779b17422d0df92223018b32b4d1fa46e071723d6817e2486d003becc55f0055846bffffffffffffffffffffffff60a01b5f5416175f5560018060a01b03166bffffffffffffffffffffffff60a01b60015416176001556104b0575f516020611ed75f395f51905f52546a52b7d2dcc80cd2e4000000810180911161103b575f516020611ed75f395f51905f5255825f525f516020611e775f395f51905f52602052805f206a52b7d2dcc80cd2e40000008154019055825f7fddf252ad1be2c89b69c2b068fc378daa952ba7f163c4a11628f55a4df523b3ef602084516a52b7d2dcc80cd2e40000008152a35f516020611ed75f395f51905f52546b033b2e3c9fd0803ce8000000811161048e575051915f7f4ab5be82436d353e61ca18726e984e561f5c1cc7c6d38b29d2553c790434705a8180a3610fe657005b60207fc7f505b2f371ae2175ee4913f4499e1f2633a7b5936321eed1cdaeb6115181d29168ff0000000000000000195f516020611f375f395f51905f5254165f516020611f375f395f51905f525560018152a1005b634e487b7160e01b5f52601160045260245ffd5b015190508780610e27565b5f516020611ef75f395f51905f525f9081528281209350601f198516905b8181106110c057509084600195949392106110a8575b505050811b015f516020611ef75f395f51905f5255610e48565b01515f1960f88460031b161c1916905587808061108e565b92936020600181928786015181550195019301611078565b5f516020611ef75f395f51905f525f529091507f5f9ce34815f8e11431c7bb75a8e6886a91478f7ffc1dbb0a98dc240fddd76b75601f840160051c81019160208510611148575b90601f859493920160051c01905b81811061113a5750610e11565b5f815584935060010161112d565b909150819061111f565b634e487b7160e01b5f52604160045260245ffd5b015190508880610dbc565b5f516020611e975f395f51905f525f9081528281209350601f198516905b8181106111d757509084600195949392106111bf575b505050811b015f516020611e975f395f51905f5255610ddd565b01515f1960f88460031b161c191690558880806111a5565b9293602060018192878601518155019501930161118f565b5f516020611e975f395f51905f525f529091507f42ad5d3e1f2e6e70edcf6d991b8a3023d3fca8047a131592f9edb9fd9b89d57d601f840160051c8101916020851061125f575b90601f859493920160051c01905b8181106112515750610da6565b5f8155849350600101611244565b9091508190611236565b015190508680610cdb565b5f516020611eb75f395f51905f525f9081528281209350601f198516905b8181106112da57509084600195949392106112c2575b505050811b015f516020611eb75f395f51905f5255610cfc565b01515f1960f88460031b161c191690558680806112a8565b92936020600181928786015181550195019301611292565b5f516020611eb75f395f51905f525f529091507f46a2803e59a4de4e7a4c574b1243f25977ac4c77d5a1a4a609b5394cebb4a2aa601f840160051c81019160208510611362575b90601f859493920160051c01905b8181106113545750610cc5565b5f8155849350600101611347565b9091508190611339565b015190508780610c70565b5f516020611e575f395f51905f525f9081528281209350601f198516905b8181106113dd57509084600195949392106113c5575b505050811b015f516020611e575f395f51905f5255610c91565b01515f1960f88460031b161c191690558780806113ab565b92936020600181928786015181550195019301611395565b5f516020611e575f395f51905f525f529091507f2ae08a8e29253f69ac5d979a101956ab8f8d9d7ded63fa7a83b16fc47648eab0601f840160051c81019160208510611465575b90601f859493920160051c01905b8181106114575750610c5a565b5f815584935060010161144a565b909150819061143c565b506001600160a01b0382161515610bfc565b68ffffffffffffffffff191668010000000000000001175f516020611f375f395f51905f525583610be7565b63f92ee8a960e01b5f5260045ffd5b90501585610bbe565b303b159150610bb6565b849150610bac565b3461016a575f36600319011261016a5760206114f1611bb6565b604051908152f35b3461016a575f36600319011261016a5760206040516b033b2e3c9fd0803ce80000008152f35b3461016a575f36600319011261016a576103606105516117ef565b3461016a57606036600319011261016a5761155361175d565b61155b611773565b6044359061156883611a04565b335f9081526020919091526040902054925f19841061158c575b61038a9350611a82565b8284106115f7576001600160a01b038116156115e45733156115d15761038a936115b582611a04565b60018060a01b0333165f526020528360405f2091039055611582565b634a1406b160e11b5f525f60045260245ffd5b63e602df0560e01b5f525f60045260245ffd5b8284637dc7a0d960e11b5f523360045260245260445260645ffd5b3461016a575f36600319011261016a576103606105516117c7565b3461016a575f36600319011261016a5760205f516020611ed75f395f51905f5254604051908152f35b3461016a57604036600319011261016a5761038a61167261175d565b6024359033611b53565b3461016a575f36600319011261016a576040515f5f516020611e575f395f51905f52546116a881611812565b80845290600181169081156105cf57506001146116cf576103608361055181850382611789565b5f516020611e575f395f51905f525f9081527f2ae08a8e29253f69ac5d979a101956ab8f8d9d7ded63fa7a83b16fc47648eab0939250905b80821061171f57509091508101602001610551610541565b919260018160209254838588010152019101909291611707565b805180835260209291819084018484015e5f828201840152601f01601f1916010190565b600435906001600160a01b038216820361016a57565b602435906001600160a01b038216820361016a57565b90601f8019910116810190811067ffffffffffffffff82111761115257604052565b67ffffffffffffffff811161115257601f01601f191660200190565b604051906117d6604083611789565b600a8252692722a120902a37b5b2b760b11b6020830152565b604051906117fe604083611789565b6005825264244e45424160d81b6020830152565b90600182811c92168015611840575b602083101461182c57565b634e487b7160e01b5f52602260045260245ffd5b91607f1691611821565b604051905f825f516020611e975f395f51905f52549161186983611812565b80835292600181169081156118fa575060011461188f575b61188d92500383611789565b565b505f516020611e975f395f51905f525f90815290917f42ad5d3e1f2e6e70edcf6d991b8a3023d3fca8047a131592f9edb9fd9b89d57d5b8183106118de57505090602061188d92820101611881565b60209193508060019154838589010152019101909184926118c6565b6020925061188d94915060ff191682840152151560051b820101611881565b604051905f825f516020611ef75f395f51905f52549161193883611812565b80835292600181169081156118fa575060011461195b5761188d92500383611789565b505f516020611ef75f395f51905f525f90815290917f5f9ce34815f8e11431c7bb75a8e6886a91478f7ffc1dbb0a98dc240fddd76b755b8183106119aa57505090602061188d92820101611881565b6020919350806001915483858901015201910190918492611992565b156119cd57565b60405162461bcd60e51b815260206004820152600f60248201526e496e76616c6964206164647265737360881b6044820152606490fd5b6001600160a01b03165f9081527f52c63247e1f47db19d5ce0460030c497f067ca4cebf71ba98eeadabe20bace016020526040902090565b15611a4357565b60405162461bcd60e51b815260206004820152600a60248201526927b7363c9030b236b4b760b11b6044820152606490fd5b9190820180921161103b57565b6001600160a01b0316908115611b40576001600160a01b03169182156104b057815f525f516020611e775f395f51905f5260205260405f2054818110611b2757817fddf252ad1be2c89b69c2b068fc378daa952ba7f163c4a11628f55a4df523b3ef92602092855f525f516020611e775f395f51905f5284520360405f2055845f525f516020611e775f395f51905f52825260405f20818154019055604051908152a3565b8263391434e360e21b5f5260045260245260445260645ffd5b634b637e8f60e11b5f525f60045260245ffd5b916001600160a01b0383169182156115e4576001600160a01b03169283156115d1577f8c5be1e5ebec7d5bd14f71427d1e84f3dd0314c0f7b2291e5b200ac8c7c3b92591611ba2602092611a04565b855f5282528060405f2055604051908152a3565b611bbe611d49565b611bc6611db3565b6040519060208201927f8b73c3c69bb8fe3d512ecc4cf759cc79239f7b179b0ffacaa9a75d522b39400f8452604083015260608201524660808201523060a082015260a08152611c1760c082611789565b51902090565b60ff5f516020611f375f395f51905f525460401c1615611c3957565b631afcd79f60e31b5f5260045ffd5b91907f7fffffffffffffffffffffffffffffff5d576e7357a4501ddfe92f46681b20a08411611cca579160209360809260ff5f9560405194855216868401526040830152606082015282805260015afa15611cbf575f516001600160a01b03811615611cb557905f905f90565b505f906001905f90565b6040513d5f823e3d90fd5b5050505f9160039190565b6004811015611d355780611ce7575050565b60018103611cfe5763f645eedf60e01b5f5260045ffd5b60028103611d19575063fce698f760e01b5f5260045260245ffd5b600314611d235750565b6335e2f38360e21b5f5260045260245ffd5b634e487b7160e01b5f52602160045260245ffd5b611d5161184a565b8051908115611d61576020012090565b50507fa16a46d94261c7517cc8ff89f61c0ce93598e3c849801011dee649a6a557d100548015611d8e5790565b507fc5d2460186f7233c927e7db2dcc703c0e500b653ca82273b7bfad8045d85a47090565b611dbb611919565b8051908115611dcb576020012090565b50507fa16a46d94261c7517cc8ff89f61c0ce93598e3c849801011dee649a6a557d101548015611d8e5790565b90611e1c5750805115611e0d57602081519101fd5b63d6bda27560e01b5f5260045ffd5b81511580611e4d575b611e2d575090565b639996b31560e01b5f9081526001600160a01b0391909116600452602490fd5b50803b15611e2556fe52c63247e1f47db19d5ce0460030c497f067ca4cebf71ba98eeadabe20bace0352c63247e1f47db19d5ce0460030c497f067ca4cebf71ba98eeadabe20bace00a16a46d94261c7517cc8ff89f61c0ce93598e3c849801011dee649a6a557d10252c63247e1f47db19d5ce0460030c497f067ca4cebf71ba98eeadabe20bace0452c63247e1f47db19d5ce0460030c497f067ca4cebf71ba98eeadabe20bace02a16a46d94261c7517cc8ff89f61c0ce93598e3c849801011dee649a6a557d103360894a13ba1a3210667c828492db98dca3e2076cc3735a920a3ca505d382bbcf0c57e16840df040f15088dc2f81fe391c3923bec73e23a9662efc9c229c6a00a26469706673582212206ac66af44895aaa7b94c7b2d1adfc572d927cb8eb9458fa6d692d2d71ad490ba64736f6c634300081e0033f0c57e16840df040f15088dc2f81fe391c3923bec73e23a9662efc9c229c6a00",
    "sourcePath": "e:/Work/nebaPresale/neba token contract/neba/contracts/NEBAminimalSimple.sol",
    "compiler": {
        "name": "solc",
        "version": "0.8.30+commit.73712a01"
    },
    "functionHashes": {
        "DOMAIN_SEPARATOR()": "3644e515",
        "MAX_SUPPLY()": "32cb6b0c",
        "TOKEN_DECIMALS()": "5b7f415c",
        "TOKEN_NAME()": "18821400",
        "TOKEN_SYMBOL()": "2a905318",
        "UPGRADE_INTERFACE_VERSION()": "ad3cb1cc",
        "admin()": "f851a440",
        "allowance(address,address)": "dd62ed3e",
        "approve(address,uint256)": "095ea7b3",
        "balanceOf(address)": "70a08231",
        "cap()": "355274ea",
        "decimals()": "313ce567",
        "eip712Domain()": "84b0196e",
        "initialize(address,address)": "485cc955",
        "isCapImmutable()": "809c585c",
        "mintToTreasury(uint256)": "a65948a3",
        "name()": "06fdde03",
        "nonces(address)": "7ecebe00",
        "permit(address,address,uint256,uint256,uint8,bytes32,bytes32)": "d505accf",
        "proxiableUUID()": "52d1902d",
        "symbol()": "95d89b41",
        "totalSupply()": "18160ddd",
        "transfer(address,uint256)": "a9059cbb",
        "transferFrom(address,address,uint256)": "23b872dd",
        "treasury()": "61d027b3",
        "updateTreasury(address)": "7f51bb1f",
        "upgradeToAndCall(address,bytes)": "4f1ef286"
    },
    "gasEstimates": {
        "creation": {
            "codeDepositCost": "1615200",
            "executionCost": "infinite",
            "totalCost": "infinite"
        },
        "external": {
            "DOMAIN_SEPARATOR()": "infinite",
            "MAX_SUPPLY()": "299",
            "TOKEN_DECIMALS()": "431",
            "TOKEN_NAME()": "529",
            "TOKEN_SYMBOL()": "573",
            "UPGRADE_INTERFACE_VERSION()": "942",
            "admin()": "2841",
            "allowance(address,address)": "3137",
            "approve(address,uint256)": "24422",
            "balanceOf(address)": "infinite",
            "cap()": "321",
            "decimals()": "277",
            "eip712Domain()": "infinite",
            "initialize(address,address)": "infinite",
            "isCapImmutable()": "541",
            "mintToTreasury(uint256)": "infinite",
            "name()": "infinite",
            "nonces(address)": "2750",
            "permit(address,address,uint256,uint256,uint8,bytes32,bytes32)": "infinite",
            "proxiableUUID()": "infinite",
            "symbol()": "infinite",
            "totalSupply()": "infinite",
            "transfer(address,uint256)": "infinite",
            "transferFrom(address,address,uint256)": "infinite",
            "treasury()": "2579",
            "updateTreasury(address)": "28570",
            "upgradeToAndCall(address,bytes)": "infinite"
        },
        "internal": {
            "_authorizeUpgrade(address)": "infinite",
            "_update(address,address,uint256)": "infinite"
        }
    }
}