{
  "_format": "hh-sol-artifact-1",
  "contractName": "NEBAemergency",
  "sourceName": "contracts/modules/NEBAemergency.sol",
  "abi": [
    {
      "inputs": [],
      "stateMutability": "nonpayable",
      "type": "constructor"
    },
    {
      "inputs": [],
      "name": "AccessControlBadConfirmation",
      "type": "error"
    },
    {
      "inputs": [
        {
          "internalType": "address",
          "name": "account",
          "type": "address"
        },
        {
          "internalType": "bytes32",
          "name": "neededRole",
          "type": "bytes32"
        }
      ],
      "name": "AccessControlUnauthorizedAccount",
      "type": "error"
    },
    {
      "inputs": [
        {
          "internalType": "address",
          "name": "target",
          "type": "address"
        }
      ],
      "name": "AddressEmptyCode",
      "type": "error"
    },
    {
      "inputs": [],
      "name": "AlreadyMigrated",
      "type": "error"
    },
    {
      "inputs": [],
      "name": "CannotRecoverNEBA",
      "type": "error"
    },
    {
      "inputs": [
        {
          "internalType": "address",
          "name": "implementation",
          "type": "address"
        }
      ],
      "name": "ERC1967InvalidImplementation",
      "type": "error"
    },
    {
      "inputs": [],
      "name": "ERC1967NonPayable",
      "type": "error"
    },
    {
      "inputs": [],
      "name": "EmergencyModeExpired",
      "type": "error"
    },
    {
      "inputs": [],
      "name": "EmergencyModeNotActive",
      "type": "error"
    },
    {
      "inputs": [],
      "name": "FailedCall",
      "type": "error"
    },
    {
      "inputs": [
        {
          "internalType": "uint256",
          "name": "balance",
          "type": "uint256"
        },
        {
          "internalType": "uint256",
          "name": "needed",
          "type": "uint256"
        }
      ],
      "name": "InsufficientBalance",
      "type": "error"
    },
    {
      "inputs": [],
      "name": "InvalidAddress",
      "type": "error"
    },
    {
      "inputs": [],
      "name": "InvalidAmount",
      "type": "error"
    },
    {
      "inputs": [],
      "name": "InvalidInitialization",
      "type": "error"
    },
    {
      "inputs": [],
      "name": "NotInEmergencyMode",
      "type": "error"
    },
    {
      "inputs": [],
      "name": "NotInitializing",
      "type": "error"
    },
    {
      "inputs": [],
      "name": "ReentrancyGuardReentrantCall",
      "type": "error"
    },
    {
      "inputs": [
        {
          "internalType": "address",
          "name": "token",
          "type": "address"
        }
      ],
      "name": "SafeERC20FailedOperation",
      "type": "error"
    },
    {
      "inputs": [],
      "name": "UUPSUnauthorizedCallContext",
      "type": "error"
    },
    {
      "inputs": [
        {
          "internalType": "bytes32",
          "name": "slot",
          "type": "bytes32"
        }
      ],
      "name": "UUPSUnsupportedProxiableUUID",
      "type": "error"
    },
    {
      "anonymous": false,
      "inputs": [
        {
          "indexed": true,
          "internalType": "address",
          "name": "token",
          "type": "address"
        },
        {
          "indexed": true,
          "internalType": "address",
          "name": "to",
          "type": "address"
        },
        {
          "indexed": false,
          "internalType": "uint256",
          "name": "amount",
          "type": "uint256"
        }
      ],
      "name": "ERC20Recovered",
      "type": "event"
    },
    {
      "anonymous": false,
      "inputs": [
        {
          "indexed": true,
          "internalType": "address",
          "name": "to",
          "type": "address"
        },
        {
          "indexed": false,
          "internalType": "uint256",
          "name": "amount",
          "type": "uint256"
        }
      ],
      "name": "ETHRecovered",
      "type": "event"
    },
    {
      "anonymous": false,
      "inputs": [
        {
          "indexed": true,
          "internalType": "address",
          "name": "guardian",
          "type": "address"
        },
        {
          "indexed": false,
          "internalType": "string",
          "name": "reason",
          "type": "string"
        }
      ],
      "name": "EmergencyModeActivated",
      "type": "event"
    },
    {
      "anonymous": false,
      "inputs": [
        {
          "indexed": true,
          "internalType": "address",
          "name": "by",
          "type": "address"
        }
      ],
      "name": "EmergencyModeDeactivated",
      "type": "event"
    },
    {
      "anonymous": false,
      "inputs": [
        {
          "indexed": true,
          "internalType": "address",
          "name": "newImplementation",
          "type": "address"
        }
      ],
      "name": "EmergencyUpgradeExecuted",
      "type": "event"
    },
    {
      "anonymous": false,
      "inputs": [
        {
          "indexed": false,
          "internalType": "uint64",
          "name": "version",
          "type": "uint64"
        }
      ],
      "name": "Initialized",
      "type": "event"
    },
    {
      "anonymous": false,
      "inputs": [
        {
          "indexed": true,
          "internalType": "bytes32",
          "name": "role",
          "type": "bytes32"
        },
        {
          "indexed": true,
          "internalType": "bytes32",
          "name": "previousAdminRole",
          "type": "bytes32"
        },
        {
          "indexed": true,
          "internalType": "bytes32",
          "name": "newAdminRole",
          "type": "bytes32"
        }
      ],
      "name": "RoleAdminChanged",
      "type": "event"
    },
    {
      "anonymous": false,
      "inputs": [
        {
          "indexed": true,
          "internalType": "bytes32",
          "name": "role",
          "type": "bytes32"
        },
        {
          "indexed": true,
          "internalType": "address",
          "name": "account",
          "type": "address"
        },
        {
          "indexed": true,
          "internalType": "address",
          "name": "sender",
          "type": "address"
        }
      ],
      "name": "RoleGranted",
      "type": "event"
    },
    {
      "anonymous": false,
      "inputs": [
        {
          "indexed": true,
          "internalType": "bytes32",
          "name": "role",
          "type": "bytes32"
        },
        {
          "indexed": true,
          "internalType": "address",
          "name": "account",
          "type": "address"
        },
        {
          "indexed": true,
          "internalType": "address",
          "name": "sender",
          "type": "address"
        }
      ],
      "name": "RoleRevoked",
      "type": "event"
    },
    {
      "anonymous": false,
      "inputs": [
        {
          "indexed": true,
          "internalType": "address",
          "name": "tlMain",
          "type": "address"
        },
        {
          "indexed": true,
          "internalType": "address",
          "name": "tlUpg",
          "type": "address"
        }
      ],
      "name": "RolesMigrated",
      "type": "event"
    },
    {
      "anonymous": false,
      "inputs": [
        {
          "indexed": true,
          "internalType": "address",
          "name": "implementation",
          "type": "address"
        }
      ],
      "name": "Upgraded",
      "type": "event"
    },
    {
      "inputs": [],
      "name": "DEFAULT_ADMIN_ROLE",
      "outputs": [
        {
          "internalType": "bytes32",
          "name": "",
          "type": "bytes32"
        }
      ],
      "stateMutability": "view",
      "type": "function"
    },
    {
      "inputs": [],
      "name": "EMERGENCY_MODE_DURATION",
      "outputs": [
        {
          "internalType": "uint256",
          "name": "",
          "type": "uint256"
        }
      ],
      "stateMutability": "view",
      "type": "function"
    },
    {
      "inputs": [],
      "name": "GUARDIAN_ROLE",
      "outputs": [
        {
          "internalType": "bytes32",
          "name": "",
          "type": "bytes32"
        }
      ],
      "stateMutability": "view",
      "type": "function"
    },
    {
      "inputs": [],
      "name": "RECOVERY_ROLE",
      "outputs": [
        {
          "internalType": "bytes32",
          "name": "",
          "type": "bytes32"
        }
      ],
      "stateMutability": "view",
      "type": "function"
    },
    {
      "inputs": [],
      "name": "UPGRADER_ROLE",
      "outputs": [
        {
          "internalType": "bytes32",
          "name": "",
          "type": "bytes32"
        }
      ],
      "stateMutability": "view",
      "type": "function"
    },
    {
      "inputs": [],
      "name": "UPGRADE_INTERFACE_VERSION",
      "outputs": [
        {
          "internalType": "string",
          "name": "",
          "type": "string"
        }
      ],
      "stateMutability": "view",
      "type": "function"
    },
    {
      "inputs": [
        {
          "internalType": "string",
          "name": "reason",
          "type": "string"
        }
      ],
      "name": "activateEmergencyMode",
      "outputs": [],
      "stateMutability": "nonpayable",
      "type": "function"
    },
    {
      "inputs": [
        {
          "internalType": "address",
          "name": "from",
          "type": "address"
        },
        {
          "internalType": "address",
          "name": "to",
          "type": "address"
        },
        {
          "internalType": "uint256",
          "name": "amount",
          "type": "uint256"
        }
      ],
      "name": "afterTransfer",
      "outputs": [],
      "stateMutability": "nonpayable",
      "type": "function"
    },
    {
      "inputs": [
        {
          "internalType": "address",
          "name": "from",
          "type": "address"
        },
        {
          "internalType": "address",
          "name": "to",
          "type": "address"
        },
        {
          "internalType": "uint256",
          "name": "amount",
          "type": "uint256"
        }
      ],
      "name": "beforeTransfer",
      "outputs": [],
      "stateMutability": "nonpayable",
      "type": "function"
    },
    {
      "inputs": [],
      "name": "canUseEmergencyPowers",
      "outputs": [
        {
          "internalType": "bool",
          "name": "",
          "type": "bool"
        }
      ],
      "stateMutability": "view",
      "type": "function"
    },
    {
      "inputs": [],
      "name": "coreContract",
      "outputs": [
        {
          "internalType": "address",
          "name": "",
          "type": "address"
        }
      ],
      "stateMutability": "view",
      "type": "function"
    },
    {
      "inputs": [],
      "name": "deactivateEmergencyMode",
      "outputs": [],
      "stateMutability": "nonpayable",
      "type": "function"
    },
    {
      "inputs": [],
      "name": "emergencyMode",
      "outputs": [
        {
          "internalType": "bool",
          "name": "",
          "type": "bool"
        }
      ],
      "stateMutability": "view",
      "type": "function"
    },
    {
      "inputs": [],
      "name": "emergencyModeActivatedAt",
      "outputs": [
        {
          "internalType": "uint256",
          "name": "",
          "type": "uint256"
        }
      ],
      "stateMutability": "view",
      "type": "function"
    },
    {
      "inputs": [
        {
          "internalType": "address",
          "name": "newImplementation",
          "type": "address"
        }
      ],
      "name": "emergencyUpgrade",
      "outputs": [],
      "stateMutability": "nonpayable",
      "type": "function"
    },
    {
      "inputs": [
        {
          "internalType": "bytes32",
          "name": "role",
          "type": "bytes32"
        }
      ],
      "name": "getRoleAdmin",
      "outputs": [
        {
          "internalType": "bytes32",
          "name": "",
          "type": "bytes32"
        }
      ],
      "stateMutability": "view",
      "type": "function"
    },
    {
      "inputs": [
        {
          "internalType": "bytes32",
          "name": "role",
          "type": "bytes32"
        },
        {
          "internalType": "address",
          "name": "account",
          "type": "address"
        }
      ],
      "name": "grantRole",
      "outputs": [],
      "stateMutability": "nonpayable",
      "type": "function"
    },
    {
      "inputs": [
        {
          "internalType": "bytes32",
          "name": "role",
          "type": "bytes32"
        },
        {
          "internalType": "address",
          "name": "account",
          "type": "address"
        }
      ],
      "name": "hasRole",
      "outputs": [
        {
          "internalType": "bool",
          "name": "",
          "type": "bool"
        }
      ],
      "stateMutability": "view",
      "type": "function"
    },
    {
      "inputs": [
        {
          "internalType": "address",
          "name": "_coreContract",
          "type": "address"
        },
        {
          "internalType": "address",
          "name": "_admin",
          "type": "address"
        }
      ],
      "name": "initialize",
      "outputs": [],
      "stateMutability": "nonpayable",
      "type": "function"
    },
    {
      "inputs": [
        {
          "internalType": "address",
          "name": "tlMain",
          "type": "address"
        },
        {
          "internalType": "address",
          "name": "tlUpg",
          "type": "address"
        },
        {
          "internalType": "address",
          "name": "mainSafe",
          "type": "address"
        }
      ],
      "name": "migrateRoles",
      "outputs": [],
      "stateMutability": "nonpayable",
      "type": "function"
    },
    {
      "inputs": [],
      "name": "migrated",
      "outputs": [
        {
          "internalType": "bool",
          "name": "",
          "type": "bool"
        }
      ],
      "stateMutability": "view",
      "type": "function"
    },
    {
      "inputs": [],
      "name": "proxiableUUID",
      "outputs": [
        {
          "internalType": "bytes32",
          "name": "",
          "type": "bytes32"
        }
      ],
      "stateMutability": "view",
      "type": "function"
    },
    {
      "inputs": [
        {
          "internalType": "address",
          "name": "token",
          "type": "address"
        },
        {
          "internalType": "address",
          "name": "to",
          "type": "address"
        },
        {
          "internalType": "uint256",
          "name": "amount",
          "type": "uint256"
        }
      ],
      "name": "recoverERC20",
      "outputs": [],
      "stateMutability": "nonpayable",
      "type": "function"
    },
    {
      "inputs": [
        {
          "internalType": "address payable",
          "name": "to",
          "type": "address"
        },
        {
          "internalType": "uint256",
          "name": "amount",
          "type": "uint256"
        }
      ],
      "name": "recoverETH",
      "outputs": [],
      "stateMutability": "nonpayable",
      "type": "function"
    },
    {
      "inputs": [
        {
          "internalType": "bytes32",
          "name": "role",
          "type": "bytes32"
        },
        {
          "internalType": "address",
          "name": "callerConfirmation",
          "type": "address"
        }
      ],
      "name": "renounceRole",
      "outputs": [],
      "stateMutability": "nonpayable",
      "type": "function"
    },
    {
      "inputs": [
        {
          "internalType": "bytes32",
          "name": "role",
          "type": "bytes32"
        },
        {
          "internalType": "address",
          "name": "account",
          "type": "address"
        }
      ],
      "name": "revokeRole",
      "outputs": [],
      "stateMutability": "nonpayable",
      "type": "function"
    },
    {
      "inputs": [
        {
          "internalType": "bytes4",
          "name": "interfaceId",
          "type": "bytes4"
        }
      ],
      "name": "supportsInterface",
      "outputs": [
        {
          "internalType": "bool",
          "name": "",
          "type": "bool"
        }
      ],
      "stateMutability": "view",
      "type": "function"
    },
    {
      "inputs": [
        {
          "internalType": "address",
          "name": "newImplementation",
          "type": "address"
        },
        {
          "internalType": "bytes",
          "name": "data",
          "type": "bytes"
        }
      ],
      "name": "upgradeToAndCall",
      "outputs": [],
      "stateMutability": "payable",
      "type": "function"
    },
    {
      "stateMutability": "payable",
      "type": "receive"
    }
  ],
  "bytecode": "0x60a080604052346100d357306080527ff0c57e16840df040f15088dc2f81fe391c3923bec73e23a9662efc9c229c6a009081549060ff8260401c166100c457506001600160401b036002600160401b03198282160161007f575b604051611d6e90816100d98239608051818181610710015281816107de0152610f290152f35b6001600160401b031990911681179091556040519081527fc7f505b2f371ae2175ee4913f4499e1f2633a7b5936321eed1cdaeb6115181d290602090a1388080610059565b63f92ee8a960e01b8152600490fd5b600080fdfe6080604081815260049182361015610022575b505050361561002057600080fd5b005b600092833560e01c91826301ffc9a71461136c575081630905f560146113475781631171bda9146111eb5781631e5252c914610e695781631ffb811f14610e5a578163248a9ca314610e2257816324ea54f414610df95781632c678c6414610dd55781632f2ff15d14610dab57816331993a1c14610d8257816336568abe14610d3c5781633dab001514610d1e5781633e0c062914610c31578163485cc955146109c75781634f1ef2861461076257816352d1902d146106fb57816391d14854146106a757816399b20eaf14610584578163a217fddf14610569578163ad3cb1cc146104ca578163b1a24445146104ab578163c124a2471461039c578163cb2edd5d14610376578163d547741f14610329578163e80db5db14610301578163ed686a0c146101b157508063f49062ca146101915763f72c0d8b146101665780610012565b3461018d578160031936011261018d5760209051600080516020611c598339815191528152f35b5080fd5b82346101ae576101a0366113f0565b5050506101ab611479565b80f35b80fd5b9050346102fd5760603660031901126102fd576101cc6113bf565b6101d46113da565b906044359060018060a01b0393848316958684036102f957878052600080516020611c9983398151915260205280882033895260205260ff8189205416156102dc5760ff600254166102cf578583169687159081156102c4575b81156102bb575b506102ae575050906102538261024d6102779461166a565b506116f8565b5061025d83611796565b506102678161193b565b50610271816119c2565b50611a58565b50600160ff19600254161760025516907f5db8a0f9f45a2b5a19ae3df073ffaa88502e813e3157ce52dfd37d1d612314cb8380a380f35b5163e6c4247b60e01b8152fd5b90501538610235565b86881615915061022e565b516332870f2f60e21b8152fd5b9087604492519163e2517d3f60e01b835233908301526024820152fd5b8780fd5b8280fd5b50503461018d578160031936011261018d57905490516001600160a01b039091168152602090f35b919050346102fd57806003193601126102fd57610372913561036d600161034e6113da565b93838752600080516020611c9983398151915260205286200154611607565b611aee565b5080f35b50503461018d578160031936011261018d576020906103936114c7565b90519015158152f35b919050346102fd5760203660031901126102fd5781359067ffffffffffffffff928383116104a757366023840112156104a757828101359384116104a75736602485850101116104a7576103ee611573565b84549060ff8260a01c16610464575060ff60a01b1916600160a01b178455426001558051602080825281018490527fa8bfc00a82dac609a5575e0d4bf2d4f2284be6d96c469bef935e1f8319277f4b9290919084906024018383013784818584010152813394601f80199101168101030190a280f35b606490602084519162461bcd60e51b8352820152601960248201527f416c726561647920696e20656d657267656e6379206d6f6465000000000000006044820152fd5b8480fd5b50503461018d578160031936011261018d576020906001549051908152f35b9050346102fd57826003193601126102fd578151908282019082821067ffffffffffffffff8311176105565750825260058152602090640352e302e360dc1b6020820152825193849260208452825192836020860152825b84811061054057505050828201840152601f01601f19168101030190f35b8181018301518882018801528795508201610522565b634e487b7160e01b855260419052602484fd5b50503461018d578160031936011261018d5751908152602090f35b9050346102fd57826003193601126102fd5782549160ff8360a01c161561066c57600080516020611d198339815191528452600080516020611c998339815191528060205281852033865260205260ff828620541690811561064e575b501561061a57505060ff60a01b19168155337fbd95437b04432c9bbcf6d10c00e0e1cdc482151ffe5da10870858d456ee9fc238280a280f35b906020606492519162461bcd60e51b8352820152600e60248201526d139bdd08185d5d1a1bdc9a5e995960921b6044820152fd5b905084805260205280842033855260205260ff8185205416386105e1565b906020606492519162461bcd60e51b835282015260156024820152744e6f7420696e20656d657267656e6379206d6f646560581b6044820152fd5b9050346102fd57816003193601126102fd578160209360ff926106c86113da565b90358252600080516020611c9983398151915286528282206001600160a01b039091168252855220549151911615158152f35b8284346101ae57806003193601126101ae57507f00000000000000000000000000000000000000000000000000000000000000006001600160a01b031630036107555760209051600080516020611c798339815191528152f35b5163703e46dd60e11b8152fd5b918091506003193601126102fd576107786113bf565b90602493843567ffffffffffffffff811161018d573660238201121561018d5780850135936107a68561145d565b6107b285519182611425565b85815260209586820193368a838301011161094e578186928b8a93018737830101526001600160a01b037f000000000000000000000000000000000000000000000000000000000000000081163081149081156109ab575b5061099b576108176115bd565b60ff855460a01c166109595785516352d1902d60e01b81529083169680828a818b5afa9182918793610925575b50506108605750505050505191634c9c8ce360e01b8352820152fd5b8689968992600080516020611c79833981519152908181036109105750853b156108fb5780546001600160a01b0319168317905551869392917fbc7cd75a20ee27fd9adebab32041f755214dbc6bffa90cc0225b39da2e5c2d3b8580a28251156108df5750506103729382915190845af46108d9611b5f565b91611bf1565b935093505050346108ef57505080f35b63b398979f60e01b8152fd5b5051634c9c8ce360e01b815291820152859150fd5b848a91845191632a87526960e21b8352820152fd5b9080929350813d8311610952575b61093d8183611425565b8101031261094e5751903880610844565b8580fd5b503d610933565b855162461bcd60e51b8152808901889052601e818b01527f55736520656d657267656e637955706772616465282920696e737465616400006044820152606490fd5b855163703e46dd60e11b81528890fd5b905081600080516020611c79833981519152541614153861080a565b9050346102fd57816003193601126102fd576109e16113bf565b6109e96113da565b917ff0c57e16840df040f15088dc2f81fe391c3923bec73e23a9662efc9c229c6a009283549260ff84871c16159267ffffffffffffffff851694851580610c2a575b60018097149081610c20575b159081610c17575b50610c085767ffffffffffffffff1981168617875584610be9575b506001600160a01b03918216918215159081610bdd575b5015610ba8575090610b5e91610a85611bb0565b610a8d611bb0565b610a95611bb0565b610a9d611bb0565b84600080516020611cd9833981519152556bffffffffffffffffffffffff60a01b885416178755600080516020611c59833981519152808852600080516020611c9983398151915260205287858882200181815491557fbd79b86ffe0ab8e8776151514217cd7cacd52c909f66475c3af44e129f0b00ff92838380a4600080516020611d19833981519152908189528186898b20019181835493558a80a4610b448161166a565b50610b4e816116f8565b50610b5881611796565b5061182e565b50610b67578380f35b7fc7f505b2f371ae2175ee4913f4499e1f2633a7b5936321eed1cdaeb6115181d29260209268ff000000000000000019815416905551908152a13880808380f35b606490602088519162461bcd60e51b8352820152600f60248201526e496e76616c6964206164647265737360881b6044820152fd5b90508316151538610a71565b68ffffffffffffffffff19166801000000000000000117865538610a5a565b50865163f92ee8a960e01b8152fd5b90501538610a3f565b303b159150610a37565b5084610a2b565b9050346102fd57816003193601126102fd5780356001600160a01b0381169290839003610d1a5760243591610c6461150b565b610c6c61163a565b8315610d0c578215610cfe57824710610cfe57824710610ce257508380808085875af1610c97611b5f565b9015610cdd57507f05af21d7340bf49fde03a32c3bcc785015c94acd83531fc6dfbfb93a24c364ca9160209151908152a26001600080516020611cd98339815191525580f35b611b8f565b826044924790519263cf47918160e01b84528301526024820152fd5b905163162908e360e11b8152fd5b905163e6c4247b60e01b8152fd5b8380fd5b50503461018d578160031936011261018d576020905162093a808152f35b83833461018d578060031936011261018d57610d566113da565b90336001600160a01b03831603610d735750610372919235611aee565b5163334bd91960e11b81528390fd5b50503461018d578160031936011261018d5760209051600080516020611cf98339815191528152f35b919050346102fd57806003193601126102fd576103729135610dd0600161034e6113da565b6118c6565b50503461018d578160031936011261018d5760209060ff6002541690519015158152f35b50503461018d578160031936011261018d5760209051600080516020611d198339815191528152f35b9050346102fd5760203660031901126102fd5781602093600192358152600080516020611c9983398151915285522001549051908152f35b83346101ae576101a0366113f0565b919050346102fd5760209081600319360112610d1a57610e876113bf565b610e8f611573565b60ff855460a01c161590816111db5760015462093a8081018091116111c85742116111b8576001600160a01b0381811694909290851561117d57823b1561114a57600080516020611d198339815191528852600080516020611c998339815191528152848820338952815260ff858920541615611119578451918183019483861067ffffffffffffffff87111761110657858752898452807f0000000000000000000000000000000000000000000000000000000000000000168030149182156110ea575b505061099b57610f626115bd565b156110a85784516352d1902d60e01b815290808289818a5afa9182918a93611074575b5050610fa2578451634c9c8ce360e01b8152808801879052602490fd5b86889695600080516020611c798339815191529283810361105f5750843b1561104957505080546001600160a01b031916851790558490847fbc7cd75a20ee27fd9adebab32041f755214dbc6bffa90cc0225b39da2e5c2d3b8380a25192831561104057611017938291845af46108d9611b5f565b505b7fdc8364a59ed5bd4011bf1218a398c36315cb9bc27cb0c5b9c26bb7d00f2989028280a280f35b50505050611019565b51634c9c8ce360e01b8152908101869052602490fd5b9051632a87526960e21b815291820152602490fd5b9080929350813d83116110a1575b61108c8183611425565b8101031261109d5751903880610f85565b8880fd5b503d611082565b8660649186519162461bcd60e51b8352820152601e60248201527f55736520656d657267656e637955706772616465282920696e737465616400006044820152fd5b600080516020611c798339815191525416141590503880610f54565b634e487b7160e01b8a526041895260248afd5b8660649186519162461bcd60e51b8352820152600c60248201526b2737ba1033bab0b93234b0b760a11b6044820152fd5b8660649186519162461bcd60e51b8352820152600e60248201526d139bdd08184818dbdb9d1c9858dd60921b6044820152fd5b8660649186519162461bcd60e51b8352820152601660248201527524b73b30b634b21034b6b83632b6b2b73a30ba34b7b760511b6044820152fd5b825163675d246f60e01b81528590fd5b634e487b7160e01b875260118652602487fd5b825163c5cd049360e01b81528590fd5b9050346102fd576111fb366113f0565b9193909261120761150b565b61120f61163a565b6001600160a01b03948516938415801561133d575b61132e57831561131f5785875416851461131057825195602087019163a9059cbb60e01b83521695866024820152846044820152604481526080810181811067ffffffffffffffff8211176112fd5784525160209188919082885af1156112f35785513d6112ea5750833b155b6112d557507faca8fb252cde442184e5f10e0f2e6e4029e8cd7717cae63559079610702436aa9160209151908152a36001600080516020611cd98339815191525580f35b836024925191635274afe760e01b8352820152fd5b60011415611291565b81513d87823e3d90fd5b634e487b7160e01b895260418452602489fd5b509051638af2f17160e01b8152fd5b50905163162908e360e11b8152fd5b50905163e6c4247b60e01b8152fd5b5085811615611224565b50503461018d578160031936011261018d5760ff6020925460a01c1690519015158152f35b8491346102fd5760203660031901126102fd573563ffffffff60e01b81168091036102fd5760209250637965db0b60e01b81149081156113ae575b5015158152f35b6301ffc9a760e01b149050836113a7565b600435906001600160a01b03821682036113d557565b600080fd5b602435906001600160a01b03821682036113d557565b60609060031901126113d5576001600160a01b039060043582811681036113d5579160243590811681036113d5579060443590565b90601f8019910116810190811067ffffffffffffffff82111761144757604052565b634e487b7160e01b600052604160045260246000fd5b67ffffffffffffffff811161144757601f01601f191660200190565b6000546001600160a01b0316330361148d57565b60405162461bcd60e51b815260206004820152601260248201527113db9b1e4818dbdc994818dbdb9d1c9858dd60721b6044820152606490fd5b60ff60005460a01c16156114f05760015462093a8081018091116114f55742116114f057600190565b600090565b634e487b7160e01b600052601160045260246000fd5b3360009081527f0be278f4ad0972113a7bd5492b4cd8a33cafc699350ac844c18227cd07e8a09d6020526040902054600080516020611cf98339815191529060ff16156115555750565b6044906040519063e2517d3f60e01b82523360048301526024820152fd5b3360009081527f18476f5b3d6d00091ddd56161ac5e9ba807d29b59f48f8df98938ee352a7cf236020526040902054600080516020611d198339815191529060ff16156115555750565b3360009081527fab71e3f32666744d246edff3f96e4bdafee2e9867098cdd118a979a7464786a86020526040902054600080516020611c598339815191529060ff16156115555750565b80600052600080516020611c9983398151915260205260406000203360005260205260ff60406000205416156115555750565b600080516020611cd983398151915260028154146116585760029055565b604051633ee5aeb560e01b8152600490fd5b6001600160a01b031660008181527fb7db2dd08fcb62d0c9e08c51941cae53c267786a0b75803fb7960902fc8ef97d6020526040812054909190600080516020611c998339815191529060ff166116f3578280526020526040822081835260205260408220600160ff198254161790553391600080516020611c398339815191528180a4600190565b505090565b6001600160a01b031660008181527f0be278f4ad0972113a7bd5492b4cd8a33cafc699350ac844c18227cd07e8a09d6020526040812054909190600080516020611cf983398151915290600080516020611c998339815191529060ff16611790578184526020526040832082845260205260408320600160ff19825416179055600080516020611c39833981519152339380a4600190565b50505090565b6001600160a01b031660008181527fab71e3f32666744d246edff3f96e4bdafee2e9867098cdd118a979a7464786a86020526040812054909190600080516020611c5983398151915290600080516020611c998339815191529060ff16611790578184526020526040832082845260205260408320600160ff19825416179055600080516020611c39833981519152339380a4600190565b6001600160a01b031660008181527f18476f5b3d6d00091ddd56161ac5e9ba807d29b59f48f8df98938ee352a7cf236020526040812054909190600080516020611d1983398151915290600080516020611c998339815191529060ff16611790578184526020526040832082845260205260408320600160ff19825416179055600080516020611c39833981519152339380a4600190565b90600091808352600080516020611c9983398151915280602052604084209260018060a01b03169283855260205260ff60408520541615600014611790578184526020526040832082845260205260408320600160ff19825416179055600080516020611c39833981519152339380a4600190565b6001600160a01b031660008181527fb7db2dd08fcb62d0c9e08c51941cae53c267786a0b75803fb7960902fc8ef97d6020526040812054909190600080516020611c998339815191529060ff16156116f357828052602052604082208183526020526040822060ff1981541690553391600080516020611cb98339815191528180a4600190565b6001600160a01b031660008181527f0be278f4ad0972113a7bd5492b4cd8a33cafc699350ac844c18227cd07e8a09d6020526040812054909190600080516020611cf983398151915290600080516020611c998339815191529060ff161561179057818452602052604083208284526020526040832060ff198154169055600080516020611cb9833981519152339380a4600190565b6001600160a01b031660008181527fab71e3f32666744d246edff3f96e4bdafee2e9867098cdd118a979a7464786a86020526040812054909190600080516020611c5983398151915290600080516020611c998339815191529060ff161561179057818452602052604083208284526020526040832060ff198154169055600080516020611cb9833981519152339380a4600190565b90600091808352600080516020611c9983398151915280602052604084209260018060a01b03169283855260205260ff60408520541660001461179057818452602052604083208284526020526040832060ff198154169055600080516020611cb9833981519152339380a4600190565b3d15611b8a573d90611b708261145d565b91611b7e6040519384611425565b82523d6000602084013e565b606090565b805115611b9e57602081519101fd5b60405163d6bda27560e01b8152600490fd5b60ff7ff0c57e16840df040f15088dc2f81fe391c3923bec73e23a9662efc9c229c6a005460401c1615611bdf57565b604051631afcd79f60e31b8152600490fd5b90611bfc5750611b8f565b81511580611c2f575b611c0d575090565b604051639996b31560e01b81526001600160a01b039091166004820152602490fd5b50803b15611c0556fe2f8788117e7eff1d82e926ec794901d17c78024a50270940304540a733656f0d189ab7a9244df0848122154315af71fe140f3db0fe014031783b0946b8c9d2e3360894a13ba1a3210667c828492db98dca3e2076cc3735a920a3ca505d382bbc02dd7bc7dec4dceedda775e58dd541e08a116c6c53815c0bd028192f7b626800f6391f5c32d9c69d2a47ea670b442974b53935d1edc7fd64eb21e047a839171b9b779b17422d0df92223018b32b4d1fa46e071723d6817e2486d003becc55f000acf805600123ef007091da3b3ffb39474074c656c127aa68cb0ffec232a8ff855435dd261a4b9b3364963f7738a7a662ad9c84396d64be3365284bb7f0a5041a26469706673582212208d72b756e00847c6064f333adeb8430a9284190283c4cea148c9f811e3e8108d64736f6c63430008160033",
  "linkReferences": {},
  "deployedLinkReferences": {}
}