{
  "_format": "hh-sol-artifact-1",
  "contractName": "CircuitBreaker",
  "sourceName": "contracts/CircuitBreaker.sol",
  "abi": [
    {
      "inputs": [],
      "name": "AccessControlBadConfirmation",
      "type": "error"
    },
    {
      "inputs": [
        {
          "internalType": "address",
          "name": "account",
          "type": "address"
        },
        {
          "internalType": "bytes32",
          "name": "neededRole",
          "type": "bytes32"
        }
      ],
      "name": "AccessControlUnauthorizedAccount",
      "type": "error"
    },
    {
      "inputs": [],
      "name": "CircuitBreakerActive",
      "type": "error"
    },
    {
      "inputs": [],
      "name": "EnforcedPause",
      "type": "error"
    },
    {
      "inputs": [],
      "name": "ExpectedPause",
      "type": "error"
    },
    {
      "inputs": [],
      "name": "FailedAttemptsExceeded",
      "type": "error"
    },
    {
      "inputs": [],
      "name": "InvalidInitialization",
      "type": "error"
    },
    {
      "inputs": [],
      "name": "InvalidParameters",
      "type": "error"
    },
    {
      "inputs": [],
      "name": "NotInitializing",
      "type": "error"
    },
    {
      "inputs": [],
      "name": "UnauthorizedCaller",
      "type": "error"
    },
    {
      "inputs": [],
      "name": "VelocityLimitExceeded",
      "type": "error"
    },
    {
      "inputs": [],
      "name": "VolumeLimitExceeded",
      "type": "error"
    },
    {
      "anonymous": false,
      "inputs": [
        {
          "indexed": false,
          "internalType": "uint256",
          "name": "timestamp",
          "type": "uint256"
        }
      ],
      "name": "AutoResetTriggered",
      "type": "event"
    },
    {
      "anonymous": false,
      "inputs": [
        {
          "indexed": false,
          "internalType": "string",
          "name": "reason",
          "type": "string"
        },
        {
          "indexed": false,
          "internalType": "uint256",
          "name": "timestamp",
          "type": "uint256"
        }
      ],
      "name": "CircuitBreakerActivated",
      "type": "event"
    },
    {
      "anonymous": false,
      "inputs": [
        {
          "indexed": false,
          "internalType": "uint256",
          "name": "maxTransferPercentage",
          "type": "uint256"
        },
        {
          "indexed": false,
          "internalType": "uint256",
          "name": "maxTransfersPerBlock",
          "type": "uint256"
        },
        {
          "indexed": false,
          "internalType": "uint256",
          "name": "suspiciousVelocityThreshold",
          "type": "uint256"
        },
        {
          "indexed": false,
          "internalType": "uint256",
          "name": "maxDailyVolume",
          "type": "uint256"
        },
        {
          "indexed": false,
          "internalType": "uint256",
          "name": "maxHourlyVolume",
          "type": "uint256"
        },
        {
          "indexed": false,
          "internalType": "uint256",
          "name": "maxSingleTransfer",
          "type": "uint256"
        }
      ],
      "name": "CircuitBreakerConfigUpdated",
      "type": "event"
    },
    {
      "anonymous": false,
      "inputs": [
        {
          "indexed": false,
          "internalType": "uint256",
          "name": "timestamp",
          "type": "uint256"
        }
      ],
      "name": "CircuitBreakerDeactivated",
      "type": "event"
    },
    {
      "anonymous": false,
      "inputs": [
        {
          "indexed": false,
          "internalType": "string",
          "name": "reason",
          "type": "string"
        },
        {
          "indexed": false,
          "internalType": "uint256",
          "name": "blockNumber",
          "type": "uint256"
        },
        {
          "indexed": false,
          "internalType": "address",
          "name": "triggeredBy",
          "type": "address"
        }
      ],
      "name": "CircuitBreakerTriggered",
      "type": "event"
    },
    {
      "anonymous": false,
      "inputs": [
        {
          "indexed": false,
          "internalType": "address",
          "name": "account",
          "type": "address"
        },
        {
          "indexed": false,
          "internalType": "uint256",
          "name": "attempts",
          "type": "uint256"
        }
      ],
      "name": "FailedAttemptsExceededEvent",
      "type": "event"
    },
    {
      "anonymous": false,
      "inputs": [
        {
          "indexed": false,
          "internalType": "uint64",
          "name": "version",
          "type": "uint64"
        }
      ],
      "name": "Initialized",
      "type": "event"
    },
    {
      "anonymous": false,
      "inputs": [
        {
          "indexed": false,
          "internalType": "address",
          "name": "account",
          "type": "address"
        }
      ],
      "name": "Paused",
      "type": "event"
    },
    {
      "anonymous": false,
      "inputs": [
        {
          "indexed": true,
          "internalType": "bytes32",
          "name": "role",
          "type": "bytes32"
        },
        {
          "indexed": true,
          "internalType": "bytes32",
          "name": "previousAdminRole",
          "type": "bytes32"
        },
        {
          "indexed": true,
          "internalType": "bytes32",
          "name": "newAdminRole",
          "type": "bytes32"
        }
      ],
      "name": "RoleAdminChanged",
      "type": "event"
    },
    {
      "anonymous": false,
      "inputs": [
        {
          "indexed": true,
          "internalType": "bytes32",
          "name": "role",
          "type": "bytes32"
        },
        {
          "indexed": true,
          "internalType": "address",
          "name": "account",
          "type": "address"
        },
        {
          "indexed": true,
          "internalType": "address",
          "name": "sender",
          "type": "address"
        }
      ],
      "name": "RoleGranted",
      "type": "event"
    },
    {
      "anonymous": false,
      "inputs": [
        {
          "indexed": true,
          "internalType": "bytes32",
          "name": "role",
          "type": "bytes32"
        },
        {
          "indexed": true,
          "internalType": "address",
          "name": "account",
          "type": "address"
        },
        {
          "indexed": true,
          "internalType": "address",
          "name": "sender",
          "type": "address"
        }
      ],
      "name": "RoleRevoked",
      "type": "event"
    },
    {
      "anonymous": false,
      "inputs": [
        {
          "indexed": false,
          "internalType": "address",
          "name": "account",
          "type": "address"
        }
      ],
      "name": "Unpaused",
      "type": "event"
    },
    {
      "anonymous": false,
      "inputs": [
        {
          "indexed": false,
          "internalType": "uint256",
          "name": "limit",
          "type": "uint256"
        },
        {
          "indexed": false,
          "internalType": "uint256",
          "name": "actual",
          "type": "uint256"
        },
        {
          "indexed": false,
          "internalType": "string",
          "name": "period",
          "type": "string"
        }
      ],
      "name": "VelocityLimitExceededEvent",
      "type": "event"
    },
    {
      "anonymous": false,
      "inputs": [
        {
          "indexed": false,
          "internalType": "uint256",
          "name": "limit",
          "type": "uint256"
        },
        {
          "indexed": false,
          "internalType": "uint256",
          "name": "actual",
          "type": "uint256"
        },
        {
          "indexed": false,
          "internalType": "string",
          "name": "period",
          "type": "string"
        }
      ],
      "name": "VolumeLimitExceededEvent",
      "type": "event"
    },
    {
      "inputs": [],
      "name": "CIRCUIT_BREAKER_CONFIG_ROLE",
      "outputs": [
        {
          "internalType": "bytes32",
          "name": "",
          "type": "bytes32"
        }
      ],
      "stateMutability": "view",
      "type": "function"
    },
    {
      "inputs": [],
      "name": "CIRCUIT_BREAKER_ROLE",
      "outputs": [
        {
          "internalType": "bytes32",
          "name": "",
          "type": "bytes32"
        }
      ],
      "stateMutability": "view",
      "type": "function"
    },
    {
      "inputs": [],
      "name": "DEFAULT_ADMIN_ROLE",
      "outputs": [
        {
          "internalType": "bytes32",
          "name": "",
          "type": "bytes32"
        }
      ],
      "stateMutability": "view",
      "type": "function"
    },
    {
      "inputs": [
        {
          "internalType": "string",
          "name": "reason",
          "type": "string"
        }
      ],
      "name": "activateCircuitBreaker",
      "outputs": [],
      "stateMutability": "nonpayable",
      "type": "function"
    },
    {
      "inputs": [],
      "name": "activationReason",
      "outputs": [
        {
          "internalType": "string",
          "name": "",
          "type": "string"
        }
      ],
      "stateMutability": "view",
      "type": "function"
    },
    {
      "inputs": [],
      "name": "activationTime",
      "outputs": [
        {
          "internalType": "uint256",
          "name": "",
          "type": "uint256"
        }
      ],
      "stateMutability": "view",
      "type": "function"
    },
    {
      "inputs": [],
      "name": "autoReset",
      "outputs": [],
      "stateMutability": "nonpayable",
      "type": "function"
    },
    {
      "inputs": [],
      "name": "autoResetInterval",
      "outputs": [
        {
          "internalType": "uint256",
          "name": "",
          "type": "uint256"
        }
      ],
      "stateMutability": "view",
      "type": "function"
    },
    {
      "inputs": [
        {
          "internalType": "address",
          "name": "from",
          "type": "address"
        },
        {
          "internalType": "address",
          "name": "to",
          "type": "address"
        },
        {
          "internalType": "uint256",
          "name": "amount",
          "type": "uint256"
        },
        {
          "internalType": "uint256",
          "name": "totalSupply",
          "type": "uint256"
        }
      ],
      "name": "checkCircuitBreaker",
      "outputs": [],
      "stateMutability": "nonpayable",
      "type": "function"
    },
    {
      "inputs": [
        {
          "internalType": "address",
          "name": "",
          "type": "address"
        },
        {
          "internalType": "address",
          "name": "",
          "type": "address"
        },
        {
          "internalType": "uint256",
          "name": "amount",
          "type": "uint256"
        }
      ],
      "name": "checkTransfer",
      "outputs": [],
      "stateMutability": "view",
      "type": "function"
    },
    {
      "inputs": [
        {
          "internalType": "uint256",
          "name": "_maxTransferPercentage",
          "type": "uint256"
        },
        {
          "internalType": "uint256",
          "name": "_maxTransfersPerBlock",
          "type": "uint256"
        },
        {
          "internalType": "uint256",
          "name": "_suspiciousVelocityThreshold",
          "type": "uint256"
        },
        {
          "internalType": "uint256",
          "name": "_maxDailyVolume",
          "type": "uint256"
        },
        {
          "internalType": "uint256",
          "name": "_maxHourlyVolume",
          "type": "uint256"
        },
        {
          "internalType": "uint256",
          "name": "_maxSingleTransfer",
          "type": "uint256"
        }
      ],
      "name": "configureCircuitBreaker",
      "outputs": [],
      "stateMutability": "nonpayable",
      "type": "function"
    },
    {
      "inputs": [
        {
          "internalType": "uint256",
          "name": "",
          "type": "uint256"
        }
      ],
      "name": "dailyTransferCount",
      "outputs": [
        {
          "internalType": "uint256",
          "name": "",
          "type": "uint256"
        }
      ],
      "stateMutability": "view",
      "type": "function"
    },
    {
      "inputs": [
        {
          "internalType": "uint256",
          "name": "",
          "type": "uint256"
        }
      ],
      "name": "dailyVolume",
      "outputs": [
        {
          "internalType": "uint256",
          "name": "",
          "type": "uint256"
        }
      ],
      "stateMutability": "view",
      "type": "function"
    },
    {
      "inputs": [],
      "name": "deactivateCircuitBreaker",
      "outputs": [],
      "stateMutability": "nonpayable",
      "type": "function"
    },
    {
      "inputs": [],
      "name": "failedAttemptWindow",
      "outputs": [
        {
          "internalType": "uint256",
          "name": "",
          "type": "uint256"
        }
      ],
      "stateMutability": "view",
      "type": "function"
    },
    {
      "inputs": [
        {
          "internalType": "address",
          "name": "",
          "type": "address"
        }
      ],
      "name": "failedAttempts",
      "outputs": [
        {
          "internalType": "uint256",
          "name": "",
          "type": "uint256"
        }
      ],
      "stateMutability": "view",
      "type": "function"
    },
    {
      "inputs": [],
      "name": "getActivationReason",
      "outputs": [
        {
          "internalType": "string",
          "name": "",
          "type": "string"
        }
      ],
      "stateMutability": "view",
      "type": "function"
    },
    {
      "inputs": [],
      "name": "getCurrentDailyTransferCount",
      "outputs": [
        {
          "internalType": "uint256",
          "name": "",
          "type": "uint256"
        }
      ],
      "stateMutability": "view",
      "type": "function"
    },
    {
      "inputs": [],
      "name": "getCurrentDailyVolume",
      "outputs": [
        {
          "internalType": "uint256",
          "name": "",
          "type": "uint256"
        }
      ],
      "stateMutability": "view",
      "type": "function"
    },
    {
      "inputs": [],
      "name": "getCurrentHourlyTransferCount",
      "outputs": [
        {
          "internalType": "uint256",
          "name": "",
          "type": "uint256"
        }
      ],
      "stateMutability": "view",
      "type": "function"
    },
    {
      "inputs": [],
      "name": "getCurrentHourlyVolume",
      "outputs": [
        {
          "internalType": "uint256",
          "name": "",
          "type": "uint256"
        }
      ],
      "stateMutability": "view",
      "type": "function"
    },
    {
      "inputs": [
        {
          "internalType": "bytes32",
          "name": "role",
          "type": "bytes32"
        }
      ],
      "name": "getRoleAdmin",
      "outputs": [
        {
          "internalType": "bytes32",
          "name": "",
          "type": "bytes32"
        }
      ],
      "stateMutability": "view",
      "type": "function"
    },
    {
      "inputs": [
        {
          "internalType": "bytes32",
          "name": "role",
          "type": "bytes32"
        },
        {
          "internalType": "address",
          "name": "account",
          "type": "address"
        }
      ],
      "name": "grantRole",
      "outputs": [],
      "stateMutability": "nonpayable",
      "type": "function"
    },
    {
      "inputs": [
        {
          "internalType": "bytes32",
          "name": "role",
          "type": "bytes32"
        },
        {
          "internalType": "address",
          "name": "account",
          "type": "address"
        }
      ],
      "name": "hasRole",
      "outputs": [
        {
          "internalType": "bool",
          "name": "",
          "type": "bool"
        }
      ],
      "stateMutability": "view",
      "type": "function"
    },
    {
      "inputs": [
        {
          "internalType": "uint256",
          "name": "",
          "type": "uint256"
        }
      ],
      "name": "hourlyTransferCount",
      "outputs": [
        {
          "internalType": "uint256",
          "name": "",
          "type": "uint256"
        }
      ],
      "stateMutability": "view",
      "type": "function"
    },
    {
      "inputs": [
        {
          "internalType": "uint256",
          "name": "",
          "type": "uint256"
        }
      ],
      "name": "hourlyVolume",
      "outputs": [
        {
          "internalType": "uint256",
          "name": "",
          "type": "uint256"
        }
      ],
      "stateMutability": "view",
      "type": "function"
    },
    {
      "inputs": [
        {
          "internalType": "address",
          "name": "admin",
          "type": "address"
        },
        {
          "internalType": "uint256",
          "name": "_maxDailyVolume",
          "type": "uint256"
        },
        {
          "internalType": "uint256",
          "name": "_maxHourlyVolume",
          "type": "uint256"
        },
        {
          "internalType": "uint256",
          "name": "_maxSingleTransfer",
          "type": "uint256"
        },
        {
          "internalType": "uint256",
          "name": "_maxTransfersPerHour",
          "type": "uint256"
        },
        {
          "internalType": "uint256",
          "name": "_maxTransfersPerDay",
          "type": "uint256"
        },
        {
          "internalType": "uint256",
          "name": "_maxFailedAttempts",
          "type": "uint256"
        },
        {
          "internalType": "uint256",
          "name": "_failedAttemptWindow",
          "type": "uint256"
        },
        {
          "internalType": "uint256",
          "name": "_autoResetInterval",
          "type": "uint256"
        }
      ],
      "name": "initialize",
      "outputs": [],
      "stateMutability": "nonpayable",
      "type": "function"
    },
    {
      "inputs": [],
      "name": "isActive",
      "outputs": [
        {
          "internalType": "bool",
          "name": "",
          "type": "bool"
        }
      ],
      "stateMutability": "view",
      "type": "function"
    },
    {
      "inputs": [],
      "name": "isCircuitBreakerActive",
      "outputs": [
        {
          "internalType": "bool",
          "name": "",
          "type": "bool"
        }
      ],
      "stateMutability": "view",
      "type": "function"
    },
    {
      "inputs": [],
      "name": "lastCheckBlock",
      "outputs": [
        {
          "internalType": "uint256",
          "name": "",
          "type": "uint256"
        }
      ],
      "stateMutability": "view",
      "type": "function"
    },
    {
      "inputs": [
        {
          "internalType": "address",
          "name": "",
          "type": "address"
        }
      ],
      "name": "lastFailedAttempt",
      "outputs": [
        {
          "internalType": "uint256",
          "name": "",
          "type": "uint256"
        }
      ],
      "stateMutability": "view",
      "type": "function"
    },
    {
      "inputs": [],
      "name": "lastResetTime",
      "outputs": [
        {
          "internalType": "uint256",
          "name": "",
          "type": "uint256"
        }
      ],
      "stateMutability": "view",
      "type": "function"
    },
    {
      "inputs": [],
      "name": "maxDailyVolume",
      "outputs": [
        {
          "internalType": "uint256",
          "name": "",
          "type": "uint256"
        }
      ],
      "stateMutability": "view",
      "type": "function"
    },
    {
      "inputs": [],
      "name": "maxFailedAttempts",
      "outputs": [
        {
          "internalType": "uint256",
          "name": "",
          "type": "uint256"
        }
      ],
      "stateMutability": "view",
      "type": "function"
    },
    {
      "inputs": [],
      "name": "maxHourlyVolume",
      "outputs": [
        {
          "internalType": "uint256",
          "name": "",
          "type": "uint256"
        }
      ],
      "stateMutability": "view",
      "type": "function"
    },
    {
      "inputs": [],
      "name": "maxSingleTransfer",
      "outputs": [
        {
          "internalType": "uint256",
          "name": "",
          "type": "uint256"
        }
      ],
      "stateMutability": "view",
      "type": "function"
    },
    {
      "inputs": [],
      "name": "maxTransferPercentage",
      "outputs": [
        {
          "internalType": "uint256",
          "name": "",
          "type": "uint256"
        }
      ],
      "stateMutability": "view",
      "type": "function"
    },
    {
      "inputs": [],
      "name": "maxTransfersPerBlock",
      "outputs": [
        {
          "internalType": "uint256",
          "name": "",
          "type": "uint256"
        }
      ],
      "stateMutability": "view",
      "type": "function"
    },
    {
      "inputs": [],
      "name": "maxTransfersPerDay",
      "outputs": [
        {
          "internalType": "uint256",
          "name": "",
          "type": "uint256"
        }
      ],
      "stateMutability": "view",
      "type": "function"
    },
    {
      "inputs": [],
      "name": "maxTransfersPerHour",
      "outputs": [
        {
          "internalType": "uint256",
          "name": "",
          "type": "uint256"
        }
      ],
      "stateMutability": "view",
      "type": "function"
    },
    {
      "inputs": [],
      "name": "paused",
      "outputs": [
        {
          "internalType": "bool",
          "name": "",
          "type": "bool"
        }
      ],
      "stateMutability": "view",
      "type": "function"
    },
    {
      "inputs": [
        {
          "internalType": "address",
          "name": "account",
          "type": "address"
        }
      ],
      "name": "recordFailedAttempt",
      "outputs": [],
      "stateMutability": "nonpayable",
      "type": "function"
    },
    {
      "inputs": [
        {
          "internalType": "address",
          "name": "from",
          "type": "address"
        },
        {
          "internalType": "address",
          "name": "",
          "type": "address"
        },
        {
          "internalType": "uint256",
          "name": "amount",
          "type": "uint256"
        }
      ],
      "name": "recordTransfer",
      "outputs": [],
      "stateMutability": "nonpayable",
      "type": "function"
    },
    {
      "inputs": [
        {
          "internalType": "bytes32",
          "name": "role",
          "type": "bytes32"
        },
        {
          "internalType": "address",
          "name": "callerConfirmation",
          "type": "address"
        }
      ],
      "name": "renounceRole",
      "outputs": [],
      "stateMutability": "nonpayable",
      "type": "function"
    },
    {
      "inputs": [
        {
          "internalType": "bytes32",
          "name": "role",
          "type": "bytes32"
        },
        {
          "internalType": "address",
          "name": "account",
          "type": "address"
        }
      ],
      "name": "revokeRole",
      "outputs": [],
      "stateMutability": "nonpayable",
      "type": "function"
    },
    {
      "inputs": [
        {
          "internalType": "bytes4",
          "name": "interfaceId",
          "type": "bytes4"
        }
      ],
      "name": "supportsInterface",
      "outputs": [
        {
          "internalType": "bool",
          "name": "",
          "type": "bool"
        }
      ],
      "stateMutability": "view",
      "type": "function"
    },
    {
      "inputs": [],
      "name": "suspiciousVelocityThreshold",
      "outputs": [
        {
          "internalType": "uint256",
          "name": "",
          "type": "uint256"
        }
      ],
      "stateMutability": "view",
      "type": "function"
    },
    {
      "inputs": [
        {
          "internalType": "uint256",
          "name": "",
          "type": "uint256"
        }
      ],
      "name": "transfersPerBlock",
      "outputs": [
        {
          "internalType": "uint256",
          "name": "",
          "type": "uint256"
        }
      ],
      "stateMutability": "view",
      "type": "function"
    },
    {
      "inputs": [
        {
          "internalType": "uint256",
          "name": "_maxDailyVolume",
          "type": "uint256"
        },
        {
          "internalType": "uint256",
          "name": "_maxHourlyVolume",
          "type": "uint256"
        },
        {
          "internalType": "uint256",
          "name": "_maxSingleTransfer",
          "type": "uint256"
        },
        {
          "internalType": "uint256",
          "name": "_maxTransfersPerHour",
          "type": "uint256"
        },
        {
          "internalType": "uint256",
          "name": "_maxTransfersPerDay",
          "type": "uint256"
        },
        {
          "internalType": "uint256",
          "name": "_maxFailedAttempts",
          "type": "uint256"
        },
        {
          "internalType": "uint256",
          "name": "_failedAttemptWindow",
          "type": "uint256"
        },
        {
          "internalType": "uint256",
          "name": "_autoResetInterval",
          "type": "uint256"
        }
      ],
      "name": "updateLimits",
      "outputs": [],
      "stateMutability": "nonpayable",
      "type": "function"
    }
  ],
  "bytecode": "0x6080806040523461001657612064908161001c8239f35b600080fdfe6040608081526004908136101561001557600080fd5b600091823560e01c90816206d1c51461171d5783826301e3a903146116895750816301ffc9a71461163357816307df2f181461161457816312da5d1e146115f557816312ed45dc146115d657816313935857146115ab578163156b4a7f146110fe5781632190fb3214610e7157816322f3e2d414610d96578163248a9ca314610e39578163258061aa14610e1a5781632f2ff15d14610df057816332627ec714610db857816332941ecb14610d9657816336568abe14610d5057816336b089d814610d3157816339dd5d1b14610d0957816342200b9e14610c9f578163428089c414610c8057816344baa6c2146109c15781635c975abb14610c3d5781635feb1f7114610c1e57816363236f4914610bf6578163668fb1be14610ad55781636b5a0d8c14610a505781636c58ab8314610a3157816376ab94a1146109f6578163789b6315146109c15781637b969e1d146109895781637c5cf1691461095f5781638fbf59291461093757816391d14854146108e3578163943ca3b9146108bb578163a21771241461089c578163a217fddf14610881578163a7e02d7514610857578163ae6e01451461082c578163cc1dd94f146105b7578163d114e6fc1461041c578163d547741f146103cf578163da4493f6146103b0578163da4a64bc14610391578163df18315b14610373578163e48c822114610354578163e54e55ae14610319578163e6b64fdb146102f1578163fd270b8d14610260575063ff3cf3f01461023f57600080fd5b3461025c578160031936011261025c576020906006549051908152f35b5080fd5b919050346102ed576101003660031901126102ed57828052600080516020611fef83398151915260205280832033845260205260ff8184205416156102d157508035600355602435905560443560055560643560075560843560085560a435600a5560c435600b5560e435600d5580f35b91604492519163e2517d3f60e01b835233908301526024820152fd5b8280fd5b9050346102ed5760203660031901126102ed5760209282913581526012845220549051908152f35b50503461025c578160031936011261025c57602090517f7e6b58bc1470e1fc07bc9b21e0435be41fdc30ede9591781476a8d169a2654928152f35b50503461025c578160031936011261025c576020906016549051908152f35b9050346102ed57826003193601126102ed5760209250549051908152f35b50503461025c578160031936011261025c576020906008549051908152f35b50503461025c578160031936011261025c576020906002549051908152f35b919050346102ed57806003193601126102ed57610418913561041360016103f46117e9565b93838752600080516020611fef83398151915260205286200154611c5a565b611eea565b5080f35b9050346102ed576101203660031901126102ed576104386117ce565b7ff0c57e16840df040f15088dc2f81fe391c3923bec73e23a9662efc9c229c6a009182549160ff83861c16159267ffffffffffffffff8116801590816105af575b60011490816105a5575b15908161059c575b5061058c5767ffffffffffffffff19811660011785556104d691908461056d575b506104b5611f6d565b6104bd611f6d565b6104c681611c8d565b506104d081611d1b565b50611dcb565b50602435600355604435905560643560055560843560075560a43560085560c435600a5560e435600b5561010435600d55600560065560646009556a295be96e64066972000000600c5542600e5561052c578280f35b805468ff00000000000000001916905551600181527fc7f505b2f371ae2175ee4913f4499e1f2633a7b5936321eed1cdaeb6115181d290602090a138808280f35b68ffffffffffffffffff191668010000000000000001178555386104ac565b855163f92ee8a960e01b81528390fd5b9050153861048b565b303b159150610483565b859150610479565b919050346102ed576105c8366117ff565b9291505060ff8454166107ea57600554821161079257620151804204610e10420490808652602093600f855261060181858920546119b6565b6003541061073e5761061d9083885260108652848820546119b6565b8554106106e95785526012835281852054600854111561069b5784526011825280842054600754111561064e578380f35b5162461bcd60e51b8152918201526024808201527f486f75726c79207472616e7366657220636f756e74206c696d697420657863656044820152631959195960e21b606482015260849150fd5b505162461bcd60e51b815291820152602360248201527f4461696c79207472616e7366657220636f756e74206c696d697420657863656560448201526219195960ea1b606482015260849150fd5b50505162461bcd60e51b815291820152602960248201527f5472616e7366657220776f756c642065786365656420686f75726c7920766f6c6044820152681d5b59481b1a5b5a5d60ba1b606482015260849150fd5b835162461bcd60e51b8152808701869052602860248201527f5472616e7366657220776f756c6420657863656564206461696c7920766f6c756044820152671b59481b1a5b5a5d60c21b6064820152608490fd5b5162461bcd60e51b8152602081840152602d60248201527f5472616e7366657220616d6f756e7420657863656564732073696e676c65207460448201526c1c985b9cd9995c881b1a5b5a5d609a1b6064820152608490fd5b5162461bcd60e51b8152602081840152601960248201527f4369726375697420627265616b657220697320616374697665000000000000006044820152606490fd5b50503461025c578160031936011261025c57806020926201518042048152600f845220549051908152f35b50503461025c578160031936011261025c5780602092610e10420481526010845220549051908152f35b50503461025c578160031936011261025c5751908152602090f35b50503461025c578160031936011261025c57602090600e549051908152f35b9050346102ed5760203660031901126102ed576020928291358152600f845220549051908152f35b9050346102ed57816003193601126102ed578160209360ff926109046117e9565b90358252600080516020611fef83398151915286528282206001600160a01b039091168252855220549151911615158152f35b9050346102ed5760203660031901126102ed5760209282913581526010845220549051908152f35b50503461025c578160031936011261025c5780602092610e10420481526011845220549051908152f35b50503461025c57602036600319011261025c5760209181906001600160a01b036109b16117ce565b1681526015845220549051908152f35b50503461025c578160031936011261025c576109f2906109df6118c2565b9051918291602083526020830190611976565b0390f35b50503461025c578160031936011261025c57602090517fec47d6804c7d27e1865480cf87e0ddae30c43826b6c4305deb8b98a3038b53738152f35b50503461025c578160031936011261025c576020906007549051908152f35b919050346102ed5760203660031901126102ed578282359167ffffffffffffffff938484116102ed57366023850112156102ed5783013593841161025c57366024858501011161025c5783610ad2946024602093610aac611be0565b5195610ac1601f8401601f19168601886118a0565b828752018386013783010152611a2e565b80f35b919050346102ed5760209182600319360112610bf2576001600160a01b03610afb6117ce565b16908185526015845282852054420390428211610bdf5750600b5411610bc457808452601483526001828520555b8084526015835242828520556014835281842054600a541115610b4a578380f35b7fcef34426b92fd7c1a4dacfb9e7b9625a61226ac4a0e6750a048ad536f84fa87f92610ba88351610b7a8161186e565b601881527f4661696c656420617474656d707473206578636565646564000000000000000083820152611a2e565b8185526014815282852054908351928352820152a13880808380f35b80845260148352818420610bd88154611a1f565b9055610b29565b634e487b7160e01b865260119052602485fd5b8380fd5b9050346102ed5760203660031901126102ed5760209282913581526011845220549051908152f35b50503461025c578160031936011261025c57602090600d549051908152f35b50503461025c578160031936011261025c5760209060ff7fcd5ed15c6e187e77e9aee88184c21f4f2182ab5827cb3b7e07fbedcd63f03300541690519015158152f35b50503461025c578160031936011261025c57602090600c549051908152f35b50503461025c578160031936011261025c5760207f4658f69373abd2ae36994b6398ba682f149ae01805feb8227244965d9f32090991610cdd611be0565b60ff198454168455610cf8610cf3600154611834565b6119d9565b60006001558360025551428152a180f35b9050346102ed5760203660031901126102ed5760209282913581526013845220549051908152f35b50503461025c578160031936011261025c576020906005549051908152f35b83833461025c578060031936011261025c57610d6a6117e9565b90336001600160a01b03831603610d875750610418919235611eea565b5163334bd91960e11b81528390fd5b50503461025c578160031936011261025c5760ff602092541690519015158152f35b50503461025c57602036600319011261025c5760209181906001600160a01b03610de06117ce565b1681526014845220549051908152f35b919050346102ed57806003193601126102ed576104189135610e1560016103f46117e9565b611e75565b50503461025c578160031936011261025c57602090600b549051908152f35b9050346102ed5760203660031901126102ed5781602093600192358152600080516020611fef83398151915285522001549051908152f35b9050346102ed5760c03660031901126102ed578035916024918235604492833591876064948535956084359760a435997fec47d6804c7d27e1865480cf87e0ddae30c43826b6c4305deb8b98a3038b537380865260ff88602097600080516020611fef83398151915289528181203382528952205416156110e757508b1515806110dd575b156110ab57851561106e578715611031578815610ff4578915610fb7578a15610f7a578c7fd06ce7c15574eb8063368953e5e0ddacef652ac418eec4c299f5f118e25cd2eb60c08e8e8e8e8e8e8e8e858f896006558360095585600c5586600355558660055582519788528701528501526060840152608083015260a0820152a180f35b601b907f496e76616c6964206d61782073696e676c65207472616e736665720000000000939588519562461bcd60e51b8752860152840152820152fd5b6019907f496e76616c6964206d617820686f75726c7920766f6c756d6500000000000000939588519562461bcd60e51b8752860152840152820152fd5b6018907f496e76616c6964206d6178206461696c7920766f6c756d650000000000000000939588519562461bcd60e51b8752860152840152820152fd5b601a907f496e76616c69642076656c6f63697479207468726573686f6c64000000000000939588519562461bcd60e51b8752860152840152820152fd5b601f907f496e76616c6964206d6178207472616e73666572732070657220626c6f636b00939588519562461bcd60e51b8752860152840152820152fd5b60129071496e76616c69642070657263656e7461676560701b939588519562461bcd60e51b8752860152840152820152fd5b50828c1115610ef6565b875163e2517d3f60e01b8152338187015291820152fd5b919050346102ed5760809081600319360112610bf25761111c6117ce565b916111256117e9565b506044918235916064948535600654908181029181830414901517156115985786900484116114f45760165443036114de575b4388526020936013855283892061116f8154611a1f565b905543895260138552838920546009541061142b576005548111611364576201518042048952600f85526111a681858b20546119b6565b6003541061129b576111c690610e1042048a5260108652848a20546119b6565b8754106111d1578780f35b928261127e6c1a5b5a5d08195e18d959591959609a1b9693600080516020611fcf83398151915260a060849b9a987f4369726375697420627265616b65723a20486f75726c7920766f6c756d65206c98519060608252601c60608301527f486f75726c7920766f6c756d65206c696d69742065786365656465640000000080958301524388830152600180841b031686820152a18251906112718261186e565b601c825284820152611a2e565b5162461bcd60e51b815295860152602d6024860152840152820152fd5b6084886b1b5a5d08195e18d95959195960a21b897f4369726375697420627265616b65723a204461696c7920766f6c756d65206c698a8a8a6113478b600080516020611fcf83398151915260a08d85519060608252601b60608301527f4461696c7920766f6c756d65206c696d6974206578636565646564000000000080958301524388830152600180841b031686820152a182519061133a8261186e565b601b825284820152611a2e565b5162461bcd60e51b815295860152602c6024860152840152820152fd5b6084886920746f6f206c6172676560b01b897f4369726375697420627265616b65723a2053696e676c65207472616e736665728a8a8a61140e8b600080516020611fcf83398151915260a08d85519060608252601960608301527f53696e676c65207472616e7366657220746f6f206c617267650000000000000080958301524388830152600180841b031686820152a18251906114018261186e565b6019825284820152611a2e565b5162461bcd60e51b815295860152602a6024860152840152820152fd5b6084886265727360e81b897f4369726375697420627265616b65723a20546f6f206d616e79207472616e73668a8a8a6114c18b600080516020611fcf83398151915260a08d85519060608252601c60608301527f546f6f206d616e79207472616e73666572732070657220626c6f636b0000000080958301524388830152600180841b031686820152a18251906112718261186e565b5162461bcd60e51b81529586015260236024860152840152820152fd5b4360165543885260136020528783812055611158565b857f4369726375697420627265616b65723a205472616e7366657220746f6f206c61866020866114c18c97600080516020611fcf83398151915260a06272676560e81b9960849c519060608252601f60608301527f5472616e736665722065786365656473206d61782070657263656e746167650080958301524388830152600180841b031686820152a182519061158b8261186e565b601f825284820152611a2e565b634e487b7160e01b895260118852602489fd5b50503461025c578160031936011261025c578060209262015180420481526012845220549051908152f35b50503461025c578160031936011261025c576020906009549051908152f35b50503461025c578160031936011261025c57602090600a549051908152f35b50503461025c578160031936011261025c576020906003549051908152f35b9050346102ed5760203660031901126102ed57359063ffffffff60e01b82168092036102ed5760209250637965db0b60e01b8214918215611678575b50519015158152f35b6301ffc9a760e01b1491503861166f565b80843461171a57611699366117ff565b905062015180420490610e10420490828652600f6020528486206116be8282546119b6565b905581865260106020526116d68587209182546119b6565b9055845260116020528284206116ec8154611a1f565b9055835260126020528183206117028154611a1f565b90556001600160a01b03168252601460205281205580f35b50fd5b50503461025c578160031936011261025c5761173e600e54600d54906119b6565b421015611749575080f35b60207ff1b43c2e52a9e846469baaebdb63ecfd00023cf4e2b651237f6068f2467d20939160ff198454168455611783610cf3600154611834565b60006001558360025542600e55620151804204808552600f83528482812055610e1042048552601083528482812055601183528482812055845260128252838181205551428152a180f35b600435906001600160a01b03821682036117e457565b600080fd5b602435906001600160a01b03821682036117e457565b60609060031901126117e4576001600160a01b039060043582811681036117e4579160243590811681036117e4579060443590565b90600182811c92168015611864575b602083101461184e57565b634e487b7160e01b600052602260045260246000fd5b91607f1691611843565b6040810190811067ffffffffffffffff82111761188a57604052565b634e487b7160e01b600052604160045260246000fd5b90601f8019910116810190811067ffffffffffffffff82111761188a57604052565b604051906000826001916001546118d881611834565b80845293602091600181169081156119525750600114611903575b5050611901925003836118a0565b565b915092600160005260008051602061200f833981519152936000925b82841061193a575061190194505050810160200138806118f3565b8554888501830152948501948794509281019261191f565b9150506020925061190194915060ff191682840152151560051b82010138806118f3565b919082519283825260005b8481106119a2575050826000602080949584010152601f8019910116010190565b602081830181015184830182015201611981565b919082018092116119c357565b634e487b7160e01b600052601160045260246000fd5b601f81116119e45750565b60019060006001600052601f60008051602061200f833981519152920160051c8201915b828110611a155750505050565b8181558301611a08565b60001981146119c35760010190565b6000805460ff191660019081178255825193929167ffffffffffffffff8511611bcc57611a5b8254611834565b601f8111611b79575b50602090816001601f881114611ae6575093947f11803daffb8bd292f79dc0d607f5a1c30184b28e74ca55f6352d0d874d21072794611ad094939282611adb575b50600019600383901b1c191690821b1790555b42600255604051918291604083526040830190611976565b4260208301520390a1565b905083015138611aa5565b83825260008051602061200f8339815191529291601f198816915b828210611b62575050958392611ad0959492827f11803daffb8bd292f79dc0d607f5a1c30184b28e74ca55f6352d0d874d210727989910611b49575b5050811b019055611ab8565b85015160001960f88460031b161c191690553880611b3d565b808685968294968a01518155019501930190611b01565b82825260008051602061200f833981519152601f870160051c81019160208810611bc2575b601f0160051c019083905b828110611bb7575050611a64565b838155018390611ba9565b9091508190611b9e565b634e487b7160e01b81526041600452602490fd5b3360009081527f4d7367b4c45c93361c07a01249cc1ef90933a8773f26df2dabd0fb4074504d1160205260409020547f7e6b58bc1470e1fc07bc9b21e0435be41fdc30ede9591781476a8d169a2654929060ff1615611c3c5750565b6044906040519063e2517d3f60e01b82523360048301526024820152fd5b80600052600080516020611fef83398151915260205260406000203360005260205260ff6040600020541615611c3c5750565b6001600160a01b031660008181527fb7db2dd08fcb62d0c9e08c51941cae53c267786a0b75803fb7960902fc8ef97d6020526040812054909190600080516020611fef8339815191529060ff16611d16578280526020526040822081835260205260408220600160ff198254161790553391600080516020611faf8339815191528180a4600190565b505090565b6001600160a01b031660008181527f4d7367b4c45c93361c07a01249cc1ef90933a8773f26df2dabd0fb4074504d1160205260408120549091907f7e6b58bc1470e1fc07bc9b21e0435be41fdc30ede9591781476a8d169a26549290600080516020611fef8339815191529060ff16611dc5578184526020526040832082845260205260408320600160ff19825416179055600080516020611faf833981519152339380a4600190565b50505090565b6001600160a01b031660008181527fa560a721e76a28cfb6b7c30b14a4efd9108fcfe83fb956002e1e27af90451ca760205260408120549091907fec47d6804c7d27e1865480cf87e0ddae30c43826b6c4305deb8b98a3038b537390600080516020611fef8339815191529060ff16611dc5578184526020526040832082845260205260408320600160ff19825416179055600080516020611faf833981519152339380a4600190565b90600091808352600080516020611fef83398151915280602052604084209260018060a01b03169283855260205260ff60408520541615600014611dc5578184526020526040832082845260205260408320600160ff19825416179055600080516020611faf833981519152339380a4600190565b90600091808352600080516020611fef83398151915280602052604084209260018060a01b03169283855260205260ff604085205416600014611dc557818452602052604083208284526020526040832060ff1981541690557ff6391f5c32d9c69d2a47ea670b442974b53935d1edc7fd64eb21e047a839171b339380a4600190565b60ff7ff0c57e16840df040f15088dc2f81fe391c3923bec73e23a9662efc9c229c6a005460401c1615611f9c57565b604051631afcd79f60e31b8152600490fdfe2f8788117e7eff1d82e926ec794901d17c78024a50270940304540a733656f0d19345784a352e08cfc0f107ecbf0e78ad69c350b182a491c8ae1ef62192b490b02dd7bc7dec4dceedda775e58dd541e08a116c6c53815c0bd028192f7b626800b10e2d527612073b26eecdfd717e6a320cf44b4afac2b0732d9fcbe2b7fa0cf6a2646970667358221220bd5d820b93169b428fc0927c5c1d8df1bb90ad377e9a320f02c4b46b7bc903ad64736f6c63430008160033",
  "linkReferences": {},
  "deployedLinkReferences": {}
}