{
  "_format": "hh-sol-artifact-1",
  "contractName": "NEBAminimalSimple",
  "sourceName": "contracts/NEBAminimalSimple.sol",
  "abi": [
    {
      "inputs": [],
      "stateMutability": "nonpayable",
      "type": "constructor"
    },
    {
      "inputs": [],
      "name": "AccessControlBadConfirmation",
      "type": "error"
    },
    {
      "inputs": [
        {
          "internalType": "address",
          "name": "account",
          "type": "address"
        },
        {
          "internalType": "bytes32",
          "name": "neededRole",
          "type": "bytes32"
        }
      ],
      "name": "AccessControlUnauthorizedAccount",
      "type": "error"
    },
    {
      "inputs": [
        {
          "internalType": "address",
          "name": "target",
          "type": "address"
        }
      ],
      "name": "AddressEmptyCode",
      "type": "error"
    },
    {
      "inputs": [],
      "name": "ECDSAInvalidSignature",
      "type": "error"
    },
    {
      "inputs": [
        {
          "internalType": "uint256",
          "name": "length",
          "type": "uint256"
        }
      ],
      "name": "ECDSAInvalidSignatureLength",
      "type": "error"
    },
    {
      "inputs": [
        {
          "internalType": "bytes32",
          "name": "s",
          "type": "bytes32"
        }
      ],
      "name": "ECDSAInvalidSignatureS",
      "type": "error"
    },
    {
      "inputs": [
        {
          "internalType": "address",
          "name": "implementation",
          "type": "address"
        }
      ],
      "name": "ERC1967InvalidImplementation",
      "type": "error"
    },
    {
      "inputs": [],
      "name": "ERC1967NonPayable",
      "type": "error"
    },
    {
      "inputs": [
        {
          "internalType": "uint256",
          "name": "increasedSupply",
          "type": "uint256"
        },
        {
          "internalType": "uint256",
          "name": "cap",
          "type": "uint256"
        }
      ],
      "name": "ERC20ExceededCap",
      "type": "error"
    },
    {
      "inputs": [
        {
          "internalType": "address",
          "name": "spender",
          "type": "address"
        },
        {
          "internalType": "uint256",
          "name": "allowance",
          "type": "uint256"
        },
        {
          "internalType": "uint256",
          "name": "needed",
          "type": "uint256"
        }
      ],
      "name": "ERC20InsufficientAllowance",
      "type": "error"
    },
    {
      "inputs": [
        {
          "internalType": "address",
          "name": "sender",
          "type": "address"
        },
        {
          "internalType": "uint256",
          "name": "balance",
          "type": "uint256"
        },
        {
          "internalType": "uint256",
          "name": "needed",
          "type": "uint256"
        }
      ],
      "name": "ERC20InsufficientBalance",
      "type": "error"
    },
    {
      "inputs": [
        {
          "internalType": "address",
          "name": "approver",
          "type": "address"
        }
      ],
      "name": "ERC20InvalidApprover",
      "type": "error"
    },
    {
      "inputs": [
        {
          "internalType": "uint256",
          "name": "cap",
          "type": "uint256"
        }
      ],
      "name": "ERC20InvalidCap",
      "type": "error"
    },
    {
      "inputs": [
        {
          "internalType": "address",
          "name": "receiver",
          "type": "address"
        }
      ],
      "name": "ERC20InvalidReceiver",
      "type": "error"
    },
    {
      "inputs": [
        {
          "internalType": "address",
          "name": "sender",
          "type": "address"
        }
      ],
      "name": "ERC20InvalidSender",
      "type": "error"
    },
    {
      "inputs": [
        {
          "internalType": "address",
          "name": "spender",
          "type": "address"
        }
      ],
      "name": "ERC20InvalidSpender",
      "type": "error"
    },
    {
      "inputs": [
        {
          "internalType": "uint256",
          "name": "deadline",
          "type": "uint256"
        }
      ],
      "name": "ERC2612ExpiredSignature",
      "type": "error"
    },
    {
      "inputs": [
        {
          "internalType": "address",
          "name": "signer",
          "type": "address"
        },
        {
          "internalType": "address",
          "name": "owner",
          "type": "address"
        }
      ],
      "name": "ERC2612InvalidSigner",
      "type": "error"
    },
    {
      "inputs": [],
      "name": "FailedCall",
      "type": "error"
    },
    {
      "inputs": [
        {
          "internalType": "address",
          "name": "account",
          "type": "address"
        },
        {
          "internalType": "uint256",
          "name": "currentNonce",
          "type": "uint256"
        }
      ],
      "name": "InvalidAccountNonce",
      "type": "error"
    },
    {
      "inputs": [],
      "name": "InvalidAddress",
      "type": "error"
    },
    {
      "inputs": [],
      "name": "InvalidInitialization",
      "type": "error"
    },
    {
      "inputs": [],
      "name": "NotInitializing",
      "type": "error"
    },
    {
      "inputs": [],
      "name": "ReentrancyGuardReentrantCall",
      "type": "error"
    },
    {
      "inputs": [],
      "name": "SnapshotNotFound",
      "type": "error"
    },
    {
      "inputs": [],
      "name": "UUPSUnauthorizedCallContext",
      "type": "error"
    },
    {
      "inputs": [
        {
          "internalType": "bytes32",
          "name": "slot",
          "type": "bytes32"
        }
      ],
      "name": "UUPSUnsupportedProxiableUUID",
      "type": "error"
    },
    {
      "anonymous": false,
      "inputs": [
        {
          "indexed": true,
          "internalType": "address",
          "name": "owner",
          "type": "address"
        },
        {
          "indexed": true,
          "internalType": "address",
          "name": "spender",
          "type": "address"
        },
        {
          "indexed": false,
          "internalType": "uint256",
          "name": "value",
          "type": "uint256"
        }
      ],
      "name": "Approval",
      "type": "event"
    },
    {
      "anonymous": false,
      "inputs": [],
      "name": "EIP712DomainChanged",
      "type": "event"
    },
    {
      "anonymous": false,
      "inputs": [
        {
          "indexed": false,
          "internalType": "uint64",
          "name": "version",
          "type": "uint64"
        }
      ],
      "name": "Initialized",
      "type": "event"
    },
    {
      "anonymous": false,
      "inputs": [
        {
          "indexed": true,
          "internalType": "bytes32",
          "name": "role",
          "type": "bytes32"
        },
        {
          "indexed": true,
          "internalType": "bytes32",
          "name": "previousAdminRole",
          "type": "bytes32"
        },
        {
          "indexed": true,
          "internalType": "bytes32",
          "name": "newAdminRole",
          "type": "bytes32"
        }
      ],
      "name": "RoleAdminChanged",
      "type": "event"
    },
    {
      "anonymous": false,
      "inputs": [
        {
          "indexed": true,
          "internalType": "bytes32",
          "name": "role",
          "type": "bytes32"
        },
        {
          "indexed": true,
          "internalType": "address",
          "name": "account",
          "type": "address"
        },
        {
          "indexed": true,
          "internalType": "address",
          "name": "sender",
          "type": "address"
        }
      ],
      "name": "RoleGranted",
      "type": "event"
    },
    {
      "anonymous": false,
      "inputs": [
        {
          "indexed": true,
          "internalType": "bytes32",
          "name": "role",
          "type": "bytes32"
        },
        {
          "indexed": true,
          "internalType": "address",
          "name": "account",
          "type": "address"
        },
        {
          "indexed": true,
          "internalType": "address",
          "name": "sender",
          "type": "address"
        }
      ],
      "name": "RoleRevoked",
      "type": "event"
    },
    {
      "anonymous": false,
      "inputs": [
        {
          "indexed": true,
          "internalType": "uint256",
          "name": "snapshotId",
          "type": "uint256"
        },
        {
          "indexed": false,
          "internalType": "uint256",
          "name": "timestamp",
          "type": "uint256"
        },
        {
          "indexed": false,
          "internalType": "uint256",
          "name": "totalSupply",
          "type": "uint256"
        }
      ],
      "name": "SnapshotCreated",
      "type": "event"
    },
    {
      "anonymous": false,
      "inputs": [
        {
          "indexed": true,
          "internalType": "address",
          "name": "treasury",
          "type": "address"
        },
        {
          "indexed": false,
          "internalType": "uint256",
          "name": "totalSupply",
          "type": "uint256"
        }
      ],
      "name": "TokensInitialized",
      "type": "event"
    },
    {
      "anonymous": false,
      "inputs": [
        {
          "indexed": true,
          "internalType": "address",
          "name": "from",
          "type": "address"
        },
        {
          "indexed": true,
          "internalType": "address",
          "name": "to",
          "type": "address"
        },
        {
          "indexed": false,
          "internalType": "uint256",
          "name": "value",
          "type": "uint256"
        }
      ],
      "name": "Transfer",
      "type": "event"
    },
    {
      "anonymous": false,
      "inputs": [
        {
          "indexed": true,
          "internalType": "address",
          "name": "oldTreasury",
          "type": "address"
        },
        {
          "indexed": true,
          "internalType": "address",
          "name": "newTreasury",
          "type": "address"
        }
      ],
      "name": "TreasuryUpdated",
      "type": "event"
    },
    {
      "anonymous": false,
      "inputs": [
        {
          "indexed": true,
          "internalType": "address",
          "name": "implementation",
          "type": "address"
        }
      ],
      "name": "Upgraded",
      "type": "event"
    },
    {
      "inputs": [],
      "name": "DEFAULT_ADMIN_ROLE",
      "outputs": [
        {
          "internalType": "bytes32",
          "name": "",
          "type": "bytes32"
        }
      ],
      "stateMutability": "view",
      "type": "function"
    },
    {
      "inputs": [],
      "name": "DOMAIN_SEPARATOR",
      "outputs": [
        {
          "internalType": "bytes32",
          "name": "",
          "type": "bytes32"
        }
      ],
      "stateMutability": "view",
      "type": "function"
    },
    {
      "inputs": [],
      "name": "MAX_SUPPLY",
      "outputs": [
        {
          "internalType": "uint256",
          "name": "",
          "type": "uint256"
        }
      ],
      "stateMutability": "view",
      "type": "function"
    },
    {
      "inputs": [],
      "name": "SNAPSHOT_ROLE",
      "outputs": [
        {
          "internalType": "bytes32",
          "name": "",
          "type": "bytes32"
        }
      ],
      "stateMutability": "view",
      "type": "function"
    },
    {
      "inputs": [],
      "name": "TOKEN_DECIMALS",
      "outputs": [
        {
          "internalType": "uint8",
          "name": "",
          "type": "uint8"
        }
      ],
      "stateMutability": "view",
      "type": "function"
    },
    {
      "inputs": [],
      "name": "TOKEN_NAME",
      "outputs": [
        {
          "internalType": "string",
          "name": "",
          "type": "string"
        }
      ],
      "stateMutability": "view",
      "type": "function"
    },
    {
      "inputs": [],
      "name": "TOKEN_SYMBOL",
      "outputs": [
        {
          "internalType": "string",
          "name": "",
          "type": "string"
        }
      ],
      "stateMutability": "view",
      "type": "function"
    },
    {
      "inputs": [],
      "name": "UPGRADE_INTERFACE_VERSION",
      "outputs": [
        {
          "internalType": "string",
          "name": "",
          "type": "string"
        }
      ],
      "stateMutability": "view",
      "type": "function"
    },
    {
      "inputs": [],
      "name": "admin",
      "outputs": [
        {
          "internalType": "address",
          "name": "",
          "type": "address"
        }
      ],
      "stateMutability": "view",
      "type": "function"
    },
    {
      "inputs": [
        {
          "internalType": "address",
          "name": "owner",
          "type": "address"
        },
        {
          "internalType": "address",
          "name": "spender",
          "type": "address"
        }
      ],
      "name": "allowance",
      "outputs": [
        {
          "internalType": "uint256",
          "name": "",
          "type": "uint256"
        }
      ],
      "stateMutability": "view",
      "type": "function"
    },
    {
      "inputs": [
        {
          "internalType": "address",
          "name": "spender",
          "type": "address"
        },
        {
          "internalType": "uint256",
          "name": "value",
          "type": "uint256"
        }
      ],
      "name": "approve",
      "outputs": [
        {
          "internalType": "bool",
          "name": "",
          "type": "bool"
        }
      ],
      "stateMutability": "nonpayable",
      "type": "function"
    },
    {
      "inputs": [
        {
          "internalType": "address",
          "name": "account",
          "type": "address"
        }
      ],
      "name": "balanceOf",
      "outputs": [
        {
          "internalType": "uint256",
          "name": "",
          "type": "uint256"
        }
      ],
      "stateMutability": "view",
      "type": "function"
    },
    {
      "inputs": [],
      "name": "cap",
      "outputs": [
        {
          "internalType": "uint256",
          "name": "",
          "type": "uint256"
        }
      ],
      "stateMutability": "pure",
      "type": "function"
    },
    {
      "inputs": [],
      "name": "createSnapshot",
      "outputs": [],
      "stateMutability": "nonpayable",
      "type": "function"
    },
    {
      "inputs": [],
      "name": "currentSnapshotId",
      "outputs": [
        {
          "internalType": "uint256",
          "name": "",
          "type": "uint256"
        }
      ],
      "stateMutability": "view",
      "type": "function"
    },
    {
      "inputs": [],
      "name": "decimals",
      "outputs": [
        {
          "internalType": "uint8",
          "name": "",
          "type": "uint8"
        }
      ],
      "stateMutability": "view",
      "type": "function"
    },
    {
      "inputs": [],
      "name": "eip712Domain",
      "outputs": [
        {
          "internalType": "bytes1",
          "name": "fields",
          "type": "bytes1"
        },
        {
          "internalType": "string",
          "name": "name",
          "type": "string"
        },
        {
          "internalType": "string",
          "name": "version",
          "type": "string"
        },
        {
          "internalType": "uint256",
          "name": "chainId",
          "type": "uint256"
        },
        {
          "internalType": "address",
          "name": "verifyingContract",
          "type": "address"
        },
        {
          "internalType": "bytes32",
          "name": "salt",
          "type": "bytes32"
        },
        {
          "internalType": "uint256[]",
          "name": "extensions",
          "type": "uint256[]"
        }
      ],
      "stateMutability": "view",
      "type": "function"
    },
    {
      "inputs": [],
      "name": "getLatestSnapshotId",
      "outputs": [
        {
          "internalType": "uint256",
          "name": "",
          "type": "uint256"
        }
      ],
      "stateMutability": "view",
      "type": "function"
    },
    {
      "inputs": [
        {
          "internalType": "bytes32",
          "name": "role",
          "type": "bytes32"
        }
      ],
      "name": "getRoleAdmin",
      "outputs": [
        {
          "internalType": "bytes32",
          "name": "",
          "type": "bytes32"
        }
      ],
      "stateMutability": "view",
      "type": "function"
    },
    {
      "inputs": [
        {
          "internalType": "uint256",
          "name": "snapshotId",
          "type": "uint256"
        }
      ],
      "name": "getSnapshot",
      "outputs": [
        {
          "components": [
            {
              "internalType": "uint256",
              "name": "id",
              "type": "uint256"
            },
            {
              "internalType": "uint256",
              "name": "timestamp",
              "type": "uint256"
            },
            {
              "internalType": "uint256",
              "name": "totalSupply",
              "type": "uint256"
            },
            {
              "internalType": "bool",
              "name": "active",
              "type": "bool"
            }
          ],
          "internalType": "struct NEBAminimalSimple.Snapshot",
          "name": "",
          "type": "tuple"
        }
      ],
      "stateMutability": "view",
      "type": "function"
    },
    {
      "inputs": [
        {
          "internalType": "bytes32",
          "name": "role",
          "type": "bytes32"
        },
        {
          "internalType": "address",
          "name": "account",
          "type": "address"
        }
      ],
      "name": "grantRole",
      "outputs": [],
      "stateMutability": "nonpayable",
      "type": "function"
    },
    {
      "inputs": [
        {
          "internalType": "bytes32",
          "name": "role",
          "type": "bytes32"
        },
        {
          "internalType": "address",
          "name": "account",
          "type": "address"
        }
      ],
      "name": "hasRole",
      "outputs": [
        {
          "internalType": "bool",
          "name": "",
          "type": "bool"
        }
      ],
      "stateMutability": "view",
      "type": "function"
    },
    {
      "inputs": [
        {
          "internalType": "address",
          "name": "_treasury",
          "type": "address"
        },
        {
          "internalType": "address",
          "name": "_admin",
          "type": "address"
        }
      ],
      "name": "initialize",
      "outputs": [],
      "stateMutability": "nonpayable",
      "type": "function"
    },
    {
      "inputs": [],
      "name": "isCapImmutable",
      "outputs": [
        {
          "internalType": "bool",
          "name": "",
          "type": "bool"
        }
      ],
      "stateMutability": "pure",
      "type": "function"
    },
    {
      "inputs": [
        {
          "internalType": "uint256",
          "name": "amount",
          "type": "uint256"
        }
      ],
      "name": "mintToTreasury",
      "outputs": [],
      "stateMutability": "nonpayable",
      "type": "function"
    },
    {
      "inputs": [],
      "name": "name",
      "outputs": [
        {
          "internalType": "string",
          "name": "",
          "type": "string"
        }
      ],
      "stateMutability": "view",
      "type": "function"
    },
    {
      "inputs": [
        {
          "internalType": "address",
          "name": "owner",
          "type": "address"
        }
      ],
      "name": "nonces",
      "outputs": [
        {
          "internalType": "uint256",
          "name": "",
          "type": "uint256"
        }
      ],
      "stateMutability": "view",
      "type": "function"
    },
    {
      "inputs": [
        {
          "internalType": "address",
          "name": "owner",
          "type": "address"
        },
        {
          "internalType": "address",
          "name": "spender",
          "type": "address"
        },
        {
          "internalType": "uint256",
          "name": "value",
          "type": "uint256"
        },
        {
          "internalType": "uint256",
          "name": "deadline",
          "type": "uint256"
        },
        {
          "internalType": "uint8",
          "name": "v",
          "type": "uint8"
        },
        {
          "internalType": "bytes32",
          "name": "r",
          "type": "bytes32"
        },
        {
          "internalType": "bytes32",
          "name": "s",
          "type": "bytes32"
        }
      ],
      "name": "permit",
      "outputs": [],
      "stateMutability": "nonpayable",
      "type": "function"
    },
    {
      "inputs": [],
      "name": "proxiableUUID",
      "outputs": [
        {
          "internalType": "bytes32",
          "name": "",
          "type": "bytes32"
        }
      ],
      "stateMutability": "view",
      "type": "function"
    },
    {
      "inputs": [
        {
          "internalType": "bytes32",
          "name": "role",
          "type": "bytes32"
        },
        {
          "internalType": "address",
          "name": "callerConfirmation",
          "type": "address"
        }
      ],
      "name": "renounceRole",
      "outputs": [],
      "stateMutability": "nonpayable",
      "type": "function"
    },
    {
      "inputs": [
        {
          "internalType": "bytes32",
          "name": "role",
          "type": "bytes32"
        },
        {
          "internalType": "address",
          "name": "account",
          "type": "address"
        }
      ],
      "name": "revokeRole",
      "outputs": [],
      "stateMutability": "nonpayable",
      "type": "function"
    },
    {
      "inputs": [
        {
          "internalType": "uint256",
          "name": "snapshotId",
          "type": "uint256"
        }
      ],
      "name": "snapshotExists",
      "outputs": [
        {
          "internalType": "bool",
          "name": "",
          "type": "bool"
        }
      ],
      "stateMutability": "view",
      "type": "function"
    },
    {
      "inputs": [
        {
          "internalType": "uint256",
          "name": "",
          "type": "uint256"
        }
      ],
      "name": "snapshots",
      "outputs": [
        {
          "internalType": "uint256",
          "name": "id",
          "type": "uint256"
        },
        {
          "internalType": "uint256",
          "name": "timestamp",
          "type": "uint256"
        },
        {
          "internalType": "uint256",
          "name": "totalSupply",
          "type": "uint256"
        },
        {
          "internalType": "bool",
          "name": "active",
          "type": "bool"
        }
      ],
      "stateMutability": "view",
      "type": "function"
    },
    {
      "inputs": [
        {
          "internalType": "bytes4",
          "name": "interfaceId",
          "type": "bytes4"
        }
      ],
      "name": "supportsInterface",
      "outputs": [
        {
          "internalType": "bool",
          "name": "",
          "type": "bool"
        }
      ],
      "stateMutability": "view",
      "type": "function"
    },
    {
      "inputs": [],
      "name": "symbol",
      "outputs": [
        {
          "internalType": "string",
          "name": "",
          "type": "string"
        }
      ],
      "stateMutability": "view",
      "type": "function"
    },
    {
      "inputs": [],
      "name": "totalSupply",
      "outputs": [
        {
          "internalType": "uint256",
          "name": "",
          "type": "uint256"
        }
      ],
      "stateMutability": "view",
      "type": "function"
    },
    {
      "inputs": [
        {
          "internalType": "address",
          "name": "to",
          "type": "address"
        },
        {
          "internalType": "uint256",
          "name": "value",
          "type": "uint256"
        }
      ],
      "name": "transfer",
      "outputs": [
        {
          "internalType": "bool",
          "name": "",
          "type": "bool"
        }
      ],
      "stateMutability": "nonpayable",
      "type": "function"
    },
    {
      "inputs": [
        {
          "internalType": "address",
          "name": "from",
          "type": "address"
        },
        {
          "internalType": "address",
          "name": "to",
          "type": "address"
        },
        {
          "internalType": "uint256",
          "name": "value",
          "type": "uint256"
        }
      ],
      "name": "transferFrom",
      "outputs": [
        {
          "internalType": "bool",
          "name": "",
          "type": "bool"
        }
      ],
      "stateMutability": "nonpayable",
      "type": "function"
    },
    {
      "inputs": [],
      "name": "treasury",
      "outputs": [
        {
          "internalType": "address",
          "name": "",
          "type": "address"
        }
      ],
      "stateMutability": "view",
      "type": "function"
    },
    {
      "inputs": [
        {
          "internalType": "address",
          "name": "_treasury",
          "type": "address"
        }
      ],
      "name": "updateTreasury",
      "outputs": [],
      "stateMutability": "nonpayable",
      "type": "function"
    },
    {
      "inputs": [
        {
          "internalType": "address",
          "name": "newImplementation",
          "type": "address"
        },
        {
          "internalType": "bytes",
          "name": "data",
          "type": "bytes"
        }
      ],
      "name": "upgradeToAndCall",
      "outputs": [],
      "stateMutability": "payable",
      "type": "function"
    }
  ],
  "bytecode": "0x60a080604052346100cd57306080527ff0c57e16840df040f15088dc2f81fe391c3923bec73e23a9662efc9c229c6a009081549060ff8260401c166100be57506001600160401b036002600160401b031982821601610079575b604051612c1d9081620000d38239608051818181610c1a0152610cff0152f35b6001600160401b031990911681179091556040519081527fc7f505b2f371ae2175ee4913f4499e1f2633a7b5936321eed1cdaeb6115181d290602090a1388080610059565b63f92ee8a960e01b8152600490fd5b600080fdfe608080604052600436101561001357600080fd5b60003560e01c90816301ffc9a714611f485750806306fdde0314611e9e578063095ea7b314611e785780631504d8f014611d3f57806318160ddd14611d145780631882140014611cf857806323b872dd14611c13578063248a9ca314611bd75780632a90531814611ba75780632f2ff15d14611b5b578063313ce56714610beb57806332cb6b0c14611b34578063355274ea14611b345780633644e51514611b1157806336568abe14611aca5780633db11d6a14611a9c578063485cc95514610eda5780634f1ef28614610c8457806352d1902d14610c075780635b7f415c14610beb57806361d027b314610bc25780637028e2cd14610b8757806370a0823114610b4057806376f10ad014610a805780637ecebe0014610a275780637f51bb1f14610927578063809c585c1461090b57806384b0196e146107af5780638a5d48691461065657806391d148541461075557806395d89b4114610674578063970875ce14610656578063a217fddf1461063a578063a65948a314610500578063a9059cbb146104cf578063ad3cb1cc14610485578063d505accf146102fa578063d547741f146102ac578063d6565a2d14610259578063dd62ed3e146102105763f851a440146101e257600080fd5b3461020b57600036600319011261020b576001546040516001600160a01b039091168152602090f35b600080fd5b3461020b57604036600319011261020b57610229611fdb565b61023a610234611ff1565b9161234b565b9060018060a01b03166000526020526020604060002054604051908152f35b3461020b57602036600319011261020b5760043560005260036020526080604060002080549060018101549060ff6003600283015492015416916040519384526020840152604083015215156060820152f35b3461020b57604036600319011261020b576102f86004356102cb611ff1565b9080600052600080516020612b688339815191526020526102f36001604060002001546123ca565b6126bb565b005b3461020b5760e036600319011261020b57610313611fdb565b61031b611ff1565b60443590606435926084359360ff8516850361020b5780421161046d5760018060a01b039081831695866000527f5ab42ced628888259c08ac98db1eb0cf702fc1501344311d8b100cd1bfe4bb006020526040600020908154916001830190556040519260208401927f6e71edae12b1b97f4d1f60370fef10105fa2faae0126114a169c64845d6126c98452896040860152858816606086015288608086015260a085015260c084015260c0835260e08301918383106001600160401b03841117610457576104269361041d936040525190206103f661279c565b906040519161190160f01b83526002830152602282015260c43591604260a4359220612840565b909291926128d0565b1684810361043957506102f8935061273e565b60449085604051916325c0072360e11b835260048301526024820152fd5b634e487b7160e01b600052604160045260246000fd5b6024906040519063313c898160e11b82526004820152fd5b3461020b57600036600319011261020b576104cb6040516104a581612022565b60058152640352e302e360dc1b6020820152604051918291602083526020830190611f9b565b0390f35b3461020b57604036600319011261020b576104f56104eb611fdb565b60243590336123fd565b602060405160018152f35b3461020b57602036600319011261020b576001546001600160a01b03906004359061052e9083163314612384565b600080516020612b088339815191529081546b033b2e3c9fd0803ce8000000938461055984846123bd565b1161060057600054169182156105e7576020816105997fddf252ad1be2c89b69c2b068fc378daa952ba7f163c4a11628f55a4df523b3ef936000956123bd565b8655848452600080516020612aa8833981519152825260408420818154019055604051908152a3548181116105ca57005b6044916040519163279e7e1560e21b835260048301526024820152fd5b60405163ec442f0560e01b815260006004820152602490fd5b60405162461bcd60e51b815260206004820152601260248201527145786365656473206d617820737570706c7960701b6044820152606490fd5b3461020b57600036600319011261020b57602060405160008152f35b3461020b57600036600319011261020b576020600254604051908152f35b3461020b57600036600319011261020b57604051600080516020612ae883398151915280548260006106a5836120c0565b92838352602094600191866001821691826000146107335750506001146106e9575b50506106d59250038361203d565b6104cb604051928284938452830190611f9b565b859250600052600080516020612b88833981519152906000915b85831061071b5750506106d5935082010185806106c7565b80548389018501528794508693909201918101610703565b92509350506106d594915060ff191682840152151560051b82010185806106c7565b3461020b57604036600319011261020b5761076e611ff1565b600435600052600080516020612b6883398151915260205260406000209060018060a01b0316600052602052602060ff604060002054166040519015158152f35b3461020b57600036600319011261020b577fa16a46d94261c7517cc8ff89f61c0ce93598e3c849801011dee649a6a557d1005415806108e2575b156108a5576107f66120fa565b6107fe6121c0565b6040516020808201928284106001600160401b0385111761045757916020610858859461084a979660405260008452604051978897600f60f81b895260e0858a015260e0890190611f9b565b908782036040890152611f9b565b91466060870152306080870152600060a087015285830360c0870152519182815201929160005b82811061088e57505050500390f35b83518552869550938101939281019260010161087f565b60405162461bcd60e51b81526020600482015260156024820152741152540dcc4c8e88155b9a5b9a5d1a585b1a5e9959605a1b6044820152606490fd5b507fa16a46d94261c7517cc8ff89f61c0ce93598e3c849801011dee649a6a557d10154156107e9565b3461020b57600036600319011261020b57602060405160018152f35b3461020b57602036600319011261020b57610940611fdb565b6001546001600160a01b0391829161095b9083163314612384565b169061096882151561225d565b610974308314156122a9565b600054908116908183146109ce57829061099261dead8314156122ff565b6bffffffffffffffffffffffff60a01b16176000557f4ab5be82436d353e61ca18726e984e561f5c1cc7c6d38b29d2553c790434705a600080a3005b60405162461bcd60e51b815260206004820152602b60248201527f4e6577207472656173757279206d75737420626520646966666572656e74206660448201526a1c9bdb4818dd5c9c995b9d60aa1b6064820152608490fd5b3461020b57602036600319011261020b576001600160a01b03610a48611fdb565b166000527f5ab42ced628888259c08ac98db1eb0cf702fc1501344311d8b100cd1bfe4bb006020526020604060002054604051908152f35b3461020b5760208060031936011261020b576004359060006060604051610aa681612007565b82815282848201528260408201520152816000526003815260406000205415610b2e5760809160005260038152604060002060405190610ae582612007565b8054928383526001820154818401908152606060ff6003600286015495604088019687520154169401931515845260405194855251908401525160408301525115156060820152f35b604051632402054b60e11b8152600490fd5b3461020b57602036600319011261020b576001600160a01b03610b61611fdb565b16600052600080516020612aa88339815191526020526020604060002054604051908152f35b3461020b57600036600319011261020b5760206040517f5fdbd35e8da83ee755d5e62a539e5ed7f47126abede0b8b10f9ea43dc6eed07f8152f35b3461020b57600036600319011261020b576000546040516001600160a01b039091168152602090f35b3461020b57600036600319011261020b57602060405160128152f35b3461020b57600036600319011261020b577f00000000000000000000000000000000000000000000000000000000000000006001600160a01b03163003610c725760206040517f360894a13ba1a3210667c828492db98dca3e2076cc3735a920a3ca505d382bbc8152f35b60405163703e46dd60e11b8152600490fd5b604036600319011261020b57610c98611fdb565b60249081356001600160401b03811161020b573660238201121561020b578060040135610cc48161205e565b92610cd2604051948561203d565b818452602091828501933687838301011161020b5781600092888693018737860101526001600160a01b037f00000000000000000000000000000000000000000000000000000000000000008116308114908115610eac575b50610c7257610d3f81600154163314612384565b8116936040516352d1902d60e01b81528381600481895afa60009181610e7d575b50610d7d57604051634c9c8ce360e01b8152600481018790528790fd5b8590877f360894a13ba1a3210667c828492db98dca3e2076cc3735a920a3ca505d382bbc91828103610e685750843b15610e52575080546001600160a01b03191682179055604051907fbc7cd75a20ee27fd9adebab32041f755214dbc6bffa90cc0225b39da2e5c2d3b600080a2815115610e37575060006102f89481925190845af4903d15610e2e573d610e118161205e565b90610e1f604051928361203d565b8152600081943d92013e612a04565b60609250612a04565b935050505034610e4357005b63b398979f60e01b8152600490fd5b604051634c9c8ce360e01b815260048101849052fd5b60405190632a87526960e21b82526004820152fd5b9091508481813d8311610ea5575b610e95818361203d565b8101031261020b57519088610d60565b503d610e8b565b9050817f360894a13ba1a3210667c828492db98dca3e2076cc3735a920a3ca505d382bbc5416141587610d2b565b3461020b57604036600319011261020b57610ef3611fdb565b610efb611ff1565b600080516020612ba883398151915254916001600160401b03831680159081611a8c575b6001149081611a82575b159081611a79575b50611a675760016001600160401b0319841617600080516020612ba88339815191525560ff8360401c1615611a3a575b610f756001600160a01b038216151561225d565b6001600160a01b038216156119f557610f996001600160a01b0382163014156122a9565b6001600160a01b03821630146119b05761dead610fc16001600160a01b0383168214156122ff565b6001600160a01b0383161461196b576001600160a01b038181169083161461191057610feb612079565b92610ff461209f565b93610ffd612811565b611005612811565b8051906001600160401b038211610457578190611030600080516020612a88833981519152546120c0565b601f811161188f575b50602090601f83116001146117fd576000926117f2575b50508160011b916000199060031b1c191617600080516020612a88833981519152555b83516001600160401b0381116104575761109b600080516020612ae8833981519152546120c0565b601f811161177c575b50602094601f82116001146116f0579481929394956000926116e5575b50508160011b916000199060031b1c191617600080516020612ae8833981519152555b6110ec612811565b6110f4612811565b6b033b2e3c9fd0803ce80000007f0f070392f17d5f958cc1ac31867dabecfc5c9758b4a419a200803226d7155d005561112b612079565b92611134612811565b6040519361114185612022565b60018552603160f81b6020860152611157612811565b8051906001600160401b038211610457578190611182600080516020612ac8833981519152546120c0565b601f8111611664575b50602090601f83116001146115d2576000926115c7575b50508160011b916000199060031b1c191617600080516020612ac8833981519152555b83516001600160401b038111610457576111ed600080516020612b28833981519152546120c0565b601f8111611551575b506020601f82116001146114bf5781906113069495966000926114b4575b50508160011b916000199060031b1c191617600080516020612b28833981519152555b60007fa16a46d94261c7517cc8ff89f61c0ce93598e3c849801011dee649a6a557d1005560007fa16a46d94261c7517cc8ff89f61c0ce93598e3c849801011dee649a6a557d10155611287612811565b61128f612811565b611297612811565b60017f9b779b17422d0df92223018b32b4d1fa46e071723d6817e2486d003becc55f00556112c3612811565b6bffffffffffffffffffffffff60a01b60018060a01b03851681600054161760005560018060a01b038216906001541617600155611300816124d2565b50612572565b506000546001600160a01b031680156105e757600080516020612b088339815191529081546a52b7d2dcc80cd2e400000080820180921161149e5760207fddf252ad1be2c89b69c2b068fc378daa952ba7f163c4a11628f55a4df523b3ef916000938655848452600080516020612aa8833981519152825260408420818154019055604051908152a354916b033b2e3c9fd0803ce800000083116114735760405160ff9390917f9d5570c03a71af73640da09c132d73bb3efe7ca4f55516a1afc2597cbdfd620c91602091906001600160a01b03821660007f4ab5be82436d353e61ca18726e984e561f5c1cc7c6d38b29d2553c790434705a8180a384526001600160a01b031692a260401c161561141a57005b68ff000000000000000019600080516020612ba88339815191525416600080516020612ba8833981519152557fc7f505b2f371ae2175ee4913f4499e1f2633a7b5936321eed1cdaeb6115181d2602060405160018152a1005b60405163279e7e1560e21b8152600481018490526b033b2e3c9fd0803ce80000006024820152604490fd5b634e487b7160e01b600052601160045260246000fd5b015190508680611214565b601f19821695600080516020612b28833981519152600052600080516020612bc88339815191529660005b81811061153957509161130695969791846001959410611520575b505050811b01600080516020612b2883398151915255611237565b015160001960f88460031b161c19169055868080611505565b838301518955600190980197602093840193016114ea565b600080516020612b28833981519152600052601f820160051c600080516020612bc883398151915201602083106115b2575b601f820160051c600080516020612bc88339815191520181106115a657506111f6565b60008155600101611583565b50600080516020612bc8833981519152611583565b0151905086806111a2565b9250600080516020612ac8833981519152600052600080516020612b48833981519152906000935b601f1984168510611649576001945083601f19811610611630575b505050811b01600080516020612ac8833981519152556111c5565b015160001960f88460031b161c19169055868080611615565b818101518355602094850194600190930192909101906115fa565b909150600080516020612ac8833981519152600052601f830160051c600080516020612b4883398151915201602084106116d0575b908392915b601f820160051c600080516020612b488339815191520181106116c1575061118b565b6000815584935060010161169e565b50600080516020612b48833981519152611699565b0151905085806110c1565b601f19821695600080516020612ae8833981519152600052600080516020612b888339815191529160005b8881106117645750836001959697981061174b575b505050811b01600080516020612ae8833981519152556110e4565b015160001960f88460031b161c19169055858080611730565b9192602060018192868501518155019401920161171b565b600080516020612ae8833981519152600052601f820160051c600080516020612b8883398151915201602083106117dd575b601f820160051c600080516020612b888339815191520181106117d157506110a4565b600081556001016117ae565b50600080516020612b888339815191526117ae565b015190508680611050565b9250600080516020612a88833981519152600052600080516020612a68833981519152906000935b601f1984168510611874576001945083601f1981161061185b575b505050811b01600080516020612a8883398151915255611073565b015160001960f88460031b161c19169055868080611840565b81810151835560209485019460019093019290910190611825565b909150600080516020612a88833981519152600052601f830160051c600080516020612a6883398151915201602084106118fb575b908392915b601f820160051c600080516020612a688339815191520181106118ec5750611039565b600081558493506001016118c9565b50600080516020612a688339815191526118c4565b60405162461bcd60e51b815260206004820152602d60248201527f547265617375727920616e642061646d696e2063616e6e6f742062652074686560448201526c2073616d65206164647265737360981b6064820152608490fd5b60405162461bcd60e51b815260206004820152601c60248201527f41646d696e2063616e6e6f74206265206275726e2061646472657373000000006044820152606490fd5b60405162461bcd60e51b815260206004820152601e60248201527f41646d696e2063616e6e6f7420626520746f6b656e20636f6e747261637400006044820152606490fd5b60405162461bcd60e51b815260206004820152601c60248201527f41646d696e2063616e6e6f74206265207a65726f2061646472657373000000006044820152606490fd5b68ffffffffffffffffff1983166801000000000000000117600080516020612ba883398151915255610f61565b60405163f92ee8a960e01b8152600490fd5b90501584610f31565b303b159150610f29565b604085901c60ff16159150610f1f565b3461020b57602036600319011261020b57600435600052600360205260206040600020541515604051908152f35b3461020b57604036600319011261020b57611ae3611ff1565b336001600160a01b03821603611aff576102f8906004356126bb565b60405163334bd91960e11b8152600490fd5b3461020b57600036600319011261020b576020611b2c61279c565b604051908152f35b3461020b57600036600319011261020b5760206040516b033b2e3c9fd0803ce80000008152f35b3461020b57604036600319011261020b576102f8600435611b7a611ff1565b9080600052600080516020612b68833981519152602052611ba26001604060002001546123ca565b612634565b3461020b57600036600319011261020b576104cb611bc361209f565b604051918291602083526020830190611f9b565b3461020b57602036600319011261020b57600435600052600080516020612b688339815191526020526020600160406000200154604051908152f35b3461020b57606036600319011261020b57611c2c611fdb565b611c34611ff1565b60443590611c418361234b565b33600052602052604060002054926000198410611c63575b6104f593506123fd565b828410611cd2576001600160a01b03811615611cb9573315611ca057826104f594611c8d8361234b565b3360005260205203604060002055611c59565b604051634a1406b160e11b815260006004820152602490fd5b60405163e602df0560e01b815260006004820152602490fd5b604051637dc7a0d960e11b81523360048201526024810185905260448101849052606490fd5b3461020b57600036600319011261020b576104cb611bc3612079565b3461020b57600036600319011261020b576020600080516020612b0883398151915254604051908152f35b3461020b57600036600319011261020b573360009081527fb6061ee728d91d026c497d6fc1fd4c6e962c3b781d406ba2f82db1094fd3c7bc60205260409020547f5fdbd35e8da83ee755d5e62a539e5ed7f47126abede0b8b10f9ea43dc6eed07f9060ff1615611e5a57600254600019811461149e5760010180600255600080516020612b08833981519152906003825460405190611ddd82612007565b838252602082014281526040830191825260608301946001865260005283602052604060002092518355516001830155516002820155019051151560ff801983541691161790557f4c5620b7fb811e045f023b50b0c5fa3a4a14a640655c04bfb8530b58e779f900604060025492548151904282526020820152a2005b6044906040519063e2517d3f60e01b82523360048301526024820152fd5b3461020b57604036600319011261020b576104f5611e94611fdb565b602435903361273e565b3461020b57600036600319011261020b57604051600080516020612a888339815191528054826000611ecf836120c0565b9283835260209460019186600182169182600014610733575050600114611efe5750506106d59250038361203d565b859250600052600080516020612a68833981519152906000915b858310611f305750506106d5935082010185806106c7565b80548389018501528794508693909201918101611f18565b3461020b57602036600319011261020b576004359063ffffffff60e01b821680920361020b57602091637965db0b60e01b8114908115611f8a575b5015158152f35b6301ffc9a760e01b14905083611f83565b919082519283825260005b848110611fc7575050826000602080949584010152601f8019910116010190565b602081830181015184830182015201611fa6565b600435906001600160a01b038216820361020b57565b602435906001600160a01b038216820361020b57565b608081019081106001600160401b0382111761045757604052565b604081019081106001600160401b0382111761045757604052565b90601f801991011681019081106001600160401b0382111761045757604052565b6001600160401b03811161045757601f01601f191660200190565b6040519061208682612022565b600a8252692722a120902a37b5b2b760b11b6020830152565b604051906120ac82612022565b6005825264244e45424160d81b6020830152565b90600182811c921680156120f0575b60208310146120da57565b634e487b7160e01b600052602260045260246000fd5b91607f16916120cf565b60405190600082600080516020612ac88339815191529182549261211d846120c0565b8084529360209160019182811690811561219a575060011461214b575b5050506121499250038361203d565b565b6000908152600080516020612b488339815191529590935091905b828410612182575061214994505050810160200138808061213a565b85548885018301529485019487945092810192612166565b925050506020925061214994915060ff191682840152151560051b82010138808061213a565b60405190600082600080516020612b28833981519152918254926121e3846120c0565b8084529360209160019182811690811561219a575060011461220e575050506121499250038361203d565b6000908152600080516020612bc88339815191529590935091905b828410612245575061214994505050810160200138808061213a565b85548885018301529485019487945092810192612229565b1561226457565b60405162461bcd60e51b815260206004820152601f60248201527f54726561737572792063616e6e6f74206265207a65726f2061646472657373006044820152606490fd5b156122b057565b60405162461bcd60e51b815260206004820152602160248201527f54726561737572792063616e6e6f7420626520746f6b656e20636f6e747261636044820152601d60fa1b6064820152608490fd5b1561230657565b60405162461bcd60e51b815260206004820152601f60248201527f54726561737572792063616e6e6f74206265206275726e2061646472657373006044820152606490fd5b6001600160a01b031660009081527f52c63247e1f47db19d5ce0460030c497f067ca4cebf71ba98eeadabe20bace016020526040902090565b1561238b57565b60405162461bcd60e51b815260206004820152600a60248201526927b7363c9030b236b4b760b11b6044820152606490fd5b9190820180921161149e57565b80600052600080516020612b6883398151915260205260406000203360005260205260ff6040600020541615611e5a5750565b916001600160a01b038084169283156124b957169283156105e757600090838252600080516020612aa883398151915280602052604083205491848310612486575082847fddf252ad1be2c89b69c2b068fc378daa952ba7f163c4a11628f55a4df523b3ef959360409388602097528652038282205586815220818154019055604051908152a3565b60405163391434e360e21b81526001600160a01b0391909116600482015260248101929092525060448101839052606490fd5b604051634b637e8f60e11b815260006004820152602490fd5b6001600160a01b031660008181527fb7db2dd08fcb62d0c9e08c51941cae53c267786a0b75803fb7960902fc8ef97d6020526040812054909190600080516020612b688339815191529060ff1661256d578280526020526040822081835260205260408220600160ff1982541617905533917f2f8788117e7eff1d82e926ec794901d17c78024a50270940304540a733656f0d8180a4600190565b505090565b6001600160a01b031660008181527fb6061ee728d91d026c497d6fc1fd4c6e962c3b781d406ba2f82db1094fd3c7bc60205260408120549091907f5fdbd35e8da83ee755d5e62a539e5ed7f47126abede0b8b10f9ea43dc6eed07f90600080516020612b688339815191529060ff1661262e578184526020526040832082845260205260408320600160ff198254161790557f2f8788117e7eff1d82e926ec794901d17c78024a50270940304540a733656f0d339380a4600190565b50505090565b90600091808352600080516020612b6883398151915280602052604084209260018060a01b03169283855260205260ff6040852054161560001461262e578184526020526040832082845260205260408320600160ff198254161790557f2f8788117e7eff1d82e926ec794901d17c78024a50270940304540a733656f0d339380a4600190565b90600091808352600080516020612b6883398151915280602052604084209260018060a01b03169283855260205260ff60408520541660001461262e57818452602052604083208284526020526040832060ff1981541690557ff6391f5c32d9c69d2a47ea670b442974b53935d1edc7fd64eb21e047a839171b339380a4600190565b916001600160a01b03808416928315611cb95716928315611ca0577f8c5be1e5ebec7d5bd14f71427d1e84f3dd0314c0f7b2291e5b200ac8c7c3b9259161278660209261234b565b85600052825280604060002055604051908152a3565b6127a4612955565b6127ac6129bf565b6040519060208201927f8b73c3c69bb8fe3d512ecc4cf759cc79239f7b179b0ffacaa9a75d522b39400f8452604083015260608201524660808201523060a082015260a0815260c081018181106001600160401b038211176104575760405251902090565b60ff600080516020612ba88339815191525460401c161561282e57565b604051631afcd79f60e31b8152600490fd5b91907f7fffffffffffffffffffffffffffffff5d576e7357a4501ddfe92f46681b20a084116128c457926020929160ff608095604051948552168484015260408301526060820152600092839182805260015afa156128b85780516001600160a01b038116156128af57918190565b50809160019190565b604051903d90823e3d90fd5b50505060009160039190565b600481101561293f57806128e2575050565b600181036128fc5760405163f645eedf60e01b8152600490fd5b6002810361291d5760405163fce698f760e01b815260048101839052602490fd5b6003146129275750565b602490604051906335e2f38360e21b82526004820152fd5b634e487b7160e01b600052602160045260246000fd5b61295d6120fa565b805190811561296d576020012090565b50507fa16a46d94261c7517cc8ff89f61c0ce93598e3c849801011dee649a6a557d10054801561299a5790565b507fc5d2460186f7233c927e7db2dcc703c0e500b653ca82273b7bfad8045d85a47090565b6129c76121c0565b80519081156129d7576020012090565b50507fa16a46d94261c7517cc8ff89f61c0ce93598e3c849801011dee649a6a557d10154801561299a5790565b90612a2b5750805115612a1957602081519101fd5b60405163d6bda27560e01b8152600490fd5b81511580612a5e575b612a3c575090565b604051639996b31560e01b81526001600160a01b039091166004820152602490fd5b50803b15612a3456fe2ae08a8e29253f69ac5d979a101956ab8f8d9d7ded63fa7a83b16fc47648eab052c63247e1f47db19d5ce0460030c497f067ca4cebf71ba98eeadabe20bace0352c63247e1f47db19d5ce0460030c497f067ca4cebf71ba98eeadabe20bace00a16a46d94261c7517cc8ff89f61c0ce93598e3c849801011dee649a6a557d10252c63247e1f47db19d5ce0460030c497f067ca4cebf71ba98eeadabe20bace0452c63247e1f47db19d5ce0460030c497f067ca4cebf71ba98eeadabe20bace02a16a46d94261c7517cc8ff89f61c0ce93598e3c849801011dee649a6a557d10342ad5d3e1f2e6e70edcf6d991b8a3023d3fca8047a131592f9edb9fd9b89d57d02dd7bc7dec4dceedda775e58dd541e08a116c6c53815c0bd028192f7b62680046a2803e59a4de4e7a4c574b1243f25977ac4c77d5a1a4a609b5394cebb4a2aaf0c57e16840df040f15088dc2f81fe391c3923bec73e23a9662efc9c229c6a005f9ce34815f8e11431c7bb75a8e6886a91478f7ffc1dbb0a98dc240fddd76b75a2646970667358221220f7924b4739ba93c2d5a259a6d6d17e404a5a041d57ab0d8ef5da894173daa7b664736f6c63430008160033",
  "linkReferences": {},
  "deployedLinkReferences": {}
}