{
  "_format": "hh-sol-artifact-1",
  "contractName": "NEBAminimalSimple",
  "sourceName": "contracts/NEBAminimalSimple.sol",
  "abi": [
    {
      "inputs": [],
      "stateMutability": "nonpayable",
      "type": "constructor"
    },
    {
      "inputs": [
        {
          "internalType": "address",
          "name": "target",
          "type": "address"
        }
      ],
      "name": "AddressEmptyCode",
      "type": "error"
    },
    {
      "inputs": [],
      "name": "ECDSAInvalidSignature",
      "type": "error"
    },
    {
      "inputs": [
        {
          "internalType": "uint256",
          "name": "length",
          "type": "uint256"
        }
      ],
      "name": "ECDSAInvalidSignatureLength",
      "type": "error"
    },
    {
      "inputs": [
        {
          "internalType": "bytes32",
          "name": "s",
          "type": "bytes32"
        }
      ],
      "name": "ECDSAInvalidSignatureS",
      "type": "error"
    },
    {
      "inputs": [
        {
          "internalType": "address",
          "name": "implementation",
          "type": "address"
        }
      ],
      "name": "ERC1967InvalidImplementation",
      "type": "error"
    },
    {
      "inputs": [],
      "name": "ERC1967NonPayable",
      "type": "error"
    },
    {
      "inputs": [
        {
          "internalType": "uint256",
          "name": "increasedSupply",
          "type": "uint256"
        },
        {
          "internalType": "uint256",
          "name": "cap",
          "type": "uint256"
        }
      ],
      "name": "ERC20ExceededCap",
      "type": "error"
    },
    {
      "inputs": [
        {
          "internalType": "address",
          "name": "spender",
          "type": "address"
        },
        {
          "internalType": "uint256",
          "name": "allowance",
          "type": "uint256"
        },
        {
          "internalType": "uint256",
          "name": "needed",
          "type": "uint256"
        }
      ],
      "name": "ERC20InsufficientAllowance",
      "type": "error"
    },
    {
      "inputs": [
        {
          "internalType": "address",
          "name": "sender",
          "type": "address"
        },
        {
          "internalType": "uint256",
          "name": "balance",
          "type": "uint256"
        },
        {
          "internalType": "uint256",
          "name": "needed",
          "type": "uint256"
        }
      ],
      "name": "ERC20InsufficientBalance",
      "type": "error"
    },
    {
      "inputs": [
        {
          "internalType": "address",
          "name": "approver",
          "type": "address"
        }
      ],
      "name": "ERC20InvalidApprover",
      "type": "error"
    },
    {
      "inputs": [
        {
          "internalType": "uint256",
          "name": "cap",
          "type": "uint256"
        }
      ],
      "name": "ERC20InvalidCap",
      "type": "error"
    },
    {
      "inputs": [
        {
          "internalType": "address",
          "name": "receiver",
          "type": "address"
        }
      ],
      "name": "ERC20InvalidReceiver",
      "type": "error"
    },
    {
      "inputs": [
        {
          "internalType": "address",
          "name": "sender",
          "type": "address"
        }
      ],
      "name": "ERC20InvalidSender",
      "type": "error"
    },
    {
      "inputs": [
        {
          "internalType": "address",
          "name": "spender",
          "type": "address"
        }
      ],
      "name": "ERC20InvalidSpender",
      "type": "error"
    },
    {
      "inputs": [
        {
          "internalType": "uint256",
          "name": "deadline",
          "type": "uint256"
        }
      ],
      "name": "ERC2612ExpiredSignature",
      "type": "error"
    },
    {
      "inputs": [
        {
          "internalType": "address",
          "name": "signer",
          "type": "address"
        },
        {
          "internalType": "address",
          "name": "owner",
          "type": "address"
        }
      ],
      "name": "ERC2612InvalidSigner",
      "type": "error"
    },
    {
      "inputs": [],
      "name": "FailedCall",
      "type": "error"
    },
    {
      "inputs": [
        {
          "internalType": "address",
          "name": "account",
          "type": "address"
        },
        {
          "internalType": "uint256",
          "name": "currentNonce",
          "type": "uint256"
        }
      ],
      "name": "InvalidAccountNonce",
      "type": "error"
    },
    {
      "inputs": [],
      "name": "InvalidAddress",
      "type": "error"
    },
    {
      "inputs": [],
      "name": "InvalidInitialization",
      "type": "error"
    },
    {
      "inputs": [],
      "name": "NotInitializing",
      "type": "error"
    },
    {
      "inputs": [],
      "name": "ReentrancyGuardReentrantCall",
      "type": "error"
    },
    {
      "inputs": [],
      "name": "UUPSUnauthorizedCallContext",
      "type": "error"
    },
    {
      "inputs": [
        {
          "internalType": "bytes32",
          "name": "slot",
          "type": "bytes32"
        }
      ],
      "name": "UUPSUnsupportedProxiableUUID",
      "type": "error"
    },
    {
      "anonymous": false,
      "inputs": [
        {
          "indexed": true,
          "internalType": "address",
          "name": "owner",
          "type": "address"
        },
        {
          "indexed": true,
          "internalType": "address",
          "name": "spender",
          "type": "address"
        },
        {
          "indexed": false,
          "internalType": "uint256",
          "name": "value",
          "type": "uint256"
        }
      ],
      "name": "Approval",
      "type": "event"
    },
    {
      "anonymous": false,
      "inputs": [],
      "name": "EIP712DomainChanged",
      "type": "event"
    },
    {
      "anonymous": false,
      "inputs": [
        {
          "indexed": false,
          "internalType": "uint64",
          "name": "version",
          "type": "uint64"
        }
      ],
      "name": "Initialized",
      "type": "event"
    },
    {
      "anonymous": false,
      "inputs": [
        {
          "indexed": true,
          "internalType": "address",
          "name": "from",
          "type": "address"
        },
        {
          "indexed": true,
          "internalType": "address",
          "name": "to",
          "type": "address"
        },
        {
          "indexed": false,
          "internalType": "uint256",
          "name": "value",
          "type": "uint256"
        }
      ],
      "name": "Transfer",
      "type": "event"
    },
    {
      "anonymous": false,
      "inputs": [
        {
          "indexed": true,
          "internalType": "address",
          "name": "oldTreasury",
          "type": "address"
        },
        {
          "indexed": true,
          "internalType": "address",
          "name": "newTreasury",
          "type": "address"
        }
      ],
      "name": "TreasuryUpdated",
      "type": "event"
    },
    {
      "anonymous": false,
      "inputs": [
        {
          "indexed": true,
          "internalType": "address",
          "name": "implementation",
          "type": "address"
        }
      ],
      "name": "Upgraded",
      "type": "event"
    },
    {
      "inputs": [],
      "name": "DOMAIN_SEPARATOR",
      "outputs": [
        {
          "internalType": "bytes32",
          "name": "",
          "type": "bytes32"
        }
      ],
      "stateMutability": "view",
      "type": "function"
    },
    {
      "inputs": [],
      "name": "MAX_SUPPLY",
      "outputs": [
        {
          "internalType": "uint256",
          "name": "",
          "type": "uint256"
        }
      ],
      "stateMutability": "view",
      "type": "function"
    },
    {
      "inputs": [],
      "name": "TOKEN_DECIMALS",
      "outputs": [
        {
          "internalType": "uint8",
          "name": "",
          "type": "uint8"
        }
      ],
      "stateMutability": "view",
      "type": "function"
    },
    {
      "inputs": [],
      "name": "TOKEN_NAME",
      "outputs": [
        {
          "internalType": "string",
          "name": "",
          "type": "string"
        }
      ],
      "stateMutability": "view",
      "type": "function"
    },
    {
      "inputs": [],
      "name": "TOKEN_SYMBOL",
      "outputs": [
        {
          "internalType": "string",
          "name": "",
          "type": "string"
        }
      ],
      "stateMutability": "view",
      "type": "function"
    },
    {
      "inputs": [],
      "name": "UPGRADE_INTERFACE_VERSION",
      "outputs": [
        {
          "internalType": "string",
          "name": "",
          "type": "string"
        }
      ],
      "stateMutability": "view",
      "type": "function"
    },
    {
      "inputs": [],
      "name": "admin",
      "outputs": [
        {
          "internalType": "address",
          "name": "",
          "type": "address"
        }
      ],
      "stateMutability": "view",
      "type": "function"
    },
    {
      "inputs": [
        {
          "internalType": "address",
          "name": "owner",
          "type": "address"
        },
        {
          "internalType": "address",
          "name": "spender",
          "type": "address"
        }
      ],
      "name": "allowance",
      "outputs": [
        {
          "internalType": "uint256",
          "name": "",
          "type": "uint256"
        }
      ],
      "stateMutability": "view",
      "type": "function"
    },
    {
      "inputs": [
        {
          "internalType": "address",
          "name": "spender",
          "type": "address"
        },
        {
          "internalType": "uint256",
          "name": "value",
          "type": "uint256"
        }
      ],
      "name": "approve",
      "outputs": [
        {
          "internalType": "bool",
          "name": "",
          "type": "bool"
        }
      ],
      "stateMutability": "nonpayable",
      "type": "function"
    },
    {
      "inputs": [
        {
          "internalType": "address",
          "name": "account",
          "type": "address"
        }
      ],
      "name": "balanceOf",
      "outputs": [
        {
          "internalType": "uint256",
          "name": "",
          "type": "uint256"
        }
      ],
      "stateMutability": "view",
      "type": "function"
    },
    {
      "inputs": [],
      "name": "cap",
      "outputs": [
        {
          "internalType": "uint256",
          "name": "",
          "type": "uint256"
        }
      ],
      "stateMutability": "pure",
      "type": "function"
    },
    {
      "inputs": [],
      "name": "decimals",
      "outputs": [
        {
          "internalType": "uint8",
          "name": "",
          "type": "uint8"
        }
      ],
      "stateMutability": "view",
      "type": "function"
    },
    {
      "inputs": [],
      "name": "eip712Domain",
      "outputs": [
        {
          "internalType": "bytes1",
          "name": "fields",
          "type": "bytes1"
        },
        {
          "internalType": "string",
          "name": "name",
          "type": "string"
        },
        {
          "internalType": "string",
          "name": "version",
          "type": "string"
        },
        {
          "internalType": "uint256",
          "name": "chainId",
          "type": "uint256"
        },
        {
          "internalType": "address",
          "name": "verifyingContract",
          "type": "address"
        },
        {
          "internalType": "bytes32",
          "name": "salt",
          "type": "bytes32"
        },
        {
          "internalType": "uint256[]",
          "name": "extensions",
          "type": "uint256[]"
        }
      ],
      "stateMutability": "view",
      "type": "function"
    },
    {
      "inputs": [
        {
          "internalType": "address",
          "name": "_treasury",
          "type": "address"
        },
        {
          "internalType": "address",
          "name": "_admin",
          "type": "address"
        }
      ],
      "name": "initialize",
      "outputs": [],
      "stateMutability": "nonpayable",
      "type": "function"
    },
    {
      "inputs": [],
      "name": "isCapImmutable",
      "outputs": [
        {
          "internalType": "bool",
          "name": "",
          "type": "bool"
        }
      ],
      "stateMutability": "pure",
      "type": "function"
    },
    {
      "inputs": [
        {
          "internalType": "uint256",
          "name": "amount",
          "type": "uint256"
        }
      ],
      "name": "mintToTreasury",
      "outputs": [],
      "stateMutability": "nonpayable",
      "type": "function"
    },
    {
      "inputs": [],
      "name": "name",
      "outputs": [
        {
          "internalType": "string",
          "name": "",
          "type": "string"
        }
      ],
      "stateMutability": "view",
      "type": "function"
    },
    {
      "inputs": [
        {
          "internalType": "address",
          "name": "owner",
          "type": "address"
        }
      ],
      "name": "nonces",
      "outputs": [
        {
          "internalType": "uint256",
          "name": "",
          "type": "uint256"
        }
      ],
      "stateMutability": "view",
      "type": "function"
    },
    {
      "inputs": [
        {
          "internalType": "address",
          "name": "owner",
          "type": "address"
        },
        {
          "internalType": "address",
          "name": "spender",
          "type": "address"
        },
        {
          "internalType": "uint256",
          "name": "value",
          "type": "uint256"
        },
        {
          "internalType": "uint256",
          "name": "deadline",
          "type": "uint256"
        },
        {
          "internalType": "uint8",
          "name": "v",
          "type": "uint8"
        },
        {
          "internalType": "bytes32",
          "name": "r",
          "type": "bytes32"
        },
        {
          "internalType": "bytes32",
          "name": "s",
          "type": "bytes32"
        }
      ],
      "name": "permit",
      "outputs": [],
      "stateMutability": "nonpayable",
      "type": "function"
    },
    {
      "inputs": [],
      "name": "proxiableUUID",
      "outputs": [
        {
          "internalType": "bytes32",
          "name": "",
          "type": "bytes32"
        }
      ],
      "stateMutability": "view",
      "type": "function"
    },
    {
      "inputs": [],
      "name": "symbol",
      "outputs": [
        {
          "internalType": "string",
          "name": "",
          "type": "string"
        }
      ],
      "stateMutability": "view",
      "type": "function"
    },
    {
      "inputs": [],
      "name": "totalSupply",
      "outputs": [
        {
          "internalType": "uint256",
          "name": "",
          "type": "uint256"
        }
      ],
      "stateMutability": "view",
      "type": "function"
    },
    {
      "inputs": [
        {
          "internalType": "address",
          "name": "to",
          "type": "address"
        },
        {
          "internalType": "uint256",
          "name": "value",
          "type": "uint256"
        }
      ],
      "name": "transfer",
      "outputs": [
        {
          "internalType": "bool",
          "name": "",
          "type": "bool"
        }
      ],
      "stateMutability": "nonpayable",
      "type": "function"
    },
    {
      "inputs": [
        {
          "internalType": "address",
          "name": "from",
          "type": "address"
        },
        {
          "internalType": "address",
          "name": "to",
          "type": "address"
        },
        {
          "internalType": "uint256",
          "name": "value",
          "type": "uint256"
        }
      ],
      "name": "transferFrom",
      "outputs": [
        {
          "internalType": "bool",
          "name": "",
          "type": "bool"
        }
      ],
      "stateMutability": "nonpayable",
      "type": "function"
    },
    {
      "inputs": [],
      "name": "treasury",
      "outputs": [
        {
          "internalType": "address",
          "name": "",
          "type": "address"
        }
      ],
      "stateMutability": "view",
      "type": "function"
    },
    {
      "inputs": [
        {
          "internalType": "address",
          "name": "_treasury",
          "type": "address"
        }
      ],
      "name": "updateTreasury",
      "outputs": [],
      "stateMutability": "nonpayable",
      "type": "function"
    },
    {
      "inputs": [
        {
          "internalType": "address",
          "name": "newImplementation",
          "type": "address"
        },
        {
          "internalType": "bytes",
          "name": "data",
          "type": "bytes"
        }
      ],
      "name": "upgradeToAndCall",
      "outputs": [],
      "stateMutability": "payable",
      "type": "function"
    }
  ],
  "bytecode": "0x60a080604052346100cc57306080527ff0c57e16840df040f15088dc2f81fe391c3923bec73e23a9662efc9c229c6a009081549060ff8260401c166100bd57506001600160401b036002600160401b031982821601610078575b6040516120ff90816100d282396080518181816108e701526109cc0152f35b6001600160401b031990911681179091556040519081527fc7f505b2f371ae2175ee4913f4499e1f2633a7b5936321eed1cdaeb6115181d290602090a1388080610059565b63f92ee8a960e01b8152600490fd5b600080fdfe608080604052600436101561001357600080fd5b60003560e01c90816306fdde031461178057508063095ea7b31461175a57806318160ddd1461171d578063188214001461170157806323b872dd1461161c5780632a905318146115ec578063313ce567146108b857806332cb6b0c146115c5578063355274ea146115c55780633644e515146115a2578063485cc95514610ba75780634f1ef2861461095157806352d1902d146108d45780635b7f415c146108b857806361d027b31461088f57806370a08231146108485780637ecebe00146107ef5780637f51bb1f1461076c578063809c585c1461075057806384b0196e146105f457806395d89b4114610513578063a65948a3146103c7578063a9059cbb14610396578063ad3cb1cc1461034c578063d505accf146101bf578063dd62ed3e146101765763f851a4401461014857600080fd5b34610171576000366003190112610171576001546040516001600160a01b039091168152602090f35b600080fd5b346101715760403660031901126101715761018f611867565b6101a061019a61187d565b91611b0c565b9060018060a01b03166000526020526020604060002054604051908152f35b346101715760e0366003190112610171576101d8611867565b6101e061187d565b60443590606435926084359360ff85168503610171578042116103345760018060a01b039081831695866000527f5ab42ced628888259c08ac98db1eb0cf702fc1501344311d8b100cd1bfe4bb006020526040600020908154916001830190556040519260208401927f6e71edae12b1b97f4d1f60370fef10105fa2faae0126114a169c64845d6126c98452896040860152858816606086015288608086015260a085015260c084015260c0835260e08301918383106001600160401b0384111761031e576102eb936102e2936040525190206102bb611cbe565b906040519161190160f01b83526002830152602282015260c43591604260a4359220611d62565b90929192611df2565b1684810361030057506102fe9350611c60565b005b60449085604051916325c0072360e11b835260048301526024820152fd5b634e487b7160e01b600052604160045260246000fd5b6024906040519063313c898160e11b82526004820152fd5b346101715760003660031901126101715761039260405161036c81611893565b60058152640352e302e360dc1b6020820152604051918291602083526020830190611827565b0390f35b34610171576040366003190112610171576103bc6103b2611867565b6024359033611b8b565b602060405160018152f35b34610171576020366003190112610171576001546001600160a01b0390600435906103f59083163314611b45565b7f52c63247e1f47db19d5ce0460030c497f067ca4cebf71ba98eeadabe20bace029081546b033b2e3c9fd0803ce800000093846104328484611b7e565b116104d957600054169182156104c0576020816104727fddf252ad1be2c89b69c2b068fc378daa952ba7f163c4a11628f55a4df523b3ef93600095611b7e565b8655848452600080516020611fca833981519152825260408420818154019055604051908152a3548181116104a357005b6044916040519163279e7e1560e21b835260048301526024820152fd5b60405163ec442f0560e01b815260006004820152602490fd5b60405162461bcd60e51b815260206004820152601260248201527145786365656473206d617820737570706c7960701b6044820152606490fd5b346101715760003660031901126101715760405160008051602061200a833981519152805482600061054483611931565b92838352602094600191866001821691826000146105d2575050600114610588575b5050610574925003836118ae565b610392604051928284938452830190611827565b85925060005260008051602061206a833981519152906000915b8583106105ba57505061057493508201018580610566565b805483890185015287945086939092019181016105a2565b925093505061057494915060ff191682840152151560051b8201018580610566565b34610171576000366003190112610171577fa16a46d94261c7517cc8ff89f61c0ce93598e3c849801011dee649a6a557d100541580610727575b156106ea5761063b61196b565b610643611a31565b6040516020808201928284106001600160401b0385111761031e5791602061069d859461068f979660405260008452604051978897600f60f81b895260e0858a015260e0890190611827565b908782036040890152611827565b91466060870152306080870152600060a087015285830360c0870152519182815201929160005b8281106106d357505050500390f35b8351855286955093810193928101926001016106c4565b60405162461bcd60e51b81526020600482015260156024820152741152540dcc4c8e88155b9a5b9a5d1a585b1a5e9959605a1b6044820152606490fd5b507fa16a46d94261c7517cc8ff89f61c0ce93598e3c849801011dee649a6a557d101541561062e565b3461017157600036600319011261017157602060405160018152f35b3461017157602036600319011261017157610785611867565b6001546001600160a01b039182916107a09083163314611b45565b16906107ad821515611ace565b600054826bffffffffffffffffffffffff60a01b821617600055167f4ab5be82436d353e61ca18726e984e561f5c1cc7c6d38b29d2553c790434705a600080a3005b34610171576020366003190112610171576001600160a01b03610810611867565b166000527f5ab42ced628888259c08ac98db1eb0cf702fc1501344311d8b100cd1bfe4bb006020526020604060002054604051908152f35b34610171576020366003190112610171576001600160a01b03610869611867565b16600052600080516020611fca8339815191526020526020604060002054604051908152f35b34610171576000366003190112610171576000546040516001600160a01b039091168152602090f35b3461017157600036600319011261017157602060405160128152f35b34610171576000366003190112610171577f00000000000000000000000000000000000000000000000000000000000000006001600160a01b0316300361093f5760206040517f360894a13ba1a3210667c828492db98dca3e2076cc3735a920a3ca505d382bbc8152f35b60405163703e46dd60e11b8152600490fd5b604036600319011261017157610965611867565b60249081356001600160401b0381116101715736602382011215610171578060040135610991816118cf565b9261099f60405194856118ae565b81845260209182850193368783830101116101715781600092888693018737860101526001600160a01b037f00000000000000000000000000000000000000000000000000000000000000008116308114908115610b79575b5061093f57610a0c81600154163314611b45565b8116936040516352d1902d60e01b81528381600481895afa60009181610b4a575b50610a4a57604051634c9c8ce360e01b8152600481018790528790fd5b8590877f360894a13ba1a3210667c828492db98dca3e2076cc3735a920a3ca505d382bbc91828103610b355750843b15610b1f575080546001600160a01b03191682179055604051907fbc7cd75a20ee27fd9adebab32041f755214dbc6bffa90cc0225b39da2e5c2d3b600080a2815115610b04575060006102fe9481925190845af4903d15610afb573d610ade816118cf565b90610aec60405192836118ae565b8152600081943d92013e611f26565b60609250611f26565b935050505034610b1057005b63b398979f60e01b8152600490fd5b604051634c9c8ce360e01b815260048101849052fd5b60405190632a87526960e21b82526004820152fd5b9091508481813d8311610b72575b610b6281836118ae565b8101031261017157519088610a2d565b503d610b58565b9050817f360894a13ba1a3210667c828492db98dca3e2076cc3735a920a3ca505d382bbc54161415876109f8565b3461017157604036600319011261017157610bc0611867565b610bc861187d565b60008051602061208a83398151915254916001600160401b03831680159081611592575b6001149081611588575b15908161157f575b5061156d5760016001600160401b031984161760008051602061208a8339815191525560ff8360401c1615611540575b6001600160a01b03811615158061152e575b610c4990611ace565b610c516118ea565b92610c5a611910565b93610c63611d33565b610c6b611d33565b8051906001600160401b03821161031e578190610c96600080516020611faa83398151915254611931565b601f81116114ad575b50602090601f831160011461141b57600092611410575b50508160011b916000199060031b1c191617600080516020611faa833981519152555b83516001600160401b03811161031e57610d0160008051602061200a83398151915254611931565b601f811161139a575b506020601f821160011461130b578192939495600092611300575b50508160011b916000199060031b1c19161760008051602061200a833981519152555b610d50611d33565b610d58611d33565b6b033b2e3c9fd0803ce80000007f0f070392f17d5f958cc1ac31867dabecfc5c9758b4a419a200803226d7155d0055610d8f6118ea565b92610d98611d33565b60405193610da585611893565b60018552603160f81b6020860152610dbb611d33565b8051906001600160401b03821161031e578190610de6600080516020611fea83398151915254611931565b601f811161127f575b50602090601f83116001146111ed576000926111e2575b50508160011b916000199060031b1c191617600080516020611fea833981519152555b83516001600160401b03811161031e57610e5160008051602061202a83398151915254611931565b601f811161116c575b506020601f82116001146110dd5781929394956000926110d2575b50508160011b916000199060031b1c19161760008051602061202a833981519152555b60007fa16a46d94261c7517cc8ff89f61c0ce93598e3c849801011dee649a6a557d1005560007fa16a46d94261c7517cc8ff89f61c0ce93598e3c849801011dee649a6a557d10155610ee8611d33565b610ef0611d33565b610ef8611d33565b60017f9b779b17422d0df92223018b32b4d1fa46e071723d6817e2486d003becc55f00819055600080546001600160a01b038681166001600160a01b03199283168117909355835494169316929092179055156104c0577f52c63247e1f47db19d5ce0460030c497f067ca4cebf71ba98eeadabe20bace0280546a52b7d2dcc80cd2e4000000908181018091116110bc5782556001600160a01b0384166000818152600080516020611fca8339815191526020908152604080832080548601905551938452919290917fddf252ad1be2c89b69c2b068fc378daa952ba7f163c4a11628f55a4df523b3ef91a3546b033b2e3c9fd0803ce8000000811161109257506040519160ff91906001600160a01b031660007f4ab5be82436d353e61ca18726e984e561f5c1cc7c6d38b29d2553c790434705a8180a360401c161561103b57005b60207fc7f505b2f371ae2175ee4913f4499e1f2633a7b5936321eed1cdaeb6115181d29168ff00000000000000001960008051602061208a833981519152541660008051602061208a8339815191525560018152a1005b6044906040519063279e7e1560e21b825260048201526b033b2e3c9fd0803ce80000006024820152fd5b634e487b7160e01b600052601160045260246000fd5b015190508580610e75565b60008051602061202a8339815191526000526000805160206120aa8339815191529060005b601f1984168110611154575060019394959683601f1981161061113b575b505050811b0160008051602061202a83398151915255610e98565b015160001960f88460031b161c19169055858080611120565b9091602060018192858b015181550193019101611102565b60008051602061202a833981519152600052601f820160051c6000805160206120aa83398151915201602083106111cd575b601f820160051c6000805160206120aa8339815191520181106111c15750610e5a565b6000815560010161119e565b506000805160206120aa83398151915261119e565b015190508680610e06565b9250600080516020611fea83398151915260005260008051602061204a833981519152906000935b601f1984168510611264576001945083601f1981161061124b575b505050811b01600080516020611fea83398151915255610e29565b015160001960f88460031b161c19169055868080611230565b81810151835560209485019460019093019290910190611215565b909150600080516020611fea833981519152600052601f830160051c60008051602061204a83398151915201602084106112eb575b908392915b601f820160051c60008051602061204a8339815191520181106112dc5750610def565b600081558493506001016112b9565b5060008051602061204a8339815191526112b4565b015190508580610d25565b60008051602061200a83398151915260005260008051602061206a8339815191529060005b601f1984168110611382575060019394959683601f19811610611369575b505050811b0160008051602061200a83398151915255610d48565b015160001960f88460031b161c1916905585808061134e565b9091602060018192858b015181550193019101611330565b60008051602061200a833981519152600052601f820160051c60008051602061206a83398151915201602083106113fb575b601f820160051c60008051602061206a8339815191520181106113ef5750610d0a565b600081556001016113cc565b5060008051602061206a8339815191526113cc565b015190508680610cb6565b9250600080516020611faa833981519152600052600080516020611f8a833981519152906000935b601f1984168510611492576001945083601f19811610611479575b505050811b01600080516020611faa83398151915255610cd9565b015160001960f88460031b161c1916905586808061145e565b81810151835560209485019460019093019290910190611443565b909150600080516020611faa833981519152600052601f830160051c600080516020611f8a8339815191520160208410611519575b908392915b601f820160051c600080516020611f8a83398151915201811061150a5750610c9f565b600081558493506001016114e7565b50600080516020611f8a8339815191526114e2565b506001600160a01b0382161515610c40565b68ffffffffffffffffff198316680100000000000000011760008051602061208a83398151915255610c2e565b60405163f92ee8a960e01b8152600490fd5b90501584610bfe565b303b159150610bf6565b604085901c60ff16159150610bec565b346101715760003660031901126101715760206115bd611cbe565b604051908152f35b346101715760003660031901126101715760206040516b033b2e3c9fd0803ce80000008152f35b3461017157600036600319011261017157610392611608611910565b604051918291602083526020830190611827565b3461017157606036600319011261017157611635611867565b61163d61187d565b6044359061164a83611b0c565b3360005260205260406000205492600019841061166c575b6103bc9350611b8b565b8284106116db576001600160a01b038116156116c25733156116a957826103bc9461169683611b0c565b3360005260205203604060002055611662565b604051634a1406b160e11b815260006004820152602490fd5b60405163e602df0560e01b815260006004820152602490fd5b604051637dc7a0d960e11b81523360048201526024810185905260448101849052606490fd5b34610171576000366003190112610171576103926116086118ea565b346101715760003660031901126101715760207f52c63247e1f47db19d5ce0460030c497f067ca4cebf71ba98eeadabe20bace0254604051908152f35b34610171576040366003190112610171576103bc611776611867565b6024359033611c60565b3461017157600036600319011261017157600080516020611faa83398151915280548260006117ae83611931565b92838352602094600191866001821691826000146105d25750506001146117dd575050610574925003836118ae565b859250600052600080516020611f8a833981519152906000915b85831061180f57505061057493508201018580610566565b805483890185015287945086939092019181016117f7565b919082519283825260005b848110611853575050826000602080949584010152601f8019910116010190565b602081830181015184830182015201611832565b600435906001600160a01b038216820361017157565b602435906001600160a01b038216820361017157565b604081019081106001600160401b0382111761031e57604052565b90601f801991011681019081106001600160401b0382111761031e57604052565b6001600160401b03811161031e57601f01601f191660200190565b604051906118f782611893565b600a8252692722a120902a37b5b2b760b11b6020830152565b6040519061191d82611893565b6005825264244e45424160d81b6020830152565b90600182811c92168015611961575b602083101461194b57565b634e487b7160e01b600052602260045260246000fd5b91607f1691611940565b60405190600082600080516020611fea8339815191529182549261198e84611931565b80845293602091600191828116908115611a0b57506001146119bc575b5050506119ba925003836118ae565b565b600090815260008051602061204a8339815191529590935091905b8284106119f357506119ba9450505081016020013880806119ab565b855488850183015294850194879450928101926119d7565b92505050602092506119ba94915060ff191682840152151560051b8201013880806119ab565b6040519060008260008051602061202a83398151915291825492611a5484611931565b80845293602091600191828116908115611a0b5750600114611a7f575050506119ba925003836118ae565b60009081526000805160206120aa8339815191529590935091905b828410611ab657506119ba9450505081016020013880806119ab565b85548885018301529485019487945092810192611a9a565b15611ad557565b60405162461bcd60e51b815260206004820152600f60248201526e496e76616c6964206164647265737360881b6044820152606490fd5b6001600160a01b031660009081527f52c63247e1f47db19d5ce0460030c497f067ca4cebf71ba98eeadabe20bace016020526040902090565b15611b4c57565b60405162461bcd60e51b815260206004820152600a60248201526927b7363c9030b236b4b760b11b6044820152606490fd5b919082018092116110bc57565b916001600160a01b03808416928315611c4757169283156104c057600090838252600080516020611fca83398151915280602052604083205491848310611c14575082847fddf252ad1be2c89b69c2b068fc378daa952ba7f163c4a11628f55a4df523b3ef959360409388602097528652038282205586815220818154019055604051908152a3565b60405163391434e360e21b81526001600160a01b0391909116600482015260248101929092525060448101839052606490fd5b604051634b637e8f60e11b815260006004820152602490fd5b916001600160a01b038084169283156116c257169283156116a9577f8c5be1e5ebec7d5bd14f71427d1e84f3dd0314c0f7b2291e5b200ac8c7c3b92591611ca8602092611b0c565b85600052825280604060002055604051908152a3565b611cc6611e77565b611cce611ee1565b6040519060208201927f8b73c3c69bb8fe3d512ecc4cf759cc79239f7b179b0ffacaa9a75d522b39400f8452604083015260608201524660808201523060a082015260a0815260c081018181106001600160401b0382111761031e5760405251902090565b60ff60008051602061208a8339815191525460401c1615611d5057565b604051631afcd79f60e31b8152600490fd5b91907f7fffffffffffffffffffffffffffffff5d576e7357a4501ddfe92f46681b20a08411611de657926020929160ff608095604051948552168484015260408301526060820152600092839182805260015afa15611dda5780516001600160a01b03811615611dd157918190565b50809160019190565b604051903d90823e3d90fd5b50505060009160039190565b6004811015611e615780611e04575050565b60018103611e1e5760405163f645eedf60e01b8152600490fd5b60028103611e3f5760405163fce698f760e01b815260048101839052602490fd5b600314611e495750565b602490604051906335e2f38360e21b82526004820152fd5b634e487b7160e01b600052602160045260246000fd5b611e7f61196b565b8051908115611e8f576020012090565b50507fa16a46d94261c7517cc8ff89f61c0ce93598e3c849801011dee649a6a557d100548015611ebc5790565b507fc5d2460186f7233c927e7db2dcc703c0e500b653ca82273b7bfad8045d85a47090565b611ee9611a31565b8051908115611ef9576020012090565b50507fa16a46d94261c7517cc8ff89f61c0ce93598e3c849801011dee649a6a557d101548015611ebc5790565b90611f4d5750805115611f3b57602081519101fd5b60405163d6bda27560e01b8152600490fd5b81511580611f80575b611f5e575090565b604051639996b31560e01b81526001600160a01b039091166004820152602490fd5b50803b15611f5656fe2ae08a8e29253f69ac5d979a101956ab8f8d9d7ded63fa7a83b16fc47648eab052c63247e1f47db19d5ce0460030c497f067ca4cebf71ba98eeadabe20bace0352c63247e1f47db19d5ce0460030c497f067ca4cebf71ba98eeadabe20bace00a16a46d94261c7517cc8ff89f61c0ce93598e3c849801011dee649a6a557d10252c63247e1f47db19d5ce0460030c497f067ca4cebf71ba98eeadabe20bace04a16a46d94261c7517cc8ff89f61c0ce93598e3c849801011dee649a6a557d10342ad5d3e1f2e6e70edcf6d991b8a3023d3fca8047a131592f9edb9fd9b89d57d46a2803e59a4de4e7a4c574b1243f25977ac4c77d5a1a4a609b5394cebb4a2aaf0c57e16840df040f15088dc2f81fe391c3923bec73e23a9662efc9c229c6a005f9ce34815f8e11431c7bb75a8e6886a91478f7ffc1dbb0a98dc240fddd76b75a2646970667358221220f304ef714038cdc857d47b590e8fb0c7b0905d61b41d1228028d8fabe7e28e9264736f6c63430008160033",
  "linkReferences": {},
  "deployedLinkReferences": {}
}