{
  "_format": "hh-sol-artifact-1",
  "contractName": "NEBArateLimiting",
  "sourceName": "contracts/modules/NEBArateLimiting.sol",
  "abi": [
    {
      "inputs": [],
      "stateMutability": "nonpayable",
      "type": "constructor"
    },
    {
      "inputs": [],
      "name": "AccessControlBadConfirmation",
      "type": "error"
    },
    {
      "inputs": [
        {
          "internalType": "address",
          "name": "account",
          "type": "address"
        },
        {
          "internalType": "bytes32",
          "name": "neededRole",
          "type": "bytes32"
        }
      ],
      "name": "AccessControlUnauthorizedAccount",
      "type": "error"
    },
    {
      "inputs": [
        {
          "internalType": "address",
          "name": "target",
          "type": "address"
        }
      ],
      "name": "AddressEmptyCode",
      "type": "error"
    },
    {
      "inputs": [
        {
          "internalType": "address",
          "name": "implementation",
          "type": "address"
        }
      ],
      "name": "ERC1967InvalidImplementation",
      "type": "error"
    },
    {
      "inputs": [],
      "name": "ERC1967NonPayable",
      "type": "error"
    },
    {
      "inputs": [],
      "name": "FailedCall",
      "type": "error"
    },
    {
      "inputs": [],
      "name": "InvalidAddress",
      "type": "error"
    },
    {
      "inputs": [],
      "name": "InvalidInitialization",
      "type": "error"
    },
    {
      "inputs": [
        {
          "internalType": "uint256",
          "name": "currentBlock",
          "type": "uint256"
        },
        {
          "internalType": "uint256",
          "name": "allowedBlock",
          "type": "uint256"
        }
      ],
      "name": "MintCooldownActive",
      "type": "error"
    },
    {
      "inputs": [
        {
          "internalType": "uint256",
          "name": "amount",
          "type": "uint256"
        },
        {
          "internalType": "uint256",
          "name": "limit",
          "type": "uint256"
        },
        {
          "internalType": "uint256",
          "name": "alreadyMinted",
          "type": "uint256"
        }
      ],
      "name": "MintExceedsBlockLimit",
      "type": "error"
    },
    {
      "inputs": [
        {
          "internalType": "uint256",
          "name": "amount",
          "type": "uint256"
        },
        {
          "internalType": "uint256",
          "name": "limit",
          "type": "uint256"
        },
        {
          "internalType": "uint256",
          "name": "alreadyMinted",
          "type": "uint256"
        }
      ],
      "name": "MintExceedsDayLimit",
      "type": "error"
    },
    {
      "inputs": [
        {
          "internalType": "uint256",
          "name": "amount",
          "type": "uint256"
        },
        {
          "internalType": "uint256",
          "name": "limit",
          "type": "uint256"
        }
      ],
      "name": "MintExceedsTransactionLimit",
      "type": "error"
    },
    {
      "inputs": [],
      "name": "NotInitializing",
      "type": "error"
    },
    {
      "inputs": [],
      "name": "UUPSUnauthorizedCallContext",
      "type": "error"
    },
    {
      "inputs": [
        {
          "internalType": "bytes32",
          "name": "slot",
          "type": "bytes32"
        }
      ],
      "name": "UUPSUnsupportedProxiableUUID",
      "type": "error"
    },
    {
      "anonymous": false,
      "inputs": [
        {
          "indexed": false,
          "internalType": "uint64",
          "name": "version",
          "type": "uint64"
        }
      ],
      "name": "Initialized",
      "type": "event"
    },
    {
      "anonymous": false,
      "inputs": [
        {
          "indexed": true,
          "internalType": "address",
          "name": "to",
          "type": "address"
        },
        {
          "indexed": false,
          "internalType": "uint256",
          "name": "amount",
          "type": "uint256"
        },
        {
          "indexed": false,
          "internalType": "uint256",
          "name": "blockNumber",
          "type": "uint256"
        }
      ],
      "name": "LargeMintDetected",
      "type": "event"
    },
    {
      "anonymous": false,
      "inputs": [
        {
          "indexed": false,
          "internalType": "uint256",
          "name": "maxPerTransaction",
          "type": "uint256"
        },
        {
          "indexed": false,
          "internalType": "uint256",
          "name": "maxPerBlock",
          "type": "uint256"
        },
        {
          "indexed": false,
          "internalType": "uint256",
          "name": "maxPerDay",
          "type": "uint256"
        },
        {
          "indexed": false,
          "internalType": "uint256",
          "name": "cooldownBlocks",
          "type": "uint256"
        }
      ],
      "name": "MintLimitsUpdated",
      "type": "event"
    },
    {
      "anonymous": false,
      "inputs": [
        {
          "indexed": true,
          "internalType": "bytes32",
          "name": "role",
          "type": "bytes32"
        },
        {
          "indexed": true,
          "internalType": "bytes32",
          "name": "previousAdminRole",
          "type": "bytes32"
        },
        {
          "indexed": true,
          "internalType": "bytes32",
          "name": "newAdminRole",
          "type": "bytes32"
        }
      ],
      "name": "RoleAdminChanged",
      "type": "event"
    },
    {
      "anonymous": false,
      "inputs": [
        {
          "indexed": true,
          "internalType": "bytes32",
          "name": "role",
          "type": "bytes32"
        },
        {
          "indexed": true,
          "internalType": "address",
          "name": "account",
          "type": "address"
        },
        {
          "indexed": true,
          "internalType": "address",
          "name": "sender",
          "type": "address"
        }
      ],
      "name": "RoleGranted",
      "type": "event"
    },
    {
      "anonymous": false,
      "inputs": [
        {
          "indexed": true,
          "internalType": "bytes32",
          "name": "role",
          "type": "bytes32"
        },
        {
          "indexed": true,
          "internalType": "address",
          "name": "account",
          "type": "address"
        },
        {
          "indexed": true,
          "internalType": "address",
          "name": "sender",
          "type": "address"
        }
      ],
      "name": "RoleRevoked",
      "type": "event"
    },
    {
      "anonymous": false,
      "inputs": [
        {
          "indexed": true,
          "internalType": "address",
          "name": "implementation",
          "type": "address"
        }
      ],
      "name": "Upgraded",
      "type": "event"
    },
    {
      "inputs": [],
      "name": "DEFAULT_ADMIN_ROLE",
      "outputs": [
        {
          "internalType": "bytes32",
          "name": "",
          "type": "bytes32"
        }
      ],
      "stateMutability": "view",
      "type": "function"
    },
    {
      "inputs": [],
      "name": "LARGE_MINT_THRESHOLD",
      "outputs": [
        {
          "internalType": "uint256",
          "name": "",
          "type": "uint256"
        }
      ],
      "stateMutability": "view",
      "type": "function"
    },
    {
      "inputs": [],
      "name": "MINTER_ROLE",
      "outputs": [
        {
          "internalType": "bytes32",
          "name": "",
          "type": "bytes32"
        }
      ],
      "stateMutability": "view",
      "type": "function"
    },
    {
      "inputs": [],
      "name": "UPGRADER_ROLE",
      "outputs": [
        {
          "internalType": "bytes32",
          "name": "",
          "type": "bytes32"
        }
      ],
      "stateMutability": "view",
      "type": "function"
    },
    {
      "inputs": [],
      "name": "UPGRADE_INTERFACE_VERSION",
      "outputs": [
        {
          "internalType": "string",
          "name": "",
          "type": "string"
        }
      ],
      "stateMutability": "view",
      "type": "function"
    },
    {
      "inputs": [
        {
          "internalType": "address",
          "name": "from",
          "type": "address"
        },
        {
          "internalType": "address",
          "name": "to",
          "type": "address"
        },
        {
          "internalType": "uint256",
          "name": "amount",
          "type": "uint256"
        }
      ],
      "name": "afterTransfer",
      "outputs": [],
      "stateMutability": "nonpayable",
      "type": "function"
    },
    {
      "inputs": [
        {
          "internalType": "address",
          "name": "from",
          "type": "address"
        },
        {
          "internalType": "address",
          "name": "to",
          "type": "address"
        },
        {
          "internalType": "uint256",
          "name": "amount",
          "type": "uint256"
        }
      ],
      "name": "beforeTransfer",
      "outputs": [],
      "stateMutability": "nonpayable",
      "type": "function"
    },
    {
      "inputs": [
        {
          "internalType": "address",
          "name": "to",
          "type": "address"
        },
        {
          "internalType": "uint256",
          "name": "amount",
          "type": "uint256"
        }
      ],
      "name": "checkAndUpdateMint",
      "outputs": [
        {
          "internalType": "bool",
          "name": "",
          "type": "bool"
        }
      ],
      "stateMutability": "nonpayable",
      "type": "function"
    },
    {
      "inputs": [],
      "name": "coreContract",
      "outputs": [
        {
          "internalType": "address",
          "name": "",
          "type": "address"
        }
      ],
      "stateMutability": "view",
      "type": "function"
    },
    {
      "inputs": [],
      "name": "getMintStats",
      "outputs": [
        {
          "internalType": "uint256",
          "name": "blockMinted",
          "type": "uint256"
        },
        {
          "internalType": "uint256",
          "name": "dayMinted",
          "type": "uint256"
        },
        {
          "internalType": "uint256",
          "name": "blockLimit",
          "type": "uint256"
        },
        {
          "internalType": "uint256",
          "name": "dayLimit",
          "type": "uint256"
        },
        {
          "internalType": "uint256",
          "name": "blocksSinceLastLarge",
          "type": "uint256"
        }
      ],
      "stateMutability": "view",
      "type": "function"
    },
    {
      "inputs": [
        {
          "internalType": "bytes32",
          "name": "role",
          "type": "bytes32"
        }
      ],
      "name": "getRoleAdmin",
      "outputs": [
        {
          "internalType": "bytes32",
          "name": "",
          "type": "bytes32"
        }
      ],
      "stateMutability": "view",
      "type": "function"
    },
    {
      "inputs": [
        {
          "internalType": "bytes32",
          "name": "role",
          "type": "bytes32"
        },
        {
          "internalType": "address",
          "name": "account",
          "type": "address"
        }
      ],
      "name": "grantRole",
      "outputs": [],
      "stateMutability": "nonpayable",
      "type": "function"
    },
    {
      "inputs": [
        {
          "internalType": "bytes32",
          "name": "role",
          "type": "bytes32"
        },
        {
          "internalType": "address",
          "name": "account",
          "type": "address"
        }
      ],
      "name": "hasRole",
      "outputs": [
        {
          "internalType": "bool",
          "name": "",
          "type": "bool"
        }
      ],
      "stateMutability": "view",
      "type": "function"
    },
    {
      "inputs": [
        {
          "internalType": "address",
          "name": "_coreContract",
          "type": "address"
        },
        {
          "internalType": "address",
          "name": "_admin",
          "type": "address"
        }
      ],
      "name": "initialize",
      "outputs": [],
      "stateMutability": "nonpayable",
      "type": "function"
    },
    {
      "inputs": [],
      "name": "lastLargeMintBlock",
      "outputs": [
        {
          "internalType": "uint256",
          "name": "",
          "type": "uint256"
        }
      ],
      "stateMutability": "view",
      "type": "function"
    },
    {
      "inputs": [
        {
          "internalType": "address",
          "name": "to",
          "type": "address"
        },
        {
          "internalType": "uint256",
          "name": "amount",
          "type": "uint256"
        }
      ],
      "name": "mint",
      "outputs": [],
      "stateMutability": "nonpayable",
      "type": "function"
    },
    {
      "inputs": [],
      "name": "mintLimits",
      "outputs": [
        {
          "internalType": "uint256",
          "name": "maxPerTransaction",
          "type": "uint256"
        },
        {
          "internalType": "uint256",
          "name": "maxPerBlock",
          "type": "uint256"
        },
        {
          "internalType": "uint256",
          "name": "maxPerDay",
          "type": "uint256"
        },
        {
          "internalType": "uint256",
          "name": "cooldownBlocks",
          "type": "uint256"
        }
      ],
      "stateMutability": "view",
      "type": "function"
    },
    {
      "inputs": [
        {
          "internalType": "uint256",
          "name": "",
          "type": "uint256"
        }
      ],
      "name": "mintedPerBlock",
      "outputs": [
        {
          "internalType": "uint256",
          "name": "",
          "type": "uint256"
        }
      ],
      "stateMutability": "view",
      "type": "function"
    },
    {
      "inputs": [
        {
          "internalType": "uint256",
          "name": "",
          "type": "uint256"
        }
      ],
      "name": "mintedPerDay",
      "outputs": [
        {
          "internalType": "uint256",
          "name": "",
          "type": "uint256"
        }
      ],
      "stateMutability": "view",
      "type": "function"
    },
    {
      "inputs": [],
      "name": "proxiableUUID",
      "outputs": [
        {
          "internalType": "bytes32",
          "name": "",
          "type": "bytes32"
        }
      ],
      "stateMutability": "view",
      "type": "function"
    },
    {
      "inputs": [
        {
          "internalType": "bytes32",
          "name": "role",
          "type": "bytes32"
        },
        {
          "internalType": "address",
          "name": "callerConfirmation",
          "type": "address"
        }
      ],
      "name": "renounceRole",
      "outputs": [],
      "stateMutability": "nonpayable",
      "type": "function"
    },
    {
      "inputs": [
        {
          "internalType": "bytes32",
          "name": "role",
          "type": "bytes32"
        },
        {
          "internalType": "address",
          "name": "account",
          "type": "address"
        }
      ],
      "name": "revokeRole",
      "outputs": [],
      "stateMutability": "nonpayable",
      "type": "function"
    },
    {
      "inputs": [
        {
          "internalType": "uint256",
          "name": "_maxPerTransaction",
          "type": "uint256"
        },
        {
          "internalType": "uint256",
          "name": "_maxPerBlock",
          "type": "uint256"
        },
        {
          "internalType": "uint256",
          "name": "_maxPerDay",
          "type": "uint256"
        },
        {
          "internalType": "uint256",
          "name": "_cooldownBlocks",
          "type": "uint256"
        }
      ],
      "name": "setMintLimits",
      "outputs": [],
      "stateMutability": "nonpayable",
      "type": "function"
    },
    {
      "inputs": [
        {
          "internalType": "bytes4",
          "name": "interfaceId",
          "type": "bytes4"
        }
      ],
      "name": "supportsInterface",
      "outputs": [
        {
          "internalType": "bool",
          "name": "",
          "type": "bool"
        }
      ],
      "stateMutability": "view",
      "type": "function"
    },
    {
      "inputs": [
        {
          "internalType": "address",
          "name": "newImplementation",
          "type": "address"
        },
        {
          "internalType": "bytes",
          "name": "data",
          "type": "bytes"
        }
      ],
      "name": "upgradeToAndCall",
      "outputs": [],
      "stateMutability": "payable",
      "type": "function"
    }
  ],
  "bytecode": "0x60a080604052346100cc57306080527ff0c57e16840df040f15088dc2f81fe391c3923bec73e23a9662efc9c229c6a009081549060ff8260401c166100bd57506001600160401b036002600160401b031982821601610078575b6040516115fb90816100d2823960805181818161052201526106020152f35b6001600160401b031990911681179091556040519081527fc7f505b2f371ae2175ee4913f4499e1f2633a7b5936321eed1cdaeb6115181d290602090a1388080610059565b63f92ee8a960e01b8152600490fd5b600080fdfe608060408181526004918236101561001657600080fd5b600092833560e01c91826301ffc9a714611008575081630431888214610e2457816314c54ca914610e055781631e59caeb14610dcb5781631ffb811f14610da5578163224201db14610d4457816322c910dd14610d1f578163248a9ca314610ce75781632ba3299114610cbf5781632f2ff15d14610c9557816336568abe14610c4f5781633c59989e14610c2757816340c10f1914610aa6578163485cc9551461083e5781634f1ef2861461058657816352d1902d1461050d5781637944338a1461035257816391d14854146102ff578163a217fddf146102e4578163ad3cb1cc14610243578163d539139314610208578163d547741f146101b757508063e80db5db14610190578063f49062ca146101635763f72c0d8b1461013857600080fd5b3461015f578160031936011261015f57602090516000805160206115868339815191528152f35b5080fd5b823461018d576101723661108c565b50505061018a60018060a01b03600054163314611131565b80f35b80fd5b503461015f578160031936011261015f57905490516001600160a01b039091168152602090f35b9190503461020457806003193601126102045761020091356101fb60016101dc611076565b938387526000805160206115a6833981519152602052862001546111a2565b61143e565b5080f35b8280fd5b50503461015f578160031936011261015f57602090517f9f2df0fed2c77648de5860a4cc508cd0818c85b8b8a1ab4ceeef8d981c8956a68152f35b9050346102045782600319360112610204578151908282019082821067ffffffffffffffff8311176102cf5750825260058152602090640352e302e360dc1b6020820152825193849260208452825192836020860152825b8481106102b957505050828201840152601f01601f19168101030190f35b818101830151888201880152879550820161029b565b604190634e487b7160e01b6000525260246000fd5b50503461015f578160031936011261015f5751908152602090f35b9050346102045781600319360112610204578160209361031d611076565b923581526000805160206115a68339815191528552209060018060a01b0316600052825260ff81600020541690519015158152f35b8391503461015f57608036600319011261015f57803560243591604435606435916000805260206000805160206115a683398151915281528760002033600052815260ff886000205416156104f05784156104ae578486106104735785831061043157968380939261042b9560607f6c52f3e195bdc534883e903e0612c49261a466aacd492501870b0a0ac0b183559a9b8a8651916103f0836110c1565b8b8352820152868682015201528660015587600255836003555551948594859094939260609260808301968352602083015260408201520152565b0390a180f35b875162461bcd60e51b815291820152601760248201527f446179206c696d6974203c20626c6f636b206c696d6974000000000000000000604482015260649150fd5b875162461bcd60e51b8152918201526016602482015275109b1bd8dac81b1a5b5a5d080f081d1e081b1a5b5a5d60521b604482015260649150fd5b875162461bcd60e51b815291820152601960248201527f496e76616c6964206d61785065725472616e73616374696f6e00000000000000604482015260649150fd5b875163e2517d3f60e01b8152338184015260006024820152604490fd5b82843461018d578060031936011261018d57507f00000000000000000000000000000000000000000000000000000000000000006001600160a01b0316300361057957602090517f360894a13ba1a3210667c828492db98dca3e2076cc3735a920a3ca505d382bbc8152f35b5163703e46dd60e11b8152fd5b918091506003193601126102045761059c61105b565b90602493843567ffffffffffffffff811161015f573660238201121561015f57808501356105c981611115565b946105d6855196876110f3565b81865260209182870193368a838301011161083a578186928b8693018737880101526001600160a01b037f0000000000000000000000000000000000000000000000000000000000000000811630811490811561080c575b506107fc57600080516020611586833981519152806000526000805160206115a683398151915284528660002033600052845260ff876000205416156107df575081169585516352d1902d60e01b815283818a818b5afa8691816107ac575b506106a9575050505050505191634c9c8ce360e01b8352820152fd5b9088888894938c7f360894a13ba1a3210667c828492db98dca3e2076cc3735a920a3ca505d382bbc918281036107975750853b15610783575080546001600160a01b031916821790558451889392917fbc7cd75a20ee27fd9adebab32041f755214dbc6bffa90cc0225b39da2e5c2d3b8580a28251156107655750506102009582915190845af4913d1561075b573d61074d61074482611115565b925192836110f3565b81528581943d92013e611502565b5060609250611502565b95509550505050503461077757505080f35b63b398979f60e01b8152fd5b8651634c9c8ce360e01b8152808501849052fd5b8751632a87526960e21b815280860191909152fd5b9091508481813d83116107d8575b6107c481836110f3565b810103126107d45751903861068d565b8680fd5b503d6107ba565b865163e2517d3f60e01b815233818b0152808b0191909152604490fd5b855163703e46dd60e11b81528890fd5b9050817f360894a13ba1a3210667c828492db98dca3e2076cc3735a920a3ca505d382bbc541614153861062e565b8580fd5b90503461020457816003193601126102045761085861105b565b610860611076565b917ff0c57e16840df040f15088dc2f81fe391c3923bec73e23a9662efc9c229c6a009283549260ff84871c16159367ffffffffffffffff811680159081610a9e575b6001149081610a94575b159081610a8b575b50610a7b5767ffffffffffffffff198116600117865584610a5c575b506001600160a01b03908116908115159081610a50575b5015610a1b5760649291610983916108fd6114c1565b6109056114c1565b88546001600160a01b0319161788556000805160206115868339815191528089526000805160206115a68339815191526020528789206001018054908a905589917fbd79b86ffe0ab8e8776151514217cd7cacd52c909f66475c3af44e129f0b00ff8380a4610973816111f3565b5061097d81611281565b5061131f565b50845161098f816110c1565b6a084595161401484a0000008082526a108b2a2c28029094000000908160208401528460606a52b7d2dcc80cd2e400000094858b8201520152600155600255600355556109da578280f35b805468ff00000000000000001916905551600181527fc7f505b2f371ae2175ee4913f4499e1f2633a7b5936321eed1cdaeb6115181d290602090a138808280f35b855162461bcd60e51b8152602081850152600f60248201526e496e76616c6964206164647265737360881b6044820152606490fd5b905082161515386108e7565b68ffffffffffffffffff191668010000000000000001178555386108d0565b865163f92ee8a960e01b81528490fd5b905015386108b4565b303b1591506108ac565b8691506108a2565b91905034610204578060031936011261020457610ac161105b565b9160249081357f9f2df0fed2c77648de5860a4cc508cd0818c85b8b8a1ab4ceeef8d981c8956a68087526000805160206115a683398151915260205284872033885260205260ff858820541615610c0b57506001600160a01b03948516948515610bd2578115610b9b5790869182541695863b156102045760449083875198899485936340c10f1960e01b855288850152888401525af18015610b9157610b66578480f35b67ffffffffffffffff8411610b8057505052388080808480f35b634e487b7160e01b85526041905283fd5b83513d87823e3d90fd5b845162461bcd60e51b8152602081850152601281860152710416d6f756e74206d757374206265203e20360741b6044820152606490fd5b845162461bcd60e51b8152602081850152601481860152734d696e7420746f207a65726f206164647265737360601b6044820152606490fd5b905060449284519263e2517d3f60e01b84523390840152820152fd5b9050346102045760203660031901126102045760209282913581526006845220549051908152f35b83833461015f578060031936011261015f57610c69611076565b90336001600160a01b03831603610c86575061020091923561143e565b5163334bd91960e11b81528390fd5b919050346102045780600319360112610204576102009135610cba60016101dc611076565b6113c9565b9050346102045760203660031901126102045760209282913581526005845220549051908152f35b90503461020457602036600319011261020457816020936001923581526000805160206115a683398151915285522001549051908152f35b50503461015f578160031936011261015f576020905169d3c21bcecceda10000008152f35b50503461015f578160031936011261015f579060a09143825260056020528080832054926201518042048152600660205220549060025460035491610d8b60075443611195565b938151958652602086015284015260608301526080820152f35b833461018d57610db43661108c565b50505061018a60018060a01b038254163314611131565b82843461018d578060031936011261018d575060015460025460035493549251918252602082015260408101929092526060820152608090f35b50503461015f578160031936011261015f576020906007549051908152f35b82843461018d578160031936011261018d57610e3e61105b565b926024359160018060a01b0394610e59868354163314611131565b600154808511610fec5750620151804204904383526020966005885286842054610e838782611172565b600254809111610fc15750508284526006885286842054610ea48782611172565b600354809111610f96575050908693929169d3c21bcecceda1000000871015610efe575b5050610ef5935043825260058752828220610ee4868254611172565b905581526006865220918254611172565b90555160018152f35b9193509193600754610f108143611195565b90825480921080610f8d575b610f665750505091610ef593917f5c5c130f3561b30510e2b27f1ba45e900d0fb4e40096bc69a6ab026fcebdedb787809543600755815193898552438c8601521692a28780610ec8565b610f74604493928a92611172565b90519163068b1d4760e21b835243908301526024820152fd5b50801515610f1c565b8851631e3ef3e960e01b81528088018981526020810192909252604082019290925281906060010390fd5b8851631e2b582f60e31b81528088018981526020810192909252604082019290925281906060010390fd5b8360449186885192635bb0e64d60e11b84528301526024820152fd5b849134610204576020366003190112610204573563ffffffff60e01b81168091036102045760209250637965db0b60e01b811490811561104a575b5015158152f35b6301ffc9a760e01b14905083611043565b600435906001600160a01b038216820361107157565b600080fd5b602435906001600160a01b038216820361107157565b6060906003190112611071576001600160a01b0390600435828116810361107157916024359081168103611071579060443590565b6080810190811067ffffffffffffffff8211176110dd57604052565b634e487b7160e01b600052604160045260246000fd5b90601f8019910116810190811067ffffffffffffffff8211176110dd57604052565b67ffffffffffffffff81116110dd57601f01601f191660200190565b1561113857565b60405162461bcd60e51b815260206004820152601260248201527113db9b1e4818dbdc994818dbdb9d1c9858dd60721b6044820152606490fd5b9190820180921161117f57565b634e487b7160e01b600052601160045260246000fd5b9190820391821161117f57565b806000526000805160206115a683398151915260205260406000203360005260205260ff60406000205416156111d55750565b6044906040519063e2517d3f60e01b82523360048301526024820152fd5b6001600160a01b031660008181527fb7db2dd08fcb62d0c9e08c51941cae53c267786a0b75803fb7960902fc8ef97d60205260408120549091906000805160206115a68339815191529060ff1661127c578280526020526040822081835260205260408220600160ff1982541617905533916000805160206115668339815191528180a4600190565b505090565b6001600160a01b031660008181527fab71e3f32666744d246edff3f96e4bdafee2e9867098cdd118a979a7464786a86020526040812054909190600080516020611586833981519152906000805160206115a68339815191529060ff16611319578184526020526040832082845260205260408320600160ff19825416179055600080516020611566833981519152339380a4600190565b50505090565b6001600160a01b031660008181527f549fe2656c81d2947b3b913f0a53b9ea86c71e049f3a1b8aa23c09a8a05cb8d460205260408120549091907f9f2df0fed2c77648de5860a4cc508cd0818c85b8b8a1ab4ceeef8d981c8956a6906000805160206115a68339815191529060ff16611319578184526020526040832082845260205260408320600160ff19825416179055600080516020611566833981519152339380a4600190565b906000918083526000805160206115a683398151915280602052604084209260018060a01b03169283855260205260ff60408520541615600014611319578184526020526040832082845260205260408320600160ff19825416179055600080516020611566833981519152339380a4600190565b906000918083526000805160206115a683398151915280602052604084209260018060a01b03169283855260205260ff60408520541660001461131957818452602052604083208284526020526040832060ff1981541690557ff6391f5c32d9c69d2a47ea670b442974b53935d1edc7fd64eb21e047a839171b339380a4600190565b60ff7ff0c57e16840df040f15088dc2f81fe391c3923bec73e23a9662efc9c229c6a005460401c16156114f057565b604051631afcd79f60e31b8152600490fd5b90611529575080511561151757602081519101fd5b60405163d6bda27560e01b8152600490fd5b8151158061155c575b61153a575090565b604051639996b31560e01b81526001600160a01b039091166004820152602490fd5b50803b1561153256fe2f8788117e7eff1d82e926ec794901d17c78024a50270940304540a733656f0d189ab7a9244df0848122154315af71fe140f3db0fe014031783b0946b8c9d2e302dd7bc7dec4dceedda775e58dd541e08a116c6c53815c0bd028192f7b626800a2646970667358221220886ba389fc8701efc505b821680cc67ae56084add1bd12bf6214ec52033142b864736f6c63430008160033",
  "linkReferences": {},
  "deployedLinkReferences": {}
}