{
  "_format": "hh-sol-artifact-1",
  "contractName": "NEBA",
  "sourceName": "contracts/NEBA.sol",
  "abi": [
    {
      "inputs": [],
      "stateMutability": "nonpayable",
      "type": "constructor"
    },
    {
      "inputs": [],
      "name": "AccessControlBadConfirmation",
      "type": "error"
    },
    {
      "inputs": [
        {
          "internalType": "address",
          "name": "account",
          "type": "address"
        },
        {
          "internalType": "bytes32",
          "name": "neededRole",
          "type": "bytes32"
        }
      ],
      "name": "AccessControlUnauthorizedAccount",
      "type": "error"
    },
    {
      "inputs": [
        {
          "internalType": "address",
          "name": "target",
          "type": "address"
        }
      ],
      "name": "AddressEmptyCode",
      "type": "error"
    },
    {
      "inputs": [],
      "name": "AlreadyMigrated",
      "type": "error"
    },
    {
      "inputs": [],
      "name": "CannotRecoverNEBA",
      "type": "error"
    },
    {
      "inputs": [],
      "name": "ECDSAInvalidSignature",
      "type": "error"
    },
    {
      "inputs": [
        {
          "internalType": "uint256",
          "name": "length",
          "type": "uint256"
        }
      ],
      "name": "ECDSAInvalidSignatureLength",
      "type": "error"
    },
    {
      "inputs": [
        {
          "internalType": "bytes32",
          "name": "s",
          "type": "bytes32"
        }
      ],
      "name": "ECDSAInvalidSignatureS",
      "type": "error"
    },
    {
      "inputs": [
        {
          "internalType": "address",
          "name": "implementation",
          "type": "address"
        }
      ],
      "name": "ERC1967InvalidImplementation",
      "type": "error"
    },
    {
      "inputs": [],
      "name": "ERC1967NonPayable",
      "type": "error"
    },
    {
      "inputs": [
        {
          "internalType": "uint256",
          "name": "increasedSupply",
          "type": "uint256"
        },
        {
          "internalType": "uint256",
          "name": "cap",
          "type": "uint256"
        }
      ],
      "name": "ERC20ExceededCap",
      "type": "error"
    },
    {
      "inputs": [
        {
          "internalType": "address",
          "name": "spender",
          "type": "address"
        },
        {
          "internalType": "uint256",
          "name": "allowance",
          "type": "uint256"
        },
        {
          "internalType": "uint256",
          "name": "needed",
          "type": "uint256"
        }
      ],
      "name": "ERC20InsufficientAllowance",
      "type": "error"
    },
    {
      "inputs": [
        {
          "internalType": "address",
          "name": "sender",
          "type": "address"
        },
        {
          "internalType": "uint256",
          "name": "balance",
          "type": "uint256"
        },
        {
          "internalType": "uint256",
          "name": "needed",
          "type": "uint256"
        }
      ],
      "name": "ERC20InsufficientBalance",
      "type": "error"
    },
    {
      "inputs": [
        {
          "internalType": "address",
          "name": "approver",
          "type": "address"
        }
      ],
      "name": "ERC20InvalidApprover",
      "type": "error"
    },
    {
      "inputs": [
        {
          "internalType": "uint256",
          "name": "cap",
          "type": "uint256"
        }
      ],
      "name": "ERC20InvalidCap",
      "type": "error"
    },
    {
      "inputs": [
        {
          "internalType": "address",
          "name": "receiver",
          "type": "address"
        }
      ],
      "name": "ERC20InvalidReceiver",
      "type": "error"
    },
    {
      "inputs": [
        {
          "internalType": "address",
          "name": "sender",
          "type": "address"
        }
      ],
      "name": "ERC20InvalidSender",
      "type": "error"
    },
    {
      "inputs": [
        {
          "internalType": "address",
          "name": "spender",
          "type": "address"
        }
      ],
      "name": "ERC20InvalidSpender",
      "type": "error"
    },
    {
      "inputs": [
        {
          "internalType": "uint256",
          "name": "deadline",
          "type": "uint256"
        }
      ],
      "name": "ERC2612ExpiredSignature",
      "type": "error"
    },
    {
      "inputs": [
        {
          "internalType": "address",
          "name": "signer",
          "type": "address"
        },
        {
          "internalType": "address",
          "name": "owner",
          "type": "address"
        }
      ],
      "name": "ERC2612InvalidSigner",
      "type": "error"
    },
    {
      "inputs": [],
      "name": "EnforcedPause",
      "type": "error"
    },
    {
      "inputs": [],
      "name": "ExpectedPause",
      "type": "error"
    },
    {
      "inputs": [],
      "name": "FailedCall",
      "type": "error"
    },
    {
      "inputs": [
        {
          "internalType": "address",
          "name": "account",
          "type": "address"
        },
        {
          "internalType": "uint256",
          "name": "currentNonce",
          "type": "uint256"
        }
      ],
      "name": "InvalidAccountNonce",
      "type": "error"
    },
    {
      "inputs": [],
      "name": "InvalidAddress",
      "type": "error"
    },
    {
      "inputs": [],
      "name": "InvalidAmount",
      "type": "error"
    },
    {
      "inputs": [],
      "name": "InvalidInitialization",
      "type": "error"
    },
    {
      "inputs": [],
      "name": "NotInitializing",
      "type": "error"
    },
    {
      "inputs": [],
      "name": "ReentrancyGuardReentrantCall",
      "type": "error"
    },
    {
      "inputs": [],
      "name": "UUPSUnauthorizedCallContext",
      "type": "error"
    },
    {
      "inputs": [
        {
          "internalType": "bytes32",
          "name": "slot",
          "type": "bytes32"
        }
      ],
      "name": "UUPSUnsupportedProxiableUUID",
      "type": "error"
    },
    {
      "inputs": [],
      "name": "UnauthorizedUpgrade",
      "type": "error"
    },
    {
      "anonymous": false,
      "inputs": [
        {
          "indexed": true,
          "internalType": "address",
          "name": "owner",
          "type": "address"
        },
        {
          "indexed": true,
          "internalType": "address",
          "name": "spender",
          "type": "address"
        },
        {
          "indexed": false,
          "internalType": "uint256",
          "name": "value",
          "type": "uint256"
        }
      ],
      "name": "Approval",
      "type": "event"
    },
    {
      "anonymous": false,
      "inputs": [],
      "name": "EIP712DomainChanged",
      "type": "event"
    },
    {
      "anonymous": false,
      "inputs": [
        {
          "indexed": true,
          "internalType": "address",
          "name": "to",
          "type": "address"
        },
        {
          "indexed": false,
          "internalType": "uint256",
          "name": "amount",
          "type": "uint256"
        }
      ],
      "name": "ETHRecovered",
      "type": "event"
    },
    {
      "anonymous": false,
      "inputs": [
        {
          "indexed": false,
          "internalType": "uint64",
          "name": "version",
          "type": "uint64"
        }
      ],
      "name": "Initialized",
      "type": "event"
    },
    {
      "anonymous": false,
      "inputs": [
        {
          "indexed": false,
          "internalType": "address",
          "name": "account",
          "type": "address"
        }
      ],
      "name": "Paused",
      "type": "event"
    },
    {
      "anonymous": false,
      "inputs": [
        {
          "indexed": true,
          "internalType": "bytes32",
          "name": "role",
          "type": "bytes32"
        },
        {
          "indexed": true,
          "internalType": "bytes32",
          "name": "previousAdminRole",
          "type": "bytes32"
        },
        {
          "indexed": true,
          "internalType": "bytes32",
          "name": "newAdminRole",
          "type": "bytes32"
        }
      ],
      "name": "RoleAdminChanged",
      "type": "event"
    },
    {
      "anonymous": false,
      "inputs": [
        {
          "indexed": true,
          "internalType": "bytes32",
          "name": "role",
          "type": "bytes32"
        },
        {
          "indexed": true,
          "internalType": "address",
          "name": "account",
          "type": "address"
        },
        {
          "indexed": true,
          "internalType": "address",
          "name": "sender",
          "type": "address"
        }
      ],
      "name": "RoleGranted",
      "type": "event"
    },
    {
      "anonymous": false,
      "inputs": [
        {
          "indexed": true,
          "internalType": "bytes32",
          "name": "role",
          "type": "bytes32"
        },
        {
          "indexed": true,
          "internalType": "address",
          "name": "account",
          "type": "address"
        },
        {
          "indexed": true,
          "internalType": "address",
          "name": "sender",
          "type": "address"
        }
      ],
      "name": "RoleRevoked",
      "type": "event"
    },
    {
      "anonymous": false,
      "inputs": [
        {
          "indexed": true,
          "internalType": "address",
          "name": "tlMain",
          "type": "address"
        },
        {
          "indexed": true,
          "internalType": "address",
          "name": "tlUpg",
          "type": "address"
        }
      ],
      "name": "RolesMigrated",
      "type": "event"
    },
    {
      "anonymous": false,
      "inputs": [
        {
          "indexed": true,
          "internalType": "address",
          "name": "token",
          "type": "address"
        },
        {
          "indexed": true,
          "internalType": "address",
          "name": "to",
          "type": "address"
        },
        {
          "indexed": false,
          "internalType": "uint256",
          "name": "amount",
          "type": "uint256"
        }
      ],
      "name": "TokenRecovered",
      "type": "event"
    },
    {
      "anonymous": false,
      "inputs": [
        {
          "indexed": true,
          "internalType": "address",
          "name": "from",
          "type": "address"
        },
        {
          "indexed": true,
          "internalType": "address",
          "name": "to",
          "type": "address"
        },
        {
          "indexed": false,
          "internalType": "uint256",
          "name": "value",
          "type": "uint256"
        }
      ],
      "name": "Transfer",
      "type": "event"
    },
    {
      "anonymous": false,
      "inputs": [
        {
          "indexed": true,
          "internalType": "address",
          "name": "oldTreasury",
          "type": "address"
        },
        {
          "indexed": true,
          "internalType": "address",
          "name": "newTreasury",
          "type": "address"
        }
      ],
      "name": "TreasuryUpdated",
      "type": "event"
    },
    {
      "anonymous": false,
      "inputs": [
        {
          "indexed": false,
          "internalType": "address",
          "name": "account",
          "type": "address"
        }
      ],
      "name": "Unpaused",
      "type": "event"
    },
    {
      "anonymous": false,
      "inputs": [
        {
          "indexed": true,
          "internalType": "address",
          "name": "implementation",
          "type": "address"
        }
      ],
      "name": "Upgraded",
      "type": "event"
    },
    {
      "inputs": [],
      "name": "ADMIN_PAUSER_ROLE",
      "outputs": [
        {
          "internalType": "bytes32",
          "name": "",
          "type": "bytes32"
        }
      ],
      "stateMutability": "view",
      "type": "function"
    },
    {
      "inputs": [],
      "name": "BOT_PAUSER_ROLE",
      "outputs": [
        {
          "internalType": "bytes32",
          "name": "",
          "type": "bytes32"
        }
      ],
      "stateMutability": "view",
      "type": "function"
    },
    {
      "inputs": [],
      "name": "DEFAULT_ADMIN_ROLE",
      "outputs": [
        {
          "internalType": "bytes32",
          "name": "",
          "type": "bytes32"
        }
      ],
      "stateMutability": "view",
      "type": "function"
    },
    {
      "inputs": [],
      "name": "DOMAIN_SEPARATOR",
      "outputs": [
        {
          "internalType": "bytes32",
          "name": "",
          "type": "bytes32"
        }
      ],
      "stateMutability": "view",
      "type": "function"
    },
    {
      "inputs": [],
      "name": "MAX_SUPPLY",
      "outputs": [
        {
          "internalType": "uint256",
          "name": "",
          "type": "uint256"
        }
      ],
      "stateMutability": "view",
      "type": "function"
    },
    {
      "inputs": [],
      "name": "MINTER_ROLE",
      "outputs": [
        {
          "internalType": "bytes32",
          "name": "",
          "type": "bytes32"
        }
      ],
      "stateMutability": "view",
      "type": "function"
    },
    {
      "inputs": [],
      "name": "RECOVERY_ROLE",
      "outputs": [
        {
          "internalType": "bytes32",
          "name": "",
          "type": "bytes32"
        }
      ],
      "stateMutability": "view",
      "type": "function"
    },
    {
      "inputs": [],
      "name": "UPGRADER_ADMIN_ROLE",
      "outputs": [
        {
          "internalType": "bytes32",
          "name": "",
          "type": "bytes32"
        }
      ],
      "stateMutability": "view",
      "type": "function"
    },
    {
      "inputs": [],
      "name": "UPGRADER_ROLE",
      "outputs": [
        {
          "internalType": "bytes32",
          "name": "",
          "type": "bytes32"
        }
      ],
      "stateMutability": "view",
      "type": "function"
    },
    {
      "inputs": [],
      "name": "UPGRADE_INTERFACE_VERSION",
      "outputs": [
        {
          "internalType": "string",
          "name": "",
          "type": "string"
        }
      ],
      "stateMutability": "view",
      "type": "function"
    },
    {
      "inputs": [
        {
          "internalType": "address",
          "name": "owner",
          "type": "address"
        },
        {
          "internalType": "address",
          "name": "spender",
          "type": "address"
        }
      ],
      "name": "allowance",
      "outputs": [
        {
          "internalType": "uint256",
          "name": "",
          "type": "uint256"
        }
      ],
      "stateMutability": "view",
      "type": "function"
    },
    {
      "inputs": [
        {
          "internalType": "address",
          "name": "spender",
          "type": "address"
        },
        {
          "internalType": "uint256",
          "name": "value",
          "type": "uint256"
        }
      ],
      "name": "approve",
      "outputs": [
        {
          "internalType": "bool",
          "name": "",
          "type": "bool"
        }
      ],
      "stateMutability": "nonpayable",
      "type": "function"
    },
    {
      "inputs": [
        {
          "internalType": "address",
          "name": "account",
          "type": "address"
        }
      ],
      "name": "balanceOf",
      "outputs": [
        {
          "internalType": "uint256",
          "name": "",
          "type": "uint256"
        }
      ],
      "stateMutability": "view",
      "type": "function"
    },
    {
      "inputs": [],
      "name": "cap",
      "outputs": [
        {
          "internalType": "uint256",
          "name": "",
          "type": "uint256"
        }
      ],
      "stateMutability": "pure",
      "type": "function"
    },
    {
      "inputs": [],
      "name": "decimals",
      "outputs": [
        {
          "internalType": "uint8",
          "name": "",
          "type": "uint8"
        }
      ],
      "stateMutability": "view",
      "type": "function"
    },
    {
      "inputs": [],
      "name": "eip712Domain",
      "outputs": [
        {
          "internalType": "bytes1",
          "name": "fields",
          "type": "bytes1"
        },
        {
          "internalType": "string",
          "name": "name",
          "type": "string"
        },
        {
          "internalType": "string",
          "name": "version",
          "type": "string"
        },
        {
          "internalType": "uint256",
          "name": "chainId",
          "type": "uint256"
        },
        {
          "internalType": "address",
          "name": "verifyingContract",
          "type": "address"
        },
        {
          "internalType": "bytes32",
          "name": "salt",
          "type": "bytes32"
        },
        {
          "internalType": "uint256[]",
          "name": "extensions",
          "type": "uint256[]"
        }
      ],
      "stateMutability": "view",
      "type": "function"
    },
    {
      "inputs": [
        {
          "internalType": "bytes32",
          "name": "role",
          "type": "bytes32"
        }
      ],
      "name": "getRoleAdmin",
      "outputs": [
        {
          "internalType": "bytes32",
          "name": "",
          "type": "bytes32"
        }
      ],
      "stateMutability": "view",
      "type": "function"
    },
    {
      "inputs": [
        {
          "internalType": "bytes32",
          "name": "role",
          "type": "bytes32"
        },
        {
          "internalType": "address",
          "name": "account",
          "type": "address"
        }
      ],
      "name": "grantRole",
      "outputs": [],
      "stateMutability": "nonpayable",
      "type": "function"
    },
    {
      "inputs": [
        {
          "internalType": "bytes32",
          "name": "role",
          "type": "bytes32"
        },
        {
          "internalType": "address",
          "name": "account",
          "type": "address"
        }
      ],
      "name": "hasRole",
      "outputs": [
        {
          "internalType": "bool",
          "name": "",
          "type": "bool"
        }
      ],
      "stateMutability": "view",
      "type": "function"
    },
    {
      "inputs": [
        {
          "internalType": "address",
          "name": "_treasury",
          "type": "address"
        },
        {
          "internalType": "address",
          "name": "_mainSafe",
          "type": "address"
        },
        {
          "internalType": "address",
          "name": "_opsSafe",
          "type": "address"
        },
        {
          "internalType": "address",
          "name": "_botExecutor",
          "type": "address"
        },
        {
          "internalType": "address",
          "name": "_saleContract",
          "type": "address"
        }
      ],
      "name": "initialize",
      "outputs": [],
      "stateMutability": "nonpayable",
      "type": "function"
    },
    {
      "inputs": [],
      "name": "isCapImmutable",
      "outputs": [
        {
          "internalType": "bool",
          "name": "",
          "type": "bool"
        }
      ],
      "stateMutability": "pure",
      "type": "function"
    },
    {
      "inputs": [
        {
          "internalType": "address",
          "name": "tlMain",
          "type": "address"
        },
        {
          "internalType": "address",
          "name": "tlUpg",
          "type": "address"
        },
        {
          "internalType": "address",
          "name": "mainSafe",
          "type": "address"
        }
      ],
      "name": "migrateRoles",
      "outputs": [],
      "stateMutability": "nonpayable",
      "type": "function"
    },
    {
      "inputs": [],
      "name": "migrated",
      "outputs": [
        {
          "internalType": "bool",
          "name": "",
          "type": "bool"
        }
      ],
      "stateMutability": "view",
      "type": "function"
    },
    {
      "inputs": [
        {
          "internalType": "address",
          "name": "to",
          "type": "address"
        },
        {
          "internalType": "uint256",
          "name": "amount",
          "type": "uint256"
        }
      ],
      "name": "mint",
      "outputs": [],
      "stateMutability": "nonpayable",
      "type": "function"
    },
    {
      "inputs": [],
      "name": "name",
      "outputs": [
        {
          "internalType": "string",
          "name": "",
          "type": "string"
        }
      ],
      "stateMutability": "view",
      "type": "function"
    },
    {
      "inputs": [
        {
          "internalType": "address",
          "name": "owner",
          "type": "address"
        }
      ],
      "name": "nonces",
      "outputs": [
        {
          "internalType": "uint256",
          "name": "",
          "type": "uint256"
        }
      ],
      "stateMutability": "view",
      "type": "function"
    },
    {
      "inputs": [],
      "name": "pause",
      "outputs": [],
      "stateMutability": "nonpayable",
      "type": "function"
    },
    {
      "inputs": [],
      "name": "paused",
      "outputs": [
        {
          "internalType": "bool",
          "name": "",
          "type": "bool"
        }
      ],
      "stateMutability": "view",
      "type": "function"
    },
    {
      "inputs": [
        {
          "internalType": "address",
          "name": "owner",
          "type": "address"
        },
        {
          "internalType": "address",
          "name": "spender",
          "type": "address"
        },
        {
          "internalType": "uint256",
          "name": "value",
          "type": "uint256"
        },
        {
          "internalType": "uint256",
          "name": "deadline",
          "type": "uint256"
        },
        {
          "internalType": "uint8",
          "name": "v",
          "type": "uint8"
        },
        {
          "internalType": "bytes32",
          "name": "r",
          "type": "bytes32"
        },
        {
          "internalType": "bytes32",
          "name": "s",
          "type": "bytes32"
        }
      ],
      "name": "permit",
      "outputs": [],
      "stateMutability": "nonpayable",
      "type": "function"
    },
    {
      "inputs": [],
      "name": "proxiableUUID",
      "outputs": [
        {
          "internalType": "bytes32",
          "name": "",
          "type": "bytes32"
        }
      ],
      "stateMutability": "view",
      "type": "function"
    },
    {
      "inputs": [
        {
          "internalType": "contract IERC20",
          "name": "token",
          "type": "address"
        },
        {
          "internalType": "address",
          "name": "to",
          "type": "address"
        },
        {
          "internalType": "uint256",
          "name": "amount",
          "type": "uint256"
        }
      ],
      "name": "recoverERC20",
      "outputs": [],
      "stateMutability": "nonpayable",
      "type": "function"
    },
    {
      "inputs": [
        {
          "internalType": "address payable",
          "name": "to",
          "type": "address"
        },
        {
          "internalType": "uint256",
          "name": "amount",
          "type": "uint256"
        }
      ],
      "name": "recoverETH",
      "outputs": [],
      "stateMutability": "nonpayable",
      "type": "function"
    },
    {
      "inputs": [
        {
          "internalType": "bytes32",
          "name": "role",
          "type": "bytes32"
        },
        {
          "internalType": "address",
          "name": "callerConfirmation",
          "type": "address"
        }
      ],
      "name": "renounceRole",
      "outputs": [],
      "stateMutability": "nonpayable",
      "type": "function"
    },
    {
      "inputs": [
        {
          "internalType": "bytes32",
          "name": "role",
          "type": "bytes32"
        },
        {
          "internalType": "address",
          "name": "account",
          "type": "address"
        }
      ],
      "name": "revokeRole",
      "outputs": [],
      "stateMutability": "nonpayable",
      "type": "function"
    },
    {
      "inputs": [
        {
          "internalType": "bytes4",
          "name": "interfaceId",
          "type": "bytes4"
        }
      ],
      "name": "supportsInterface",
      "outputs": [
        {
          "internalType": "bool",
          "name": "",
          "type": "bool"
        }
      ],
      "stateMutability": "view",
      "type": "function"
    },
    {
      "inputs": [],
      "name": "symbol",
      "outputs": [
        {
          "internalType": "string",
          "name": "",
          "type": "string"
        }
      ],
      "stateMutability": "view",
      "type": "function"
    },
    {
      "inputs": [],
      "name": "totalSupply",
      "outputs": [
        {
          "internalType": "uint256",
          "name": "",
          "type": "uint256"
        }
      ],
      "stateMutability": "view",
      "type": "function"
    },
    {
      "inputs": [
        {
          "internalType": "address",
          "name": "to",
          "type": "address"
        },
        {
          "internalType": "uint256",
          "name": "value",
          "type": "uint256"
        }
      ],
      "name": "transfer",
      "outputs": [
        {
          "internalType": "bool",
          "name": "",
          "type": "bool"
        }
      ],
      "stateMutability": "nonpayable",
      "type": "function"
    },
    {
      "inputs": [
        {
          "internalType": "address",
          "name": "from",
          "type": "address"
        },
        {
          "internalType": "address",
          "name": "to",
          "type": "address"
        },
        {
          "internalType": "uint256",
          "name": "value",
          "type": "uint256"
        }
      ],
      "name": "transferFrom",
      "outputs": [
        {
          "internalType": "bool",
          "name": "",
          "type": "bool"
        }
      ],
      "stateMutability": "nonpayable",
      "type": "function"
    },
    {
      "inputs": [],
      "name": "treasury",
      "outputs": [
        {
          "internalType": "address",
          "name": "",
          "type": "address"
        }
      ],
      "stateMutability": "view",
      "type": "function"
    },
    {
      "inputs": [],
      "name": "unpause",
      "outputs": [],
      "stateMutability": "nonpayable",
      "type": "function"
    },
    {
      "inputs": [
        {
          "internalType": "address",
          "name": "_treasury",
          "type": "address"
        }
      ],
      "name": "updateTreasury",
      "outputs": [],
      "stateMutability": "nonpayable",
      "type": "function"
    },
    {
      "inputs": [
        {
          "internalType": "address",
          "name": "newImplementation",
          "type": "address"
        },
        {
          "internalType": "bytes",
          "name": "data",
          "type": "bytes"
        }
      ],
      "name": "upgradeToAndCall",
      "outputs": [],
      "stateMutability": "payable",
      "type": "function"
    },
    {
      "stateMutability": "payable",
      "type": "receive"
    }
  ],
  "bytecode": "0x60a08060405234620000d157306080527ff0c57e16840df040f15088dc2f81fe391c3923bec73e23a9662efc9c229c6a009081549060ff8260401c16620000c257506001600160401b036002600160401b0319828216016200007c575b604051613aad9081620000d78239608051818181610cc60152610dab0152f35b6001600160401b031990911681179091556040519081527fc7f505b2f371ae2175ee4913f4499e1f2633a7b5936321eed1cdaeb6115181d290602090a13880806200005c565b63f92ee8a960e01b8152600490fd5b600080fdfe608080604052600436101561001d575b50361561001b57600080fd5b005b60003560e01c90816301ffc9a7146126715750806306fdde03146125c7578063095ea7b3146125a15780630b06806a146125665780631171bda9146124155780631459457a1461169c57806318160ddd1461165f57806323b872dd1461157a578063248a9ca31461153e5780632c678c64146115185780632f2ff15d146114cc578063313ce567146114b057806331993a1c1461148757806332cb6b0c14611461578063355274ea146114615780633644e5151461143e57806336568abe146113f75780633e0c0629146112d45780633f4ba83a146111ee57806340c10f1914610fe857806342275c5914610fad5780634f1ef28614610d3057806352d1902d14610cb35780635c975abb14610c8357806361d027b314610c5a57806370a0823114610c135780637455202e14610bea5780637ecebe0014610b915780637f51bb1f14610aaf578063809c585c14610a935780638456cb591461096f57806384b0196e1461081357806391d14854146107b957806395d89b41146106d8578063a217fddf146106bc578063a9059cbb1461068b578063ad3cb1cc14610641578063d505accf146104b6578063d53913931461047b578063d547741f1461042f578063dd62ed3e146103e6578063ed686a0c146102315763f72c0d8b14610203573861000f565b3461022c57600036600319011261022c5760206040516000805160206139188339815191528152f35b600080fd5b3461022c57606036600319011261022c5761024a61271e565b610252612734565b61025a61274a565b90610263612b93565b60ff60005460a01c166103ae576001600160a01b038381169290831561037157821693841561032c576102f2926102be6102ce926102a330881415612af3565b6102af30891415612af3565b6102b881612c30565b50612cbe565b506102c881612d5c565b50612df4565b506102d881613229565b506102e2816132b0565b506102ec81613346565b506133dc565b506000805460ff60a01b1916600160a01b1781557f5db8a0f9f45a2b5a19ae3df073ffaa88502e813e3157ce52dfd37d1d612314cb9080a3005b60405162461bcd60e51b815260206004820152601860248201527f496e76616c696420757067726164652074696d656c6f636b00000000000000006044820152606490fd5b60405162461bcd60e51b8152602060048201526015602482015274496e76616c6964206d61696e2074696d656c6f636b60581b6044820152606490fd5b60405162461bcd60e51b815260206004820152601060248201526f105b1c9958591e481b5a59dc985d195960821b6044820152606490fd5b3461022c57604036600319011261022c576103ff61271e565b61041061040a612734565b91612aba565b9060018060a01b03166000526020526020604060002054604051908152f35b3461022c57604036600319011261022c5761001b60043561044e612734565b9080600052600080516020613958833981519152602052610476600160406000200154612bcd565b613472565b3461022c57600036600319011261022c5760206040517f9f2df0fed2c77648de5860a4cc508cd0818c85b8b8a1ab4ceeef8d981c8956a68152f35b3461022c5760e036600319011261022c576104cf61271e565b6104d7612734565b60443590606435926084359360ff8516850361022c578042116106295760018060a01b039081831695866000527f5ab42ced628888259c08ac98db1eb0cf702fc1501344311d8b100cd1bfe4bb006020526040600020908154916001830190556040519260208401927f6e71edae12b1b97f4d1f60370fef10105fa2faae0126114a169c64845d6126c98452896040860152858816606086015288608086015260a085015260c084015260c0835260e08301918383106001600160401b03841117610613576105e2936105d9936040525190206105b261359b565b906040519161190160f01b83526002830152602282015260c43591604260a4359220613610565b909291926136a0565b168481036105f5575061001b935061350e565b60449085604051916325c0072360e11b835260048301526024820152fd5b634e487b7160e01b600052604160045260246000fd5b6024906040519063313c898160e11b82526004820152fd5b3461022c57600036600319011261022c5761068760405161066181612760565b60058152640352e302e360dc1b60208201526040519182916020835260208301906126de565b0390f35b3461022c57604036600319011261022c576106b16106a761271e565b60243590336130ff565b602060405160018152f35b3461022c57600036600319011261022c57602060405160008152f35b3461022c57600036600319011261022c576040516000805160206138d88339815191528054826000610709836127b7565b928383526020946001918660018216918260001461079757505060011461074d575b50506107399250038361277b565b6106876040519282849384528301906126de565b8592506000526000805160206139b8833981519152906000915b85831061077f5750506107399350820101858061072b565b80548389018501528794508693909201918101610767565b925093505061073994915060ff191682840152151560051b820101858061072b565b3461022c57604036600319011261022c576107d2612734565b60043560005260008051602061395883398151915260205260406000209060018060a01b0316600052602052602060ff604060002054166040519015158152f35b3461022c57600036600319011261022c577fa16a46d94261c7517cc8ff89f61c0ce93598e3c849801011dee649a6a557d100541580610946575b156109095761085a6127f1565b6108626128b7565b6040516020808201928284106001600160401b03851117610613579160206108bc85946108ae979660405260008452604051978897600f60f81b895260e0858a015260e08901906126de565b9087820360408901526126de565b91466060870152306080870152600060a087015285830360c0870152519182815201929160005b8281106108f257505050500390f35b8351855286955093810193928101926001016108e3565b60405162461bcd60e51b81526020600482015260156024820152741152540dcc4c8e88155b9a5b9a5d1a585b1a5e9959605a1b6044820152606490fd5b507fa16a46d94261c7517cc8ff89f61c0ce93598e3c849801011dee649a6a557d101541561084d565b3461022c57600036600319011261022c573360009081527fd17a96b5ab97baeb5abd2aff3d879f3ae21bdf0a88374ff422ddd156525d2a07602090815260409091205460ff166000805160206139588339815191528115610a51575b5015610a1e577f62e78cea01bee320cd4e420270b5ea74000d11b0c9f74754ebdbfc544b05a258906109fb6134e3565b600080516020613998833981519152805460ff19166001179055604051338152a1005b6064906040519062461bcd60e51b82526004820152600c60248201526b155b985d5d1a1bdc9a5e995960a21b6044820152fd5b90507fbf8b034af7a434c44d9299a66a1071085478bb9a7fdc1f0ebcb5d36dc76f02b26000528152604060002033600052815260ff60406000205416826109cb565b3461022c57600036600319011261022c57602060405160018152f35b3461022c57602036600319011261022c57610ac861271e565b610ad0612b93565b6001600160a01b0390811690610ae78215156129cf565b610af330831415612a0e565b60005490811690818314610b38576001600160a01b031916821760009081557f4ab5be82436d353e61ca18726e984e561f5c1cc7c6d38b29d2553c790434705a9080a3005b60405162461bcd60e51b815260206004820152602b60248201527f4e6577207472656173757279206d75737420626520646966666572656e74206660448201526a1c9bdb4818dd5c9c995b9d60aa1b6064820152608490fd5b3461022c57602036600319011261022c576001600160a01b03610bb261271e565b166000527f5ab42ced628888259c08ac98db1eb0cf702fc1501344311d8b100cd1bfe4bb006020526020604060002054604051908152f35b3461022c57600036600319011261022c576020604051600080516020613a588339815191528152f35b3461022c57602036600319011261022c576001600160a01b03610c3461271e565b166000526000805160206138988339815191526020526020604060002054604051908152f35b3461022c57600036600319011261022c576000546040516001600160a01b039091168152602090f35b3461022c57600036600319011261022c57602060ff60008051602061399883398151915254166040519015158152f35b3461022c57600036600319011261022c577f00000000000000000000000000000000000000000000000000000000000000006001600160a01b03163003610d1e5760206040517f360894a13ba1a3210667c828492db98dca3e2076cc3735a920a3ca505d382bbc8152f35b60405163703e46dd60e11b8152600490fd5b604036600319011261022c57610d4461271e565b60249081356001600160401b03811161022c573660238201121561022c57806004013591610d718361279c565b610d7e604051918261277b565b838152602093848201933687838301011161022c5781600092888893018737830101526001600160a01b037f00000000000000000000000000000000000000000000000000000000000000008116308114908115610f7f575b50610d1e57600080516020613918833981519152806000526000805160206139588339815191528652604060002033600052865260ff6040600020541615610f6257506040516352d1902d60e01b8152908316948082600481895afa918291600093610f32575b5050610e5c57604051634c9c8ce360e01b8152600481018690528690fd5b8490867f360894a13ba1a3210667c828492db98dca3e2076cc3735a920a3ca505d382bbc91828103610f1d5750843b15610f07575080546001600160a01b03191682179055604051907fbc7cd75a20ee27fd9adebab32041f755214dbc6bffa90cc0225b39da2e5c2d3b600080a2815115610eed5750600061001b9381925190845af4610ee7612a8a565b916137d4565b9250505034610ef857005b63b398979f60e01b8152600490fd5b604051634c9c8ce360e01b815260048101849052fd5b60405190632a87526960e21b82526004820152fd5b9080929350813d8311610f5b575b610f4a818361277b565b8101031261022c5751908780610e3e565b503d610f40565b866044916040519163e2517d3f60e01b8352336004840152820152fd5b9050817f360894a13ba1a3210667c828492db98dca3e2076cc3735a920a3ca505d382bbc5416141587610dd7565b3461022c57600036600319011261022c5760206040517f365fccb66c62533ad1447fec73f7b764cf03ac69d512070f7c0aa889025cec198152f35b3461022c57604036600319011261022c5761100161271e565b3360009081527f549fe2656c81d2947b3b913f0a53b9ea86c71e049f3a1b8aa23c09a8a05cb8d460209081526040909120546024928335917f9f2df0fed2c77648de5860a4cc508cd0818c85b8b8a1ab4ceeef8d981c8956a69060ff16156111d1575061106c6134e3565b611074612c00565b6001600160a01b031690811561119657801561115d577f52c63247e1f47db19d5ce0460030c497f067ca4cebf71ba98eeadabe20bace0292835490828201809211611148576000927fddf252ad1be2c89b69c2b068fc378daa952ba7f163c4a11628f55a4df523b3ef928655848452600080516020613898833981519152825260408420818154019055604051908152a354676765c793fa10079d601b1b80821161112d5760016000805160206139d883398151915255005b6044926040519263279e7e1560e21b84526004840152820152fd5b85634e487b7160e01b60005260116004526000fd5b60405162461bcd60e51b815260048101849052601281860152710416d6f756e74206d757374206265203e20360741b6044820152606490fd5b60405162461bcd60e51b815260048101849052601481860152734d696e7420746f207a65726f206164647265737360601b6044820152606490fd5b846044916040519163e2517d3f60e01b8352336004840152820152fd5b3461022c57600036600319011261022c573360009081527fd17a96b5ab97baeb5abd2aff3d879f3ae21bdf0a88374ff422ddd156525d2a0760205260409020547f365fccb66c62533ad1447fec73f7b764cf03ac69d512070f7c0aa889025cec199060ff16156112b657600080516020613998833981519152805460ff8116156112a45760ff191690557f5db9ee0a495bf2e6ff9c91a7834c1ba4fdd244a5e8aa4e537bd38aeae4b073aa6020604051338152a1005b604051638dfc202b60e01b8152600490fd5b6044906040519063e2517d3f60e01b82523360048301526024820152fd5b3461022c57604036600319011261022c576004356001600160a01b0381169081900361022c57602435611305612b49565b61130d612c00565b611318821515612954565b611323811515612992565b8047106113bb57600080808084865af161133b612a8a565b50156113805760207f05af21d7340bf49fde03a32c3bcc785015c94acd83531fc6dfbfb93a24c364ca91604051908152a260016000805160206139d883398151915255005b60405162461bcd60e51b8152602060048201526013602482015272115512081d1c985b9cd9995c8819985a5b1959606a1b6044820152606490fd5b60405162461bcd60e51b8152602060048201526014602482015273496e73756666696369656e742062616c616e636560601b6044820152606490fd5b3461022c57604036600319011261022c57611410612734565b336001600160a01b0382160361142c5761001b90600435613472565b60405163334bd91960e11b8152600490fd5b3461022c57600036600319011261022c57602061145961359b565b604051908152f35b3461022c57600036600319011261022c576020604051676765c793fa10079d601b1b8152f35b3461022c57600036600319011261022c5760206040516000805160206139f88339815191528152f35b3461022c57600036600319011261022c57602060405160128152f35b3461022c57604036600319011261022c5761001b6004356114eb612734565b9080600052600080516020613958833981519152602052611513600160406000200154612bcd565b61308a565b3461022c57600036600319011261022c57602060ff60005460a01c166040519015158152f35b3461022c57602036600319011261022c576004356000526000805160206139588339815191526020526020600160406000200154604051908152f35b3461022c57606036600319011261022c5761159361271e565b61159b612734565b604435906115a883612aba565b336000526020526040600020549260001984106115ca575b6106b193506130ff565b828410611639576001600160a01b0381161561162057331561160757826106b1946115f483612aba565b33600052602052036040600020556115c0565b604051634a1406b160e11b815260006004820152602490fd5b60405163e602df0560e01b815260006004820152602490fd5b604051637dc7a0d960e11b81523360048201526024810185905260448101849052606490fd5b3461022c57600036600319011261022c5760207f52c63247e1f47db19d5ce0460030c497f067ca4cebf71ba98eeadabe20bace0254604051908152f35b3461022c5760a036600319011261022c576116b561271e565b6116bd612734565b6116c561274a565b606480356001600160a01b038116939192919084900361022c576084356001600160a01b0381169081900361022c57600080516020613a1883398151915254946001600160401b03861680159081612405575b60011490816123fb575b1590816123f2575b506123e05760016001600160401b0319871617600080516020613a188339815191525560ff8660401c16156123b3575b61176e6001600160a01b03881615156129cf565b6001600160a01b038316801561237b576001600160a01b0385169081156123445782156123095783156122cd576117b06001600160a01b038a16301415612a0e565b301461227e5730146122305730146121de57301461218b576117d0612a64565b604051906117dd82612760565b6005825264244e45424160d81b60208301526117f761356c565b6117ff61356c565b8051906001600160401b03821161061357819061182a600080516020613878833981519152546127b7565b601f811161210a575b50602090601f83116001146120785760009261206d575b50508160011b916000199060031b1c191617600080516020613878833981519152555b8051906001600160401b0382116106135781906118986000805160206138d8833981519152546127b7565b601f8111611fec575b50602090601f8311600114611f5a57600092611f4f575b50508160011b916000199060031b1c1916176000805160206138d8833981519152555b6118e361356c565b6118eb61356c565b676765c793fa10079d601b1b7f0f070392f17d5f958cc1ac31867dabecfc5c9758b4a419a200803226d7155d0055611921612a64565b9461192a61356c565b6040519561193787612760565b60018752603160f81b602088015261194d61356c565b8051906001600160401b0382116106135781906119786000805160206138b8833981519152546127b7565b601f8111611ece575b50602090601f8311600114611e3c57600092611e31575b50508160011b916000199060031b1c1916176000805160206138b8833981519152555b85516001600160401b038111610613576119e36000805160206138f8833981519152546127b7565b601f8111611dbb575b506020601f8211600114611d1f579181611b8a959492611b7894611b91999a600092611d14575b50508160011b916000199060031b1c1916176000805160206138f8833981519152555b60007fa16a46d94261c7517cc8ff89f61c0ce93598e3c849801011dee649a6a557d1005560007fa16a46d94261c7517cc8ff89f61c0ce93598e3c849801011dee649a6a557d10155611a8661356c565b611a8e61356c565b611a9661356c565b611a9e61356c565b611aa661356c565b60016000805160206139d88339815191525560018060a01b03166bffffffffffffffffffffffff60a01b6000541617600055611ae181612c30565b50611aeb81612cbe565b5060008051602061391883398151915280600052600080516020613958833981519152602052600160406000200190815491600080516020613a5883398151915292838092557fbd79b86ffe0ab8e8776151514217cd7cacd52c909f66475c3af44e129f0b00ff9283600080a481600052816001604060002001918183549355600080a46102c881612d5c565b50611b84608435612e8c565b50612f36565b5035612fe0565b506000546001600160a01b03168015611cfb577f52c63247e1f47db19d5ce0460030c497f067ca4cebf71ba98eeadabe20bace02908154676765c793fa10079d601b1b8101809111611ce5578255806000526000805160206138988339815191526020526040600020676765c793fa10079d601b1b815401905560007fddf252ad1be2c89b69c2b068fc378daa952ba7f163c4a11628f55a4df523b3ef6020604051676765c793fa10079d601b1b8152a354676765c793fa10079d601b1b8111611cbc5760ff8260401c1615611c6357005b68ff000000000000000019600080516020613a188339815191525416600080516020613a18833981519152557fc7f505b2f371ae2175ee4913f4499e1f2633a7b5936321eed1cdaeb6115181d2602060405160018152a1005b6044906040519063279e7e1560e21b82526004820152676765c793fa10079d601b1b6024820152fd5b634e487b7160e01b600052601160045260246000fd5b60405163ec442f0560e01b815260006004820152602490fd5b015190508a80611a13565b6000805160206138f8833981519152600052600080516020613a388339815191529760005b601f1984168110611da3575082611b919899611b789593600193611b8a999896601f19811610611d8a575b505050811b016000805160206138f883398151915255611a36565b015160001960f88460031b161c191690558a8080611d6f565b828201518a5560019099019860209283019201611d44565b6000805160206138f8833981519152600052601f820160051c600080516020613a388339815191520160208310611e1c575b601f820160051c600080516020613a38833981519152018110611e1057506119ec565b60008155600101611ded565b50600080516020613a38833981519152611ded565b015190508880611998565b92506000805160206138b8833981519152600052600080516020613938833981519152906000935b601f1984168510611eb3576001945083601f19811610611e9a575b505050811b016000805160206138b8833981519152556119bb565b015160001960f88460031b161c19169055888080611e7f565b81810151835560209485019460019093019290910190611e64565b9091506000805160206138b8833981519152600052601f830160051c6000805160206139388339815191520160208410611f3a575b908392915b601f820160051c600080516020613938833981519152018110611f2b5750611981565b60008155849350600101611f08565b50600080516020613938833981519152611f03565b0151905087806118b8565b92506000805160206138d88339815191526000526000805160206139b8833981519152906000935b601f1984168510611fd1576001945083601f19811610611fb8575b505050811b016000805160206138d8833981519152556118db565b015160001960f88460031b161c19169055878080611f9d565b81810151835560209485019460019093019290910190611f82565b9091506000805160206138d8833981519152600052601f830160051c6000805160206139b88339815191520160208410612058575b908392915b601f820160051c6000805160206139b883398151915201811061204957506118a1565b60008155849350600101612026565b506000805160206139b8833981519152612021565b01519050888061184a565b9250600080516020613878833981519152600052600080516020613858833981519152906000935b601f19841685106120ef576001945083601f198116106120d6575b505050811b016000805160206138788339815191525561186d565b015160001960f88460031b161c191690558880806120bb565b818101518355602094850194600190930192909101906120a0565b909150600080516020613878833981519152600052601f830160051c6000805160206138588339815191520160208410612176575b908392915b601f820160051c6000805160206138588339815191520181106121675750611833565b60008155849350600101612144565b5060008051602061385883398151915261213f565b60405162461bcd60e51b815260206004820152602660248201527f53616c6520636f6e74726163742063616e6e6f7420626520746f6b656e20636f6044820152651b9d1c9858dd60d21b81850152608490fd5b60405162461bcd60e51b815260206004820152602560248201527f426f74206578656375746f722063616e6e6f7420626520746f6b656e20636f6e6044820152641d1c9858dd60da1b81860152608490fd5b60405162461bcd60e51b815260206004820152602160248201527f4f707320736166652063616e6e6f7420626520746f6b656e20636f6e747261636044820152601d60fa1b81870152608490fd5b60405162461bcd60e51b815260206004820152602260248201527f4d61696e20736166652063616e6e6f7420626520746f6b656e20636f6e74726160448201526118dd60f21b81880152608490fd5b60405162461bcd60e51b8152602060048201526015602482015274125b9d985b1a59081cd85b194818dbdb9d1c9858dd605a1b60448201528790fd5b60405162461bcd60e51b815260206004820152601460248201527324b73b30b634b2103137ba1032bc32b1baba37b960611b60448201528790fd5b60405162461bcd60e51b815260206004820152601060248201526f496e76616c6964206f7073207361666560801b60448201528790fd5b60405162461bcd60e51b8152602060048201526011602482015270496e76616c6964206d61696e207361666560781b60448201528690fd5b68ffffffffffffffffff1986166801000000000000000117600080516020613a188339815191525561175a565b60405163f92ee8a960e01b8152600490fd5b9050158861172a565b303b159150611722565b604088901c60ff16159150611718565b3461022c57606036600319011261022c576001600160a01b036004358181169081900361022c57612444612734565b9160443592612451612b49565b612459612c00565b30831461252b57169161246d831515612954565b612478811515612992565b60405163a9059cbb60e01b81528360048201528160248201526020816044816000875af1801561251f576124e7575b5060207f879f92dded0f26b83c3e00b12e0395dc72cfc3077343d1854ed6988edd1f909691604051908152a360016000805160206139d883398151915255005b6020813d602011612517575b816125006020938361277b565b8101031261022c57518015150361022c57836124a7565b3d91506124f3565b6040513d6000823e3d90fd5b60405162461bcd60e51b815260206004820152601360248201527243616e6e6f74207265636f766572204e45424160681b6044820152606490fd5b3461022c57600036600319011261022c5760206040517fbf8b034af7a434c44d9299a66a1071085478bb9a7fdc1f0ebcb5d36dc76f02b28152f35b3461022c57604036600319011261022c576106b16125bd61271e565b602435903361350e565b3461022c57600036600319011261022c5760405160008051602061387883398151915280548260006125f8836127b7565b92838352602094600191866001821691826000146107975750506001146126275750506107399250038361277b565b859250600052600080516020613858833981519152906000915b8583106126595750506107399350820101858061072b565b80548389018501528794508693909201918101612641565b3461022c57602036600319011261022c576004359063ffffffff60e01b821680920361022c576020916340c10f1960e01b81149081156126b3575b5015158152f35b637965db0b60e01b8114915081156126cd575b50836126ac565b6301ffc9a760e01b149050836126c6565b919082519283825260005b84811061270a575050826000602080949584010152601f8019910116010190565b6020818301810151848301820152016126e9565b600435906001600160a01b038216820361022c57565b602435906001600160a01b038216820361022c57565b604435906001600160a01b038216820361022c57565b604081019081106001600160401b0382111761061357604052565b90601f801991011681019081106001600160401b0382111761061357604052565b6001600160401b03811161061357601f01601f191660200190565b90600182811c921680156127e7575b60208310146127d157565b634e487b7160e01b600052602260045260246000fd5b91607f16916127c6565b604051906000826000805160206138b883398151915291825492612814846127b7565b808452936020916001918281169081156128915750600114612842575b5050506128409250038361277b565b565b60009081526000805160206139388339815191529590935091905b8284106128795750612840945050508101602001388080612831565b8554888501830152948501948794509281019261285d565b925050506020925061284094915060ff191682840152151560051b820101388080612831565b604051906000826000805160206138f8833981519152918254926128da846127b7565b808452936020916001918281169081156128915750600114612905575050506128409250038361277b565b6000908152600080516020613a388339815191529590935091905b82841061293c5750612840945050508101602001388080612831565b85548885018301529485019487945092810192612920565b1561295b57565b60405162461bcd60e51b815260206004820152600f60248201526e496e76616c6964206164647265737360881b6044820152606490fd5b1561299957565b60405162461bcd60e51b815260206004820152600e60248201526d125b9d985b1a5908185b5bdd5b9d60921b6044820152606490fd5b156129d657565b60405162461bcd60e51b815260206004820152601060248201526f496e76616c696420747265617375727960801b6044820152606490fd5b15612a1557565b60405162461bcd60e51b815260206004820152602160248201527f54726561737572792063616e6e6f7420626520746f6b656e20636f6e747261636044820152601d60fa1b6064820152608490fd5b60405190612a7182612760565b600a8252692722a120902a37b5b2b760b11b6020830152565b3d15612ab5573d90612a9b8261279c565b91612aa9604051938461277b565b82523d6000602084013e565b606090565b6001600160a01b031660009081527f52c63247e1f47db19d5ce0460030c497f067ca4cebf71ba98eeadabe20bace016020526040902090565b15612afa57565b60405162461bcd60e51b815260206004820152602160248201527f54696d656c6f636b2063616e6e6f7420626520746f6b656e20636f6e747261636044820152601d60fa1b6064820152608490fd5b3360009081527f0be278f4ad0972113a7bd5492b4cd8a33cafc699350ac844c18227cd07e8a09d60205260409020546000805160206139f88339815191529060ff16156112b65750565b3360009081527fb7db2dd08fcb62d0c9e08c51941cae53c267786a0b75803fb7960902fc8ef97d602052604081205460ff16156112b65750565b8060005260008051602061395883398151915260205260406000203360005260205260ff60406000205416156112b65750565b6000805160206139d88339815191526002815414612c1e5760029055565b604051633ee5aeb560e01b8152600490fd5b6001600160a01b031660008181527fb7db2dd08fcb62d0c9e08c51941cae53c267786a0b75803fb7960902fc8ef97d60205260408120549091906000805160206139588339815191529060ff16612cb9578280526020526040822081835260205260408220600160ff1982541617905533916000805160206138388339815191528180a4600190565b505090565b6001600160a01b031660008181527f0be278f4ad0972113a7bd5492b4cd8a33cafc699350ac844c18227cd07e8a09d60205260408120549091906000805160206139f8833981519152906000805160206139588339815191529060ff16612d56578184526020526040832082845260205260408320600160ff19825416179055600080516020613838833981519152339380a4600190565b50505090565b6001600160a01b031660008181527f1dd8da7456500296e75257d3f7b15f593a25957ea0a2cfbc125d925064c644146020526040812054909190600080516020613a58833981519152906000805160206139588339815191529060ff16612d56578184526020526040832082845260205260408320600160ff19825416179055600080516020613838833981519152339380a4600190565b6001600160a01b031660008181527fab71e3f32666744d246edff3f96e4bdafee2e9867098cdd118a979a7464786a86020526040812054909190600080516020613918833981519152906000805160206139588339815191529060ff16612d56578184526020526040832082845260205260408320600160ff19825416179055600080516020613838833981519152339380a4600190565b6001600160a01b031660008181527f549fe2656c81d2947b3b913f0a53b9ea86c71e049f3a1b8aa23c09a8a05cb8d460205260408120549091907f9f2df0fed2c77648de5860a4cc508cd0818c85b8b8a1ab4ceeef8d981c8956a6906000805160206139588339815191529060ff16612d56578184526020526040832082845260205260408320600160ff19825416179055600080516020613838833981519152339380a4600190565b6001600160a01b031660008181527fd17a96b5ab97baeb5abd2aff3d879f3ae21bdf0a88374ff422ddd156525d2a0760205260408120549091907f365fccb66c62533ad1447fec73f7b764cf03ac69d512070f7c0aa889025cec19906000805160206139588339815191529060ff16612d56578184526020526040832082845260205260408320600160ff19825416179055600080516020613838833981519152339380a4600190565b6001600160a01b031660008181527f95dda6c6f31ea0c92078aaca3a510dc395bc467e87b1d2be7f9e24c15aaff99a60205260408120549091907fbf8b034af7a434c44d9299a66a1071085478bb9a7fdc1f0ebcb5d36dc76f02b2906000805160206139588339815191529060ff16612d56578184526020526040832082845260205260408320600160ff19825416179055600080516020613838833981519152339380a4600190565b9060009180835260008051602061395883398151915280602052604084209260018060a01b03169283855260205260ff60408520541615600014612d56578184526020526040832082845260205260408320600160ff19825416179055600080516020613838833981519152339380a4600190565b916001600160a01b038084169283156132105716928315611cfb5760ff60008051602061399883398151915254166131d2576000908382526000805160206138988339815191528060205260408320549184831061319f575082847fddf252ad1be2c89b69c2b068fc378daa952ba7f163c4a11628f55a4df523b3ef959360409388602097528652038282205586815220818154019055604051908152a3565b60405163391434e360e21b81526001600160a01b0391909116600482015260248101929092525060448101839052606490fd5b60405162461bcd60e51b8152602060048201526016602482015275151bdad95b881d1c985b9cd9995c9cc81c185d5cd95960521b6044820152606490fd5b604051634b637e8f60e11b815260006004820152602490fd5b6001600160a01b031660008181527fb7db2dd08fcb62d0c9e08c51941cae53c267786a0b75803fb7960902fc8ef97d60205260408120549091906000805160206139588339815191529060ff1615612cb957828052602052604082208183526020526040822060ff19815416905533916000805160206139788339815191528180a4600190565b6001600160a01b031660008181527f0be278f4ad0972113a7bd5492b4cd8a33cafc699350ac844c18227cd07e8a09d60205260408120549091906000805160206139f8833981519152906000805160206139588339815191529060ff1615612d5657818452602052604083208284526020526040832060ff198154169055600080516020613978833981519152339380a4600190565b6001600160a01b031660008181527f1dd8da7456500296e75257d3f7b15f593a25957ea0a2cfbc125d925064c644146020526040812054909190600080516020613a58833981519152906000805160206139588339815191529060ff1615612d5657818452602052604083208284526020526040832060ff198154169055600080516020613978833981519152339380a4600190565b6001600160a01b031660008181527fab71e3f32666744d246edff3f96e4bdafee2e9867098cdd118a979a7464786a86020526040812054909190600080516020613918833981519152906000805160206139588339815191529060ff1615612d5657818452602052604083208284526020526040832060ff198154169055600080516020613978833981519152339380a4600190565b9060009180835260008051602061395883398151915280602052604084209260018060a01b03169283855260205260ff604085205416600014612d5657818452602052604083208284526020526040832060ff198154169055600080516020613978833981519152339380a4600190565b60ff60008051602061399883398151915254166134fc57565b60405163d93c066560e01b8152600490fd5b916001600160a01b038084169283156116205716928315611607577f8c5be1e5ebec7d5bd14f71427d1e84f3dd0314c0f7b2291e5b200ac8c7c3b92591613556602092612aba565b85600052825280604060002055604051908152a3565b60ff600080516020613a188339815191525460401c161561358957565b604051631afcd79f60e31b8152600490fd5b6135a3613725565b6135ab61378f565b6040519060208201927f8b73c3c69bb8fe3d512ecc4cf759cc79239f7b179b0ffacaa9a75d522b39400f8452604083015260608201524660808201523060a082015260a0815260c081018181106001600160401b038211176106135760405251902090565b91907f7fffffffffffffffffffffffffffffff5d576e7357a4501ddfe92f46681b20a0841161369457926020929160ff608095604051948552168484015260408301526060820152600092839182805260015afa156136885780516001600160a01b0381161561367f57918190565b50809160019190565b604051903d90823e3d90fd5b50505060009160039190565b600481101561370f57806136b2575050565b600181036136cc5760405163f645eedf60e01b8152600490fd5b600281036136ed5760405163fce698f760e01b815260048101839052602490fd5b6003146136f75750565b602490604051906335e2f38360e21b82526004820152fd5b634e487b7160e01b600052602160045260246000fd5b61372d6127f1565b805190811561373d576020012090565b50507fa16a46d94261c7517cc8ff89f61c0ce93598e3c849801011dee649a6a557d10054801561376a5790565b507fc5d2460186f7233c927e7db2dcc703c0e500b653ca82273b7bfad8045d85a47090565b6137976128b7565b80519081156137a7576020012090565b50507fa16a46d94261c7517cc8ff89f61c0ce93598e3c849801011dee649a6a557d10154801561376a5790565b906137fb57508051156137e957602081519101fd5b60405163d6bda27560e01b8152600490fd5b8151158061382e575b61380c575090565b604051639996b31560e01b81526001600160a01b039091166004820152602490fd5b50803b1561380456fe2f8788117e7eff1d82e926ec794901d17c78024a50270940304540a733656f0d2ae08a8e29253f69ac5d979a101956ab8f8d9d7ded63fa7a83b16fc47648eab052c63247e1f47db19d5ce0460030c497f067ca4cebf71ba98eeadabe20bace0352c63247e1f47db19d5ce0460030c497f067ca4cebf71ba98eeadabe20bace00a16a46d94261c7517cc8ff89f61c0ce93598e3c849801011dee649a6a557d10252c63247e1f47db19d5ce0460030c497f067ca4cebf71ba98eeadabe20bace04a16a46d94261c7517cc8ff89f61c0ce93598e3c849801011dee649a6a557d103189ab7a9244df0848122154315af71fe140f3db0fe014031783b0946b8c9d2e342ad5d3e1f2e6e70edcf6d991b8a3023d3fca8047a131592f9edb9fd9b89d57d02dd7bc7dec4dceedda775e58dd541e08a116c6c53815c0bd028192f7b626800f6391f5c32d9c69d2a47ea670b442974b53935d1edc7fd64eb21e047a839171bcd5ed15c6e187e77e9aee88184c21f4f2182ab5827cb3b7e07fbedcd63f0330046a2803e59a4de4e7a4c574b1243f25977ac4c77d5a1a4a609b5394cebb4a2aa9b779b17422d0df92223018b32b4d1fa46e071723d6817e2486d003becc55f000acf805600123ef007091da3b3ffb39474074c656c127aa68cb0ffec232a8ff8f0c57e16840df040f15088dc2f81fe391c3923bec73e23a9662efc9c229c6a005f9ce34815f8e11431c7bb75a8e6886a91478f7ffc1dbb0a98dc240fddd76b753781c337e05128e8c89528ef09085e3903dce179df4f50758529e64cb759d09aa264697066735822122070035e0668cd07ec460f11462b9d702188ad4b862cfb612a2c9ecc70c715344f64736f6c63430008160033",
  "linkReferences": {},
  "deployedLinkReferences": {}
}